:1003CB00D5E3BDADB4F3D1A7B9E2B5E7D1A7D4BAA4
:1003DB0000B5E7D7D3CFDFC2B7C9E8BCC600383703
:1003EB0039353131393700D2BABEA7CFD4CABEB3F3
:1003FB00C9B9A600CFB5CDB3BDF8D0D0B0B4BCFC55
:10040B00BCECB2E2004B45595F56414C55453A3076
:10041B0031004B45595F56414C55453A3032004BF4
:10042B0045595F56414C55453A3033004B45595F62
:10043B0056414C55453A3034004B45595F56414C6B
:10044B0055453A3035004B45595F56414C55453A69
:10045B003036004B45595F56414C55453A303700C5
:10046B004B45595F56414C55453A3038004B455931
:10047B005F56414C55453A3039004B45595F564113
:10048B004C55453A3130004B45595F56414C55451B
:10049B003A3131004B45595F56414C55453A313253
:1004AB00004B45595F56414C55453A3133004B454E
:1004BB00595F56414C55453A3134004B45595F56BF
:1004CB00414C55453A3135004B45595F56414C55DA
:1004DB00453A313600CFB5CDB3BDF8D0D0D2F4C04C
:1004EB00D6B2A5B7C500506C6179696E67204D75A2
:1004FB0073696300CFB5CDB3BDF8D0D0B9E2F1EEDF
:10050B00BCECB2E200313AB8DF00313AB5CD003283
:10051B003AB8DF00323AB5CD00333AB8DF00333AA0
:10052B00B5CD00343AB8DF00343AB5CD00353AB822
:10053B00DF00353AB5CD00363AB8DF00363AB5CDE7
:10054B0000373AB8DF202000373AB5CD20200026FF
:10055B002020202020261020102080262030203024
:10056B00203910301030802620202020201C202005
:10057B00802B20262020202B1026102B802620308D
:10058B0020302039102610266040103910262030DC
:10059B0020302039102610268026202B102B102BD4
:1005AB00203010391026102B102B202B40402020F0
:1005BB001020102B102630308018201820262020D9
:1005CB0020204026202B20302030201C20202020D3
:1005DB00801C201C201C2030203060391030102053
:1005EB00202B1026102B10261026102B102B8018CA
:1005FB0020182026202020206026102B2030203091
:10060B00201C202020208026203010301030203954
:10061B002026102B102B202B404010401020102098
:08062B00102B10263030800076
:03000B00020D1CC7
:090D1C00758CDC758A0005243297
:10000E00E4F5C975CA3075B3C0F5B4F5B1F5B212E1
:10001E000BC7751EFF751F037520CB7B10E4FD7F8C
:10002E0001120AF1751EFF751F037520DC7B0C7D16
:10003E00017F02120AF1751EFF751F037520E97B01
:10004E00087D027F03120AF1751EFF751F037520CE
:10005E00F27B0C7D017F04120AF1120D25EF54F094
:10006E0064F0705A120CCFE4F5B3F5B4120BC775E9
:10007E001EFF751F037520CB7B10E4FD7F01120A56
:10008E00F1751EFF751F037520DC7B0C7D017F0251
:10009E00120AF1751EFF751F037520E97B087D029C
:1000AE007F03120AF1751EFF751F037520F27B0C7C
:1000BE007D017F04120AF17FC47E09120C8F120D8E
:1000CE0025EF30E7030202907590F0120BC7751EF4
:1000DE00FF751F037520FF7B10E4FD7F01120AF1EF
:1000EE00751EFF751F037520E97B087D027F0312C5
:1000FE000AF1751EFF751F037520CB7B10E4FD7F83
:10010E000402028A120D25EF30E703020068120C7A
:10011E00CFE59054F064F060EB7F647E00120C8F9C
:10012E00E59054F064F060DC1208478F25E5251247
:10013E00092701740B01860C01980D01AA0E01BC52
:10014E001501CE1601E01701F21802041F02152048
:10015E0002262102372202482902592A026A2B025C
:10016E007B2C00000112751EFF751F047520107B7D
:10017E000C7D017F0202028A751EFF751F04752019
:10018E001D7B0C7D017F0202028A751EFF751F0406
:10019E0075202A7B0C7D017F0202028A751EFF7577
:1001AE001F047520377B0C7D017F0202028A751EAB
:1001BE00FF751F047520447B0C7D017F0202028AAD
:1001CE00751EFF751F047520517B0C7D017F020289
:1001DE00028A751EFF751F0475205E7B0C7D017FE4
:1001EE000202028A751EFF751F0475206B7B0C7D43
:1001FE00017F0202028A751EFF751F047520787B2F
:10020E000C7D017F028075751EFF751F047520859C
:10021E007B0C7D017F028064751EFF751F047520A7
:10022E00927B0C7D017F028053751EFF751F047536
:10023E00209F7B0C7D017F028042751EFF751F047F
:10024E007520AC7B0C7D017F028031751EFF751F02
:10025E00047520B97B0C7D017F028020751EFF7511
:10026E001F047520C67B0C7D017F02800F751EFF5B
:10027E00751F047520D37B0C7D017F02120AF102DB
:10028E000112120D25EF20E659120CCF120BC77575
:10029E001EFF751F047520E07B10E4FD7F01120A1E
:1002AE00F1751EFF751F047520F17B0D7D017F0218
:1002BE00120AF1751EFF751F037520E97B087D027A
:1002CE007F03120AF1751EFF751F037520CB7B107D
:1002DE00E4FD7F04120AF1120CF8E4FF12094D023C
:1002EE000068120D25EF30E503020068120CCF7581
:1002FE001EFF751F047520FF7B10E4FD7F01120A9F
:10030E00F17580FFE5807BFF30E0067A057910807D
:10031E00047A057915751F027F90120B44E5807BD8
:10032E00FF30E1067A05791A80047A05791F751F68
:10033E00027F92120B44E5807BFF30E2067A05794C
:10034E002480047A057929751F027F94120B44E5E7
:10035E00807BFF30E3067A05792E80047A057933A7
:10036E00751F027F96120B44E5807BFF30E4067A00
:10037E0005793880047A05793D751F027F88120B46
:10038E0044E5807BFF30E5067A05794280047A05E4
:10039E007947751F027F8A120B44E5807BFF30E69A
:1003AE00067A05794C80047A057953751F037F8C84
:0D03BE00120B447FFA7E00120C8F020068C3
:0D0CF80075890175A882758CDCE4F58A22EF
:100CCF00E5C030E604D2CC8002C2CCE5C030E703E9
:060CDF00D2CD22C2CD229D
:10094D00E4F524EF75F0D9A485F01DF51E120D25E3
:10095D00EF20E65D051EE51EAE1D7002051D14247B
:10096D005AF58274053EF583E493F51BF4700AC2C3
:10097D008C7F64FE120C8F80D4E51B6036051EE55E
:10098D001EAE1D7002051D14245AF58274053EF528
:10099D0083E493F51CD28C120D25EF20E6AFB2C582
:1009AD00AF1B7E00120C8FE51CB524EBE4F5248003
:0309BD009CC2C514
:0109C0002214
:090D250075B0FFE5B054F0FF22A7
:10084700E4F51BF51C7590F0E59054F0FF54F06447
:10085700F07002FF2275900FE590540F4FF41209C4
:1008670027089C1108A81208B41408C018089F216B
:1008770008AB2208B72408C32808A24108AE4208DB
:10088700BA4408C64808A58108B18208BD8408C9CA
:1008970088000008CC7F0B227F0C227F0D227F0E61
:1008A700227F15227F16227F17227F18227F1F2281
:1008B7007F20227F21227F22227F29227F2A227FD7
:0708C7002B227F2C227F0091
:0108CE002207
:100C8F00E4FDFCC3ED9FEC9E5015E4FBFA0BBB009B
:0F0C9F00010AEB64024A70F50DBD00010C80E400
:010CAE002223
:100C6E00C2C2C2C0D2C1120C4AD2C2E4F596F595E8
:100C7E0085A0237F14FE120C4EC2C2E52320E7E0AE
:010C8E002243
:060BF900F5831208E8FF7D
:100BFF008F22120C6ED2C2D2C0C2C17596FFE4F51D
:100C0F00958522A07F14FE120C4EC2C27F147E0067
:030C1F00020C4E76
:050C2200E52B252CFF6D
:100C27008F22120C6ED2C2C2C0C2C17596FFE4F504
:100C3700958522A07F14FE120C4EC2C27F147E003F
:030C4700020C4E4E
:060B44008B1C8A1D891EB6
:100B4A00120C27E4F520E520C3951F502EAB1CAAF2
:100B5A001DA91E75F002E520A4F58285F083120B0B
:100B6A00FBAB1CAA1DA91E75F002E520A42401F501
:0B0B7A0082E435F0120BF9052080CB5F
:010B8500224D
:020AF1008B1D5B
:100AF300EFFB7A0064017005ED2480F521EB6402BD
:100B03004A7005ED2490F521EB64034A7005ED244A
:100B130088F521EB64044A7005ED2498F521AF2193
:100B2300120C27E51D6019AB1E0520E520AA1F70D6
:100B330002051F14F91208CFFF120BFF151D80E3E6
:010B4300228F
:020A33008F270B
:100A3500E4F528C3E528940274809480502AE527BC
:100A45002528FF120C277FFF120BFFE4FF120BFF77
:100A55000528E5272528FF120C27E4FF120BFFE4E4
:100A6500FF120BFF052880CB752802C3E5289410DB
:100A7500748094805016E5272528FF120C27E4FF83
:0C0A8500120BFFE4FF120BFF052880DFBE
:010A91002242
:020A92008F29AA
:100A9400E4F52AC3E52A940474809480502AE52955
:100AA400252AFF120C277FFF120BFFE4FF120BFF16
:100AB400052AE529252AFF120C27E4FF120BFFE47F
:100AC400FF120BFF052A80CB752A04C3E52A941074
:100AD400748094805016E529252AFF120C27E4FF20
:0C0AE400120BFFE4FF120BFF052A80DF5D
:010AF00022E3
:0206FE008F2B40
:10070000E4F52CC3E52C9402748094805020120CE4
:10071000227FFF120BFFE4FF120BFF052C120C22AD
:10072000E4FF120BFFE4FF120BFF052C80D5752CA4
:1007300002C3E52C9406748094805011120C22E4BC
:10074000FF120BFFE4FF120BFF052C80E4E52B24C6
:1007500006FF120C277F18120BFFE4FF120BFFE5B8
:100760002B2407FF120C277F3C120BFFE4FF120B18
:10077000FFE52B2408FF120C277F3C120BFFE4FF40
:10078000120BFFE52B2409FF120C277F18120BFF19
:10079000E4FF120BFF752C0AC3E52C9410748094AF
:1007A000805011120C22E4FF120BFFE4FF120BFF2A
:0407B000052C80E4B0
:0107B4002222
:020633008F2D09
:10063500E4F52EC3E52E940474809480502AE52DAC
:10064500252EFF120C277FFF120BFFE4FF120BFF75
:10065500052EE52D252EFF120C27E4FF120BFFE4D6
:10066500FF120BFF052E80CBE52D2404FF120C276E
:10067500E4FF120BFFE4FF120BFFE52D2405FF122B
:100685000C27E4FF120BFFE4FF120BFFE52D2406F8
:10069500FF120C277F18120BFFE4FF120BFFE52D4D
:1006A5002407FF120C277F3C120BFFE4FF120BFF00
:1006B500E52D2408FF120C277F3C120BFFE4FF12E7
:1006C5000BFFE52D2409FF120C277F18120BFFE401
:1006D500FF120BFF752E0AC3E52E941074809480CB
:1006E5005016E52D252EFF120C27E4FF120BFFE413
:0806F500FF120BFF052E80DF50
:0106FD0022DA
:100B86007F34120C277F36120C27E4F52FC3E52F8E
:100B96009420748094805028E52F2480FF120C271F
:100BA6007F80120C27E4F530C3E5309420748094DE
:100BB600805009E4FF120BFF053080EC052F80CD35
:010BC600220C
:0607B5008F088D098B0A7C
:1007BB007F34120C277F36120C27E4F510E510C39B
:1007CB00950A5073E5082510FF120C277F80120C39
:1007DB0027E4F511E511C39509501CE5098510F0C7
:1007EB00A42511F582E435F0F583AB0BAA0CA90D0A
:1007FB00120BFB051180DDE4F50EF50FC3E50F952C
:10080B0009E50E9400502BE510250AFFE433FEADED
:10081B00097C00120915E50F2FFFE50E3EAB0BAA65
:10082B000CA90D8F82120BF9050FE50F70CE050E7B
:0C083B0080CA05100207C87F30020C279D
:100CE5008F318D327F34120C27AF32120C27AF3182
:030CF500020C27C7
:0609C1008F128D138B1450
:1009C700E4F519E519C395155058E5132519FFE402
:1009D70033FEC3EF9420EE64809480E512C4540F75
:1009E70050092480FFE513248080072488FFE5133E
:1009F70024602519FD120CE5E4F51AE51AC39514D0
:100A0700501CE5148519F0A4251AF582E435F0F594
:100A170083AB16AA17A918120BFB051A80DD051957
:0C0A270080A17F36120C277F30020C27C4
:100BC700D2C3120C4A7F30120C27120C4A7F021232
:100BD7000C27120C4A7F0C120C27120C4A7F0612A4
:100BE7000C27120C4A7F80120C27120C4A7F010235
:020BF7000C27C9
:100CAF00AD07AC06ECC313ED1375F008A42480FF59
:100CBF00ED5401C454F02FFF120C277F0F020C27A5
:040C4A007F147E0095
:100C4E00E4FDFCC3ED9FEC9E5015E4FBFA0BBB00DC
:0F0C5E00010AEB64784A70F50DBD00010C80E4CB
:010C6D002264
:0A0D1100E4FEEEC39F50030E80F8CD
:010D1B0022B5
:03000000020D05E9
:0C0D0500787FE4F6D8FD75813202000E04
:1008CF00BB010689828A83E0225002E722BBFE0227
:0908DF00E32289828A83E493225A
:1008E800BB010CE58229F582E5833AF583E02250C5
:1008F80006E92582F8E622BBFE06E92582F8E2220F
:0D090800E58229F582E5833AF583E4932228
:10091500EF8DF0A4A8F0CF8CF0A428CE8DF0A42EF6
:02092500FE22B0
:10092700D083D082F8E4937012740193700DA3A35F
:1009370093F8740193F5828883E473740293686073
:06094700EFA3A3A380DF73
:00000001FF
