:100EA700D5E3BDADB4F3D1A7B9E2B5E7D1A7D4BABD
:100EB70000B5E7D7D3CFDFC2B7C9E8BCC60038371C
:100EC70039353131393700D2BABEA7CFD4CABEB30C
:100ED700C9B9A600B2CBB5A500312EB2A5B7C5D208
:100EE700F4C0D600322EB5AFD7E0C4A3CABD0033D5
:100EF7002ECFC2D2BBD2B300342EC2BCD2F4C4A30D
:100F0700CABD00352EB2A5B7C5C2BCD2F400362E75
:100F1700C9CFD2BBD2B300D2F4C0D6B2A5B7C500F1
:100F2700D1DDD7E0C4A3CABD00322EBDB5B5CDD241
:100F3700F4B8DF00332ECCE1B8DFD2F4B8DF00B06D
:100F4700B4C8CED2E2BCFCB7B5BBD800D2F4B8DF88
:100F5700D2D1BEADCAC7D7EEB5CDC1CB00D2F4B89A
:100F6700DFD2D1BEADCAC7D7EEB8DFC1CB00C2BC96
:100F7700D2F4C4A3CABD00312EBFAACABCC2BCD218
:100F8700F400B0B4C6E4CBFBBCFCB7B5BBD800C219
:100F9700BCD2F4D6D000322EBDE1CAF8C2BCD2F41E
:100FA70000C2BCD2F4CDEAB3C900B2A5B7C5C2BC72
:100FB700D2F4001C80204026202B40302039A0404E
:100FC70020394030402B4030202B402680202026DF
:100FD70020202026201CFE20FE392026202B20261C
:100FE70010203026202B202624392026202B2026AF
:100FF70010203026202B202624392026202B20269F
:1010070010203026202B202624392026202B20268E
:1010170010203026202B20260BFF260BFF26A03082
:10102700202020241026B030202020241026101C39
:101037002026202B202B202B1030102B1030202681
:10104700E0260BFF260BFF26A030202020241026A9
:10105700B030202020241026301C2026202B202BC7
:0F106700202B1030102B10300BFF301030FF00FB
:101A7400450BDB00BBF8C4A75503EF60564C484048
:101A84003832302B2624201C1918151312100E0D71
:101A94004403EB40E000004103EA0141000001423D
:0D1AA4000BD7FFFF420BD90000410BD5000E
:03000B00021C0EC6
:101C0E00C0E0C083C082758CDC758A00900001E054
:091C1E0004F0D082D083D0E03242
:101B3E00900BE0EFF0A3ECF0A3EDF0800E900BE035
:101B4E00E05580600BB2C5A3121AE47580FF80EDDC
:071B5E009003EA7401F0227C
:10116A00E4F5C975CA3075B3C0F5B4F5B1F5B21274
:10117A001AB2900BFD74FFF0A3740EF0A374A7F0DB
:10118A007B10E4FD7F0112191D900BFD74FFF0A383
:10119A00740EF0A374B8F07B0C7D017F0212191D46
:1011AA00900BFD74FFF0A3740EF0A374C5F07B08D6
:1011BA007D027F0312191D900BFD74FFF0A3740EBC
:1011CA00F0A374CEF07B0C7D017F0412191D121C52
:1011DA0027E4F5B3F5B4121AB2900000121336756B
:1011EA0090F0121C27E59054F064F060F57F647E5D
:1011FA0000121AF5E59054F064F060441217339027
:10120A0009E0EFF024F4601614601814601C24F945
:10121A00601D146022240B7027121BAF8014120366
:10122A005D800F900000E0048012120967800312AB
:10123A0014CA9000008006900000E014F0121336E1
:09124A007FC47E09121AF5809997
:0D1C3D0075890175A882758CDCE4F58A229A
:101C2700E5C030E604D2CC8002C2CCE5C030E70381
:061C3700D2CD22C2CD2235
:100C2F00E4900001F0900BE6F0A304F0E4A3F0A32E
:100C3F00F074DA2FF582E4340BF583E0FF7E009039
:100C4F000BE4EEF0A3EFF0900BE2EEF0A3EFF01257
:100C5F00000E900BFD7401F0A37404F0A37404F064
:100C6F00A3E4F0A37410F07B017A0B79EA1218B5A4
:100C7F00900BFD7401F0A3740BF0A374EAF07B10DA
:100C8F00E4FD7F0212191D900BFD7401F0A3740196
:100C9F00F0A374F6F0A3E4F0A37410F07B017A0BC9
:100CAF0079EA1218B5900BFD7401F0A3740BF0A341
:100CBF0074EAF07B10E4FD7F0312191D900BFD7495
:100CCF0001F0A37400F0A37402F0A3E4F0A3741076
:100CDF00F07B017A0B79EA1218B5900BFD7401F0D5
:100CEF00A3740BF0A374EAF07B10E4FD7F041219D8
:100CFF001D900BE2E475F0011208ADFE74BA25F0F9
:100D0F00F582740F3EF583E493900BE0F0E0F470FE
:100D1F000AC28C7F64FE121AF580D6900BE0E07049
:100D2F0003020EA6900BE2E475F0011208ADFE74FB
:100D3F00BA25F0F582740F3EF583E493900BE1F042
:100D4F00D28CB2C5900BE0121AF1900001E0FF9027
:100D5F000BE1E06F6003020E98900BE4E0FEA3E05E
:100D6F00FFC3900BE3E09FFF900BE2E09EFEEF25A9
:100D7F00E0FFEE33FE74F82FF58274053EF583E045
:100D8F00FCA3E0FD900BE7E0C4F8540FC868FF9098
:100D9F000BE6E0C454F048FED3ED9FEC9E500302E7
:100DAF000E90900BE9E02410F0900BE8E03400F087
:100DBF00900BE7E004F07006900BE6E004F0900B68
:100DCF00E8E0FEA3E02404F974043EFA900BFD74EE
:100DDF0001F0A3EAF0A3E9F0A3E4F0A37410F07B11
:100DEF00017A0B79EA1218B5900BFD7401F0A37418
:100DFF000BF0A374EAF07B10E4FD7F0212191D9033
:100E0F000BE8E0FEA3E024F6F974013EFA900BFD27
:100E1F007401F0A3EAF0A3E9F0A3E4F0A37410F0D7
:100E2F007B017A0B79EA1218B5900BFD7401F0A3D0
:100E3F00740BF0A374EAF07B10E4FD7F0312191D0D
:100E4F00900BE8E0FEA3E02402F974003EFA900B49
:100E5F00FD7401F0A3EAF0A3E9F0A3E4F0A374108A
:100E6F00F07B017A0B79EA1218B5900BFD7401F043
:100E7F00A3740BF0A374EAF07B10E4FD7F04121946
:100E8F001DE4900001F0020D007590F0E59054F014
:070E9F0064F07003020D5125
:010EA6002229
:091C550075B0FFE5B054F0FF2268
:10173300E4900BE3F0A3F07590F0E59054F0FF54C0
:10174300F064F07002FF2275900FE590540F4FF490
:101753001208DD178A1117961217A21417AE18175D
:101763008D2117992217A52417B128179041179C8B
:101773004217A84417B448179381179F8217AB8465
:1017830017B788000017BA7F0B227F0C227F0D2228
:101793007F0E227F15227F16227F17227F18227F3A
:1017A3001F227F20227F21227F22227F29227F2A3C
:0917B300227F2B227F2C227F00F3
:0117BC00220A
:101AE400E0FEA3E024EEF58274033EF583E0FF7E7E
:011AF40000F1
:101AF500E4FDFCC3ED9FEC9E5015E4FBFA0BBB0027
:0F1B0500010AEB64024A70F50DBD00010C80E48B
:011B140022AE
:06133600E0FF3395E0FE2C
:10133C00900BE0EEF0A3EFF0121AB2900BE0E0FE8F
:10134C00A3E0FFEE6003021410EF24FE605A046069
:10135C0003021410900BFD74FFF0A3740EF0A37431
:10136C00DBF07B047D037F0112191D900BFD74FFD4
:10137C00F0A3740EF0A374E0F07B0AE4FD7F02127C
:10138C00191D900BFD74FFF0A3740EF0A374EBF019
:10139C007B0AE4FD7F0312191D900BFD74FFF0A373
:1013AC00740EF0A374F68052900BFD74FFF0A374CE
:1013BC000EF0A374DBF07B047D037F0112191D90EA
:1013CC000BFD74FFF0A3740EF0A374FFF07B0AE422
:1013DC00FD7F0212191D900BFD74FFF0A3740FF02A
:1013EC00A3740AF07B0AE4FD7F0312191D900BFD18
:1013FC0074FFF0A3740FF0A37415F07B08E4FD7F69
:05140C000412191D226D
:101BAF00121AB2900BFD74FFF0A3740FF0A3741E02
:101BBF00F07B087D027F0112191D121C3DE4FF020C
:021BCF000C2FD9
:10035D00121C27121AB2900BFD74FFF0A3740FF04C
:10036D00A37427F07B087D027F0112191DE4FFFEA7
:10037D00FDFC9003EBE0F8A3E0F9A3E0FAA3E0FBAA
:10038D0012075B6017900BFD74FFF0A3740FF0A3C1
:10039D007430F07B0AE4FD7F0212191DE4FFFE7D2F
:1003AD00607C419003EBE0F8A3E0F9A3E0FAA3E051
:1003BD00FB12075B6017900BFD74FFF0A3740FF039
:1003CD00A3743BF07B0AE4FD7F0312191D900BFD16
:1003DD0074FFF0A3740FF0A37446F07B0C7D017FC6
:1003ED000412191D7590F0E59054F064F07003023D
:1003FD00053E7F647E00121AF5E59054F064F070AE
:10040D00030205371217339009E0EFF024F3700360
:10041D000204AB0460030206629003EAE07003027B
:10042D000537E4FFFEFDFCA3E0F8A3E0F9A3E0FA35
:10043D00A3E0FB12075B6020401E9003EBE0FCA3E2
:10044D00E0FDA3E0FEA3E0FFE4FBFA79E0784012C3
:10045D0006669003EB1208D1E4FFFEFDFC9003EB62
:10046D00E0F8A3E0F9A3E0FAA3E0FB12075B701735
:10047D00900BFD74FFF0A3740FF0A37453F07B1079
:10048D00E4FD7F0212191D900BFD74FFF0A3740F94
:10049D00F0A3743BF07B0AE4FD7F0302052F90036C
:1004AD00EAE07003020537E4FFFE7D607C41A3E0C6
:1004BD00F8A3E0F9A3E0FAA3E0FB12075B501E904E
:1004CD0003EBE0FCA3E0FDA3E0FEA3E0FFE4FBFAF9
:1004DD0079E0784012066A9003EB1208D1E4FFFE32
:1004ED007D607C419003EBE0F8A3E0F9A3E0FAA373
:1004FD00E0FB12075B7017900BFD74FFF0A3740FF8
:10050D00F0A37464F07B10E4FD7F0312191D900BB2
:10051D00FD74FFF0A3740FF0A37430F07B0AE4FDBB
:10052D007F0212191DE49003EAF07F647E00121A17
:10053D00F57580FFE58030E024E4FFFE7DE07C4032
:10054D009003EBE0F8A3E0F9A3E0FAA3E0FB1206B9
:10055D006A1207D4AD07AC067F0102065CE5803058
:10056D00E124E4FFFE7DC07C409003EBE0F8A3E0C6
:10057D00F9A3E0FAA3E0FB12066A1207D4AD07ACAB
:10058D00067F0202065CE58030E224E4FFFE7DA0DA
:10059D007C409003EBE0F8A3E0F9A3E0FAA3E0FBC5
:1005AD0012066A1207D4AD07AC067F0402065CE59D
:1005BD008030E323E4FFFE7D807C409003EBE0F888
:1005CD00A3E0F9A3E0FAA3E0FB12066A1207D4AD8B
:1005DD0007AC067F088078E58030E423E4FFFE7DDC
:1005ED00407C409003EBE0F8A3E0F9A3E0FAA3E030
:1005FD00FB12066A1207D4AD07AC067F108050E5DA
:10060D008030E522E4FFFEFD7C409003EBE0F8A393
:10061D00E0F9A3E0FAA3E0FB12066A1207D4AD07D6
:10062D00AC067F208029E58020E6030203F1E4FF7C
:10063D00FE7D807C3F9003EBE0F8A3E0F9A3E0FAA8
:10064D00A3E0FB12066A1207D4AD07AC067F401279
:06065D001B3E0203F12226
:10096700E4900BE0F0A3F0A3F0900BD9F0A3F074A0
:10097700FF900BD7F0A3F0E4900BD5F0121C2712D1
:100987001AB2900BFD74FFF0A3740FF0A37475F007
:100997007B087D027F0112191D900BFD74FFF0A3E8
:1009A700740FF0A3747EF07B0AE4FD7F0212191D19
:1009B700900BFD74FFF0A3740FF0A37489F07B0C08
:1009C7007D017F0412191D900BE0E070387590F0DF
:1009D700E59054F064F060EF7F647E00121AF5E54D
:1009E7009054F064F060151217339009E0EFF0248B
:1009F700F56003020C2E900BE07401F07F647E001B
:100A0700121AF580C27E017FF47D007B017A097995
:100A1700E1120903900BFD74FFF0A3740FF0A374A8
:100A270096F07B06E4FD7F0212191D900BFD74FF03
:100A3700F0A3740FF0A3749DF07B0AE4FD7F03120B
:100A4700191DE4900001F0121C3D7590F0E59054DB
:100A5700F064F0606D7F647E00121AF5E59054F043
:100A670064F060571217339009E0EFF024F4600345
:100A7700020C2E900BFD74FFF0A3740FF0A374A863
:100A8700F07B08E4FD7F0312191D900BD5E0FF9062
:100A97000BE1E0FCA3E0FD24E1F58274093CF5835A
:100AA700EFF0900BD7A3E0FFA3A3E0C39FFF74E28F
:100AB7002DF58274093CF583EFF0227F647E0012E6
:100AC7001AF57580FFE58030E02CE4FFFE7DE07CC1
:100AD700409003EBE0F8A3E0F9A3E0FAA3E0FB12F0
:100AE700066A1207D4AD07AC06900BE1E0FAA3E063
:100AF700FB7F01020C20E58030E12CE4FFFE7DC086
:100B07007C409003EBE0F8A3E0F9A3E0FAA3E0FB55
:100B170012066A1207D4AD07AC06900BE1E0FAA300
:100B2700E0FB7F02020C20E58030E22CE4FFFE7D33
:100B3700A07C409003EBE0F8A3E0F9A3E0FAA3E080
:100B4700FB12066A1207D4AD07AC06900BE1E0FA78
:100B5700A3E0FB7F04020C20E58030E32CE4FFFEDA
:100B67007D807C409003EBE0F8A3E0F9A3E0FAA3D3
:100B7700E0FB12066A1207D4AD07AC06900BE1E062
:100B8700FAA3E0FB7F08020C20E58030E42BE4FFAA
:100B9700FE7D407C409003EBE0F8A3E0F9A3E0FA88
:100BA700A3E0FB12066A1207D4AD07AC06900BE16F
:100BB700E0FAA3E0FB7F108060E58030E52AE4FFE0
:100BC700FEFD7C409003EBE0F8A3E0F9A3E0FAA375
:100BD700E0FB12066A1207D4AD07AC06900BE1E002
:100BE700FAA3E0FB7F208031E58020E603020A516B
:100BF700E4FFFE7D807C3F9003EBE0F8A3E0F9A3E0
:100C0700E0FAA3E0FB12066A1207D4AD07AC069020
:100C17000BE1E0FAA3E0FB7F4012157A900BE1EEBF
:070C2700F0A3EFF0020A51F7
:010C2E0022A3
:10157A00900BE3ECF0A3EDF0A3EAF0A3EBF0A907DC
:10158A00900BD7E0FEA3E0FFF47002EEF4602B901C
:10159A000BD5E0FD900BE5E0FAA3E0FB24E1F58230
:1015AA0074093AF583EDF0900001E0C39FFF74E2FD
:1015BA002BF58274093AF583EFF07580FF900001EC
:1015CA00E0FF900BD7E4F0A3EFF0E58059600DB28D
:1015DA00C5900BE3121AE47580FF80EE900001E0DB
:1015EA00FF900BD9E4F0A3EFF0900BE3E0FEA3E049
:1015FA0024EEF58274033EF583E0900BD5F0900B50
:0D160A00E6E02402FF900BE5E03400FE2234
:1014CA00121C27121AB2900BFD74FFF0A3740FF0CE
:1014DA00A374B1F07B087D027F0112191D900BFDE8
:1014EA0074FFF0A3740FF0A37446F07B0C7D017FA8
:1014FA000412191DE4900001F0121C3DE4900BE166
:10150A00F0A3F0900BE1E475F0011208ADFE74E16E
:10151A0025F0F58274093EF583E0F9F4700AC28C6D
:10152A007F64FE121AF580DBE96044900BE1E475F2
:10153A00F0011208ADFE74E125F0F58274093EF55A
:10154A0083E0900BE0F0D28CB2C5E9FF7E00121A5C
:10155A00F5900001E0FF900BE0E0B50707E490008A
:0F156A0001F0809F7590F0E59054F064F060D927
:01157900224F
:08000E00900BFAEEF0A3EFF0F5
:10001600900BFEEEF0A3EFF0E4A3F0A3F00203438F
:10002600900BFCE0F9700302035C900C00E0FCA36B
:10003600E0FD900BFAE0FEA3E0FFC3900BFFE09F0C
:10004600FF900BFEE09EFEEF25E0FFEE33FE74F818
:100056002FF58274053EF583ECF0A3EDF0E924F369
:1000660070030201111470030200FC24FE60712467
:10007600FE605714603E24FE6024241670030201BD
:100086002624E76003020186900C00E0FEA3E0242C
:10009600F6F58274013EF5837431F0020186900C08
:1000A60000E0FEA3E024F6F58274013EF583743287
:1000B600F0020186900C00E0FEA3E024F6F58274BF
:1000C600013EF5837433F0020186900C00E0FEA336
:1000D600E024F6F58274013EF5837434F00201865D
:1000E600900C00E0FEA3E024F6F58274013EF58351
:1000F6007435F0020186900C00E0FEA3E024F6F5CC
:100106008274013EF5837436F08075900C00E0FE33
:10011600A3E024F6F58274013EF5837437F080601F
:10012600900C00E0FEA3E0FF24F6F58274013EF594
:10013600837423F074022FF58274003EF5837420D5
:10014600F074042FF58274043EF5837420F0900C4D
:1001560001E004F07006900C00E004F0900BFFE064
:1001660004F07006900BFEE004F0900BFEE0FEA398
:10017600E024BAF582740F3EF583E493900BFCF00D
:10018600900BFCE0FFF47003020026C3EF94327478
:10019600809480401D900C00E0FEA3E0FF2402F551
:1001A6008274003EF583742EF074042FF582740475
:1001B600803D900BFCE0D3941874809480900C00E2
:1001C600E0FEA3E0FF50152404F58274043EF58397
:1001D6007420F074022FF582740080132402F582D5
:1001E60074003EF5837420F074042FF58274043E87
:1001F600F5837420F0900BFFE004F07006900BFE80
:10020600E004F0900C01E004F07006900C00E004AD
:10021600F0900BFEE0FEA3E024BAF582740F3EF5E3
:1002260083E493FF900BFDF07E006420701F900B1B
:10023600FFE004F07006900BFEE004F0900BFEE089
:10024600FCA3E024BAF582740F3C020351EF64105C
:100256004E7016900C00E0FEA3E02402F5827400B6
:100266003EF583742DF0020335900BFDE0FF7E0012
:1002760064087016900C00E0FCA3E02402F582747A
:10028600003CF583743DF0020335EF64304E703E5A
:10029600900C01E004F07006900C00E004F0900C65
:1002A60000E0FEA3E0FF24F6F58274013EF58374B8
:1002B6002EF074022FF58274003EF5837420F074DC
:1002C600042FF58274043EF5837420F08061900B50
:1002D600FDE0C39440748094804054804C900BFDA4
:1002E600E0C39420748094804045900C01E004F0B3
:1002F6007006900C00E004F0900C00E0FEA3E0FF16
:1003060024F6F58274013EF583742DF074022FF500
:100316008274003EF5837420F074042FF582740411
:100326003EF5837420F0900BFDE024E0F080AE9063
:100336000BFFE004F07006900BFEE004F0900BFE5D
:10034600E0FEA3E024BAF582740F3EF583E49390B1
:060356000BFCF002002682
:01035C00227E
:101B8C00C2C2C2C0D2C1121B68D2C2E4F596F5958E
:101B9C00900C02E5A0F0121B68C2C2900C02E0206F
:021BAC00E7DE72
:011BAE002214
:101A3400FEEF8EF0A47C002DFFEC35F0FEE0FBA35E
:0D1A4400E0FAA3E0F98F828E8312086EFF96
:101A5100900C01EFF0121B8CD2C2D2C0C2C175969C
:101A6100FFE4F595900C01121B65C2C27F147E0044
:031A7100021B6CE9
:061B1500900C21E02FFFFF
:101B1B00900C01EFF0121B8CD2C2C2C0C2C17596E1
:101B2B00FFE4F595900C01121B65C2C27F147E0079
:031B3B00021B6C1E
:0B198400900C18EBF0A3EAF0A3E9F0D0
:10198F00121B1BE4900C1CF0900C1BE0FFA3E0FE5D
:10199F00C39F503F900C18E0FBA3E0FAA3E0F9754A
:1019AF00F002EEA4F58285F083121A4D900C18E028
:1019BF00FBA3E0FAA3E0F9900C1CE075F002A4245D
:1019CF0001F582E435F0F583121A4D900C1CE004FA
:0319DF00F080B5E0
:0119E20022E2
:07191D00900BFCEBF0AC079E
:10192400ECFB7A0064017007ED2480900C00F0EB6E
:1019340064024A7007ED2490900C00F0EC6403708C
:1019440007ED2488900C00F0EC64047007ED2498F3
:10195400900C00F0900C00E0FF121B1B900BFCE0BD
:10196400601DA3E0FBA3E475F0011208ADA9F0FA31
:0F197400120855FF121A51900BFCE014F080DDA1
:011983002241
:0517BD00900C1DEFF08F
:1017C200E4A3F0900C1EE0FFC39402748094805056
:1017D20036900C1DE02FFF121B1B7FFF121A51E4E3
:1017E200FF121A51900C1EE004F0E0FF900C1DE075
:1017F2002FFF121B1BE4FF121A51E4FF121A519021
:101802000C1EE004F080BC900C1E7402F0900C1EC2
:10181200E0FFC3941074809480501B900C1DE02F45
:10182200FF121B1BE4FF121A51E4FF121A51900C13
:061832001EE004F080D767
:01183800228D
:05183900900C1FEFF010
:10183E00E4A3F0900C20E0FFC394047480948050D5
:10184E0036900C1FE02FFF121B1B7FFF121A51E464
:10185E00FF121A51900C20E004F0E0FF900C1FE0F4
:10186E002FFF121B1BE4FF121A51E4FF121A5190A4
:10187E000C20E004F080BC900C207404F0900C203E
:10188E00E0FFC3941074809480501B900C1FE02FC7
:10189E00FF121B1BE4FF121A51E4FF121A51900C97
:0618AE0020E004F080D7E9
:0118B4002211
:05125300900C21EFF0FA
:10125800E4A3F0900C22E0FFC394027480948050C1
:101268002A121B157FFF121A51E4FF121A51900C13
:1012780022E004F0E0FF121B15E4FF121A51E4FF0C
:10128800121A51900C22E004F080C8900C227402CB
:10129800F0900C22E0FFC3940674809480501512DD
:1012A8001B15E4FF121A51E4FF121A51900C22E0A8
:1012B80004F080DD900C21E02406FF121B1B7F1830
:1012C800121A51E4FF121A51900C21E02407FF1260
:1012D8001B1B7F3C121A51E4FF121A51900C21E09B
:1012E8002408FF121B1B7F3C121A51E4FF121A51EB
:1012F800900C21E02409FF121B1B7F18121A51E4DD
:10130800FF121A51900C22740AF0900C22E0FFC3CD
:101318009410748094805015121B15E4FF121A5112
:0D132800E4FF121A51900C22E004F080DD69
:011335002295
:05107600900C23EFF0D7
:10107B00E4A3F0900C24E0FFC3940474809480509C
:10108B0036900C23E02FFF121B1B7FFF121A51E42B
:10109B00FF121A51900C24E004F0E0FF900C23E0B7
:1010AB002FFF121B1BE4FF121A51E4FF121A51906F
:1010BB000C24E004F080BC900C23E02404FF121BF2
:1010CB001BE4FF121A51E4FF121A51900C23E02477
:1010DB0005FF121B1BE4FF121A51E4FF121A519069
:1010EB000C23E02406FF121B1B7F18121A51E4FF7E
:1010FB00121A51900C23E02407FF121B1B7F3C128A
:10110B001A51E4FF121A51900C23E02408FF121B12
:10111B001B7F3C121A51E4FF121A51900C23E0244E
:10112B0009FF121B1B7F18121A51E4FF121A519060
:10113B000C24740AF0900C24E0FFC3941074809478
:10114B0080501B900C23E02FFF121B1BE4FF121A85
:0E115B0051E4FF121A51900C24E004F080D7EA
:011169002263
:1019E3007F34121B1B7F36121B1BE4900C25F090D7
:1019F3000C25E0FFC39420748094805033EF24803F
:101A0300FF121B1B7F80121B1BE4900C26F0900C13
:101A130026E0C3942074809480500DE4FF121A5181
:101A2300900C26E004F080E6900C25E004F080BFE3
:011A33002290
:0B141100900C04EFF0A3EDF0A3EBF053
:10141C007F34121B1B7F36121B1BE4900C0CF090BC
:10142C000C06E0FF900C0CE0FEC39F40030214C5B9
:10143C00900C04E02EFF121B1B7F80121B1BE490F0
:10144C000C0DF0900C05E0FF900C0DE0FDC39F50CF
:10145C0012900C0CE0900C07121A34900C0DE00456
:10146C00F080E0E4900C0AF0A3F0900C05E0F9FF9A
:10147C00900C0AE0FAA3E0FBC39FEA940050319071
:10148C000C06E0FF900C0CE02FFFE433FEE9FD7C32
:10149C000012089BEB2FFFEA3EFE900C07121A413C
:1014AC00900C0BE004F07006900C0AE004F080BA8B
:0E14BC00900C0CE004F002142B7F30021B1B7E
:101BF100900C27EFF0A3EDF07F34121B1B900C2803
:0D1C0100E0FF121B1B900C27E0FF021B1BD5
:0B161700900C0EEFF0A3EDF0A3EBF041
:10162200E4900C15F0900C11E0FF900C15E0FEC355
:101632009F5068EEFF900C0FE0FD2FFFE433FEC3D6
:10164200EF9420EE64809480900C0EE0500BC45412
:101652000F2480FFED2480800AC4540F2488FFA346
:10166200E02460FE900C15E02EFD121BF1E4900CBC
:1016720016F0900C10E0FF900C16E0FDC39F501284
:10168200900C15E0900C12121A34900C16E004F033
:1016920080E0900C15E004F00216277F36121B1B27
:0516A2007F30021B1B5C
:101AB200D2C3121B687F30121B1B121B687F0212DB
:101AC2001B1B121B687F0C121B1B121B687F06124A
:101AD2001B1B121B687F80121B1B121B687F0102DB
:021AE2001B1BCC
:101BD100AD07AC06ECC313ED1375F008A42480FF28
:101BE100ED5401C454F02FFF121B1B7F0F021B1B6E
:071B6500E0F5A07F147E00F3
:101B6C00E4FDFCC3ED9FEC9E5015E4FBFA0BBB00AF
:0F1B7C00010AEB64784A70F50DBD00010C80E49E
:011B8B002237
:0A1C4A00E4FEEEC39F50030E80F885
:011C5400226D
:10066300020840E86480F8E933E83360110460F07D
:10067300ED33EC337009E8FCE9FDEAFEEBFF2204FD
:1006830060DED3EB9FEA9EE99DE8C2E78CF0C2F7F8
:1006930095F0400CE8CCF8E9CDF9EACEFAEBCFFBC4
:1006A30012080B85D0F05804700320D5B3E804700A
:1006B300075002B2D502084A92D5EC0460F7E4CCA5
:1006C300C0E0C398F8603B94186008400DD0E0FB8D
:1006D300020822E4FBFAC9FC8028E830E406E4C9F6
:1006E300FBE4CAFCE830E305E4C9CACBFCE85407E1
:1006F3006010F8C3E913F9EA13FAEB13FBEC13FCEC
:10070300D8F130F52FC3E49CFCEF9BFFEE9AFEED8E
:1007130099FDD0E0FBEF4E4D4C701222DB03020833
:1007230047EC2CFCEF33FFEE33FEED33FDED30E70A
:10073300EB020822EF2BFFEE3AFEED39FDD0E0FB92
:1007430050130BBB000302084AED13FDEE13FEEF3B
:0807530013FFEC13FC02082265
:10075B0074F8CC6480CCC86480C8F58204604FC345
:10076B00EB9FF5F0EA9E42F0E99D42F0E89C45F0E4
:10077B00603C501DE5825FFFE582D313CB5BCBF46E
:10078B002B5582FB50280ABA002409B90020088097
:10079B001DE5825BFBE582D313CF5FCFF4C3132F31
:1007AB005582FF50090EBE00050DBD00010CC3EBB9
:1007BB009FF5F0EA9E42F0E99D42F0E89C45F0601F
:0907CB0007CC4820E701B3EC2241
:1007D400EDD2E7CD33EC3392D524814006E4FFFE1D
:1007E400FDFC22FCE4CFCECDCC24E0501174FF807C
:1007F400EDC3CC13CCCD13CDCE13CECF13CF047019
:07080400F030D5DE0208C34D
:10080B00E9D2E7C933E833F892D5EDD2E7CD33EC33
:07081B0033FC5002B2D522AC
:10082200EC30E7100FBF000C0EBE00080DBD000437
:100832000BEB6014A2D5EB13FCED92E7FD2274FFE3
:10084200FCFDFEFF22E480F8A2D574FF13FC7D803C
:03085200E480EF50
:030000000216A73E
:0C16A700787FE4F6D8FD7581070216EE8E
:10085500BB010689828A83E0225002E722BBFE02A1
:09086500E32289828A83E49322D4
:10086E00BB010CE58229F582E5833AF583E022503F
:10087E0006E92582F8E622BBFE06E92582F8E22289
:0D088E00E58229F582E5833AF583E49322A3
:10089B00EF8DF0A4A8F0CF8CF0A428CE8DF0A42E71
:0208AB00FE222B
:1008AD00A3F8E0C5F025F0F0E582158270021583FE
:0608BD00E0C838F0E8225B
:0E08C300C3E49FFFE49EFEE49DFDE49CFC2246
:0C08D100ECF0A3EDF0A3EEF0A3EFF0229A
:1008DD00D083D082F8E4937012740193700DA3A3AA
:1008ED0093F8740193F5828883E4737402936860BE
:0608FD00EFA3A3A380DFBE
:1018B500900BFAEBF0A3EAF0A3E9F0E4900C02F048
:1018C500A3F0900C0074FFF5F01208AD45F0603CF4
:1018D500900BFDE0FBA3E0FAA3E0F9120855FF9099
:1018E5000BFAE0FBA3E0FAA3E0F9900C02E475F033
:1018F500011208AD85F082F583EF12092FEF60C262
:10190500900BFEE475F00112095180B6900BFAE0D8
:08191500FBA3E0FAA3E0F922B4
:10090300EF4E6012EF60010EEDBB010B89828A830B
:10091300F0A3DFFCDEFA2289F05007F709DFFCA918
:0C092300F022BBFEFCF309DFFCA9F0226F
:1016B30002116AE493A3F8E493A34003F68001F2D2
:1016C30008DFF48029E493A3F85407240CC8C33338
:1016D300C4540F4420C8834004F456800146F6DF07
:1016E300E4800B0102040810204080901A74E47E09
:1016F300019360BCA3FF543F30E509541FFEE493FC
:10170300A360010ECF54C025E060A840B8E493A3C2
:10171300FAE493A3F8E493A3C8C582C8CAC583CAED
:10172300F0A3C8C582C8CAC583CADFE9DEE780BEA5
:011AB1000034
:10092F00F8BB010DE58229F582E5833AF583E8F0FE
:10093F00225006E92582C8F622BBFE05E92582C8AA
:02094F00F22292
:10095100C5F0F8A3E028F0C5F0F8E5821582700231
:060961001583E038F022CE
:00000001FF
