:1004A400D5E3BDADB4F3D1A7B9E2B5E7D1A7D4BACA
:1004B40000B5E7D7D3CFDFC2B7C9E8BCC600383729
:1004C40039353131393700D2BABEA7CFD4CABEB319
:1004D400C9B9A600B2CBB5A500312EB2A5B7C5D215
:1004E400F4C0D600322EB5AFD7E0C4A3CABD0033E2
:1004F4002ECFC2D2BBD2B300342EC2BCD2F4C4A31A
:10050400CABD00352EB2A5B7C5C2BCD2F400362E82
:10051400C9CFD2BBD2B300372ECFC2D2BBD2B30025
:10052400382EC1B7CFB0C4A3CABD00392EC9CFD2AB
:10053400BBD2B300312ED0C2B1A6B5BA00322EB0B0
:10054400AEBAD300332ED7A3C4E3C6BDB0B20034D1
:100554002ECCECBFD5D6AEB3C700D1DDD7E0C4A353
:10056400CABD00B0B4C8CED2E2BCFCB7B5BBD8009B
:10057400B8DFD2F400D6D0D2F400B5CDD2F400C2A4
:10058400BCD2F4C4A3CABD00312EBFAACABCC2BC2B
:10059400D2F400B0B4C6E4CBFBBCFCB7B5BBD80006
:1005A400B0B4C8CED2E2BCFCBDE1CAF8C2BCD2F43D
:1005B40000C2BCD2F4CDEAB3C900B2A5B7C5C2BC6F
:1005C400D2F4004552524F5221004572726F72218B
:1005D40000526967687421004572726F72204E750B
:1005E4006D626572206973001C80204026202B40B8
:1005F400302039A04020394030402B4030202B405F
:10060400268020202620202026201CFE20FE3920A3
:1006140026202B202610203026202B20262439208B
:1006240026202B202610203026202B20262439207B
:1006340026202B202610203026202B20262439206B
:1006440026202B202610203026202B20260BFF26A8
:100654000BFF26A030202020241026B0302020209C
:10066400241026101C2026202B202B202B10301089
:100674002B10302026E0260BFF260BFF26A030206F
:100684002020241026B030202020241026301C20C6
:1006940026202B202B202B1030102B10300BFF305A
:1006A4001030FF0030202B202620262020201C2064
:1006B4001C303010302026202B20302030202B20DE
:1006C400264030202B202620262020201C201C30D1
:1006D4003010302026202B203020302032203020B3
:1006E40000262020202020261020102080262030C4
:1006F4002030203910301030802620202020201C6B
:100704002020802B20262020202B1026102B802612
:100714002030203020391026102660401039102651
:10072400203020302039102610268026202B102B34
:10073400102B203010391026102B102B202B40406A
:1007440020201020102B102630308018201820264E
:10075400202020204026202B20302030201C202048
:100764002020801C201C201C2030203060391030B8
:100774001020202B1026102B10261026102B102BA7
:10078400801820182026202020206026102B2030BE
:100794002030201C202020208026203010301030D3
:1007A40020392026102B102B202B404010401020E5
:1007B4001020102B102630308000263026301C40AC
:1007C40020301C301830206026302630244026305B
:1007D400243018402660182018201820194024308E
:1007E4002430193019601C30193018401930183071
:1007F40013301960263026301C4020301C3018304D
:100804002080263024302430183019201930183034
:100814001520152013201840183019301C201C20D6
:10082400193020301C601830153013401530133047
:100834001030156020302030183019301830133043
:1008440013601C2019201830193015201520184069
:1008540020302030123013301530183013C013807C
:1008640013300E801030103013201520184018302B
:1008740015301820152015301030136013300E6019
:10088400106013201520184018301530152018203A
:0D089400153019301C601C3019301CC000DC
:102590004805FF000000BC00F901D25501FB605660
:1025A0004C48403932302B2624201C1918151312A0
:1025B000100E0D4401F740E000004101F60141001A
:1025C00000014205FBFFFF4205FD00004105F90047
:1017A900900631EEF0A3EFF0A3EBF0A3EAF0A3E982
:0117B900F03F
:1017BA00900638EBF0A3EAF0A3E9F0C3EE64809454
:1017CA0080502E900638E0FBA3E475F001120BDC82
:1017DA00A9F0FA742D120B17900631E0FEA3E0FF70
:1017EA00EE3395E0FDFC120BF2900631EEF0A3EF1A
:1017FA00F0900638E0F9A3E0FAA3E0A3C9F0A3EA5F
:10180A00F0A3E9F0900636E0FAA3E0FB900631E097
:10181A00FEA3E0FFAD03AC02120B3B90063EECF0D8
:10182A00A3EDF0900631E0FEA3E0FFAD03AC021297
:10183A000B90900631EEF0A3EFF090063EE0FEA387
:10184A00E0FFD39409EE94004005EF2457800790F7
:10185A00063EA3E02430FF900638E0FBA3E475F0CF
:10186A0001120BDCA9F0FAEF120B17D3900632E043
:10187A009400900631E0648094805088900638E0A5
:10188A00FBA374FFF5F0120BDCA9F0FAE4120B17B4
:10189A00900638E0FBA3E0FAA3E0F9120AD1FF9020
:1018AA00063BE0FBA3E0FAA3E0F9120AD1FE900698
:1018BA0038E0FBA3E0FAA3E0F9EE120B1790063B1F
:1018CA00E0FBA3E0FAA3E0F9EF120B1790063974D4
:1018DA00FFF5F0120BC690063CE475F001120BC638
:1018EA00900638E0FBA3E0FAA3E0F9C003C002C007
:1018FA0001A3A3E0FAA3E0F9C3D082D083D0E0E940
:10190A009582EA95834089900633E0FBA3E0FAA327
:02191A00E0F9F2
:01191C0022A8
:03000B0002274B7E
:10274B00C0E0C083C082758CDC758A00900001E00C
:09275B0004F0D082D083D0E032FA
:10269D00900607EFF0A3ECF0A3EDF0800E90060787
:1026AD00E05580600BB2C5A31226437580FF80ED07
:0726BD009001F67401F02208
:101A3C00E4F5C975CA3075B3C0F5B4F5B1F5B21299
:101A4C00261190063474FFF0A37404F0A374A4F070
:101A5C007B10E4FD7F0112243190063474FFF0A357
:101A6C007404F0A374B5F07B0C7D017F0212243159
:101A7C0090063474FFF0A37404F0A374C2F07B08D6
:101A8C007D027F0312243190063474FFF0A374049A
:101A9C00F0A374CBF07B0C7D017F04122431122750
:101AAC0064E4F5B3F5B4122611900000121B5475C2
:101ABC0090F0122764E59054F064F060F27F647E3D
:101ACC0000122654E59054F064F060721222479094
:101ADC0004FEEFF0E59054F064F060057590F08032
:101AEC00F39004FEE0120C0C1B130B1B1A0C1B1FA7
:101AFC000D1B210E1B26151B2B161B32171B391801
:101B0C001B411F00001B4A12191DC2C58022121551
:101B1C0076801D8020120C808016121E3A80119047
:101B2C000000740180149000007403800D121F15C6
:101B3C0090000080069000007402F0121B547FC4C9
:081B4C007E09122654021ABBA7
:0D277A0075890175A882758CDCE4F58A2252
:10276400E5C030E604D2CC8002C2CCE5C030E70339
:06277400D2CD22C2CD22ED
:1012FC0090060DE4F0A304F0E4A3F0A3F0EF25E0D6
:10130C0024FFF582E43405F583E0FEA3E0FF9006AC
:10131C000BEEF0A3EFF0900609EEF0A3EFF0120F36
:10132C00DE9006347401F0A37402F0A37410F0A3E1
:10133C00E4F0A37410F07B017A0679111223C990A2
:10134C0006347401F0A37406F0A37411F07B10E45E
:10135C00FD7F021224319006347401F0A37400F066
:10136C00A374FCF0A3E4F0A37410F07B017A06796B
:10137C00111223C99006347401F0A37406F0A374FF
:10138C0011F07B10E4FD7F031224319006347401BC
:10139C00F0A37400F0A37402F0A3E4F0A37410F0B3
:1013AC007B017A0679111223C99006347401F0A3DB
:1013BC007406F0A37411F07B10E4FD7F0412243149
:1013CC0002155F900609E475F001120BDCFE74EC5B
:1013DC0025F0F58274053EF583E493900607F0E062
:1013EC00F4700AC28C7F64FE12265480D6900607D5
:1013FC00E07003021575900609E475F001120BDC20
:10140C00FE74EC25F0F58274053EF583E4939006AA
:10141C0008F0D28CB2C5900607122650900001E05D
:10142C00FF900608E06F600302156790060BE0FE64
:10143C00A3E0FFC390060AE09FFF900609E09EFE22
:10144C00EF25E0FFEE33FE740A2FF58274033EF5B0
:10145C0083E0FCA3E0FD90060EE0C4F8540FC868CE
:10146C00FF90060DE0C454F048FED3ED9FEC9E5067
:10147C000302155F900610E02410F090060FE03484
:10148C0000F090060EE004F0700690060DE004F0FB
:10149C0090060FE0FEA3E02410F974023EFA9006C9
:1014AC00347401F0A3EAF0A3E9F0A3E4F0A3741000
:1014BC00F07B017A0679111223C99006347401F07D
:1014CC00A37406F0A37411F07B10E4FD7F021224C8
:1014DC003190060FE0FEA3E024FCF974003EFA9074
:1014EC0006347401F0A3EAF0A3E9F0A3E4F0A374CA
:1014FC0010F07B017A0679111223C990063474011D
:10150C00F0A37406F0A37411F07B10E4FD7F0312BA
:10151C00243190060FE0FEA3E02402F974003EFA99
:10152C009006347401F0A3EAF0A3E9F0A3E4F0A36D
:10153C007410F07B017A0679111223C99006347469
:10154C0001F0A37406F0A37411F07B10E4FD7F048A
:10155C00122431E4900001F00213CF7590F0E59065
:09156C0054F064F0700302142035
:011575002253
:0927920075B0FFE5B054F0FF2220
:10224700E490060AF0A3F07590F0E59054F0FF547F
:10225700F064F07002FF2275900FE590540F4FF471
:10226700120C0C229E1122AA1222B61422C2182284
:10227700A12122AD2222B92422C52822A44122B0BD
:102287004222BC4422C84822A78122B38222BF84AB
:1022970022CB88000022CE7F0B227F0C227F0D22CB
:1022A7007F0E227F15227F16227F17227F18227F1B
:1022B7001F227F20227F21227F22227F29227F2A1D
:0922C700227F2B227F2C227F00D4
:0122D00022EB
:10264300E0FEA3E024FAF58274013EF583E0FF7E09
:012653000086
:10265400E4FDFCC3ED9FEC9E5015E4FBFA0BBB00BC
:0F266400010AEB64024A70F50DBD00010C80E421
:012673002244
:061B5400E0FF3395E0FE06
:101B5A00900607EEF0A3EFF0122611900607E0FEBA
:101B6A00A3E0FFEE6003021C62EF24FE60611470C2
:101B7A0003021C3424026003021C6290063474FFC0
:101B8A00F0A37404F0A374D8F07B047D037F0112E0
:101B9A00243190063474FFF0A37404F0A374DDF0CA
:101BAA007B0AE4FD7F0212243190063474FFF0A30D
:101BBA007404F0A374E8F07B0AE4FD7F0312243175
:101BCA0090063474FFF0A37404F0A374F380529067
:101BDA00063474FFF0A37404F0A374FCF07B0AE4E7
:101BEA00FD7F0112243190063474FFF0A37405F0CE
:101BFA00A37407F07B0AE4FD7F02122431900634B5
:101C0A0074FFF0A37405F0A37412F07B08E4FD7F5F
:101C1A000312243190063474FFF0A37405F0A37400
:101C2A001BF07B08E4FD7F04802B90063474FFF0E0
:101C3A00A37405F0A37424F07B0AE4FD7F01122447
:101C4A003190063474FFF0A37405F0A3742FF07B6F
:091C5A0008E4FD7F02122431228E
:10191D0012261190063474FFF0A37405F0A37438E9
:10192D00F07B08E4FD7F0112243190063474FFF042
:10193D00A37405F0A37441F07B06E4FD7F0212242D
:10194D003190063474FFF0A37405F0A37448F07B56
:10195D000AE4FD7F0312243190063474FFF0A37462
:10196D0005F0A37453F07B0AE4FD7F0412243112B9
:10197D00277A7590F0122764E59054F064F060F5C5
:10198D007F647E00122654E59054F064F0700302DB
:10199D001A311222479004FEEFF024F4602B1460EC
:1019AD004614606124036003021A3B12261190064F
:1019BD003474FFF0A37405F0A37438F07B08E4FDD4
:1019CD007F01122431E4FF805812261190063474E1
:1019DD00FFF0A37405F0A37441F07B06E4FD7F01D5
:1019ED001224317F01803A12261190063474FFF0D3
:1019FD00A37405F0A37448F07B0AE4FD7F01122463
:101A0D00317F02801C12261190063474FFF0A374EE
:101A1D0005F0A37453F07B0AE4FD7F011224317F9E
:0F1A2D00030212FC7FC47E091226540219822282
:1015760012276412261190063474FFF0A37405F046
:10158600A3745EF07B087D027F011224319006343D
:1015960074FFF0A37405F0A37467F07B0C7D017FE4
:1015A600041224317590F0E59054F064F0601F7FCA
:1015B600647E00122654E59054F064F0600912220D
:1015C600479004FEEFF0227F647E00122654758059
:1015D600FF122764A2CDE4FE33FF7C007D07120BC9
:1015E60029EF2407FBE43EFAA2CCE4FE33FF120BFC
:1015F60029C3EB9FFDEA9EFC120A179001F7120C15
:1016060000E4FFFE7D607C419001F7E0F8A3E0F97D
:10161600A3E0FAA3E0FB120999700F90063474FF59
:10162600F0A37405F0A37474804EE4FFFE7DE07CA5
:10163600409001F7E0F8A3E0F9A3E0FAA3E0FB127B
:101646000999700F90063474FFF0A37405F0A37423
:10165600798025E4FFFEFDFC9001F7E0F8A3E0F9B0
:10166600A3E0FAA3E0FB120999701790063474FF01
:10167600F0A37405F0A3747EF07B047D037F021251
:101686002431E58030E024E4FFFE7DE07C409001DB
:10169600F7E0F8A3E0F9A3E0FAA3E0FB1208A8122A
:1016A6000A50AD07AC067F010217A3E58030E1249E
:1016B600E4FFFE7DC07C409001F7E0F8A3E0F9A3CB
:1016C600E0FAA3E0FB1208A8120A50AD07AC067FA9
:1016D600020217A3E58030E224E4FFFE7DA07C40F1
:1016E6009001F7E0F8A3E0F9A3E0FAA3E0FB120803
:1016F600A8120A50AD07AC067F040217A3E5803096
:10170600E323E4FFFE7D807C409001F7E0F8A3E050
:10171600F9A3E0FAA3E0FB1208A8120A50AD07AC41
:10172600067F088078E58030E423E4FFFE7D407C78
:10173600409001F7E0F8A3E0F9A3E0FAA3E0FB127A
:1017460008A8120A50AD07AC067F108050E580301D
:10175600E522E4FFFEFD7C409001F7E0F8A3E0F906
:10176600A3E0FAA3E0FB1208A8120A50AD07AC06E4
:101776007F208029E58020E6030215AAE4FFFE7D8E
:10178600807C3F9001F7E0F8A3E0F9A3E0FAA3E03C
:10179600FB1208A8120A50AD07AC067F4012269D20
:0317A6000215AA7F
:100C8000E4900607F0A3F0A3F09005FDF0A3F07444
:100C9000FF9005FBF0A3F0E49005F9F01227641231
:100CA000261190063474FFF0A37405F0A37483F04A
:100CB0007B087D027F0112243190063474FFF0A37B
:100CC0007405F0A3748CF07B0AE4FD7F02122431DA
:100CD00090063474FFF0A37405F0A37497F07B0CB6
:100CE0007D017F04122431900607E070387590F082
:100CF000E59054F064F060EF7F647E00122654E5C6
:100D00009054F064F060151222479004FEEFF02436
:100D1000F56003020FDD9006077401F07F647E002A
:100D200012265480C27E007FFA7D007B017A04790E
:100D3000FF120C3212261190063474FFF0A37405D2
:100D4000F0A374A4F07B10E4FD7F04122431E4903E
:100D50000001F012277A7590F0E59054F064F0608D
:100D6000667F647E00122654E59054F064F0605073
:100D70001222479004FEEFF090063474FFF0A37443
:100D800005F0A374B5F07B08E4FD7F0312243190D5
:100D900005F9E0FF900608E0FCA3E0FD24FFF582E2
:100DA00074043CF583EFF09005FBA3E0FFA3A3E000
:100DB000C39FFF74002DF58274053CF583EFF0228C
:100DC0007F647E001226547580FF122764A2CDE452
:100DD000FE33FF7C007D07120B29EF2407FBE43E66
:100DE000FAA2CCE4FE33FF120B29C3EB9FFDEA9E6F
:100DF000FC120A179001F7120C00E4FFFE7D607CE4
:100E0000419001F7E0F8A3E0F9A3E0FAA3E0FB12B8
:100E10000999700F90063474FFF0A37405F0A37461
:100E200074804EE4FFFE7DE07C409001F7E0F8A383
:100E3000E0F9A3E0FAA3E0FB120999700F900634E1
:100E400074FFF0A37405F0A374798025E4FFFEFD20
:100E5000FC9001F7E0F8A3E0F9A3E0FAA3E0FB12AD
:100E60000999701790063474FFF0A37405F0A37409
:100E70007EF07B047D037F02122431E58030E02C7C
:100E8000E4FFFE7DE07C409001F7E0F8A3E0F9A3E9
:100E9000E0FAA3E0FB1208A8120A50AD07AC0690D6
:100EA0000608E0FAA3E0FB7F01020FCFE58030E106
:100EB0002CE4FFFE7DC07C409001F7E0F8A3E0F950
:100EC000A3E0FAA3E0FB1208A8120A50AD07AC0693
:100ED000900608E0FAA3E0FB7F02020FCFE5803026
:100EE000E22CE4FFFE7DA07C409001F7E0F8A3E057
:100EF000F9A3E0FAA3E0FB1208A8120A50AD07AC70
:100F000006900608E0FAA3E0FB7F04020FCFE5801D
:100F100030E32CE4FFFE7D807C409001F7E0F8A3F5
:100F2000E0F9A3E0FAA3E0FB1208A8120A50AD070B
:100F3000AC06900608E0FAA3E0FB7F08020FCFE5BD
:100F40008030E42BE4FFFE7D407C409001F7E0F828
:100F5000A3E0F9A3E0FAA3E0FB1208A8120A50AD3F
:100F600007AC06900608E0FAA3E0FB7F108060E57E
:100F70008030E52AE4FFFEFD7C409001F7E0F8A315
:100F8000E0F9A3E0FAA3E0FB1208A8120A50AD07AB
:100F9000AC06900608E0FAA3E0FB7F208031E580F4
:100FA00020E603020D56E4FFFE7D807C3F9001F7B2
:100FB000E0F8A3E0F9A3E0FAA3E0FB1208A8120A04
:100FC00050AD07AC06900608E0FAA3E0FB7F4012A4
:0D0FD000208E900608EEF0A3EFF0020D5603
:010FDD0022F1
:10208E0090060AECF0A3EDF0A3EAF0A3EBF0A9079B
:10209E009005FBE0FEA3E0FFF47002EEF4602B90DF
:1020AE0005F9E0FD90060CE0FAA3E0FB24FFF582B3
:1020BE0074043AF583EDF0900001E0C39FFF7400C5
:1020CE002BF58274053AF583EFF07580FF900001D1
:1020DE00E0FF9005FBE4F0A3EFF0E58059600DB250
:1020EE00C590060A1226437580FF80EE900001E02F
:1020FE00FF9005FDE4F0A3EFF090060AE0FEA3E0EA
:10210E0024FAF58274013EF583E09005F9F090060D
:0D211E000DE02402FF90060CE03400FE22CC
:101E3A0012276412261190063474FFF0A37405F079
:101E4A00A374BEF07B087D027F0112243190063410
:101E5A0074FFF0A37405F0A37467F07B0C7D017F17
:101E6A000412243112277A900608E4F0A37402F0CF
:101E7A00E4900001F0900608E0FEA3E024FFF5825A
:101E8A0074043EF583E0900607F0701990063474E6
:101E9A00FFF0A37405F0A374C7F07B06E4FD7F018D
:101EAA0012243180FE900608E475F001120BDCFE64
:101EBA0074FF25F0F58274043EF583E0900607F07E
:101ECA00E0F9F4700AC28C7F64FE12265480D6E9C7
:101EDA006038900608E475F001120BDCFE74FF25E9
:101EEA00F0F58274043EF583E0F9D28CB2C590060F
:101EFA0007122650900001E0B50104E4F080A675AF
:0A1F0A0090F0E59054F064F060E2FE
:011F140022AA
:080FDE00900631EEF0A3EFF0E4
:100FE600900635EEF0A3EFF0E4A3F0A3F00212E2D0
:100FF600900633E0F970030212FB900637E0FCA37B
:10100600E0FD900631E0FEA3E0FFC3900636E09FC8
:10101600FF900635E09EFEEF25E0FFEE33FE740AF4
:101026002FF58274033EF583ECF0A3EDF0E9120C84
:101036000C10F90D10E40E10CF1010BA1210A513F3
:10104600109015107A1810F91910E41C10CF201002
:10105600BA2410A52610902B107A3010F93210E41D
:101066003910CF4010BA4810A54C109056107A602F
:101076000000110E900637E0FEA3E024FCF5827412
:10108600003EF5837431F002111F900637E0FEA38F
:10109600E024FCF58274003EF5837432F0807A9089
:1010A6000637E0FEA3E024FCF58274003EF5837467
:1010B60033F08065900637E0FEA3E024FCF58274E9
:1010C600003EF5837434F08050900637E0FEA3E0CE
:1010D60024FCF58274003EF5837435F0803B90065F
:1010E60037E0FEA3E024FCF58274003EF5837436F7
:1010F600F08026900637E0FEA3E024FCF58274001B
:101106003EF5837437F08011900636E004F07006E1
:10111600900635E004F00212E2900633E0FFF47028
:1011260003020FF6C3EF943274809480401D90063C
:1011360037E0FEA3E0FF2402F58274003EF58374D7
:101146002EF074102FF58274028035900633E0D3AA
:10115600941874809480900637E0FEA3E0FF500D4B
:101166002410F58274023EF583742E800B2410F54C
:101176008274023EF5837420F074022FF5827400A7
:101186003EF5837420F0900636E004F07006900673
:1011960035E004F0900635E0FEA3E024ECF5827419
:1011A600053EF583E493FF900634F07E00642070DC
:1011B6002D900636E004F07006900635E004F090B7
:1011C6000638E004F07006900637E004F090063525
:1011D600E0FCA3E024ECF58274053C0212F0EF6417
:1011E600104E7016900637E0FEA3E02402F58274D6
:1011F600003EF583742DF00212C6900634E0FF7EA1
:101206000064087016900637E0FCA3E02402F5821D
:1012160074003CF583743DF00212C6EF64304E70E4
:101226003E900638E004F07006900637E004F09031
:101236000637E0FEA3E0FF24FCF58274003EF5834A
:10124600742EF074022FF58274003EF5837420F03C
:1012560074102FF58274023EF5837420F08061903D
:101266000634E0C39440748094804054804C9006C9
:1012760034E0C39420748094804045900638E0049E
:10128600F07006900637E004F0900637E0FEA3E023
:10129600FF24FCF58274003EF583742DF074022F52
:1012A600F58274003EF5837420F074102FF5827475
:1012B600023EF5837420F0900634E024E0F080AE20
:1012C600900636E004F07006900635E004F09006CD
:1012D60038E004F07006900637E004F0900635E03A
:1012E600FEA3E024ECF58274053EF583E4939006B4
:0512F60033F0020FF6C9
:0112FB0022D0
:10254800900631ECF0A3EDF0A3EAF0A3EBF0A907B5
:10255800800DE58059600DB2C5900631122643758D
:1025680080FF80EE900631E0FEA3E024FAF5827445
:10257800013EF583E0FF900633E0B40008A3E0B520
:0825880007037F00227F0122FE
:10000E00E4900624F0A3F0900630F090060CF0A3D6
:10001E0004F0E4A3F0A3F0EF25E0FFEE33FE74FF4F
:10002E002FF58274053EF583E0FEA3E0FF90060AED
:10003E00EEF0A3EFF0900608EEF0A3EFF0120FDE55
:10004E009006347401F0A37402F0A37410F0A3E4CC
:10005E00F0A37410F07B017A0679101223C9900672
:10006E00347401F0A37406F0A37410F07B10E4FD59
:10007E007F021224319006347401F0A37400F0A3B1
:10008E0074FCF0A3E4F0A37410F07B017A067910EF
:10009E001223C99006347401F0A37406F0A37410F1
:1000AE00F07B10E4FD7F031224319006347401F0CE
:1000BE00A37400F0A37402F0A3E4F0A37410F07B19
:1000CE00017A0679101223C99006347401F0A374D4
:1000DE0006F0A37410F07B10E4FD7F04122431901F
:1000EE000608E0FEA3E024ECF58274053EF583E4F9
:1000FE0093900607F0900607E07003020439F4703F
:10010E0024900609E004F07006900608E004F090D2
:10011E000608E0FEA3E024ECF58274053EF583E4C8
:10012E0093900607F0122764A2CDE4FE33FF7C0005
:10013E007D07120B29AA06AB07A2CCE4FE33FF12F1
:10014E000B29C3EF9BFDEE9AFC120A179001F712D2
:10015E000C007580FFE58030E02BE4FFFE7DE07C37
:10016E00409001F7E0F8A3E0F9A3E0FAA3E0FB1258
:10017E0008A8120A50AD07AC06900607E0FB7A00FD
:10018E007F010202B0E58030E12BE4FFFE7DC07CF2
:10019E00409001F7E0F8A3E0F9A3E0FAA3E0FB1228
:1001AE0008A8120A50AD07AC06900607E0FB7A00CD
:1001BE007F020202B0E58030E22BE4FFFE7DA07CE0
:1001CE00409001F7E0F8A3E0F9A3E0FAA3E0FB12F8
:1001DE0008A8120A50AD07AC06900607E0FB7A009D
:1001EE007F040202B0E58030E32BE4FFFE7D807CCD
:1001FE00409001F7E0F8A3E0F9A3E0FAA3E0FB12C8
:10020E0008A8120A50AD07AC06900607E0FB7A006C
:10021E007F080202B0E58030E42AE4FFFE7D407CD8
:10022E00409001F7E0F8A3E0F9A3E0FAA3E0FB1297
:10023E0008A8120A50AD07AC06900607E0FB7A003C
:10024E007F10805EE58030E529E4FFFEFD7C409066
:10025E0001F7E0F8A3E0F9A3E0FAA3E0FB1208A887
:10026E00120A50AD07AC06900607E0FB7A007F201D
:10027E008030E58020E603020133E4FFFE7D807CC2
:10028E003F9001F7E0F8A3E0F9A3E0FAA3E0FB1238
:10029E0008A8120A50AD07AC06900607E0FB7A00DC
:1002AE007F40122548900630EFF0900630E0601D3A
:1002BE00900625E004F07006900624E004F0900607
:1002CE003474FFF0A37405F0A374CE800D90063441
:1002DE0074FFF0A37405F0A374D5F07B06E4FD7FE4
:1002EE0001122431900609E02402F0900608E03451
:1002FE0000F0E0FEA3E0FF24ECF58274053EF583EA
:10030E00E493900607F090060AE0FCA3E0FDC3EF2D
:10031E009DFFEE9CFEEF25E0FFEE33FE740A2FF5F7
:10032E008274033EF583E0FCA3E0FD90060DE0C46D
:10033E00F8540FC868FF90060CE0C454F048FED382
:10034E00ED9FEC9E500302010390060FE02410F087
:10035E0090060EE03400F090060DE004F07006906A
:10036E00060CE004F090060EE0FEA3E02410F974F3
:10037E00023EFA9006347401F0A3EAF0A3E9F0A36A
:10038E00E4F0A37410F07B017A0679101223C99061
:10039E0006347401F0A37406F0A37410F07B10E41D
:1003AE00FD7F0212243190060EE0FEA3E024FCF93C
:1003BE0074003EFA9006347401F0A3EAF0A3E9F05B
:1003CE00A3E4F0A37410F07B017A0679101223C90E
:1003DE009006347401F0A37406F0A37410F07B1031
:1003EE00E4FD7F0312243190060EE0FEA3E024020A
:1003FE00F974003EFA9006347401F0A3EAF0A3E912
:10040E00F0A3E4F0A37410F07B017A0679101223A6
:10041E00C99006347401F0A37406F0A37410F07B37
:10042E0010E4FD7F041224310201031226119006FE
:10043E003474FFF0A37405F0A374DCF07B10E4FDBC
:10044E007F01122431900624E0FEA3E0FF7B017AA7
:10045E00067926900636E4F0A3740AF01217A990D6
:10046E0006347401F0A37406F0A37426F07B0AE43C
:10047E00FD7F021224317590F0E59054F064F06027
:10048E00F57F647E00122654E59054F064F07005FA
:05049E0012265480E16C
:0104A3002236
:101F150012261190063474FFF0A37405F0A37438EB
:101F2500F07B08E4FD7F0112243190063474FFF044
:101F3500A37405F0A37441F07B06E4FD7F0212242F
:101F45003190063474FFF0A37405F0A37448F07B58
:101F55000AE4FD7F0312243190063474FFF0A37464
:101F650005F0A37453F07B0AE4FD7F041224317558
:101F750090F0122764E59054F064F060F57F647E7C
:101F850000122654E59054F064F0603A122247900E
:101F950004FEEFF024F4601214601814601E24038C
:101FA500702D122611E4FFFE80191226117F017E85
:101FB5000080101226117F027E0080071226117FF5
:101FC500037E0002000E7FC47E0912265480A322E0
:1026EB00C2C2C2C0D2C11226C7D2C2E4F596F595BA
:1026FB00900639E5A0F01226C7C2C2900639E02039
:02270B00E7DE07
:01270D0022A9
:1025D100FEEF8EF0A47C002DFFEC35F0FEE0FBA3B6
:0D25E100E0FAA3E0F98F828E83120AEAFF70
:1025EE00900638EFF01226EBD2C2D2C0C2C1759659
:1025FE00FFE4F5959006381226C4C2C27F147E0001
:03260E000226CBD6
:0626740090065DE02FFF5F
:10267A00900638EFF01226EBD2C2C2C0C2C17596DC
:10268A00FFE4F5959006381226C4C2C27F147E0074
:03269A000226CB4A
:0B249800900654EBF0A3EAF0A3E9F07B
:1024A30012267AE4900658F0900657E0FFA3E0FE68
:1024B300C39F503F900654E0FBA3E0FAA3E0F975F5
:1024C300F002EEA4F58285F0831225EA900654E02B
:1024D300FBA3E0FAA3E0F9900658E075F002A42408
:1024E30001F582E435F0F5831225EA900658E004FD
:0324F300F080B5C1
:0124F60022C3
:07243100900633EBF0AC074D
:10243800ECFB7A0064017007ED2480900637F0EB1E
:1024480064024A7007ED2490900637F0EC6403703C
:1024580007ED2488900637F0EC64047007ED2498A3
:10246800900637F0900637E0FF12267A900633E0A0
:10247800601DA3E0FBA3E475F001120BDCA9F0FAE0
:0F248800120AD1FF1225EE900633E014F080DD2A
:012497002222
:0522D100900659EFF03A
:1022D600E4A3F090065AE0FFC39402748094805001
:1022E60036900659E02FFF12267A7FFF1225EEE47C
:1022F600FF1225EE90065AE004F0E0FF900659E042
:102306002FFF12267AE4FF1225EEE4FF1225EE9047
:10231600065AE004F080BC90065A7402F090065A01
:10232600E0FFC3941074809480501B900659E02FF0
:10233600FF12267AE4FF1225EEE4FF1225EE900640
:062346005AE004F080D70C
:01234C00226E
:05234D0090065BEFF0BB
:10235200E4A3F090065CE0FFC39404748094805080
:102362003690065BE02FFF12267A7FFF1225EEE4FD
:10237200FF1225EE90065CE004F0E0FF90065BE0C1
:102382002FFF12267AE4FF1225EEE4FF1225EE90CB
:10239200065CE004F080BC90065C7404F090065C7D
:1023A200E0FFC3941074809480501B90065BE02F72
:1023B200FF12267AE4FF1225EEE4FF1225EE9006C4
:0623C2005CE004F080D78E
:0123C80022F2
:051D570090065DEFF0B5
:101D5C00E4A3F090065EE0FFC3940274809480507C
:101D6C002A1226747FFF1225EEE4FF1225EE900650
:101D7C005EE004F0E0FF122674E4FF1225EEE4FFAF
:101D8C001225EE90065EE004F080C890065E7402A8
:101D9C00F090065EE0FFC394067480948050151298
:101DAC002674E4FF1225EEE4FF1225EE90065EE0A9
:101DBC0004F080DD90065DE02406FF12267A7F1881
:101DCC001225EEE4FF1225EE90065DE02407FF12CB
:101DDC00267A7F3C1225EEE4FF1225EE90065DE09C
:101DEC002408FF12267A7F3C1225EEE4FF1225EE22
:101DFC0090065DE02409FF12267A7F181225EEE486
:101E0C00FF1225EE90065E740AF090065EE0FFC3AA
:101E1C009410748094805015122674E4FF1225EEF1
:0D1E2C00E4FF1225EE90065EE004F080DD7C
:011E39002286
:051C630090065FEFF0A8
:101C6800E4A3F0900660E0FFC3940474809480506D
:101C78003690065FE02FFF12267A7FFF1225EEE4EA
:101C8800FF1225EE900660E004F0E0FF90065FE0AA
:101C98002FFF12267AE4FF1225EEE4FF1225EE90BC
:101CA8000660E004F080BC90065FE02404FF122682
:101CB8007AE4FF1225EEE4FF1225EE90065FE02499
:101CC80005FF12267AE4FF1225EEE4FF1225EE90B6
:101CD800065FE02406FF12267A7F181225EEE4FF3D
:101CE8001225EE90065FE02407FF12267A7F3C1249
:101CF80025EEE4FF1225EE90065FE02408FF122689
:101D08007A7F3C1225EEE4FF1225EE90065FE02470
:101D180009FF12267A7F181225EEE4FF1225EE90AD
:101D28000660740AF0900660E0FFC3941074809413
:101D380080501B90065FE02FFF12267AE4FF1225E1
:0E1D4800EEE4FF1225EE900660E004F080D776
:011D5600226A
:1024F7007F3412267A7F3612267AE4900661F090AE
:102507000661E0FFC39420748094805033EF2480E9
:10251700FF12267A7F8012267AE4900662F09006F0
:1025270062E0C3942074809480500DE4FF1225EE7E
:10253700900662E004F080E6900661E004F080BF58
:012547002271
:0B1FD500900640EFF0A3EDF0A3EBF04E
:101FE0007F3412267A7F3612267AE4900648F090E3
:101FF0000642E0FF900648E0FEC39F4003022089AE
:10200000900640E02EFF12267A7F8012267AE49016
:102010000649F0900641E0FF900649E0FDC39F505D
:1020200012900648E09006431225D1900649E0043C
:10203000F080E0E4900646F0A3F0900641E0F9FF5E
:10204000900646E0FAA3E0FBC39FEA94005031906B
:102050000642E0FF900648E02FFFE433FEE9FD7CF6
:1020600000120B29EB2FFFEA3EFE9006431225DEFD
:10207000900647E004F07006900646E004F080BA4F
:0E208000900648E004F0021FEF7F3002267A3F
:10272E00900663EFF0A3EDF07F3412267A900664E4
:0D273E00E0FF12267A900663E0FF02267A83
:0B212B0090064AEFF0A3EDF0A3EBF0EC
:10213600E4900651F090064DE0FF900651E0FEC394
:102146009F5068EEFF90064BE0FD2FFFE433FEC381
:10215600EF9420EE6480948090064AE0500BC454BD
:102166000F2480FFED2480800AC4540F2488FFA327
:10217600E02460FE900651E02EFD12272EE4900624
:1021860052F090064CE0FF900652E0FDC39F5012BD
:10219600900651E090064E1225D1900652E004F0CA
:1021A60080E0900651E004F002213B7F3612267A49
:0521B6007F3002267AD3
:10261100D2C31226C77F3012267A1226C77F021232
:10262100267A1226C77F0C12267A1226C77F061237
:10263100267A1226C77F8012267A1226C77F0102C8
:02264100267AF7
:10270E00AD07AC06ECC313ED1375F008A42480FFDF
:10271E00ED5401C454F02FFF12267A7F0F02267A51
:0726C400E0F5A07F147E0089
:1026CB00E4FDFCC3ED9FEC9E5015E4FBFA0BBB0045
:0F26DB00010AEB64784A70F50DBD00010C80E434
:0126EA0022CD
:0A278700E4FEEEC39F50030E80F83D
:012791002225
:1008A100020ABCE86480F8E933E83360110460F0BF
:1008B100ED33EC337009E8FCE9FDEAFEEBFF2204BD
:1008C10060DED3EB9FEA9EE99DE8C2E78CF0C2F7B8
:1008D10095F0400CE8CCF8E9CDF9EACEFAEBCFFB84
:1008E100120A8785D0F05804700320D5B3E804704C
:1008F100075002B2D5020AC692D5EC0460F7E4CCE7
:10090100C0E0C398F8603B94186008400DD0E0FB4C
:10091100020A9EE4FBFAC9FC8028E830E406E4C937
:10092100FBE4CAFCE830E305E4C9CACBFCE85407A0
:100931006010F8C3E913F9EA13FAEB13FBEC13FCAB
:10094100D8F130F52FC3E49CFCEF9BFFEE9AFEED4E
:1009510099FDD0E0FBEF4E4D4C701222DB03020AF1
:10096100C3EC2CFCEF33FFEE33FEED33FDED30E74E
:10097100EB020A9EEF2BFFEE3AFEED39FDD0E0FBD4
:1009810050130BBB0003020AC6ED13FDEE13FEEF7D
:0809910013FFEC13FC020A9EA7
:1009990074F8CC6480CCC86480C8F58204604FC305
:1009A900EB9FF5F0EA9E42F0E99D42F0E89C45F0A4
:1009B900603C501DE5825FFFE582D313CB5BCBF42E
:1009C9002B5582FB50280ABA002409B90020088057
:1009D9001DE5825BFBE582D313CF5FCFF4C3132FF1
:1009E9005582FF50090EBE00050DBD00010CC3EB79
:1009F9009FF5F0EA9E42F0E99D42F0E89C45F060DF
:090A090007CC4820E701B3EC2200
:100A120075F020800E75F010800575F0087D007E5F
:100A2200007F003392D530D503120BF2EC33401025
:100A3200EF33FFEE33FEED33FDEC33FCD5F0ED2268
:0E0A4200E5F0247EA2D513CC92E7CDCEFF22A4
:100A5000EDD2E7CD33EC3392D524814006E4FFFE9E
:100A6000FDFC22FCE4CFCECDCC24E0501174FF80FD
:100A7000EDC3CC13CCCD13CDCE13CECF13CF04709A
:070A8000F030D5DE020BF29D
:100A8700E9D2E7C933E833F892D5EDD2E7CD33ECB5
:070A970033FC5002B2D5222E
:100A9E00EC30E7100FBF000C0EBE00080DBD0004B9
:100AAE000BEB6014A2D5EB13FCED92E7FD2274FF65
:100ABE00FCFDFEFF22E480F8A2D574FF13FC7D80BE
:030ACE00E480EFD2
:030000000221BB1F
:0C21BB00787FE4F6D8FD7581070222024F
:100AD100BB010689828A83E0225002E722BBFE0223
:090AE100E32289828A83E4932256
:100AEA00BB010CE58229F582E5833AF583E02250C1
:100AFA0006E92582F8E622BBFE06E92582F8E2220B
:0D0B0A00E58229F582E5833AF583E4932224
:100B1700BB010689828A83F0225002F722BBFE01BD
:020B2700F322B7
:100B2900EF8DF0A4A8F0CF8CF0A428CE8DF0A42EE0
:020B3900FE229A
:100B3B00BC000BBE0029EF8DF084FFADF022E4CC9E
:100B4B00F875F008EF2FFFEE33FEEC33FCEE9DEC67
:100B5B00984005FCEE9DFE0FD5F0E9E4CEFD22EDAD
:100B6B00F8F5F0EE8420D21CFEADF075F008EF2FF7
:100B7B00FFED33FD4007985006D5F0F222C398FDE8
:050B8B000FD5F0EA2285
:100B9000C2D5EC30E709B2D5E4C39DFDE49CFCEE80
:100BA00030E715B2D5E4C39FFFE49EFE120B3BC3B2
:100BB000E49DFDE49CFC8003120B3B30D507C3E4AD
:060BC0009FFFE49EFE22EF
:100BC600C5F0F8A3E028F0C5F0F8E58215827002BA
:060BD6001583E038F02257
:100BDC00A3F8E0C5F025F0F0E582158270021583CC
:060BEC00E0C838F0E82229
:0E0BF200C3E49FFFE49EFEE49DFDE49CFC2214
:0C0C0000ECF0A3EDF0A3EEF0A3EFF02267
:100C0C00D083D082F8E4937012740193700DA3A377
:100C1C0093F8740193F5828883E47374029368608B
:060C2C00EFA3A3A380DF8B
:1023C900900631EBF0A3EAF0A3E9F0E4900639F0C6
:1023D900A3F090063774FFF5F0120BDC45F0603C72
:1023E900900634E0FBA3E0FAA3E0F9120AD1FF90CA
:1023F9000631E0FBA3E0FAA3E0F9900639E475F0B1
:1024090001120BDC85F082F583EF120C5EEF60C2DE
:10241900900635E475F001120BC680B6900631E0DE
:08242900FBA3E0FAA3E0F92295
:100C3200EF4E6012EF60010EEDBB010B89828A83D9
:100C4200F0A3DFFCDEFA2289F05007F709DFFCA9E6
:0C0C5200F022BBFEFCF309DFFCA9F0223D
:1021C700021A3CE493A3F8E493A34003F68001F2D8
:1021D70008DFF48029E493A3F85407240CC8C33319
:1021E700C4540F4420C8834004F456800146F6DFE8
:1021F700E4800B0102040810204080902590E47EC3
:10220700019360BCA3FF543F30E509541FFEE493DC
:10221700A360010ECF54C025E060A840B8E493A3A3
:10222700FAE493A3F8E493A3C8C582C8CAC583CACE
:10223700F0A3C8C582C8CAC583CADFE9DEE780BE86
:0125D000000A
:100C5E00F8BB010DE58229F582E5833AF583E8F0CC
:100C6E00225006E92582C8F622BBFE05E92582C878
:020C7E00F22260
:00000001FF
