:10050000D5E3BDADB4F3D1A7B9E2B5E7D1A7D4BA6D
:1005100000B5E7D7D3CFDFC2B7C9E8BCC6003837CC
:1005200039353131393700D2BABEA7CFD4CABEB3BC
:10053000C9B9A600B2CBB5A500312EB2A5B7C5D2B8
:10054000F4C0D600322EB5AFD7E0C4A3CABD003385
:100550002ECFC2D2BBD2B300D2F4C0D6B2A5B7C59B
:1005600000B0B4C8CED2E2BCFCB7B5BBD800D1DD78
:10057000D7E0C4A3CABD00322EBDB5B5CDD2F4B804
:10058000DF00332ECCE1B8DFD2F4B8DF00D2F4B80C
:10059000DFD2D1BEADCAC7D7EEB5CDC1CB00D2F444
:1005A000B8DFD2D1BEADCAC7D7EEB8DFC1CB001C11
:1005B00080204026202B40302039A0402039403078
:1005C000402B4030202B4026802020262020202633
:1005D000201CFE20FE392026202B2026102030262D
:1005E000202B202624392026202B202610203026C0
:1005F000202B202624392026202B202610203026B0
:10060000202B202624392026202B2026102030269F
:10061000202B20260BFF260BFF26A0302020202495
:100620001026B030202020241026101C2026202B3D
:10063000202B202B1030102B10302026E0260BFF13
:10064000260BFF26A030202020241026B0302020AA
:1006500020241026301C2026202B202B202B10306D
:0B066000102B10300BFF301030FF009B
:100E3700150E60564C48403832302B2624201C199A
:100E470018151312100E0D040A40E00000010901E5
:03000B00020EDA08
:090EDA00758CDC758A00050832F4
:100DCA008F258C268D278014E58055256013B2C5A2
:100DDA00740D2527F8E6FF7E00120DF37580FF805B
:050DEA00E7750901227C
:10073600E4F5C975CA3075B3C0F5B4F5B1F5B212B2
:100746000D18752AFF752B05752C007B10E4FD7FAF
:1007560001120C42752AFF752B05752C117B0C7D39
:10076600017F02120C42752AFF752B05752C1E7B24
:10077600087D027F03120C42752AFF752B05752C26
:10078600277B0C7D017F04120C42120E99E4F5B30F
:10079600F5B4120D187F017E00120BE97590F01268
:1007A6000EE3EF54F064F07035120E99E59054F0B4
:1007B60064F060EB120DEFE59054F064F060E01227
:1007C60009C28F23E52324F460080470D2120D4A6F
:1007D600800312028C7F017E00120BE980C17FC468
:0707E6007E09120DF380A350
:0D0EC20075890175A882758CDCE4F58A2223
:100E9900E5C030E604D2CC8002C2CCE5C030E7031D
:060EA900D2CD22C2CD22D1
:100ABC00E4F508EF75F0D9A485F027F5280528E5AD
:100ACC0028AE27700205271424AFF58274053EF575
:100ADC0083E493F525F4700AC28C7F64FE120DF347
:100AEC0080DBE52560380528E528AE277002052750
:100AFC001424AFF58274053EF583E493F526D28C6D
:100B0C00B2C5AF257E00120DF3E526B50805E4F558
:0E0B1C000880AA7590F0E59054F064F060E255
:010B2A0022A8
:090EE30075B0FFE5B054F0FF22E8
:1009C200E4F525F5267590F0E59054F0FF54F064B7
:1009D200F07002FF2275900FE590540F4FF412024F
:1009E200660A17110A23120A2F140A3B180A1A213F
:1009F2000A26220A32240A3E280A1D410A29420AEC
:100A020035440A41480A20810A2C820A38840A4461
:100A12008800000A477F0B227F0C227F0D227F0E67
:100A2200227F15227F16227F17227F18227F1F2204
:100A32007F20227F21227F22227F29227F2A227F5A
:070A42002B227F2C227F0014
:010A4900228A
:040DEF007F647E009F
:100DF300E4FDFCC3ED9FEC9E5015E4FBFA0BBB0036
:0F0E0300010AEB64024A70F50DBD00010C80E49A
:010E120022BD
:100BE9008E258F26120D18E525704DE526147048BF
:100BF900752AFF752B05752C347B047D037F011243
:100C09000C42752AFF752B05752C397B0AE4FD7F8B
:100C190002120C42752AFF752B05752C447B0AE4D8
:100C2900FD7F03120C42752AFF752B05752C4F7B2E
:090C390008E4FD7F04120C4222C4
:100D4A00120D18752AFF752B05752C587B087D0224
:100D5A007F01120C42752AFF752B05752C617B0CDD
:0F0D6A007D017F04120C42120EC2E4FF020ABC8C
:10028C00120E99120D18752AFF752B05752C6E7BA5
:10029C00087D027F01120C42E4FFFEFDFCAB0DAAAF
:1002AC000CA90BA80A1201066012752AFF752B0502
:1002BC00752C777B0AE4FD7F02120C42E4FFFE7D75
:1002CC00607C41AB0DAA0CA90BA80A1201066012A6
:1002DC00752AFF752B05752C827B0AE4FD7F0312B2
:1002EC000C42752AFF752B05752C617B0C7D017FEB
:1002FC0004120C427590F0E59054F064F070030217
:10030C000405120DEFE59054F064F0700302040242
:10031C001209C28F23E52324F3606F0460030204E7
:10032C00FFE5097003020402E4FFFEFDFCAB0DAA1D
:10033C000CA90BA80A120106601C401AAF0DAE0CDA
:10034C00AD0BAC0AE4FBFA79E078401200118F0D8A
:10035C008E0C8D0B8C0AE4FFFEFDFCAB0DAA0CA9D8
:10036C000BA80A1201067011752AFF752B05752C46
:10037C008D7B10FD7F02120C42752AFF752B0575C3
:10038C002C827B0AE4FD7F038066E5096068E4FF4C
:10039C00FE7D607C41AB0DAA0CA90BA80A120106CC
:1003AC00501AAF0DAE0CAD0BAC0AE4FBFA79E07849
:1003BC00401200158F0D8E0C8D0B8C0AE4FFFE7D08
:1003CC00607C41AB0DAA0CA90BA80A120106701196
:1003DC00752AFF752B05752C9E7B10FD7F03120C67
:1003EC0042752AFF752B05752C777B0AE4FD7F027D
:1003FC00120C42E4F509120DEF7580FFE58030E038
:10040C001EE4FFFE7DE07C40AB0DAA0CA90BA80AF4
:10041C0012001512017FAD07AC067F010204F9E54D
:10042C008030E11EE4FFFE7DC07C40AB0DAA0CA920
:10043C000BA80A12001512017FAD07AC067F020251
:10044C0004F9E58030E21EE4FFFE7DA07C40AB0D9C
:10045C00AA0CA90BA80A12001512017FAD07AC0655
:10046C007F040204F9E58030E31DE4FFFE7D807C0F
:10047C0040AB0DAA0CA90BA80A12001512017FADF6
:10048C0007AC067F088066E58030E41DE4FFFE7D46
:10049C00407C40AB0DAA0CA90BA80A120015120146
:1004AC007FAD07AC067F108044E58030E51CE4FF8F
:1004BC00FEFD7C40AB0DAA0CA90BA80A120015126C
:1004CC00017FAD07AC067F208023E58020E6030288
:1004DC000300E4FFFE7D807C3FAB0DAA0CA90BA8AA
:1004EC000A12001512017FAD07AC067F40120DCA2F
:0404FC0002030022D5
:100E5800C2C2C2C0D2C1120E13D2C2E4F596F59531
:100E680085A02F7F14FE120E17C2C2E52F20E7E0DF
:010E78002257
:060D7900F583120219FFD0
:100D7F008F2E120E58D2C2D2C0C2C17596FFE4F5A3
:100D8F0095852EA07F14FE120E17C2C27F147E000F
:030D9F00020E172A
:050DA200E54D254EFFA8
:100DA7008F2E120E58D2C2C2C0C2C17596FFE4F58B
:100DB70095852EA07F14FE120E17C2C27F147E00E7
:030DC700020E1702
:060C95008B448A458946EC
:100C9B00120DA7E4F548E548C39547502EAB44AA7F
:100CAB0045A94675F002E548A4F58285F083120D3F
:100CBB007BAB44AA45A94675F002E548A42401F58F
:0B0CCB0082E435F0120D79054880CB63
:010CD60022FB
:020C42008B29FC
:100C4400EFFB7A0064017005ED2480F52DEB64025E
:100C54004A7005ED2490F52DEB64034A7005ED24EC
:100C640088F52DEB64044A7005ED2498F52DAF2D1D
:100C7400120DA7E5296019AB2A052CE52CAA2B70C7
:100C840002052B14F9120200FF120D7F152980E3CF
:010C9400223D
:020B2B008F49F0
:100B2D00E4F54AC3E54A940274809480502AE5495D
:100B3D00254AFF120DA77FFF120D7FE4FF120D7FD7
:100B4D00054AE549254AFF120DA7E4FF120D7FE482
:100B5D00FF120D7F054A80CB754A02C3E54A9410FA
:100B6D00748094805016E549254AFF120DA7E4FFC5
:0C0B7D00120D7FE4FF120D7F054A80DF9F
:010B89002249
:020B8A008F4B8F
:100B8C00E4F54CC3E54C940474809480502AE54BF6
:100B9C00254CFF120DA77FFF120D7FE4FF120D7F76
:100BAC00054CE54B254CFF120DA7E4FF120D7FE41D
:100BBC00FF120D7F054C80CB754C04C3E54C941093
:100BCC00748094805016E54B254CFF120DA7E4FF62
:0C0BDC00120D7FE4FF120D7F054C80DF3E
:010BE80022EA
:0207ED008F4D2E
:1007EF00E4F54EC3E54E9402748094805020120DB0
:1007FF00A27FFF120D7FE4FF120D7F054E120DA297
:10080F00E4FF120D7FE4FF120D7F054E80D5754E6C
:10081F0002C3E54E9406748094805011120DA2E429
:10082F00FF120D7FE4FF120D7F054E80E4E54D248E
:10083F0006FF120DA77F18120D7FE4FF120D7FE543
:10084F004D2407FF120DA77F3C120D7FE4FF120D01
:10085F007FE54D2408FF120DA77F3C120D7FE4FFAB
:10086F00120D7FE54D2409FF120DA77F18120D7F82
:10087F00E4FF120D7F754E0AC3E54E9410748094F9
:10088F00805011120DA2E4FF120D7FE4FF120D7FB5
:04089F00054E80E49E
:0108A3002232
:02066B008F4FAF
:10066D00E4F550C3E550940474809480502AE54F0E
:10067D002550FF120DA77FFF120D7FE4FF120D7F96
:10068D000550E54F2550FF120DA7E4FF120D7FE435
:10069D00FF120D7F055080CBE54F2404FF120DA7EF
:1006AD00E4FF120D7FE4FF120D7FE54F2405FF12CD
:1006BD000DA7E4FF120D7FE4FF120D7FE54F240619
:1006CD00FF120DA77F18120D7FE4FF120D7FE54F6E
:1006DD002407FF120DA77F3C120D7FE4FF120D7F43
:1006ED00E54F2408FF120DA77F3C120D7FE4FF128A
:1006FD000D7FE54F2409FF120DA77F18120D7FE422
:10070D00FF120D7F75500AC3E550941074809480CC
:10071D005016E54F2550FF120DA7E4FF120D7FE493
:08072D00FF120D7F055080DF73
:0107350022A1
:100CD7007F34120DA77F36120DA7E4F551C3E551F6
:100CE7009420748094805028E5512480FF120DA72A
:100CF7007F80120DA7E4F552C3E5529420748094C7
:100D0700805009E4FF120D7F055280EC055180CD1C
:010D170022B9
:0608A4008F308D318B3214
:1008AA007F34120DA77F36120DA7E4F538E538C359
:1008BA0095325073E5302538FF120DA77F80120D4F
:1008CA00A7E4F539E539C39531501CE5318538F08F
:1008DA00A42539F582E435F0F583AB33AA34A9357A
:1008EA00120D7B053980DDE4F536F537C3E537951A
:1008FA0031E5369400502BE5382532FFE433FEAD5E
:10090A00317C00120246E5372FFFE5363EAB33AAAB
:10091A0034A9358F82120D790537E53770CE053641
:0C092A0080CA05380208B77F30020DA714
:100EAF008F538D547F34120DA7AF54120DA7AF532C
:030EBF00020DA77A
:060A4A008F3A8D3B8B3C4E
:100A5000E4F541E541C3953D5058E53B2541FFE4B0
:100A600033FEC3EF9420EE64809480E53AC4540FC3
:100A700050092480FFE53B248080072488FFE53B64
:100A800024602541FD120EAFE4F542E542C3953CDA
:100A9000501CE53C8541F0A42542F582E435F0F593
:100AA00083AB3EAA3FA940120D7B054280DD054184
:0C0AB00080A17F36120DA77F30020DA739
:100D1800D2C3120E137F30120DA7120E137F0212C8
:100D28000DA7120E137F0C120DA7120E137F0612B9
:100D38000DA7120E137F80120DA7120E137F01024A
:020D48000DA7F5
:100E7900AD07AC06ECC313ED1375F008A42480FF8D
:100E8900ED5401C454F02FFF120DA77F0F020DA7D7
:040E13007F147E00CA
:100E1700E4FDFCC3ED9FEC9E5015E4FBFA0BBB0011
:0F0E2700010AEB64784A70F50DBD00010C80E400
:010E36002299
:0A0ECF00E4FEEEC39F50030E80F80E
:010ED90022F6
:10000E000201EBE86480F8E933E83360110460F034
:10001E00ED33EC337009E8FCE9FDEAFEEBFF220458
:10002E0060DED3EB9FEA9EE99DE8C2E78CF0C2F753
:10003E0095F0400CE8CCF8E9CDF9EACEFAEBCFFB1F
:10004E001201B685D0F05804700320D5B3E80470C1
:10005E00075002B2D50201F592D5EC0460F7E4CC5C
:10006E00C0E0C398F8603B94186008400DD0E0FBE8
:10007E000201CDE4FBFAC9FC8028E830E406E4C9AD
:10008E00FBE4CAFCE830E305E4C9CACBFCE854073C
:10009E006010F8C3E913F9EA13FAEB13FBEC13FC47
:1000AE00D8F130F52FC3E49CFCEF9BFFEE9AFEEDEA
:1000BE0099FDD0E0FBEF4E4D4C701222DB03020196
:1000CE00F2EC2CFCEF33FFEE33FEED33FDED30E7BB
:1000DE00EB0201CDEF2BFFEE3AFEED39FDD0E0FB4A
:1000EE0050130BBB00030201F5ED13FDEE13FEEFF3
:0800FE0013FFEC13FC0201CD1D
:1001060074F8CC6480CCC86480C8F58204604FC3A0
:10011600EB9FF5F0EA9E42F0E99D42F0E89C45F03F
:10012600603C501DE5825FFFE582D313CB5BCBF4C9
:100136002B5582FB50280ABA002409B900200880F2
:100146001DE5825BFBE582D313CF5FCFF4C3132F8C
:100156005582FF50090EBE00050DBD00010CC3EB14
:100166009FF5F0EA9E42F0E99D42F0E89C45F0607A
:0901760007CC4820E701B3EC229C
:10017F00EDD2E7CD33EC3392D524814006E4FFFE78
:10018F00FDFC22FCE4CFCECDCC24E0501174FF80D7
:10019F00EDC3CC13CCCD13CDCE13CECF13CF047074
:0701AF00F030D5DE0202581A
:1001B600E9D2E7C933E833F892D5EDD2E7CD33EC8F
:0701C60033FC5002B2D52208
:1001CD00EC30E7100FBF000C0EBE00080DBD000493
:1001DD000BEB6014A2D5EB13FCED92E7FD2274FF3F
:1001ED00FCFDFEFF22E480F8A2D574FF13FC7D8098
:0301FD00E480EFAC
:03000000020936BC
:0C093600787FE4F6D8FD75815402097D3D
:10020000BB010689828A83E0225002E722BBFE02FC
:09021000E32289828A83E493222F
:10021900BB010CE58229F582E5833AF583E022509A
:1002290006E92582F8E622BBFE06E92582F8E222E4
:0D023900E58229F582E5833AF583E49322FE
:10024600EF8DF0A4A8F0CF8CF0A428CE8DF0A42ECC
:02025600FE2286
:0E025800C3E49FFFE49EFEE49DFDE49CFC22B7
:10026600D083D082F8E4937012740193700DA3A327
:1002760093F8740193F5828883E47374029368603B
:06028600EFA3A3A380DF3B
:10094200020736E493A3F8E493A34003F68001F28E
:1009520008DFF48029E493A3F85407240CC8C333B6
:10096200C4540F4420C8834004F456800146F6DF85
:10097200E4800B0102040810204080900E37E47ED0
:10098200019360BCA3FF543F30E509541FFEE4937A
:10099200A360010ECF54C025E060A840B8E493A341
:1009A200FAE493A3F8E493A3C8C582C8CAC583CA6C
:1009B200F0A3C8C582C8CAC583CADFE9DEE780BE24
:010E5700009A
:00000001FF
