:1003D200D5E3BDADB4F3D1A7B9E2B5E7D1A7D4BA9D
:1003E20000B5E7D7D3CFDFC2B7C9E8BCC6003837FC
:1003F20039353131393700D2BABEA7CFD4CABEB3EC
:10040200C9B9A600CFB5CDB3BDF8D0D0B0B4BCFC4D
:10041200BCECB2E2004B45595F56414C55453A306F
:1004220031004B45595F56414C55453A3032004BED
:1004320045595F56414C55453A3033004B45595F5B
:1004420056414C55453A3034004B45595F56414C64
:1004520055453A3035004B45595F56414C55453A62
:100462003036004B45595F56414C55453A303700BE
:100472004B45595F56414C55453A3038004B45592A
:100482005F56414C55453A3039004B45595F56410C
:100492004C55453A3130004B45595F56414C554514
:1004A2003A3131004B45595F56414C55453A31324C
:1004B200004B45595F56414C55453A3133004B4547
:1004C200595F56414C55453A3134004B45595F56B8
:1004D200414C55453A3135004B45595F56414C55D3
:1004E200453A313600CFB5CDB3BDF8D0D0D2F4C045
:1004F200D6B2A5B7C500506C6179696E67204D759B
:1005020073696300CFB5CDB3BDF8D0D0B9E2F1EED7
:10051200BCECB2E200313AB8DF00313AB5CD00327C
:100522003AB8DF00323AB5CD00333AB8DF00333A99
:10053200B5CD00343AB8DF00343AB5CD00353AB81B
:10054200DF00353AB5CD00363AB8DF00363AB5CDE0
:1005520000373AB8DF202000373AB5CD20200026F8
:10056200202020202026102010208026203020301D
:10057200203910301030802620202020201C2020FE
:10058200802B20262020202B1026102B8026203086
:1005920020302039102610266040103910262030D5
:1005A20020302039102610268026202B102B102BCD
:1005B200203010391026102B102B202B40402020E9
:1005C2001020102B102630308018201820262020D2
:1005D20020204026202B20302030201C20202020CC
:1005E200801C201C201C203020306039103010204C
:1005F200202B1026102B10261026102B102B8018C3
:1006020020182026202020206026102B2030203089
:10061200201C20202020802620301030103020394D
:100622002026102B102B202B404010401020102091
:08063200102B1026303080006F
:03000B00020CD50F
:090CD500758CDC758A00052432DF
:10000E00E4F5C975CA3075B3C0F5B4F5B1F5B212E1
:10001E000B80751EFF751F037520D27B10E4FD7FCC
:10002E0001120AC4751EFF751F037520E37B0C7D3C
:10003E00017F02120AC4751EFF751F037520F07B27
:10004E00087D027F03120AC4751EFF751F037520FB
:10005E00F97B0C7D017F04120AC4120CDEEF54F002
:10006E0064F0705A120C88E4F5B3F5B4120B807577
:10007E001EFF751F037520D27B10E4FD7F01120A4F
:10008E00C4751EFF751F037520E37B0C7D017F0277
:10009E00120AC4751EFF751F037520F07B087D02C2
:1000AE007F03120AC4751EFF751F037520F97B0CA2
:1000BE007D017F04120AC47FC47E09120C48120C03
:1000CE00DEEF30E7030202907590F0120B80751E82
:1000DE00FF751F047520067B10E4FD7F01120AC414
:1000EE00751EFF751F037520F07B087D027F0312BE
:1000FE000AC4751EFF751F037520D27B10E4FD7FA9
:10010E000402028A120CDEEF30E703020068120CC2
:10011E0088E59054F064F060EB7F647E00120C482A
:10012E00E59054F064F060DC12082F8F25E525125F
:10013E00091001740B01860C01980D01AA0E01BC69
:10014E001501CE1601E01701F21802041F02152048
:10015E0002262102372202482902592A026A2B025C
:10016E007B2C00000112751EFF751F047520177B76
:10017E000C7D017F0202028A751EFF751F04752019
:10018E00247B0C7D017F0202028A751EFF751F04FF
:10019E007520317B0C7D017F0202028A751EFF7570
:1001AE001F0475203E7B0C7D017F0202028A751EA4
:1001BE00FF751F0475204B7B0C7D017F0202028AA6
:1001CE00751EFF751F047520587B0C7D017F020282
:1001DE00028A751EFF751F047520657B0C7D017FDD
:1001EE000202028A751EFF751F047520727B0C7D3C
:1001FE00017F0202028A751EFF751F0475207F7B28
:10020E000C7D017F028075751EFF751F0475208C95
:10021E007B0C7D017F028064751EFF751F047520A7
:10022E00997B0C7D017F028053751EFF751F04752F
:10023E0020A67B0C7D017F028042751EFF751F0478
:10024E007520B37B0C7D017F028031751EFF751FFB
:10025E00047520C07B0C7D017F028020751EFF750A
:10026E001F047520CD7B0C7D017F02800F751EFF54
:10027E00751F047520DA7B0C7D017F02120AC40201
:10028E000112120CDEEF20E659120C88120B80754B
:10029E001EFF751F047520E77B10E4FD7F01120A17
:1002AE00C4751EFF751F047520F87B0D7D017F023E
:1002BE00120AC4751EFF751F037520F07B087D02A0
:1002CE007F03120AC4751EFF751F037520D27B10A3
:1002DE00E4FD7F04120AC4120CB1E4FF12093602C7
:1002EE000068120CDEEF30E503020068120C887510
:1002FE001EFF751F057520067B10E4FD7F01120A97
:10030E00C47580FFE5807BFF30E0067A05791780A3
:10031E00047A05791C751F027F90120B09E5807B0C
:10032E00FF30E1067A05792180047A057926751F5A
:10033E00027F92120B09E5807BFF30E2067A057987
:10034E002B80047A057930751F027F94120B09E514
:10035E00807BFF30E3067A05793580047A05793A99
:10036E00751F027F96120B09E5807BFF30E4067A3B
:10037E0005793F80047A057944751F027F88120B38
:10038E0009E5807BFF30E5067A05794980047A0518
:10039E00794E751F027F8A120B09E5807BFF30E6CE
:1003AE00067A05795380047A05795A751F037F8C76
:1003BE00120B097FC47E09120C487FFA7E00120CC4
:0403CE004802006879
:0D0CB10075890175A882758CDCE4F58A2236
:100C8800E5C030E604D2CC8002C2CCE5C030E70330
:060C9800D2CD22C2CD22E4
:10093600E4F524EF75F0D9A485F01DF51E120CDE42
:10094600EF20E65F051EE51EAE1D7002051D142490
:1009560061F58274053EF583E493F51BB4FF0BC283
:100966008C7F647E00120C4880D3E51B7001220543
:100976001EE51EAE1D7002051D142461F582740568
:100986003EF583E493F51CD28C120CDEEF20E6AD27
:10099600B2C5AF1B7E00120C48E51CB524EBE4F58E
:0509A60024809AC2C587
:0109AB002229
:090CDE0075B0FFE5B054F0FF22EF
:10082F00E4F51BF51C7590F0E59054F0FF54F0FEC5
:10083F00BEF0037F002275900FE590540F4FF41216
:10084F000910088511089112089D1408A918088825
:10085F002108942208A02408AC28088B410897424D
:10086F0008A34408AF48088E81089A8208A6840816
:10087F00B288000008B57F0B227F0C227F0D227FEC
:10088F000E227F15227F16227F17227F18227F1FAD
:10089F00227F20227F21227F22227F29227F2A224C
:0908AF007F2B227F2C227F002206
:100C4800E4FDFCC3ED9FEC9E5015E4FBFA0BBB00E2
:0F0C5800010AEB64024A70F50DBD00010C80E447
:010C6700226A
:100C2700C2C2C2C0D2C1120C03D2C2E4F596F59576
:100C370085A0237F14FE120C07C2C2E52320E7E03C
:010C4700228A
:060BB200F5831208D1FFDB
:100BB8008F22120C27D2C2D2C0C2C17596FFE4F5AB
:100BC800958522A07F14FE120C07C2C27F147E00F6
:030BD800020C0705
:050BDB00E52B252CFFB5
:100BE0008F22120C27D2C2C2C0C2C17596FFE4F593
:100BF000958522A07F14FE120C07C2C27F147E00CE
:030C0000020C07DC
:060B09008B1C8A1D891EF1
:100B0F00120BE0E4F520E520C3951F502EAB1CAA75
:100B1F001DA91E75F002E520A4F58285F083120B46
:100B2F00B4AB1CAA1DA91E75F002E520A42401F583
:0B0B3F0082E435F0120BB2052080CBE1
:010B4A002288
:020AC4008B1D88
:100AC600BF0105ED2480F521BF0205ED2490F52137
:100AD600BF0305ED2488F521BF0405ED2498F52113
:100AE600AF21120BE0E51D6019AB1E0520E520AA1B
:100AF6001F7002051F14F91208B8FF120BB8151D56
:020B060080E38A
:010B080022CA
:020A1E008F2720
:100A2000E4F528E5272528FF120BE07FFF120BB81D
:100A3000E4FF120BB80528E5272528FF120BE0E498
:100A4000FF120BB8E4FF120BB80528E528C3940287
:100A500040D1752802E5272528FF120BE0E4FF129C
:100A60000BB8E4FF120BB80528E528C3941040E545
:010A70002263
:020A71008F29CB
:100A7300E4F52AE529252AFF120BE07FFF120BB8C4
:100A8300E4FF120BB8052AE529252AFF120BE0E43F
:100A9300FF120BB8E4FF120BB8052AE52AC394042E
:100AA30040D1752A04E529252AFF120BE0E4FF1241
:100AB3000BB8E4FF120BB8052AE52AC3941040E5EE
:010AC3002210
:0206F9008F2B45
:1006FB00E4F52C120BDB7FFF120BB8E4FF120BB8E7
:10070B00052C120BDBE4FF120BB8E4FF120BB80540
:10071B002CE52CC3940240DB752C02120BDBE4FF9F
:10072B00120BB8E4FF120BB8052CE52CC394064052
:10073B00EAE52B2406FF120BE07F18120BB8E4FF3F
:10074B00120BB8E52B2407FF120BE07F3C120BB802
:10075B00E4FF120BB8E52B2408FF120BE07F3C12D1
:10076B000BB8E4FF120BB8E52B2409FF120BE07F4B
:10077B0018120BB8E4FF120BB8752C0A120BDBE442
:10078B00FF120BB8E4FF120BB8052CE52CC3941029
:02079B0040EA32
:01079D002239
:02063A008F2D02
:10063C00E4F52EE52D252EFF120BE07FFF120BB8F3
:10064C00E4FF120BB8052EE52D252EFF120BE0E46E
:10065C00FF120BB8E4FF120BB8052EE52EC3940461
:10066C0040D1E52D2404FF120BE0E4FF120BB8E49B
:10067C00FF120BB8E52D2405FF120BE0E4FF120B63
:10068C00B8E4FF120BB8E52D2406FF120BE07F181F
:10069C00120BB8E4FF120BB8E52D2407FF120BE088
:1006AC007F3C120BB8E4FF120BB8E52D2408FF12A7
:1006BC000BE07F3C120BB8E4FF120BB8E52D2409BC
:1006CC00FF120BE07F18120BB8E4FF120BB8752E5B
:1006DC000AE52D252EFF120BE0E4FF120BB8E4FF08
:0C06EC00120BB8052EE52EC3941040E55B
:0106F80022DF
:100B4B007F34120BE07F36120BE0E4F52FE52F24F8
:100B5B0080FF120BE07F80120BE0E4F530E4FF1214
:100B6B000BB80530E530C3942040F2052FE52FC3B9
:040B7B00942040D9A9
:010B7F002253
:06079E008F088D098B0A93
:1007A4007F34120BE07F36120BE0E4F510E510C342
:1007B400950A5072E5082510FF120BE07F80120B9A
:1007C400E0E4F511E511C39509501CE5098510F025
:1007D400A42511F582E435F0F583AB0BAA0CA90D21
:1007E400120BB4051180DDE4F50EF50FE509FD7C6F
:1007F40000C3E50F9DE50E9C5027E510250AFFE494
:1008040033FE1208FEE50F2FFFE50E3EAB0BAA0CDC
:10081400A90D8F82120BB2050FE50F70CF050E8064
:0B082400CB05100207B17F30020BE093
:100C9E008F318D327F34120BE0AF32120BE0AF3159
:030CAE00020BE056
:0609AC008F128D138B1465
:1009B200E4F519E519C395155058E5132519FFE417
:1009C20033FEC3EF9420EE64809480E512C4540F8A
:1009D20050092480FFE513248080072488FFE51353
:1009E20024602519FD120C9EE4F51AE51AC395142C
:1009F200501CE5148519F0A4251AF582E435F0F5AA
:100A020083AB16AA17A918120BB4051A80DD0519B3
:0C0A120080A17F36120BE07F30020BE069
:100B8000D2C3120C037F30120BE0120C037F02124F
:100B90000BE0120C037F0C120BE0120C037F061209
:100BA0000BE0120C037F80120BE0120C037F01029A
:020BB0000BE058
:100C6800AD07AC06ECC313ED1375F008A42480FFA0
:100C7800ED5401C454F02FFF120BE07F0F020BE07C
:040C03007F147E00DC
:100C0700E4FDFCC3ED9FEC9E5015E4FBFA0BBB0023
:0F0C1700010AEB64784A70F50DBD00010C80E412
:010C260022AB
:0A0CCA00E4FEEEC39F50030E80F815
:010CD40022FD
:03000000020CBE31
:0C0CBE00787FE4F6D8FD75813202000E4C
:1008B800BB010689828A83E0225002E722BBFE023E
:0908C800E32289828A83E4932271
:1008D100BB010CE58229F582E5833AF583E02250DC
:1008E10006E92582F8E622BBFE06E92582F8E22226
:0D08F100E58229F582E5833AF583E4932240
:1008FE00EF8DF0A4A8F0CF8CF0A428CE8DF0A42E0E
:02090E00FE22C7
:10091000D083D082F8E4937012740193700DA3A376
:1009200093F8740193F5828883E47374029368608A
:06093000EFA3A3A380DF8A
:00000001FF
