:10097900D5E3BDADB4F3D1A7B9E2B5E7D1A7D4BAF0
:1009890000B5E7D7D3CFDFC2B7C9E8BCC60038374F
:1009990039353131393700D2BABEA7CFD4CABEB33F
:1009A900C9B9A600B2CBB5A500312EB2A5B7C5D23B
:1009B900F4C0D600322EB5AFD7E0C4A3CABD003308
:1009C9002ECFC2D2BBD2B300342EC2BCD2F4C4A340
:1009D900CABD00352EB2A5B7C5C2BCD2F400362EA9
:1009E900C9CFD2BBD2B300372ECFC2D2BBD2B3004C
:1009F900382EC1B7CFB0C4A3CABD00392EC9CFD2D2
:100A0900BBD2B300312ED0C2B1A6B5BA00322EB0D6
:100A1900AEBAD300332ED7A3C4E3C6BDB0B20034F7
:100A29002ECCECBFD5D6AEB3C700D1DDD7E0C4A379
:100A3900CABD00B0B4C8CED2E2BCFCB7B5BBD800C1
:100A4900B8DFD2F400D6D0D2F400B5CDD2F400C2CA
:100A5900BCD2F4C4A3CABD00312EBFAACABCC2BC51
:100A6900D2F400B0B4C6E4CBFBBCFCB7B5BBD8002C
:100A7900B0B4C8CED2E2BCFCBDE1CAF8C2BCD2F463
:100A890000C2BCD2F4CDEAB3C900B2A5B7C5C2BC95
:100A9900D2F4004572726F7221005269676874213D
:100AA900004572726F72204E756D626572206973AE
:100AB9000031003200330034003500360037001CA5
:100AC90080204026202B40302039A040203940305A
:100AD900402B4030202B4026802020262020202615
:100AE900201CFE20FE392026202B2026102030260F
:100AF900202B202624392026202B202610203026A2
:100B0900202B202624392026202B20261020302691
:100B1900202B202624392026202B20261020302681
:100B2900202B20260BFF260BFF26A0302020202477
:100B39001026B030202020241026101C2026202B1F
:100B4900202B202B1030102B10302026E0260BFFF5
:100B5900260BFF26A030202020241026B03020208C
:100B690020241026301C2026202B202B202B10304F
:100B7900102B10300BFF301030FF0030202B2026B7
:100B890020262020201C201C303010302026202B2D
:100B990020302030202B20264030202B20262026D4
:100BA9002020201C201C303010302026202B203003
:100BB900203020322030200026202020202026101E
:100BC900201020802620302030203910301030802D
:100BD9002620202020201C2020802B202620202099
:100BE9002B1026102B80262030203020391026107B
:100BF9002660401039102620302030203910261068
:100C0900268026202B102B102B203010391026106F
:100C19002B102B202B404020201020102B10263089
:100C290030801820182026202020204026202B2024
:100C3900302030201C20202020801C201C201C203B
:100C4900302030603910301020202B1026102B1046
:100C5900261026102B102B80182018202620202043
:100C6900206026102B20302030201C2020202080BE
:100C79002620301030103020392026102B102B2040
:100C89002B4040104010201020102B1026303080AF
:100C990000263026301C4020301C301830206026B9
:100CA9003026302440263024301840266018201879
:100CB900201820194024302430193019601C3019AB
:100CC9003018401930183013301960263026301C7E
:100CD9004020301C30183020802630243024301831
:100CE90030192019301830152015201320184018F4
:100CF9003019301C201C20193020301C6018301588
:100D09003013401530133010301560203020301862
:100D19003019301830133013601C2019201830197D
:100D2900301520152018402030203012301330158E
:100D390030183013C0138013300E80103010301368
:100D4900201520184018301530182015201530109E
:100D590030136013300E60106013201520184018EE
:100D690030153015201820153019301C601C301929
:080D7900301CC00037003700F8
:10287F004805FF000000BC00F901D25501FB60566E
:10288F004C48403932302B2624201C1918151312AE
:10289F00100E0D4401F740E000004101F601410028
:1028AF0000014205FBFFFF4205FD00004105F90055
:0B18AA007B01900636E4F0A3740AF006
:1018B500900631EEF0A3EFF0A3EBF0A3EAF0A3E975
:0118C500F032
:1018C600900638EBF0A3EAF0A3E9F0C3EE64809447
:1018D60080502E900638E0FBA3E475F00112043F19
:1018E600A9F0FA742D12037A900631E0FEA3E0FF08
:1018F600EE3395E0FDFC120455900631EEF0A3EFB1
:10190600F0900638E0F9A3E0FAA3E0A3C9F0A3EA51
:10191600F0A3E9F0900636E0FAA3E0FB900631E08A
:10192600FEA3E0FFAD03AC0212039E90063EECF070
:10193600A3EDF0900631E0FEA3E0FFAD03AC02128A
:1019460003F3900631EEF0A3EFF090063EE0FEA31F
:10195600E0FFD39409EE94004005EF2457800790EA
:10196600063EA3E02430FF900638E0FBA3E475F0C2
:101976000112043FA9F0FAEF12037AD3900632E07F
:101986009400900631E0648094805088900638E098
:10199600FBA374FFF5F012043FA9F0FAE412037AF0
:1019A600900638E0FBA3E0FAA3E0F9120334FF90B7
:1019B600063BE0FBA3E0FAA3E0F9120334FE90062F
:1019C60038E0FBA3E0FAA3E0F9EE12037A90063BB7
:1019D600E0FBA3E0FAA3E0F9EF12037A900639746C
:1019E600FFF5F012042990063CE475F00112042973
:1019F600900638E0FBA3E0FAA3E0F9C003C002C0FA
:101A060001A3A3E0FAA3E0F9C3D082D083D0E0E932
:101A16009582EA95834089900633E0FBA3E0FAA31A
:021A2600E0F9E5
:011A2800229B
:03000B00022A16B0
:102A1600C0E0C083C082758CDC758A00900001E03E
:092A260004F0D082D083D0E0322C
:0B264B00900607EFF0A3ECF0A3EDF009
:10265600780A7C067D017BFF7A0D797D7E007F02FC
:1026660012030E7580FF900608E0FEA3E0FF7C00D3
:102676007D071203F3AE04AF05EF4E60077A0679C5
:102686000A1218AA9006347401F0A37406F0A37413
:102696000AF07B017D047F03122720900607E05590
:1026A6008060081229007580FF80F09001F67401A1
:0126B600F033
:0126B7002200
:101C9600E4F5C975CA3075B3C0F5B4F5B1F5B2123D
:101CA600293490063474FFF0A37409F0A37479F014
:101CB6007B10E4FD7F0112272090063474FFF0A309
:101CC6007409F0A3748AF07B0C7D017F0212272031
:101CD60090063474FFF0A37409F0A37497F07B08A0
:101CE6007D027F0312272090063474FFF0A3740947
:101CF600F0A374A0F07B0C7D017F04122720122A2A
:101D06002FE4F5B3F5B4122934900000121DAE7518
:101D160090F0122A2FE59054F064F060F27F647E12
:101D260000122914E59054F064F060721224C990F0
:101D360004FEEFF0E59054F064F060057590F080D5
:101D4600F39004FEE012046F1D6D0B1D740C1D79DB
:101D56000D1D7B0E1D80151D85161D8C171D9318D8
:101D66001D9B1F00001DA4121B77C2C580221216E0
:101D760077801D8020120D818016122238801190E6
:101D86000000740180149000007403800D12217805
:101D960090000080069000007402F0121DAE7FC411
:081DA6007E09122914021D152B
:0D2A5A0075890175A882758CDCE4F58A226F
:102A2F00E5C030E604D2CC8002C2CCE5C030E7036B
:062A3F00D2CD22C2CD221F
:1013FD0090060DE4F0A304F0E4A3F0A3F0EF25E0D4
:10140D0024FFF582E43405F583E0FEA3E0FF9006AA
:10141D000BEEF0A3EFF0900609EEF0A3EFF0121033
:10142D00DF9006347401F0A37402F0A37410F0A3DE
:10143D00E4F0A37410F07B017A0679111226B890AE
:10144D0006347401F0A37406F0A37411F07B10E45C
:10145D00FD7F021227209006347401F0A37400F072
:10146D00A374FCF0A3E4F0A37410F07B017A067969
:10147D00111226B89006347401F0A37406F0A3740B
:10148D0011F07B10E4FD7F031227209006347401C8
:10149D00F0A37400F0A37402F0A3E4F0A37410F0B1
:1014AD007B017A0679111226B89006347401F0A3E7
:1014BD007406F0A37411F07B10E4FD7F0412272055
:1014CD00021660900609E475F00112043FFE74C81F
:1014DD0025F0F582740A3EF583E493900607F0E05B
:1014ED00F4700AC28C7F64FE12291480D690060710
:1014FD00E07003021676900609E475F00112043FC0
:10150D00FE74C825F0F582740A3EF583E4939006C7
:10151D0008F0D28CB2C5900607122910900001E098
:10152D00FF900608E06F600302166890060BE0FE60
:10153D00A3E0FFC390060AE09FFF900609E09EFE20
:10154D00EF25E0FFEE33FE740A2FF58274033EF5AE
:10155D0083E0FCA3E0FD90060EE0C4F8540FC868CC
:10156D00FF90060DE0C454F048FED3ED9FEC9E5065
:10157D0003021660900610E02410F090060FE03480
:10158D0000F090060EE004F0700690060DE004F0F9
:10159D0090060FE0FEA3E02410F974023EFA9006C7
:1015AD00347401F0A3EAF0A3E9F0A3E4F0A37410FE
:1015BD00F07B017A0679111226B89006347401F089
:1015CD00A37406F0A37411F07B10E4FD7F021227C3
:1015DD002090060FE0FEA3E024FCF974003EFA9083
:1015ED0006347401F0A3EAF0A3E9F0A3E4F0A374C8
:1015FD0010F07B017A0679111226B8900634740129
:10160D00F0A37406F0A37411F07B10E4FD7F0312B8
:10161D00272090060FE0FEA3E02402F974003EFAA5
:10162D009006347401F0A3EAF0A3E9F0A3E4F0A36B
:10163D007410F07B017A0679111226B89006347475
:10164D0001F0A37406F0A37411F07B10E4FD7F0488
:10165D00122720E4900001F00214D07590F0E5906F
:09166D0054F064F0700302152131
:011676002251
:092A720075B0FFE5B054F0FF223D
:1024C900E490060AF0A3F07590F0E59054F0FF54FB
:1024D900F064F07002FF2275900FE590540F4FF4ED
:1024E90012046F252011252C12253814254418258E
:1024F9002321252F22253B2425472825264125321E
:1025090042253E44254A482529812535822541848D
:10251900254D88000025507F0B227F0C227F0D223C
:102529007F0E227F15227F16227F17227F18227F96
:102539001F227F20227F21227F22227F29227F2A98
:09254900227F2B227F2C227F004F
:012552002266
:10290000B2C5A3E0FEA3E024FAF58274013EF5838C
:04291000E0FF7E0066
:10291400E4FDFCC3ED9FEC9E5015E4FBFA0BBB00F9
:0F292400010AEB64024A70F50DBD00010C80E45E
:012933002281
:061DAE00E0FF3395E0FEAA
:101DB400900607EEF0A3EFF0122934900607E0FE38
:101DC400A3E0FFEE6003021EBCEF24FE606114700A
:101DD40003021E8E24026003021EBC90063474FFAC
:101DE400F0A37409F0A374ADF07B047D037F0112AA
:101DF400272090063474FFF0A37409F0A374B2F0A2
:101E04007B0AE4FD7F0212272090063474FFF0A3BE
:101E14007409F0A374BDF07B0AE4FD7F031227204C
:101E240090063474FFF0A37409F0A374C880529030
:101E3400063474FFF0A37409F0A374D1F07B0AE4B0
:101E4400FD7F0112272090063474FFF0A37409F07B
:101E5400A374DCF07B0AE4FD7F0212272090063491
:101E640074FFF0A37409F0A374E7F07B08E4FD7F2A
:101E74000312272090063474FFF0A37409F0A374AE
:101E8400F0F07B08E4FD7F04802B90063474FFF0AF
:101E9400A37409F0A374F9F07B0AE4FD7F0112270F
:101EA4002090063474FFF0A3740AF0A37404F07B4A
:091EB40008E4FD7F021227202240
:101B770012293490063474FFF0A3740AF0A3740D8D
:101B8700F07B08E4FD7F0112272090063474FFF0F4
:101B9700A3740AF0A37416F07B06E4FD7F021227F4
:101BA7002090063474FFF0A3740AF0A3741DF07B31
:101BB7000AE4FD7F0312272090063474FFF0A37414
:101BC7000AF0A37428F07B0AE4FD7F041227201291
:101BD7002A5A7590F0122A2FE59054F064F060F5B8
:101BE7007F647E00122914E59054F064F0700302BC
:101BF7001C8B1224C99004FEEFF024F4602B1460B0
:101C07004614606124036003021C95122934900670
:101C17003474FFF0A3740AF0A3740DF07B08E4FD9D
:101C27007F01122720E4FF8058122934900634746C
:101C3700FFF0A3740AF0A37416F07B06E4FD7F019E
:101C47001227207F01803A12293490063474FFF05E
:101C5700A3740AF0A3741DF07B0AE4FD7F01122729
:101C6700207F02801C12293490063474FFF0A3747D
:101C77000AF0A37428F07B0AE4FD7F011227207F76
:0F1C8700030213FD7FC47E09122914021BDC2205
:10167700122A2F12293490063474FFF0A3740AF04B
:10168700A37433F07B087D027F0112272090063474
:1016970074FFF0A3740AF0A3743CF07B0C7D017F08
:1016A700041227207590F0E59054F064F0601F7FD6
:1016B700647E00122914E59054F064F06009122446
:1016C700C99004FEEFF0227F647E00122914758012
:1016D700FF122A2FA2CDE4FE33FF7C007D07120301
:1016E7008CEF2407FBE43EFAA2CCE4FE33FF12039F
:1016F7008CC3EB9FFDEA9EFC1201849001F7120454
:1017070063E4FFFE7D607C419001F7E0F8A3E0F918
:10171700A3E0FAA3E0FB120106700F90063474FFF2
:10172700F0A3740AF0A37449804EE4FFFE7DE07CC9
:10173700409001F7E0F8A3E0F9A3E0FAA3E0FB1279
:101747000106700F90063474FFF0A3740AF0A374B7
:101757004E8025E4FFFEFDFC9001F7E0F8A3E0F9D9
:10176700A3E0FAA3E0FB120106701790063474FF9A
:10177700F0A3740AF0A37453F07B047D037F021275
:101787002720E58030E024E4FFFE7DE07C409001E7
:10179700F7E0F8A3E0F9A3E0FAA3E0FB12001512C3
:1017A70001BDAD07AC067F010218A4E58030E12436
:1017B700E4FFFE7DC07C409001F7E0F8A3E0F9A3C9
:1017C700E0FAA3E0FB1200151201BDAD07AC067FDE
:1017D700020218A4E58030E224E4FFFE7DA07C40ED
:1017E7009001F7E0F8A3E0F9A3E0FAA3E0FB120009
:1017F700151201BDAD07AC067F040218A4E58030C1
:10180700E323E4FFFE7D807C409001F7E0F8A3E04E
:10181700F9A3E0FAA3E0FB1200151201BDAD07AC76
:10182700067F088078E58030E423E4FFFE7D407C76
:10183700409001F7E0F8A3E0F9A3E0FAA3E0FB1278
:1018470000151201BDAD07AC067F108050E5803052
:10185700E522E4FFFEFD7C409001F7E0F8A3E0F904
:10186700A3E0FAA3E0FB1200151201BDAD07AC0619
:101877007F208029E58020E6030216ABE4FFFE7D8A
:10188700807C3F9001F7E0F8A3E0F9A3E0FAA3E03A
:10189700FB1200151201BDAD07AC067F4012264BA7
:0318A7000216AB7B
:100D8100E4900607F0A3F0A3F09005FDF0A3F07442
:100D9100FF9005FBF0A3F0E49005F9F0122A2F1261
:100DA100293490063474FFF0A3740AF0A37458F048
:100DB1007B087D027F0112272090063474FFF0A387
:100DC100740AF0A37461F07B0AE4FD7F021227200C
:100DD10090063474FFF0A3740AF0A3746CF07B0CDA
:100DE1007D017F04122720900607E070387590F08E
:100DF100E59054F064F060EF7F647E00122914E501
:100E01009054F064F060151224C99004FEEFF024B0
:100E1100F560030210DE9006077401F07F647E0026
:100E210012291480C27E007FFA7D007B017A047949
:100E3100FF12049512293490063474FFF0A3740A4A
:100E4100F0A37479F07B10E4FD7F04122720E49075
:100E51000001F0122A5A7590F0E59054F064F060A8
:100E6100667F647E00122914E59054F064F06050AE
:100E71001224C99004FEEFF090063474FFF0A374BD
:100E81000AF0A3748AF07B08E4FD7F031227209007
:100E910005F9E0FF900608E0FCA3E0FD24FFF582E0
:100EA10074043CF583EFF09005FBA3E0FFA3A3E0FE
:100EB100C39FFF74002DF58274053CF583EFF0228A
:100EC1007F647E001229147580FF122A2FA2CDE4BF
:100ED100FE33FF7C007D0712038CEF2407FBE43E09
:100EE100FAA2CCE4FE33FF12038CC3EB9FFDEA9E12
:100EF100FC1201849001F7120463E4FFFE7D607C23
:100F0100419001F7E0F8A3E0F9A3E0FAA3E0FB12B6
:100F11000106700F90063474FFF0A3740AF0A374F5
:100F210049804EE4FFFE7DE07C409001F7E0F8A3AC
:100F3100E0F9A3E0FAA3E0FB120106700F9006347A
:100F410074FFF0A3740AF0A3744E8025E4FFFEFD44
:100F5100FC9001F7E0F8A3E0F9A3E0FAA3E0FB12AB
:100F61000106701790063474FFF0A3740AF0A3749D
:100F710053F07B047D037F02122720E58030E02CB3
:100F8100E4FFFE7DE07C409001F7E0F8A3E0F9A3E7
:100F9100E0FAA3E0FB1200151201BDAD07AC06900B
:100FA1000608E0FAA3E0FB7F010210D0E58030E102
:100FB1002CE4FFFE7DC07C409001F7E0F8A3E0F94E
:100FC100A3E0FAA3E0FB1200151201BDAD07AC06C8
:100FD100900608E0FAA3E0FB7F020210D0E5803022
:100FE100E22CE4FFFE7DA07C409001F7E0F8A3E055
:100FF100F9A3E0FAA3E0FB1200151201BDAD07ACA5
:1010010006900608E0FAA3E0FB7F040210D0E58019
:1010110030E32CE4FFFE7D807C409001F7E0F8A3F3
:10102100E0F9A3E0FAA3E0FB1200151201BDAD0740
:10103100AC06900608E0FAA3E0FB7F080210D0E5B9
:101041008030E42BE4FFFE7D407C409001F7E0F826
:10105100A3E0F9A3E0FAA3E0FB1200151201BDAD74
:1010610007AC06900608E0FAA3E0FB7F108060E57C
:101071008030E52AE4FFFEFD7C409001F7E0F8A313
:10108100E0F9A3E0FAA3E0FB1200151201BDAD07E0
:10109100AC06900608E0FAA3E0FB7F208031E580F2
:1010A10020E603020E57E4FFFE7D807C3F9001F7AE
:1010B100E0F8A3E0F9A3E0FAA3E0FB1200151201A6
:1010C100BDAD07AC06900608E0FAA3E0FB7F401235
:0D10D1001FB1900608EEF0A3EFF0020E57DD
:0110DE0022EF
:101FB10090060AEFF0A3ECF0A3EDF0A3EAF0A3EB97
:011FC100F02F
:101FC200780F7C067D017BFF7A0D797F7E007F0290
:101FD20012030E9005FBE0FEA3E0FFF47002EEF4A4
:101FE200602B9005F9E0FD90060DE0FAA3E0FB24DA
:101FF200FFF58274043AF583EDF0900001E0C39F8F
:10200200FF74002BF58274053AF583EFF090060B0E
:10201200E0FEA3E0FF7C007D071203F3AE04AF05F0
:10202200EF4E60077A06790F1218AA9006347401EF
:10203200F0A37406F0A3740FF07B017D047F0312FA
:1020420027207580FF900001E0FF9005FBE4F0A3DC
:10205200EFF090060AE0558060081229007580FFB3
:1020620080F0900001E0FF9005FDE4F0A3EFF09016
:10207200060BE0FEA3E024FAF58274013EF583E04C
:102082009005F9F090060EE02402FF90060DE03470
:0220920000FE4E
:012094002229
:10223800122A2F12293490063474FFF0A3740AF07E
:10224800A37493F07B087D027F0112272090063447
:1022580074FFF0A3740AF0A3743CF07B0C7D017F3B
:1022680004122720122A5A900608E4F0A37402F0F8
:10227800E4900001F0900608E475F00112043FFEB6
:1022880074FF25F0F58274043EF583E0900607F0AC
:10229800E0F9F4700AC28C7F64FE12291480D6E932
:1022A8006049900607E0FF7B037A007D027C0012FC
:1022B8001A29900608E475F00112043FFE74C82537
:1022C800F0F582740A3EF583E493F9D28CB2C59096
:1022D8000607122910900001E0B50104E4F080958A
:0B22E8007590F0E59054F064F060E2A7
:0122F30022C8
:0810DF00900631EEF0A3EFF0E2
:1010E700900635EEF0A3EFF0E4A3F0A3F00213E3CC
:1010F700900633E0F970030213FC900637E0FCA377
:10110700E0FD900631E0FEA3E0FFC3900636E09FC6
:10111700FF900635E09EFEEF25E0FFEE33FE740AF2
:101127002FF58274033EF583ECF0A3EDF0E912048A
:101137006F11FA0D11E50E11D01011BB1211A61384
:10114700119115117B1811FA1911E51C11D02011F5
:10115700BB2411A62611912B117B3011FA3211E510
:101167003911D04011BB4811A64C119156117B6023
:101177000000120F900637E0FEA3E024FCF582740E
:10118700003EF5837431F0021220900637E0FEA38B
:10119700E024FCF58274003EF5837432F0807A9087
:1011A7000637E0FEA3E024FCF58274003EF5837465
:1011B70033F08065900637E0FEA3E024FCF58274E7
:1011C700003EF5837434F08050900637E0FEA3E0CC
:1011D70024FCF58274003EF5837435F0803B90065D
:1011E70037E0FEA3E024FCF58274003EF5837436F5
:1011F700F08026900637E0FEA3E024FCF582740019
:101207003EF5837437F08011900636E004F07006DF
:10121700900635E004F00213E3900633E0FFF47024
:10122700030210F7C3EF943274809480401D900638
:1012370037E0FEA3E0FF2402F58274003EF58374D5
:101247002EF074102FF58274028035900633E0D3A8
:10125700941874809480900637E0FEA3E0FF500D49
:101267002410F58274023EF583742E800B2410F54A
:101277008274023EF5837420F074022FF5827400A5
:101287003EF5837420F0900636E004F07006900671
:1012970035E004F0900635E0FEA3E024C8F582743B
:1012A7000A3EF583E493FF900634F07E00642070D5
:1012B7002D900636E004F07006900635E004F090B5
:1012C7000638E004F07006900637E004F090063523
:1012D700E0FCA3E024C8F582740A3C0213F1EF6432
:1012E700104E7016900637E0FEA3E02402F58274D4
:1012F700003EF583742DF00213C7900634E0FF7E9D
:101307000064087016900637E0FCA3E02402F5821B
:1013170074003CF583743DF00213C7EF64304E70E0
:101327003E900638E004F07006900637E004F0902F
:101337000637E0FEA3E0FF24FCF58274003EF58348
:10134700742EF074022FF58274003EF5837420F03A
:1013570074102FF58274023EF5837420F08061903B
:101367000634E0C39440748094804054804C9006C7
:1013770034E0C39420748094804045900638E0049C
:10138700F07006900637E004F0900637E0FEA3E021
:10139700FF24FCF58274003EF583742DF074022F50
:1013A700F58274003EF5837420F074102FF5827473
:1013B700023EF5837420F0900634E024E0F080AE1E
:1013C700900636E004F07006900635E004F09006CB
:1013D70038E004F07006900637E004F0900635E038
:1013E700FEA3E024C8F582740A3EF583E4939006D1
:0513F70033F00210F7C5
:0113FC0022CE
:10283700900631ECF0A3EDF0A3EAF0A3EBF0A907C3
:10284700800DE58059600DB2C590063112290375D8
:1028570080FF80EE900631E0FEA3E024FAF5827453
:10286700013EF583E0FF900633E0B40008A3E0B52E
:0828770007037F00227F01220C
:1004E300E4900624F0A3F0900630F090060CF0A3FD
:1004F30004F0E4A3F0A3F0EF25E0FFEE33FE74FF76
:100503002FF58274053EF583E0FEA3E0FF90060A13
:10051300EEF0A3EFF0900608EEF0A3EFF01210DF79
:100523009006347401F0A37402F0A37410F0A3E4F2
:10053300F0A37410F07B017A0679101226B89006A6
:10054300347401F0A37406F0A37410F07B10E4FD7F
:100553007F021227209006347401F0A37400F0A3E5
:1005630074FCF0A3E4F0A37410F07B017A06791015
:100573001226B89006347401F0A37406F0A3741025
:10058300F07B10E4FD7F031227209006347401F002
:10059300A37400F0A37402F0A3E4F0A37410F07B3F
:1005A300017A0679101226B89006347401F0A37408
:1005B30006F0A37410F07B10E4FD7F041227209053
:1005C3000608E0FEA3E024C8F582740A3EF583E43E
:1005D30093900607F0900607E0700302090EF4708B
:1005E30024900609E004F07006900608E004F090F9
:1005F3000608E0FEA3E024C8F582740A3EF583E40E
:1006030093900607F0122A2FA2CDE4FE33FF7C005D
:100613007D0712038CAA06AB07A2CCE4FE33FF12BC
:10062300038CC3EF9BFDEE9AFC1201849001F71239
:1006330004637580FFE58030E02BE4FFFE7DE07C02
:10064300409001F7E0F8A3E0F9A3E0FAA3E0FB127E
:1006530000151201BDAD07AC06900607E0FB7A005A
:100663007F01020785E58030E12BE4FFFE7DC07C3E
:10067300409001F7E0F8A3E0F9A3E0FAA3E0FB124E
:1006830000151201BDAD07AC06900607E0FB7A002A
:100693007F02020785E58030E22BE4FFFE7DA07C2C
:1006A300409001F7E0F8A3E0F9A3E0FAA3E0FB121E
:1006B30000151201BDAD07AC06900607E0FB7A00FA
:1006C3007F04020785E58030E32BE4FFFE7D807C19
:1006D300409001F7E0F8A3E0F9A3E0FAA3E0FB12EE
:1006E30000151201BDAD07AC06900607E0FB7A00CA
:1006F3007F08020785E58030E42AE4FFFE7D407C25
:10070300409001F7E0F8A3E0F9A3E0FAA3E0FB12BD
:1007130000151201BDAD07AC06900607E0FB7A0099
:100723007F10805EE58030E529E4FFFEFD7C40908C
:1007330001F7E0F8A3E0F9A3E0FAA3E0FB12001548
:100743001201BDAD07AC06900607E0FB7A007F20DF
:100753008030E58020E603020608E4FFFE7D807C0E
:100763003F9001F7E0F8A3E0F9A3E0FAA3E0FB125E
:1007730000151201BDAD07AC06900607E0FB7A0039
:100783007F40122837900630EFF0900630E0601D6E
:10079300900625E004F07006900624E004F090062D
:1007A3003474FFF0A3740AF0A3749C800D90063494
:1007B30074FFF0A3740AF0A374A3F07B06E4FD7F37
:1007C30001122720900609E02402F0900608E03485
:1007D30000F0E0FEA3E0FF24C8F582740A3EF5832F
:1007E300E493900607F090060AE0FCA3E0FDC3EF54
:1007F3009DFFEE9CFEEF25E0FFEE33FE740A2FF51E
:100803008274033EF583E0FCA3E0FD90060DE0C493
:10081300F8540FC868FF90060CE0C454F048FED3A8
:10082300ED9FEC9E50030205D890060FE02410F0D4
:1008330090060EE03400F090060DE004F070069090
:10084300060CE004F090060EE0FEA3E02410F97419
:10085300023EFA9006347401F0A3EAF0A3E9F0A390
:10086300E4F0A37410F07B017A0679101226B89095
:1008730006347401F0A37406F0A37410F07B10E443
:10088300FD7F0212272090060EE0FEA3E024FCF970
:1008930074003EFA9006347401F0A3EAF0A3E9F081
:1008A300A3E4F0A37410F07B017A0679101226B842
:1008B3009006347401F0A37406F0A37410F07B1057
:1008C300E4FD7F0312272090060EE0FEA3E024023E
:1008D300F974003EFA9006347401F0A3EAF0A3E938
:1008E300F0A3E4F0A37410F07B017A0679101226CA
:1008F300B89006347401F0A37406F0A37410F07B6F
:1009030010E4FD7F041227200205D8122934900633
:100913003474FFF0A3740AF0A374AAF07B10E4FD0F
:100923007F01122720900624E0FEA3E0FF7B017ADB
:100933000679261218AC7B017A067926122A45AB72
:10094300079006347401F0A37406F0A37426F0E450
:10095300FD7F021227207590F0E59054F064F0605B
:10096300F57F647E00122914E59054F064F070055D
:0509730012291480E1CF
:01097800225C
:1021780012293490063474FFF0A3740AF0A3740D86
:10218800F07B08E4FD7F0112272090063474FFF0ED
:10219800A3740AF0A37416F07B06E4FD7F021227ED
:1021A8002090063474FFF0A3740AF0A3741DF07B2A
:1021B8000AE4FD7F0312272090063474FFF0A3740D
:1021C8000AF0A37428F07B0AE4FD7F041227207527
:1021D80090F0122A2FE59054F064F060F57F647E49
:1021E80000122914E59054F064F0603A1224C99062
:1021F80004FEEFF024F4601214601814601E240327
:10220800702D122934E4FFFE80191229347F017ED3
:102218000080101229347F027E0080071229347F43
:10222800037E000204E37FC47E0912291480A322DE
:101A2900900615ECF0A3EDF0A3EAF0A3EBF0900615
:101A390014EFF0C39432748094804013A3A3E0FFA1
:101A490090063474FFF0A3740AF0A37449803390AC
:101A59000614E0D39418748094805013A3A3E0FF74
:101A690090063474FFF0A3740AF0A37453801390A2
:101A79000615A3E0FF90063474FFF0A3740AF0A3DF
:101A8900744EF07B047D03122720900614E01204A3
:101A99006F1B5B0D1B460E1B31101B1C121B071302
:101AA9001AF2151ADD181B5B191B461C1B31201B6A
:101AB9001C241B07261AF22B1ADD301B5B321B462E
:101AC900391B31401B1C481B074C1AF2561ADD60A2
:101AD90000001B76900617A3E0FF90063474FFF010
:101AE900A3740AF0A374BA807C900617A3E0FF9050
:101AF900063474FFF0A3740AF0A374BC80679006DF
:101B090017A3E0FF90063474FFF0A3740AF0A374DE
:101B1900BE8052900617A3E0FF90063474FFF0A32D
:101B2900740AF0A374C0803D900617A3E0FF9006E5
:101B39003474FFF0A3740AF0A374C28028900617C6
:101B4900A3E0FF90063474FFF0A3740AF0A374C4F1
:101B59008013900617A3E0FF90063474FFF0A37476
:0E1B69000AF0A374C6F07B017D04122720222F
:1029B600C2C2C2C0D2C1122992D2C2E4F596F5951E
:1029C600900639E5A0F0122992C2C2900639E0209D
:0229D600E7DE3A
:0129D80022DC
:1028C000FEEF8EF0A47C002DFFEC35F0FEE0FBA3C4
:0D28D000E0FAA3E0F98F828E8312034DFF22
:1028DD00900638EFF01229B6D2C2D2C0C2C1759699
:1028ED00FFE4F59590063812298FC2C27F147E0041
:0328FD0002299617
:0629660090065DE02FFF6A
:10296C00900638EFF01229B6D2C2C2C0C2C1759619
:10297C00FFE4F59590063812298FC2C27F147E00B1
:03298C0002299687
:0B278700900654EBF0A3EAF0A3E9F089
:1027920012296CE4900658F0900657E0FFA3E0FE81
:1027A200C39F503F900654E0FBA3E0FAA3E0F97503
:1027B200F002EEA4F58285F0831228D9900654E047
:1027C200FBA3E0FAA3E0F9900658E075F002A42416
:1027D20001F582E435F0F5831228D9900658E00419
:0327E200F080B5CF
:0127E50022D1
:07272000900633EBF0AC075B
:10272700ECFB7A0064017007ED2480900637F0EB2C
:1027370064024A7007ED2490900637F0EC6403704A
:1027470007ED2488900637F0EC64047007ED2498B1
:10275700900637F0900637E0FF12296C900633E0B9
:10276700601DA3E0FBA3E475F00112043FA9F0FA92
:0F277700120334FF1228DD900633E014F080DDEA
:012786002230
:05255300900659EFF0B5
:10255800E4A3F090065AE0FFC3940274809480507C
:1025680036900659E02FFF12296C7FFF1228DDE410
:10257800FF1228DD90065AE004F0E0FF900659E0CB
:102588002FFF12296CE4FF1228DDE4FF1228DD90EA
:10259800065AE004F080BC90065A7402F090065A7D
:1025A800E0FFC3941074809480501B900659E02F6C
:1025B800FF12296CE4FF1228DDE4FF1228DD9006E3
:0625C8005AE004F080D788
:0125CE0022EA
:0525CF0090065BEFF037
:1025D400E4A3F090065CE0FFC394047480948050FC
:1025E4003690065BE02FFF12296C7FFF1228DDE492
:1025F400FF1228DD90065CE004F0E0FF90065BE04B
:102604002FFF12296CE4FF1228DDE4FF1228DD906D
:10261400065CE004F080BC90065C7404F090065CF8
:10262400E0FFC3941074809480501B90065BE02FED
:10263400FF12296CE4FF1228DDE4FF1228DD900666
:062644005CE004F080D709
:01264A00226D
:0520950090065DEFF074
:10209A00E4A3F090065EE0FFC3940274809480503B
:1020AA002A1229667FFF1228DDE4FF1228DD900636
:1020BA005EE004F0E0FF122966E4FF1228DDE4FF87
:1020CA001228DD90065EE004F080C890065E740275
:1020DA00F090065EE0FFC394067480948050151257
:1020EA002966E4FF1228DDE4FF1228DD90065EE08F
:1020FA0004F080DD90065DE02406FF12296C7F184B
:10210A001228DDE4FF1228DD90065DE02407FF12A5
:10211A00296C7F3C1228DDE4FF1228DD90065DE081
:10212A002408FF12296C7F3C1228DDE4FF1228DD07
:10213A0090065DE02409FF12296C7F181228DDE45D
:10214A00FF1228DD90065E740AF090065EE0FFC377
:10215A009410748094805015122966E4FF1228DDC9
:0D216A00E4FF1228DD90065EE004F080DD49
:012177002245
:051EBD0090065FEFF04C
:101EC200E4A3F0900660E0FFC39404748094805011
:101ED2003690065FE02FFF12296C7FFF1228DDE4A7
:101EE200FF1228DD900660E004F0E0FF90065FE05C
:101EF2002FFF12296CE4FF1228DDE4FF1228DD9087
:101F02000660E004F080BC90065FE02404FF122922
:101F12006CE4FF1228DDE4FF1228DD90065FE02466
:101F220005FF12296CE4FF1228DDE4FF1228DD9080
:101F3200065FE02406FF12296C7F181228DDE4FFF9
:101F42001228DD90065FE02407FF12296C7F3C1205
:101F520028DDE4FF1228DD90065FE02408FF122945
:101F62006C7F3C1228DDE4FF1228DD90065FE0243E
:101F720009FF12296C7F181228DDE4FF1228DD9078
:101F82000660740AF0900660E0FFC39410748094B7
:101F920080501B90065FE02FFF12296CE4FF12288D
:0E1FA200DDE4FF1228DD900660E004F080D739
:011FB000220E
:1027E6007F3412296C7F3612296CE4900661F090D2
:1027F6000661E0FFC39420748094805033EF2480F8
:10280600FF12296C7F8012296CE4900662F0900614
:1028160062E0C3942074809480500DE4FF1228DD9A
:10282600900662E004F080E6900661E004F080BF66
:01283600227F
:0B22F400900640EFF0A3EDF0A3EBF02C
:1022FF007F3412296C7F3612296CE4900648F090D7
:10230F000642E0FF900648E0FEC39F40030223A869
:10231F00900640E02EFF12296C7F8012296CE4900A
:10232F000649F0900641E0FF900649E0FDC39F503B
:10233F0012900648E09006431228C0900649E00428
:10234F00F080E0E4900646F0A3F0900641E0F9FF3C
:10235F00900646E0FAA3E0FBC39FEA940050319049
:10236F000642E0FF900648E02FFFE433FEE9FD7CD4
:10237F000012038CEB2FFFEA3EFE9006431228CD8E
:10238F00900647E004F07006900646E004F080BA2D
:0E239F00900648E004F002230E7F3002296C05
:1029F900900663EFF0A3EDF07F3412296C90066422
:0D2A0900E0FF12296C900663E0FF02296CCB
:0B23AD0090064AEFF0A3EDF0A3EBF068
:1023B800E4900651F090064DE0FF900651E0FEC310
:1023C8009F5068EEFF90064BE0FD2FFFE433FEC3FD
:1023D800EF9420EE6480948090064AE0500BC45439
:1023E8000F2480FFED2480800AC4540F2488FFA3A3
:1023F800E02460FE900651E02EFD1229F9E49006D3
:1024080052F090064CE0FF900652E0FDC39F501238
:10241800900651E090064E1228C0900652E004F053
:1024280080E0900651E004F00223BD7F3612296C4B
:052438007F3002296C59
:10293400D2C31229927F3012296C1229927F02127B
:10294400296C1229927F0C12296C1229927F06128B
:10295400296C1229927F8012296C1229927F01021C
:02296400296CDC
:1029D900AD07AC06ECC313ED1375F008A42480FF12
:1029E900ED5401C454F02FFF12296C7F0F02296C9A
:07298F00E0F5A07F147E00BB
:10299600E4FDFCC3ED9FEC9E5015E4FBFA0BBB0077
:0F29A600010AEB64784A70F50DBD00010C80E466
:0129B50022FF
:0A2A6700E4FEEEC39F50030E80F85A
:012A71002242
:10000E00020229E86480F8E933E83360110460F0F5
:10001E00ED33EC337009E8FCE9FDEAFEEBFF220458
:10002E0060DED3EB9FEA9EE99DE8C2E78CF0C2F753
:10003E0095F0400CE8CCF8E9CDF9EACEFAEBCFFB1F
:10004E001201F485D0F05804700320D5B3E8047083
:10005E00075002B2D502023392D5EC0460F7E4CC1D
:10006E00C0E0C398F8603B94186008400DD0E0FBE8
:10007E0002020BE4FBFAC9FC8028E830E406E4C96E
:10008E00FBE4CAFCE830E305E4C9CACBFCE854073C
:10009E006010F8C3E913F9EA13FAEB13FBEC13FC47
:1000AE00D8F130F52FC3E49CFCEF9BFFEE9AFEEDEA
:1000BE0099FDD0E0FBEF4E4D4C701222DB03020295
:1000CE0030EC2CFCEF33FFEE33FEED33FDED30E77D
:1000DE00EB02020BEF2BFFEE3AFEED39FDD0E0FB0B
:1000EE0050130BBB0003020233ED13FDEE13FEEFB4
:0800FE0013FFEC13FC02020BDE
:1001060074F8CC6480CCC86480C8F58204604FC3A0
:10011600EB9FF5F0EA9E42F0E99D42F0E89C45F03F
:10012600603C501DE5825FFFE582D313CB5BCBF4C9
:100136002B5582FB50280ABA002409B900200880F2
:100146001DE5825BFBE582D313CF5FCFF4C3132F8C
:100156005582FF50090EBE00050DBD00010CC3EB14
:100166009FF5F0EA9E42F0E99D42F0E89C45F0607A
:0901760007CC4820E701B3EC229C
:10017F0075F020800E75F010800575F0087D007EFB
:10018F00007F003392D530D503120455EC33401065
:10019F00EF33FFEE33FEED33FDEC33FCD5F0ED2204
:0E01AF00E5F0247EA2D513CC92E7CDCEFF2240
:1001BD00EDD2E7CD33EC3392D524814006E4FFFE3A
:1001CD00FDFC22FCE4CFCECDCC24E0501174FF8099
:1001DD00EDC3CC13CCCD13CDCE13CECF13CF047036
:0701ED00F030D5DE020455DD
:1001F400E9D2E7C933E833F892D5EDD2E7CD33EC51
:0702040033FC5002B2D522C9
:10020B00EC30E7100FBF000C0EBE00080DBD000454
:10021B000BEB6014A2D5EB13FCED92E7FD2274FF00
:10022B00FCFDFEFF22E480F8A2D574FF13FC7D8059
:03023B00E480EF6D
:0300000002243D9A
:0C243D00787FE4F6D8FD75810702248446
:10023E00E709F608DFFA8046E709F208DFFA803EA2
:10024E0088828C83E709F0A3DFFA8032E309F6088F
:10025E00DFFA8078E309F208DFFA807088828C83F7
:10026E00E309F0A3DFFA806489828A83E0A3F608AB
:10027E00DFFA805889828A83E0A3F208DFFA804C85
:10028E0080D280FA80C680D4806980F2803380105C
:10029E0080A680EA809A80A880DA80E280CA8033C5
:1002AE0089828A83ECFAE493A3C8C582C8CCC5833D
:1002BE00CCF0A3C8C582C8CCC583CCDFE9DEE7800D
:1002CE000D89828A83E493A3F608DFF9ECFAA9F08C
:1002DE00EDFB2289828A83ECFAE0A3C8C582C8CCE2
:1002EE00C583CCF0A3C8C582C8CCC583CCDFEADEFB
:1002FE00E880DB89828A83E493A3F208DFF980CC5D
:10030E0088F0EF60010E4E60C388F0ED2402B40455
:10031E000050B9F582EB2402B4040050AF232345FC
:06032E00822390028E7391
:10033400BB010689828A83E0225002E722BBFE02C7
:09034400E32289828A83E49322FA
:10034D00BB010CE58229F582E5833AF583E0225065
:10035D0006E92582F8E622BBFE06E92582F8E222AF
:0D036D00E58229F582E5833AF583E49322C9
:10037A00BB010689828A83F0225002F722BBFE0162
:02038A00F3225C
:10038C00EF8DF0A4A8F0CF8CF0A428CE8DF0A42E85
:02039C00FE223F
:10039E00BC000BBE0029EF8DF084FFADF022E4CC43
:1003AE00F875F008EF2FFFEE33FEEC33FCEE9DEC0C
:1003BE00984005FCEE9DFE0FD5F0E9E4CEFD22ED52
:1003CE00F8F5F0EE8420D21CFEADF075F008EF2F9C
:1003DE00FFED33FD4007985006D5F0F222C398FD8D
:0503EE000FD5F0EA222A
:1003F300C2D5EC30E709B2D5E4C39DFDE49CFCEE25
:1004030030E715B2D5E4C39FFFE49EFE12039EC3FB
:10041300E49DFDE49CFC800312039E30D507C3E4F6
:060423009FFFE49EFE2293
:10042900C5F0F8A3E028F0C5F0F8E582158270025E
:060439001583E038F022FB
:10043F00A3F8E0C5F025F0F0E58215827002158370
:06044F00E0C838F0E822CD
:0E045500C3E49FFFE49EFEE49DFDE49CFC22B8
:0C046300ECF0A3EDF0A3EEF0A3EFF0220C
:10046F00D083D082F8E4937012740193700DA3A31C
:10047F0093F8740193F5828883E473740293686030
:06048F00EFA3A3A380DF30
:1026B800900631EBF0A3EAF0A3E9F0E4900639F0D4
:1026C800A3F090063774FFF5F012043F45F0603C24
:1026D800900634E0FBA3E0FAA3E0F9120334FF907C
:1026E8000631E0FBA3E0FAA3E0F9900639E475F0BF
:1026F8000112043F85F082F583EF1204C1EF60C236
:10270800900635E475F00112042980B6900631E090
:08271800FBA3E0FAA3E0F922A3
:102A4500E4FFFE120334600C0FEF70010E09E9700C
:052A5500F20A80EF22EF
:10049500EF4E6012EF60010EEDBB010B89828A837E
:1004A500F0A3DFFCDEFA2289F05007F709DFFCA98B
:0C04B500F022BBFEFCF309DFFCA9F022E2
:10244900021C96E493A3F8E493A34003F68001F2F7
:1024590008DFF48029E493A3F85407240CC8C33394
:10246900C4540F4420C8834004F456800146F6DF63
:10247900E4800B010204081020408090287FE47E4C
:10248900019360BCA3FF543F30E509541FFEE49358
:10249900A360010ECF54C025E060A840B8E493A31F
:1024A900FAE493A3F8E493A3C8C582C8CAC583CA4A
:1024B900F0A3C8C582C8CAC583CADFE9DEE780BE02
:0128BF000018
:1004C100F8BB010DE58229F582E5833AF583E8F071
:1004D100225006E92582C8F622BBFE05E92582C81D
:0204E100F22205
:00000001FF
