:1002AD00CFB5CDB3BDF8D0D0B0B4BCFCBCECB2E290
:1002BD0000383739353131393700D5E3BDADB4F3B9
:1002CD00D1A7B9E2B5E7D1A7D4BA004B45595F56CE
:1002DD00414C55453A3031004B45595F56414C55CF
:1002ED00453A3032004B45595F56414C55453A30F1
:1002FD0033004B45595F56414C55453A3034004B10
:10030D0045595F56414C55453A3035004B45595F7F
:10031D0056414C55453A3036004B45595F56414C88
:10032D0055453A3037004B45595F56414C55453A86
:10033D003038004B45595F56414C55453A303900E0
:10034D004B45595F56414C55453A3130004B455957
:10035D005F56414C55453A3131004B45595F564139
:10036D004C55453A3132004B45595F56414C554538
:10037D003A3133004B45595F56414C55453A31346E
:10038D00004B45595F56414C55453A3135004B456B
:10039D00595F56414C55453A313600CFB5CDB3BDB9
:1003AD00F8D0D0D2F4C0D6B2A5B7C500506C6179E3
:1003BD00696E67204D7573696300CFB5CDB3BDF818
:1003CD00D0D0B9E2F1EEBCECB2E200262020202024
:1003DD00202610201020802620302030203910308B
:1003ED001030802620202020201C2020802B20262D
:1003FD002020202B1026102B802620302030203955
:10040D00102610266040103910262030203020395B
:10041D00102610268026202B102B102B2030103963
:10042D001026102B102B202B404020201020102B9D
:10043D00102630308018201820262020202040261D
:10044D00202B20302030201C20202020801C201C20
:10045D00201C20302030603910301020202B102629
:10046D00102B10261026102B102B8018201820264C
:10047D00202020206026102B20302030201C202012
:10048D002020802620301030103020392026102BCF
:10049D00102B202B4040104010201020102B102628
:0404AD00303080006B
:0600030004253F8000000F
:03000B00020C5292
:090C5200758CDC758A0005243262
:03001B00020C6470
:030C6400B2C532E4
:10001E00E4F5C975CA3075B3C0F5B4F5B1F5B212D1
:10002E000B16120C5BEF30E7030201F17590F01224
:10003E000B16751EFF751F027520AD7B10E4FD7F3C
:10004E0001120A40751EFF751F027520BE7B087DCA
:10005E00027F03120A40751EFF751F027520C77BB3
:10006E0010E4FD7F040201EB120C5BEF20E7B312EC
:10007E000C1EE59054F064F060EE7F647E00120B6F
:10008E00DEE59054F064F060DF1208148F2AE52A42
:10009E0012061900D50B00E70C00F90D010B0E012D
:1000AE001D15012F1601411701531801651F017609
:1000BE002001872101982201A92901BA2A01CB2BFF
:1000CE0001DC2C00000076751EFF751F027520D80E
:1000DE007B0C7D017F020201EB751EFF751F027501
:1000EE0020E57B0C7D017F020201EB751EFF751F63
:1000FE00027520F27B0C7D017F020201EB751EFF63
:10010E00751F027520FF7B0C7D017F020201EB75CE
:10011E001EFF751F0375200C7B0C7D017F020201F3
:10012E00EB751EFF751F037520197B0C7D017F0279
:10013E000201EB751EFF751F037520267B0C7D01DA
:10014E007F020201EB751EFF751F037520337B0CBA
:10015E007D017F020201EB751EFF751F03752040A6
:10016E007B0C7D017F028075751EFF751F03752048
:10017E004D7B0C7D017F028064751EFF751F03751C
:10018E00205A7B0C7D017F028053751EFF751F0365
:10019E007520677B0C7D017F028042751EFF751FE7
:1001AE00037520747B0C7D017F028031751EFF75F7
:1001BE001F037520817B0C7D017F028020751EFF41
:1001CE00751F0375208E7B0C7D017F02800F751EBF
:1001DE00FF751F0375209B7B0C7D017F02120A4069
:1001EE00020076120C5BEF20E659120C1E120B1653
:1001FE00751EFF751F037520A87B10E4FD7F01128D
:10020E000A40751EFF751F037520B97B0D7D017F9A
:10021E0002120A40751EFF751F027520BE7B087DF7
:10022E00027F03120A40751EFF751F027520C77BE1
:10023E0010E4FD7F04120A4012000EE4FF12089C27
:10024E00020030120C5BEF30E503020030751EFF2A
:10025E00751F037520C77B10E4FD7F01120A401243
:10026E000C5BEF30E503020030120C1E7580FFAF01
:10027E0028AE27AD26AC2512057CAD07AF80120047
:10028E0000C3E49FF529758910D2ABD2AF758D00EE
:0F029E00E529F58BD28E7FC47E09120BDE80C05E
:0D000E0075890175A882758CDCE4F58A22E5
:100C1E00E5C030E604D2CC8002C2CCE5C030E7039A
:060C2E00D2CD22C2CD224E
:10089C00E4F524EF75F0D9A485F01DF51E120C5B60
:1008AC00EF20E65D051EE51EAE1D7002051D14242D
:1008BC00D8F58274033EF583E493F51BF4700AC2F9
:1008CC008C7F64FE120BDE80D4E51B6036051EE5C2
:1008DC001EAE1D7002051D1424D8F58274033EF55E
:1008EC0083E493F51CD28C120C5BEF20E6AFB2C5FF
:1008FC00AF1B7E00120BDEE51CB524EBE4F5248067
:03090C009CC2C5C5
:01090F0022C5
:090C5B0075B0FFE5B054F0FF2272
:10081400E4F51BF51C7590F0E59054F0FF54F0647A
:10082400F07002FF2275900FE590540F4FF41206FA
:1008340019086911087512088114088D18086C21AB
:10084400087822088424089028086F41087B42080D
:100854008744089348087281087E82088A8408962F
:1008640088000008997F0B227F0C227F0D227F0EC7
:10087400227F15227F16227F17227F18227F1F22B4
:100884007F20227F21227F22227F29227F2A227F0A
:070894002B227F2C227F00C4
:01089B00223A
:100BDE00E4FDFCC3ED9FEC9E5015E4FBFA0BBB004D
:0F0BEE00010AEB64024A70F50DBD00010C80E4B2
:010BFD0022D5
:100BBD00C2C2C2C0D2C1120B99D2C2E4F596F5954C
:100BCD0085A0237F14FE120B9DC2C2E52320E7E012
:010BDD0022F5
:060B4800F5831205CCFF4D
:100B4E008F22120BBDD2C2D2C0C2C17596FFE4F580
:100B5E00958522A07F14FE120B9DC2C27F147E00CB
:030B6E00020B9DDA
:050B7100E5362537FF09
:100B76008F22120BBDD2C2C2C0C2C17596FFE4F568
:100B8600958522A07F14FE120B9DC2C27F147E00A3
:030B9600020B9DB2
:060A93008B2D8A2E892F35
:100A9900120B76E4F531E531C39530502EAB2DAA12
:100AA9002EA92F75F002E531A4F58285F083120B8A
:100AB9004AAB2DAA2EA92F75F002E531A42401F520
:0B0AC90082E435F0120B48053180CBB1
:010AD40022FF
:020A40008B1D0C
:100A4200EFFB7A0064017005ED2480F521EB64026E
:100A52004A7005ED2490F521EB64034A7005ED24FC
:100A620088F521EB64044A7005ED2498F521AF2145
:100A7200120B76E51D6019AB1E0520E520AA1F703A
:100A820002051F14F91205B3FF120B4E151D80E368
:010A92002241
:020982008F32B2
:10098400E4F533C3E533940274809480502AE5324D
:100994002533FF120B767FFF120B4EE4FF120B4E32
:1009A4000533E5322533FF120B76E4FF120B4EE4D8
:1009B400FF120B4E053380CB753302C3E53394101D
:1009C400748094805016E5322533FF120B76E4FFD1
:0C09D400120B4EE4FF120B4E053380DFC7
:0109E00022F4
:0209E1008F3451
:1009E300E4F535C3E535940474809480502AE534E6
:1009F3002535FF120B767FFF120B4EE4FF120B4ED1
:100A03000535E5342535FF120B76E4FF120B4EE472
:100A1300FF120B4E053580CB753504C3E5359410B5
:100A2300748094805016E5342535FF120B76E4FF6D
:0C0A3300120B4EE4FF120B4E053580DF65
:010A3F002294
:02063F008F36F4
:10064100E4F537C3E5379402748094805020120B8F
:10065100717FFF120B4EE4FF120B4E0537120B7127
:10066100E4FF120B4EE4FF120B4E053780D57537B0
:1006710002C3E5379406748094805011120B71E423
:10068100FF120B4EE4FF120B4E053780E4E53624D2
:1006910006FF120B767F18120B4EE4FF120B4EE58C
:1006A100362407FF120B767F3C120B4EE4FF120B30
:1006B1004EE5362408FF120B767F3C120B4EE4FF09
:1006C100120B4EE5362409FF120B767F18120B4EE2
:1006D100E4FF120B4E75370AC3E53794107480940A
:1006E100805011120B71E4FF120B4EE4FF120B4EFE
:0406F100053780E465
:0106F50022E2
:0204B1008F3882
:1004B300E4F539C3E539940474809480502AE5380F
:1004C3002539FF120B767FFF120B4EE4FF120B4E02
:1004D3000539E5382539FF120B76E4FF120B4EE49C
:1004E300FF120B4E053980CBE5382404FF120B763F
:1004F300E4FF120B4EE4FF120B4EE5382405FF1206
:100503000B76E4FF120B4EE4FF120B4EE538240684
:10051300FF120B767F18120B4EE4FF120B4EE538D9
:100523002407FF120B767F3C120B4EE4FF120B4E97
:10053300E5382408FF120B767F3C120B4EE4FF12C2
:100543000B4EE5382409FF120B767F18120B4EE48D
:10055300FF120B4E75390AC3E539941074809480E9
:100563005016E5382539FF120B76E4FF120B4EE4E3
:08057300FF120B4E053980DF79
:01057B00225D
:100AD5007F34120B767F36120B76E4F53AC3E53A8E
:100AE5009420748094805028E53A2480FF120B7678
:100AF5007F80120B76E4F53BC3E53B94207480942C
:100B0500805009E4FF120B4E053B80EC053A80CD81
:010B150022BD
:0606F6008F088D098B0A3C
:1006FC007F34120B767F36120B76E4F510E510C3BF
:10070C00950A5073E5082510FF120B767F80120BAB
:10071C0076E4F511E511C39509501CE5098510F037
:10072C00A42511F582E435F0F583AB0BAA0CA90DC9
:10073C00120B4A051180DDE4F50EF50FC3E50F959C
:10074C0009E50E9400502BE510250AFFE433FEADAD
:10075C00097C001205F9E50F2FFFE50E3EAB0BAA45
:10076C000CA90D8F82120B48050FE50F70CE050EEC
:0C077C0080CA05100207097F30020B76CE
:100C34008F3C8D3D7F34120B76AF3D120B76AF3C6B
:030C4400020B762A
:060910008F128D138B1401
:10091600E4F519E519C395155058E5132519FFE4B3
:1009260033FEC3EF9420EE64809480E512C4540F26
:1009360050092480FFE513248080072488FFE513EF
:1009460024602519FD120C34E4F51AE51AC3951432
:10095600501CE5148519F0A4251AF582E435F0F546
:1009660083AB16AA17A918120B4A051A80DD0519BA
:0C09760080A17F36120B767F30020B76DA
:100B1600D2C3120B997F30120B76120B997F0212F9
:100B26000B76120B997F0C120B76120B997F06121D
:100B36000B76120B997F80120B76120B997F0102AE
:020B46000B762C
:100BFE00AD07AC06ECC313ED1375F008A42480FF0B
:100C0E00ED5401C454F02FFF120B767F0F020B76BA
:040B99007F147E0047
:100B9D00E4FDFCC3ED9FEC9E5015E4FBFA0BBB008E
:0F0BAD00010AEB64784A70F50DBD00010C80E47D
:010BBC002216
:0A0C4700E4FEEEC39F50030E80F898
:010C51002280
:10057C00EDD2E7CD33EC3392D524814006E4FFFE77
:10058C00FDFC22FCE4CFCECDCC24E0501174FF80D6
:10059C00EDC3CC13CCCD13CDCE13CECF13CF047073
:0705AC00F030D5DE02060B62
:030000000207886C
:0C078800787FE4F6D8FD75813D0207CFB4
:1005B300BB010689828A83E0225002E722BBFE0246
:0905C300E32289828A83E4932279
:1005CC00BB010CE58229F582E5833AF583E02250E4
:1005DC0006E92582F8E622BBFE06E92582F8E2222E
:0D05EC00E58229F582E5833AF583E4932248
:1005F900EF8DF0A4A8F0CF8CF0A428CE8DF0A42E16
:02060900FE22CF
:0E060B00C3E49FFFE49EFEE49DFDE49CFC2200
:10061900D083D082F8E4937012740193700DA3A370
:1006290093F8740193F5828883E473740293686084
:06063900EFA3A3A380DF84
:1007940002001EE493A3F8E493A34003F68001F25D
:1007A40008DFF48029E493A3F85407240CC8C33366
:1007B400C4540F4420C8834004F456800146F6DF35
:1007C400E4800B0102040810204080900003E47EC2
:1007D400019360BCA3FF543F30E509541FFEE4932A
:1007E400A360010ECF54C025E060A840B8E493A3F1
:1007F400FAE493A3F8E493A3C8C582C8CAC583CA1C
:10080400F0A3C8C582C8CAC583CADFE9DEE780BED3
:0100090000F6
:00000001FF
