:1008A800D5E3BDADB4F3D1A7B9E2B5E7D1A7D4BAC2
:1008B80000B5E7D7D3CFDFC2B7C9E8BCC600383721
:1008C80039353131393700D2BABEA7CFD4CABEB311
:1008D800C9B9A600B2CBB5A500312EB2A5B7C5D20D
:1008E800F4C0D600322EB5AFD7E0C4A3CABD0033DA
:1008F8002ECFC2D2BBD2B300342EC2BCD2F4C4A312
:10090800CABD00352EB2A5B7C5C2BCD2F400362E7A
:10091800C9CFD2BBD2B300D2F4C0D6B2A5B7C500F6
:10092800B0B4C8CED2E2BCFCB7B5BBD800D1DDD7D5
:10093800E0C4A3CABD00322EBDB5B5CDD2F4B8DF30
:1009480000332ECCE1B8DFD2F4B8DF00D2F4B8DF40
:10095800D2D1BEADCAC7D7EEB5CDC1CB00D2F4B89F
:10096800DFD2D1BEADCAC7D7EEB8DFC1CB00C2BC9B
:10097800D2F4C4A3CABD00312EBFAACABCC2BCD21D
:10098800F400B0B4C6E4CBFBBCFCB7B5BBD800C21E
:10099800BCD2F4D6D000322EBDE1CAF8C2BCD2F423
:1009A80000C2BCD2F4CDEAB3C900B2A5B7C5C2BC77
:1009B800D2F4001C80204026202B40302039A04053
:1009C80020394030402B4030202B402680202026E4
:1009D80020202026201CFE20FE392026202B202621
:1009E80010203026202B202624392026202B2026B4
:1009F80010203026202B202624392026202B2026A4
:100A080010203026202B202624392026202B202693
:100A180010203026202B20260BFF260BFF26A03087
:100A2800202020241026B030202020241026101C3E
:100A38002026202B202B202B1030102B1030202686
:100A4800E0260BFF260BFF26A030202020241026AE
:100A5800B030202020241026301C2026202B202BCC
:0F0A6800202B1030102B10300BFF301030FF0000
:1015DB004507F3BB3DD9CCE35503EF60564C484070
:1015EB003832302B2624201C1918151312100E0D0F
:1015FB004403EB40E000004103EA014100000142DB
:0D160B0007EFFFFF4207F100004107ED006F
:03000B0002178C4D
:10178C00C0E0C083C082758CDC758A00900001E0DB
:09179C0004F0D082D083D0E032C9
:1016DE009007F8EFF0A3ECF0A3EDF0800E9007F872
:1016EE00E05580600BB2C5A31216847580FF80EDA5
:0716FE009003EA7401F022E1
:100CB000E4F5C975CA3075B3C0F5B4F5B1F5B21233
:100CC00016529007FE74FFF0A37408F0A374A8F006
:100CD0007B10E4FD7F011214849007FE74FFF0A3E3
:100CE0007408F0A374B9F07B0C7D017F02121484A8
:100CF0009007FE74FFF0A37408F0A374C6F07B089D
:100D00007D027F031214849007FE74FFF0A3740821
:100D1000F0A374CFF07B0C7D017F041214841217B2
:100D2000A5E4F5B3F5B4121652900000120E7C75CE
:100D300090F01217A5E59054F064F060F57F647EA2
:100D400000121695E59054F064F060441212799008
:100D500005F8EFF024F4601614601814601C24F9F0
:100D6000601D146022240B702712161980141200C3
:100D70000E800F900000E00480121205E080031244
:100D800010109000008006900000E014F0120E7C1D
:090D90007FC47E091216958099BA
:0D17BB0075890175A882758CDCE4F58A2221
:1017A500E5C030E604D2CC8002C2CCE5C030E70308
:0617B500D2CD22C2CD22BC
:10130300E4900001F0EF75F0D9A4FF9007FAE5F03F
:10131300F0A3EFF09007FAE475F00112055EFE7496
:10132300BB25F0F58274093EF583E4939007F8F04A
:10133300E0F4700AC28C7F64FE12169580D6900783
:10134300F8E060449007FAE475F00112055EFE745C
:10135300BB25F0F58274093EF583E4939007F9F019
:10136300D28CB2C59007F8121691900001E0FF905D
:1013730007F9E0B50707E4900001F080977590F056
:08138300E59054F064F060DA1B
:01138B00223F
:0917D30075B0FFE5B054F0FF22EF
:10127900E49007FBF0A3F07590F0E59054F0FF546B
:10128900F064F07002FF2275900FE590540F4FF44F
:1012990012058E12D01112DC1212E81412F418126F
:1012A900D32112DF2212EB2412F72812D64112E2BF
:1012B9004212EE4412FA4812D98112E58212F184DF
:1012C90012FD88000013007F0B227F0C227F0D2264
:1012D9007F0E227F15227F16227F17227F18227FF9
:1012E9001F227F20227F21227F22227F29227F2AFB
:0912F900227F2B227F2C227F00B2
:0113020022C8
:10168400E0FEA3E024EEF58274033EF583E0FF7EE2
:011694000055
:10169500E4FDFCC3ED9FEC9E5015E4FBFA0BBB008B
:0F16A500010AEB64024A70F50DBD00010C80E4F0
:0116B4002213
:060E7C00E0FF3395E0FEEB
:100E82009007F8EEF0A3EFF01216529007F8E0FE8A
:100E9200A3E0FFEE6003020F56EF24FE605A0460E7
:100EA20003020F569007FE74FFF0A37408F0A374B8
:100EB200DCF07B047D037F011214849007FE74FF33
:100EC200F0A37408F0A374E1F07B0AE4FD7F021240
:100ED20014849007FE74FFF0A37408F0A374ECF07E
:100EE2007B0AE4FD7F031214849007FE74FFF0A3D3
:100EF2007408F0A374F780529007FE74FFF0A37495
:100F020008F0A374DCF07B047D037F01121484904B
:100F120007FE74FFF0A37409F0A37400F07B0AE4E7
:100F2200FD7F021214849007FE74FFF0A37409F08F
:100F3200A3740BF07B0AE4FD7F031214849007FE76
:100F420074FFF0A37409F0A37416F07B08E4FD7F2C
:050F52000412148422CA
:101619001216529007FE74FFF0A37409F0A3741F09
:10162900F07B087D027F011214849007FE74FFF09D
:10163900A37409F0A37428F07B0C7D017F041214B4
:09164900841217BBE4FF02130335
:10000E001217A51216529007FE74FFF0A37409F092
:10001E00A37435F07B087D027F01121484E4FFFE89
:10002E00FDFC9003EBE0F8A3E0F9A3E0FAA3E0FBFC
:10003E0012040C60179007FE74FFF0A37409F0A36E
:10004E00743EF07B0AE4FD7F02121484E4FFFE7D11
:10005E00607C419003EBE0F8A3E0F9A3E0FAA3E0A3
:10006E00FB12040C60179007FE74FFF0A37409F0E6
:10007E00A37449F07B0AE4FD7F031214849007FEFB
:10008E0074FFF0A37409F0A37428F07B0C7D017F3C
:10009E00041214847590F0E59054F064F07003022D
:1000AE0001EF7F647E00121695E59054F064F070B7
:1000BE00030201E81212799005F8EFF024F37003B1
:1000CE0002015C0460030203139003EAE070030272
:1000DE0001E8E4FFFEFDFCA3E0F8A3E0F9A3E0FADB
:1000EE00A3E0FB12040C6020401E9003EBE0FCA387
:1000FE00E0FDA3E0FEA3E0FFE4FBFA79E078401216
:10010E0003179003EB120582E4FFFEFDFC9003EB58
:10011E00E0F8A3E0F9A3E0FAA3E0FB12040C7017D9
:10012E009007FE74FFF0A37409F0A37454F07B10D3
:10013E00E4FD7F021214849007FE74FFF0A374098D
:10014E00F0A37449F07B0AE4FD7F030201E0900303
:10015E00EAE070030201E8E4FFFE7D607C41A3E06B
:10016E00F8A3E0F9A3E0FAA3E0FB12040C501E90F2
:10017E0003EBE0FCA3E0FDA3E0FEA3E0FFE4FBFA4B
:10018E0079E0784012031B9003EB120582E4FFFE28
:10019E007D607C419003EBE0F8A3E0F9A3E0FAA3C5
:1001AE00E0FB12040C70179007FE74FFF0A37409A5
:1001BE00F0A37465F07B10E4FD7F031214849007A6
:1001CE00FE74FFF0A37409F0A3743EF07B0AE4FD05
:1001DE007F02121484E49003EAF07F647E0012160C
:1001EE00957580FFE58030E024E4FFFE7DE07C40E5
:1001FE009003EBE0F8A3E0F9A3E0FAA3E0FB12030F
:10020E001B120485AD07AC067F0102030DE580309D
:10021E00E124E4FFFE7DC07C409003EBE0F8A3E018
:10022E00F9A3E0FAA3E0FB12031B120485AD07ACA1
:10023E00067F0202030DE58030E224E4FFFE7DA07E
:10024E007C409003EBE0F8A3E0F9A3E0FAA3E0FB17
:10025E0012031B120485AD07AC067F0402030DE5E5
:10026E008030E323E4FFFE7D807C409003EBE0F8DA
:10027E00A3E0F9A3E0FAA3E0FB12031B120485AD81
:10028E0007AC067F088078E58030E423E4FFFE7D2E
:10029E00407C409003EBE0F8A3E0F9A3E0FAA3E082
:1002AE00FB12031B120485AD07AC067F108050E5D0
:1002BE008030E522E4FFFEFD7C409003EBE0F8A3E6
:1002CE00E0F9A3E0FAA3E0FB12031B120485AD07CD
:1002DE00AC067F208029E58020E6030200A2E4FF21
:1002EE00FE7D807C3F9003EBE0F8A3E0F9A3E0FAFB
:1002FE00A3E0FB12031B120485AD07AC067F401270
:06030E0016DE0200A2222F
:1005E000E49007F8F0A3F0A3F09007F1F0A3F07403
:1005F000FF9007EFF0A3F0E49007EDF01217A512BB
:1006000016529007FE74FFF0A37409F0A37476F0FD
:100610007B087D027F011214849007FE74FFF0A313
:100620007409F0A3747FF07B0AE4FD7F0212148446
:100630009007FE74FFF0A37409F0A3748AF07B0C9A
:100640007D017F041214849007F8E070387590F0F3
:10065000E59054F064F060EF7F647E00121695E53B
:100660009054F064F060151212799005F8EFF024C0
:10067000F560030208A79007F87401F07F647E001C
:1006800012169580C27E017FF47D007B017A057988
:10069000F91205B49007FE74FFF0A37409F0A37477
:1006A00097F07B06E4FD7F021214849007FE74FF2E
:1006B000F0A37409F0A3749EF07B0AE4FD7F03129B
:1006C0001484E4900001F01217BB7590F0E590548B
:1006D000F064F0606D7F647E00121695E59054F032
:1006E00064F060571212799005F8EFF024F460037B
:1006F0000208A79007FE74FFF0A37409F0A374A981
:10070000F07B08E4FD7F031214849007EDE0FF9076
:1007100007F9E0FCA3E0FD24F9F58274053CF583BC
:10072000EFF09007EFA3E0FFA3A3E0C39FFF74FAED
:100730002DF58274053CF583EFF0227F647E001274
:1007400016957580FFE58030E02CE4FFFE7DE07CAF
:10075000409003EBE0F8A3E0F9A3E0FAA3E0FB127A
:10076000031B120485AD07AC069007F9E0FAA3E07D
:10077000FB7F01020899E58030E12CE4FFFE7DC09B
:100780007C409003EBE0F8A3E0F9A3E0FAA3E0FBE0
:1007900012031B120485AD07AC069007F9E0FAA31B
:1007A000E0FB7F02020899E58030E22CE4FFFE7D49
:1007B000A07C409003EBE0F8A3E0F9A3E0FAA3E00B
:1007C000FB12031B120485AD07AC069007F9E0FA93
:1007D000A3E0FB7F04020899E58030E32CE4FFFEF0
:1007E0007D807C409003EBE0F8A3E0F9A3E0FAA35E
:1007F000E0FB12031B120485AD07AC069007F9E07D
:10080000FAA3E0FB7F08020899E58030E42BE4FFBF
:10081000FE7D407C409003EBE0F8A3E0F9A3E0FA12
:10082000A3E0FB12031B120485AD07AC069007F989
:10083000E0FAA3E0FB7F108060E58030E52AE4FF6A
:10084000FEFD7C409003EBE0F8A3E0F9A3E0FAA3FF
:10085000E0FB12031B120485AD07AC069007F9E01C
:10086000FAA3E0FB7F208031E58020E6030206CA80
:10087000E4FFFE7D807C3F9003EBE0F8A3E0F9A36A
:10088000E0FAA3E0FB12031B120485AD07AC06904F
:1008900007F9E0FAA3E0FB7F401210C09007F9EEE1
:0708A000F0A3EFF00206CA0D
:0108A700222E
:1010C0009007FBECF0A3EDF0A3EAF0A3EBF0A90787
:1010D0009007EFE0FEA3E0FFF47002EEF4602B90C7
:1010E00007EDE0FD9007FDE0FAA3E0FB24F9F582AF
:1010F00074053AF583EDF0900001E0C39FFF74FAA8
:101100002BF58274053AF583EFF07580FF900001AE
:10111000E0FF9007EFE4F0A3EFF0E58059600DB237
:10112000C59007FB1216847580FF80EE900001E0E9
:10113000FF9007F1E4F0A3EFF09007FBE0FEA3E0DF
:1011400024EEF58274033EF583E09007EDF09007FE
:0D115000FEE02402FF9007FDE03400FE22C7
:101010001217A51216529007FE74FFF0A37409F080
:10102000A374B2F07B087D027F011214849007FE46
:1010300074FFF0A37409F0A37428F07B0C7D017F8A
:1010400004121484E4900001F01217BBE49007F935
:10105000F0A3F09007F9E475F00112055EFE74F953
:1010600025F0F58274053EF583E0F9F4700AC28C30
:101070007F64FE12169580DBE960449007F9E47501
:10108000F00112055EFE74F925F0F58274053EF557
:1010900083E09007F8F0D28CB2C5E9FF7E0012160B
:1010A00095900001E0FF9007F8E0B50707E4900095
:0F10B00001F0809F7590F0E59054F064F060D9E6
:0110BF00220E
:080A770090081DEEF0A3EFF062
:100A7F00E4FE900820F0A3F024F9F582EE3405F59A
:100A8F0083E0FFEF7003020BBB24F37003020B39FB
:100A9F00147003020B2424FE606624FE604D146064
:100AAF003524FE601C24FD6003020B4C900820E0EF
:100ABF00FCA3E024F6F58274013CF5837431F080D9
:100ACF007C900820E0FCA3E024F6F58274013CF54D
:100ADF00837432F08067900820E0FCA3E024F6F5E1
:100AEF008274013CF5837433F08052900820E0FC4F
:100AFF00A3E024F6F58274013CF5837434F0803D55
:100B0F00900820E0FCA3E024F6F58274013CF58305
:100B1F007435F08028900820E0FCA3E024F6F582DD
:100B2F0074013CF5837436F08013900820E0FCA329
:100B3F00E024F6F58274013CF5837437F0EFFD7C09
:100B4F0000C3943274809480401E900820E0FAA372
:100B5F00E0FB2402F58274003AF583742EF07404DE
:100B6F002BF58274043A803CD3ED9418EC64809496
:100B7F0080900820E0FCA3E0FD50152404F582745A
:100B8F00043CF5837420F074022DF58274008013F9
:100B9F002402F58274003CF5837420F074042DF563
:0C0BAF008274043CF5837420F0020A926A
:010BBB002217
:10172C00C2C2C2C0D2C1121708D2C2E4F596F59556
:10173C00900803E5A0F0121708C2C2900803E0203D
:02174C00E7DED6
:01174E002278
:10159B00FEEF8EF0A47C002DFFEC35F0FEE0FBA3FC
:0D15AB00E0FAA3E0F98F828E8312051FFF86
:1015B800900802EFF012172CD2C2D2C0C2C17596A1
:1015C800FFE4F595900802121705C2C27F147E0049
:0315D80002170CEB
:0616B500900826E02FFF63
:1016BB00900802EFF012172CD2C2C2C0C2C17596AD
:1016CB00FFE4F595900802121705C2C27F147E0045
:0316DB0002170CE7
:0B14EB00900818EBF0A3EAF0A3E9F072
:1014F6001216BBE490081CF090081BE0FFA3E0FE68
:10150600C39F503F900818E0FBA3E0FAA3E0F975EB
:10151600F002EEA4F58285F0831215B4900818E067
:10152600FBA3E0FAA3E0F990081CE075F002A424FE
:1015360001F582E435F0F5831215B490081CE00439
:03154600F080B57D
:01154900227F
:071484009007FDEBF0AC073F
:10148B00ECFB7A0064017007ED2480900801F0EB0F
:10149B0064024A7007ED2490900801F0EC6403702D
:1014AB0007ED2488900801F0EC64047007ED249894
:1014BB00900801F0900801E0FF1216BB9007FDE0C9
:1014CB00601DA3E0FBA3E475F00112055EA9F0FA21
:0F14DB00120506FF1215B89007FDE014F080DD32
:0114EA0022DF
:05138C00900822EFF0C3
:10139100E4A3F0900823E0FFC3940274809480508A
:1013A10036900822E02FFF1216BB7FFF1215B8E41A
:1013B100FF1215B8900823E004F0E0FF900822E046
:1013C1002FFF1216BBE4FF1215B8E4FF1215B890F7
:1013D1000823E004F080BC9008237402F0900823F5
:1013E100E0FFC3941074809480501B900822E02F7A
:1013F100FF1216BBE4FF1215B8E4FF1215B89008EE
:0614010023E004F080D797
:0114070022C2
:05140800900824EFF044
:10140D00E4A3F0900825E0FFC39404748094805009
:10141D0036900824E02FFF1216BB7FFF1215B8E49B
:10142D00FF1215B8900825E004F0E0FF900824E0C5
:10143D002FFF1216BBE4FF1215B8E4FF1215B8907A
:10144D000825E004F080BC9008257404F090082570
:10145D00E0FFC3941074809480501B900824E02FFB
:10146D00FF1216BBE4FF1215B8E4FF1215B8900871
:06147D0025E004F080D719
:011483002246
:050D9900900826EFF0B8
:100D9E00E4A3F0900827E0FFC3940274809480507F
:100DAE002A1216B57FFF1215B8E4FF1215B8900877
:100DBE0027E004F0E0FF1216B5E4FF1215B8E4FFC9
:100DCE001215B8900827E004F080C8900827740226
:100DDE00F0900827E0FFC39406748094805015129B
:100DEE0016B5E4FF1215B8E4FF1215B8900827E007
:100DFE0004F080DD900826E02406FF1216BB7F1853
:100E0E001215B8E4FF1215B8900826E02407FF1259
:100E1E0016BB7F3C1215B8E4FF1215B8900826E0F9
:100E2E002408FF1216BB7F3C1215B8E4FF1215B84A
:100E3E00900826E02409FF1216BB7F181215B8E49D
:100E4E00FF1215B8900827740AF0900827E0FFC328
:100E5E0094107480948050151216B5E4FF1215B8D4
:0D0E6E00E4FF1215B8900827E004F080DDC5
:010E7B002254
:050BBC00900828EFF095
:100BC100E4A3F0900829E0FFC3940474809480505A
:100BD10036900828E02FFF1216BB7FFF1215B8E4EC
:100BE100FF1215B8900829E004F0E0FF900828E012
:100BF1002FFF1216BBE4FF1215B8E4FF1215B890CF
:100C01000829E004F080BC900828E02404FF1216B3
:100C1100BBE4FF1215B8E4FF1215B8900828E024D0
:100C210005FF1216BBE4FF1215B8E4FF1215B890C8
:100C31000828E02406FF1216BB7F181215B8E4FF3E
:100C41001215B8900828E02407FF1216BB7F3C124A
:100C510015B8E4FF1215B8900828E02408FF121611
:100C6100BB7F3C1215B8E4FF1215B8900828E024A8
:100C710009FF1216BB7F181215B8E4FF1215B890C0
:100C81000829740AF0900829E0FFC3941074809435
:100C910080501B900828E02FFF1216BBE4FF1215AD
:0E0CA100B8E4FF1215B8900829E004F080D7DF
:010CAF002222
:10154A007F341216BB7F361216BBE490082AF0903D
:10155A00082AE0FFC39420748094805033EF2480DB
:10156A00FF1216BB7F801216BBE490082BF090087E
:10157A002BE0C3942074809480500DE4FF1215B8B8
:10158A0090082BE004F080E690082AE004F080BF7F
:01159A00222E
:0B0F5700900804EFF0A3EDF0A3EBF016
:100F62007F341216BB7F361216BBE490080CF09049
:100F72000806E0FF90080CE0FEC39F400302100B3E
:100F8200900804E02EFF1216BB7F801216BBE4907D
:100F9200080DF0900805E0FF90080DE0FDC39F509A
:100FA2001290080CE090080712159B90080DE004BF
:100FB200F080E0E490080AF0A3F0900805E0F9FF61
:100FC20090080AE0FAA3E0FBC39FEA940050319034
:100FD2000806E0FF90080CE02FFFE433FEE9FD7CF9
:100FE2000012054CEB2FFFEA3EFE9008071215A8EF
:100FF20090080BE004F0700690080AE004F080BA52
:0E10020090080CE004F0020F717F300216BB64
:10176F0090082CEFF0A3EDF07F341216BB90082DEC
:0D177F00E0FF1216BB90082CE0FF0216BB25
:0B115D0090080EEFF0A3EDF0A3EBF004
:10116800E4900815F0900811E0FF900815E0FEC320
:101178009F5068EEFF90080FE0FD2FFFE433FEC399
:10118800EF9420EE6480948090080EE0500BC454D5
:101198000F2480FFED2480800AC4540F2488FFA305
:1011A800E02460FE900815E02EFD12176FE4900809
:1011B80016F0900810E0FF900816E0FDC39F50124B
:1011C800900815E090081212159B900816E004F09C
:1011D80080E0900815E004F002116D7F361216BB0E
:0511E8007F300216BB80
:10165200D2C31217087F301216BB1217087F02126C
:1016620016BB1217087F0C1216BB1217087F061240
:1016720016BB1217087F801216BB1217087F0102D1
:0216820016BB95
:10174F00AD07AC06ECC313ED1375F008A42480FFAE
:10175F00ED5401C454F02FFF1216BB7F0F0216BBBE
:07170500E0F5A07F147E0057
:10170C00E4FDFCC3ED9FEC9E5015E4FBFA0BBB0013
:0F171C00010AEB64784A70F50DBD00010C80E402
:01172B00229B
:0A17C800E4FEEEC39F50030E80F80C
:0117D20022F4
:100314000204F1E86480F8E933E83360110460F022
:10032400ED33EC337009E8FCE9FDEAFEEBFF22044F
:1003340060DED3EB9FEA9EE99DE8C2E78CF0C2F74A
:1003440095F0400CE8CCF8E9CDF9EACEFAEBCFFB16
:100354001204BC85D0F05804700320D5B3E80470AF
:10036400075002B2D50204FB92D5EC0460F7E4CC4A
:10037400C0E0C398F8603B94186008400DD0E0FBDF
:100384000204D3E4FBFAC9FC8028E830E406E4C99B
:10039400FBE4CAFCE830E305E4C9CACBFCE8540733
:1003A4006010F8C3E913F9EA13FAEB13FBEC13FC3E
:1003B400D8F130F52FC3E49CFCEF9BFFEE9AFEEDE1
:1003C40099FDD0E0FBEF4E4D4C701222DB0302048A
:1003D400F8EC2CFCEF33FFEE33FEED33FDED30E7AC
:1003E400EB0204D3EF2BFFEE3AFEED39FDD0E0FB38
:1003F40050130BBB00030204FBED13FDEE13FEEFE1
:0804040013FFEC13FC0204D30A
:10040C0074F8CC6480CCC86480C8F58204604FC397
:10041C00EB9FF5F0EA9E42F0E99D42F0E89C45F036
:10042C00603C501DE5825FFFE582D313CB5BCBF4C0
:10043C002B5582FB50280ABA002409B900200880E9
:10044C001DE5825BFBE582D313CF5FCFF4C3132F83
:10045C005582FF50090EBE00050DBD00010CC3EB0B
:10046C009FF5F0EA9E42F0E99D42F0E89C45F06071
:09047C0007CC4820E701B3EC2293
:10048500EDD2E7CD33EC3392D524814006E4FFFE6F
:10049500FDFC22FCE4CFCECDCC24E0501174FF80CE
:1004A500EDC3CC13CCCD13CDCE13CECF13CF04706B
:0704B500F030D5DE020574F2
:1004BC00E9D2E7C933E833F892D5EDD2E7CD33EC86
:0704CC0033FC5002B2D522FF
:1004D300EC30E7100FBF000C0EBE00080DBD00048A
:1004E3000BEB6014A2D5EB13FCED92E7FD2274FF36
:1004F300FCFDFEFF22E480F8A2D574FF13FC7D808F
:03050300E480EFA2
:030000000211EDFD
:0C11ED00787FE4F6D8FD7581070212340B
:10050600BB010689828A83E0225002E722BBFE02F3
:09051600E32289828A83E4932226
:10051F00BB010CE58229F582E5833AF583E0225091
:10052F0006E92582F8E622BBFE06E92582F8E222DB
:0D053F00E58229F582E5833AF583E49322F5
:10054C00EF8DF0A4A8F0CF8CF0A428CE8DF0A42EC3
:02055C00FE227D
:10055E00A3F8E0C5F025F0F0E58215827002158350
:06056E00E0C838F0E822AD
:0E057400C3E49FFFE49EFEE49DFDE49CFC2298
:0C058200ECF0A3EDF0A3EEF0A3EFF022EC
:10058E00D083D082F8E4937012740193700DA3A3FC
:10059E0093F8740193F5828883E473740293686010
:0605AE00EFA3A3A380DF10
:1005B400EF4E6012EF60010EEDBB010B89828A835E
:1005C400F0A3DFFCDEFA2289F05007F709DFFCA96B
:0C05D400F022BBFEFCF309DFFCA9F022C2
:1011F900020CB0E493A3F8E493A34003F68001F250
:1012090008DFF48029E493A3F85407240CC8C333F6
:10121900C4540F4420C8834004F456800146F6DFC5
:10122900E4800B01020408102040809015DBE47E65
:10123900019360BCA3FF543F30E509541FFEE493BA
:10124900A360010ECF54C025E060A840B8E493A381
:10125900FAE493A3F8E493A3C8C582C8CAC583CAAC
:10126900F0A3C8C582C8CAC583CADFE9DEE780BE64
:0116180000D1
:00000001FF
