:10038000D5E3BDADB4F3D1A7B9E2B5E7D1A7D4BAEF
:1003900000B5E7D7D3CFDFC2B7C9E8BCC60038374E
:1003A00039353131393700D2BABEA7CFD4CABEB33E
:1003B000C9B9A600CFB5CDB3BDF8D0D0B0B4BCFCA0
:1003C000BCECB2E2004B45595F56414C55453A30C2
:1003D00031004B45595F56414C55453A3032004B40
:1003E00045595F56414C55453A3033004B45595FAE
:1003F00056414C55453A3034004B45595F56414CB7
:1004000055453A3035004B45595F56414C55453AB4
:100410003036004B45595F56414C55453A30370010
:100420004B45595F56414C55453A3038004B45597C
:100430005F56414C55453A3039004B45595F56415E
:100440004C55453A3130004B45595F56414C554566
:100450003A3131004B45595F56414C55453A31329E
:10046000004B45595F56414C55453A3133004B4599
:10047000595F56414C55453A3134004B45595F560A
:10048000414C55453A3135004B45595F56414C5525
:10049000453A313600CFB5CDB3BDF8D0D0D2F4C097
:1004A000D6B2A5B7C500506C6179696E67204D75ED
:1004B00073696300D1DDD7E0C4A3CABD001C8020EE
:1004C0004026202B40302039A04020394030402B9E
:1004D0004030202B40268020202620202026201C53
:1004E000FE20FE392026202B202610203026202B0F
:1004F000202624392026202B202610203026202BB1
:10050000202624392026202B202610203026202BA0
:10051000202624392026202B202610203026202B90
:1005200020260BFF260BFF26A0302020202410269B
:10053000B030202020241026101C2026202B202B19
:10054000202B1030102B10302026E0260BFF260B1E
:10055000FF26A030202020241026B0302020202488
:100560001026301C2026202B202B202B1030102B67
:0905700010300BFF301030FF00C9
:0F0CEC00070D302B2624201C1004093F80000028
:03000B00020D14CF
:090D1400758CDC758A00050832BB
:100C40008F298C2A8D2B8014E58055296013B2C51D
:100C5000740C252BF8E6FF7E00120C837580FF8054
:020C6000E72289
:10000E00E4F5C975CA3075B3C0F5B4F5B1F5B212E1
:10001E000B99752CFF752D03752E807B10E4FD7FDB
:10002E0001120AC3752CFF752D03752E917B0C7D65
:10003E00017F02120AC3752CFF752D03752E9E7B50
:10004E00087D027F03120AC3752CFF752D03752ED2
:10005E00A77B0C7D017F04120AC3120D1DEF54F015
:10006E0064F0705A120CC3E4F5B3F5B4120B997523
:10007E002CFF752D03752E807B10E4FD7F01120A77
:10008E00C3752CFF752D03752E917B0C7D017F02A0
:10009E00120AC3752CFF752D03752E9E7B087D02EB
:1000AE007F03120AC3752CFF752D03752EA77B0CCB
:1000BE007D017F04120AC37FC47E09120C83120DC8
:1000CE001DEF30E7030202907590F0120B99752C1C
:1000DE00FF752D03752EB47B10E4FD7F01120AC34C
:1000EE00752CFF752D03752E9E7B087D027F0312E6
:1000FE000AC3752CFF752D03752E807B10E4FD7FD2
:10010E000402028A120D1DEF30E703020068120C82
:10011E00C3E59054F064F060EB7F647E00120C83B4
:10012E00E59054F064F060DC1208198F14E5141297
:10013E0008F901740B01860C01980D01AA0E01BC81
:10014E001501CE1601E01701F21802041F02152048
:10015E0002262102372202482902592A026A2B025C
:10016E007B2C00000112752CFF752D03752EC57B9F
:10017E000C7D017F0202028A752CFF752D03752EF0
:10018E00D27B0C7D017F0202028A752CFF752D0336
:10019E00752EDF7B0C7D017F0202028A752CFF75A6
:1001AE002D03752EEC7B0C7D017F0202028A752CCD
:1001BE00FF752D03752EF97B0C7D017F0202028ADD
:1001CE00752CFF752D04752E067B0C7D017F0202AA
:1001DE00028A752CFF752D04752E137B0C7D017F05
:1001EE000202028A752CFF752D04752E207B0C7D64
:1001FE00017F0202028A752CFF752D04752E2D7B50
:10020E000C7D017F028075752CFF752D04752E3ABD
:10021E007B0C7D017F028064752CFF752D04752E7D
:10022E00477B0C7D017F028053752CFF752D047565
:10023E002E547B0C7D017F028042752CFF752D04A0
:10024E00752E617B0C7D017F028031752CFF752D23
:10025E0004752E6E7B0C7D017F028020752CFF7540
:10026E002D04752E7B7B0C7D017F02800F752CFF7C
:10027E00752D04752E887B0C7D017F02120AC30238
:10028E000112120D1DEF20E659120CC3120B9975B7
:10029E002CFF752D04752E957B10E4FD7F01120A3F
:1002AE00C3752CFF752D04752EA67B0D7D017F0267
:1002BE00120AC3752CFF752D03752E9E7B087D02C9
:1002CE007F03120AC3752CFF752D03752E807B10CC
:1002DE00E4FD7F04120AC3120CFCE4FF12091F0294
:1002EE000068120D1DEF30E503020068120CC312F8
:1002FE000B99752CFF752D04752EB47B087D047F2C
:10030E0001120AC3120D1DEF30E50302006875805D
:10031E00FFE58030E0087D077C007F01803FE580AF
:10032E0030E1087D067C007F028032E58030E208F5
:10033E007D057C007F048025E58030E3087D047C0C
:10034E00007F088018E58030E4087D037C007F1074
:10035E00800BE58030E50B7D027C007F20120C4087
:10036E0080A2E58030E69D7D017C007F40120C402E
:02037E0080926B
:0D0CFC0075890175A882758CDCE4F58A22EB
:100CC300E5C030E604D2CC8002C2CCE5C030E703F5
:060CD300D2CD22C2CD22A9
:10091F00E4F508EF75F0D9A485F02BF52C120D1D19
:10092F00EF20E65D052CE52CAE2B7002052B142471
:10093F00BDF58274043EF583E493F529F4700AC281
:10094F008C7F64FE120C8380D4E5296036052CE57C
:10095F002CAE2B7002052B1424BDF58274043EF5CA
:10096F0083E493F52AD28C120D1DEF20E6AFB2C5AA
:10097F00AF297E00120C83E52AB508EBE4F5088059
:03098F009CC2C542
:010992002242
:090D1D0075B0FFE5B054F0FF22AF
:10081900E4F529F52A7590F0E59054F0FF54F06459
:10082900F07002FF2275900FE590540F4FF41208F3
:10083900F9086E11087A12088614089218087121AD
:10084900087D2208892408952808744108804208EF
:100859008C44089848087781088382088F84089B0C
:10086900880000089E7F0B227F0C227F0D227F0EBD
:10087900227F15227F16227F17227F18227F1F22AF
:100889007F20227F21227F22227F29227F2A227F05
:070899002B227F2C227F00BF
:0108A0002235
:100C8300E4FDFCC3ED9FEC9E5015E4FBFA0BBB00A7
:0F0C9300010AEB64024A70F50DBD00010C80E40C
:010CA200222F
:100C6200C2C2C2C0D2C1120C1CD2C2E4F596F59522
:100C720085A0317F14FE120C20C2C2E53120E7E0CC
:010C8200224F
:060BCB00F5831208BAFFD9
:100BD1008F30120C62D2C2D2C0C2C17596FFE4F549
:100BE100958530A07F14FE120C20C2C27F147E00B6
:030BF100020C20D3
:050BF400E53C253DFF7A
:100BF9008F30120C62D2C2C2C0C2C17596FFE4F531
:100C0900958530A07F14FE120C20C2C27F147E008D
:030C1900020C20AA
:060B16008B338A3489359F
:100B1C00120BF9E4F537E537C39536502EAB33AAF3
:100B2C0034A93575F002E537A4F58285F083120BF4
:100B3C00CDAB33AA34A93575F002E537A42401F501
:0B0B4C0082E435F0120BCB053780CBA4
:010B5700227B
:020AC3008B2B7B
:100AC500EFFB7A0064017005ED2480F52FEB6402DD
:100AD5004A7005ED2490F52FEB64034A7005ED246B
:100AE50088F52FEB64044A7005ED2498F52FAF2F98
:100AF500120BF9E52B6019AB2C052EE52EAA2D70EE
:100B050002052D14F91208A1FF120BD1152B80E354
:010B150022BD
:020A05008F3828
:100A0700E4F539C3E539940274809480502AE538B7
:100A17002539FF120BF97FFF120BD1E4FF120BD11F
:100A27000539E5382539FF120BF9E4FF120BD1E43C
:100A3700FF120BD1053980CB753902C3E539941004
:100A4700748094805016E5382539FF120BF9E4FFBE
:0C0A5700120BD1E4FF120BD1053980DF37
:010A63002270
:020A64008F3AC7
:100A6600E4F53BC3E53B940474809480502AE53A50
:100A7600253BFF120BF97FFF120BD1E4FF120BD1BE
:100A8600053BE53A253BFF120BF9E4FF120BD1E4D7
:100A9600FF120BD1053B80CB753B04C3E53B94109D
:100AA600748094805016E53A253BFF120BF9E4FF5B
:0C0AB600120BD1E4FF120BD1053B80DFD6
:010AC2002211
:020644008F3CE9
:10064600E4F53DC3E53D9402748094805020120B7E
:10065600F47FFF120BD1E4FF120BD1053D120BF410
:10066600E4FF120BD1E4FF120BD1053D80D5753D99
:1006760002C3E53D9406748094805011120BF4E495
:10068600FF120BD1E4FF120BD1053D80E4E53C24BB
:1006960006FF120BF97F18120BD1E4FF120BD1E5FE
:1006A6003C2407FF120BF97F3C120BD1E4FF120B1F
:1006B600D1E53C2408FF120BF97F3C120BD1E4FF75
:1006C600120BD1E53C2409FF120BF97F18120BD14E
:1006D600E4FF120BD1753D0AC3E53D941074809476
:1006E600805011120BF4E4FF120BD1E4FF120BD170
:0406F600053D80E45A
:0106FA0022DD
:020579008F3EB3
:10057B00E4F53FC3E53F940474809480502AE53E34
:10058B00253FFF120BF97FFF120BD1E4FF120BD1AA
:10059B00053FE53E253FFF120BF9E4FF120BD1E4BB
:1005AB00FF120BD1053F80CBE53E2404FF120BF964
:1005BB00E4FF120BD1E4FF120BD1E53E2405FF1231
:1005CB000BF9E4FF120BD1E4FF120BD1E53E24062D
:1005DB00FF120BF97F18120BD1E4FF120BD1E53E82
:1005EB002407FF120BF97F3C120BD1E4FF120BD146
:1005FB00E53E2408FF120BF97F3C120BD1E4FF12EE
:10060B000BD1E53E2409FF120BF97F18120BD1E435
:10061B00FF120BD1753F0AC3E53F94107480948091
:10062B005016E53E253FFF120BF9E4FF120BD1E408
:08063B00FF120BD1053F80DF27
:010643002294
:100B58007F34120BF97F36120BF9E4F540C3E540F8
:100B68009420748094805028E5402480FF120BF96B
:100B78007F80120BF9E4F541C3E541942074809419
:100B8800805009E4FF120BD1054180EC054080CD6F
:010B9800223A
:0606FB008F168D178B180D
:100701007F34120BF97F36120BF9E4F51EE51EC397
:1007110095185073E516251EFF120BF97F80120BF9
:10072100F9E4F51FE51FC39517501CE517851EF069
:10073100A4251FF582E435F0F583AB19AA1AA91B8C
:10074100120BCD051F80DDE4F51CF51DC3E51D95DC
:1007510017E51C9400502BE51E2518FFE433FEAD70
:10076100177C001208E7E51D2FFFE51C3EAB19AA17
:100771001AA91B8F82120BCB051DE51D70CE051C1E
:0C07810080CA051E02070E7F30020BF933
:100CD9008F428D437F34120BF9AF43120BF9AF42A8
:030CE900020BF902
:060993008F208D218B2254
:10099900E4F527E527C395235058E5212527FFE4EA
:1009A90033FEC3EF9420EE64809480E520C4540F95
:1009B90050092480FFE521248080072488FFE52150
:1009C90024602527FD120CD9E4F528E528C39522D2
:1009D900501CE5228527F0A42528F582E435F0F599
:1009E90083AB24AA25A926120BCD052880DD05276E
:0C09F90080A17F36120BF97F30020BF951
:100B9900D2C3120C1C7F30120BF9120C1C7F0212EB
:100BA9000BF9120C1C7F0C120BF9120C1C7F06128C
:100BB9000BF9120C1C7F80120BF9120C1C7F01021D
:020BC9000BF926
:100CA300AD07AC06ECC313ED1375F008A42480FF65
:100CB300ED5401C454F02FFF120BF97F0F020BF90F
:040C1C007F147E00C3
:100C2000E4FDFCC3ED9FEC9E5015E4FBFA0BBB000A
:0F0C3000010AEB64784A70F50DBD00010C80E4F9
:010C3F002292
:0A0D0900E4FEEEC39F50030E80F8D5
:010D130022BD
:0300000002078D67
:0C078D00787FE4F6D8FD7581430207D4A4
:1008A100BB010689828A83E0225002E722BBFE0255
:0908B100E32289828A83E4932288
:1008BA00BB010CE58229F582E5833AF583E02250F3
:1008CA0006E92582F8E622BBFE06E92582F8E2223D
:0D08DA00E58229F582E5833AF583E4932257
:1008E700EF8DF0A4A8F0CF8CF0A428CE8DF0A42E25
:0208F700FE22DF
:1008F900D083D082F8E4937012740193700DA3A38E
:1009090093F8740193F5828883E4737402936860A1
:06091900EFA3A3A380DFA1
:1007990002000EE493A3F8E493A34003F68001F268
:1007A90008DFF48029E493A3F85407240CC8C33361
:1007B900C4540F4420C8834004F456800146F6DF30
:1007C900E4800B0102040810204080900CECE47EC8
:1007D900019360BCA3FF543F30E509541FFEE49325
:1007E900A360010ECF54C025E060A840B8E493A3EC
:1007F900FAE493A3F8E493A3C8C582C8CAC583CA17
:10080900F0A3C8C582C8CAC583CADFE9DEE780BECE
:010CFB0000F8
:00000001FF
