:10000E00D5E3BDADB4F3D1A7B9E2B5E7D1A7D4BA64
:10001E0000B5E7D7D3CFDFC2B7C9E8BCC6003837C3
:10002E0039353131393700D2BABEA7CFD4CABEB3B3
:10003E00C9B9A600B2CBB5A500312EB2A5B7C5D2AF
:10004E00F4C0D600322EB5AFD7E0C4A3CABD00337C
:10005E002ECFC2D2BBD2B300342EC2BCD2F4C4A3B4
:10006E00CABD00352EB2A5B7C5C2BCD2F400362E1D
:10007E00C9CFD2BBD2B300372ECFC2D2BBD2B300C0
:10008E00382EC1B7CFB0C4A3CABD00392EC9CFD246
:10009E00BBD2B300312ED0C2B1A6B5BA00322EB04B
:1000AE00AEBAD300332ED7A3C4E3C6BDB0B200346C
:1000BE002ECCECBFD5D6AEB3C700D1DDD7E0C4A3EE
:1000CE00CABD00B0B4C8CED2E2BCFCB7B5BBD80036
:1000DE00B8DFD2F400D6D0D2F400B5CDD2F400C23F
:1000EE00BCD2F4C4A3CABD00312EBFAACABCC2BCC6
:1000FE00D2F400B0B4C6E4CBFBBCFCB7B5BBD800A1
:10010E00B0B4C8CED2E2BCFCBDE1CAF8C2BCD2F4D7
:10011E0000C2BCD2F4CDEAB3C900B2A5B7C5C2BC09
:10012E00D2F4004572726F722100526967687421B1
:10013E00004572726F72204E756D62657220697322
:10014E00003100320033003400350036003700C76E
:10015E00EBD1DDD7E0D2D4CAE4C8EBC3DCC2EB00EE
:10016E005F205F205F205F205F00C3DCC2EBCEDE2E
:10017E00CEF300C3DCC2EBB4EDCEF3001C80204006
:10018E0026202B40302039A04020394030402B40D3
:10019E0030202B40268020202620202026201CFECA
:1001AE0020FE392026202B202610203026202B2022
:1001BE002624392026202B202610203026202B20E6
:1001CE002624392026202B202610203026202B20D6
:1001DE002624392026202B202610203026202B20C6
:1001EE00260BFF260BFF26A030202020241026B041
:1001FE0030202020241026101C2026202B202B20DF
:10020E002B1030102B10302026E0260BFF260BFF74
:10021E0026A030202020241026B0302020202410AC
:10022E0026301C2026202B202B202B1030102B109C
:10023E00300BFF301030FF0030202B2026202620E0
:10024E0020201C201C303010302026202B20302067
:10025E0030202B20264030202B2026202620202028
:10026E001C201C303010302026202B203020302037
:10027E003220302000262020202020261020102082
:10028E00802620302030203910301030802620205B
:10029E002020201C2020802B20262020202B1026E2
:1002AE00102B80262030203020391026102660405A
:1002BE0010391026203020302039102610268026A6
:1002CE00202B102B102B203010391026102B102B1A
:1002DE00202B404020201020102B1026303080186C
:1002EE0020182026202020204026202B20302030B1
:1002FE00201C20202020801C201C201C2030203080
:10030E00603910301020202B1026102B10261026AE
:10031E00102B102B8018201820262020202060263D
:10032E00102B20302030201C202020208026203032
:10033E001030103020392026102B102B202B40404F
:10034E00104010201020102B102630308000263048
:10035E0026301C4020301C301830206026302630CD
:10036E0024402630243018402660182018201820EB
:10037E00194024302430193019601C3019301840BF
:10038E001930183013301960263026301C402030BA
:10039E001C3018302080263024302430183019209C
:1003AE001930183015201520132018401830193028
:1003BE001C201C20193020301C60183015301340C2
:1003CE0015301330103015602030203018301930B1
:1003DE001830133013601C201920183019301520D6
:1003EE0015201840203020301230133015301830C0
:1003FE0013C0138013300E801030103013201520D0
:10040E001840183015301820152015301030136094
:10041E0013300E6010601320152018401830153060
:10042E0015201820153019301C601C3019301CC0D6
:10043E0000FFFFFFFFFFFFFFFE0FFFFFFFFFFFFFAE
:10044E00FFFFFFFFFFFFFFFFF801FFFFFFFFFFFFB3
:10045E00FFFFFFFFFFA000FFF0007F000003FFFF84
:10046E00FFFFFFFFC000001FE00038000003FFFF8A
:10047E00FFFFFFFFC000000FE00070000007FFFF4E
:10048E00FFFFFFFFE0000007C003E0000007FFFFD3
:10049E00FFFFFFFFF0000003C00FC000001FFFFFB3
:1004AE00FFFFFFFFFC000003C007C000003FFFFF7F
:1004BE00FFFFFFFFFFC00001C0078000FBFFFFFF33
:1004CE00FFFFFFFFFFFF000180038000FFFFFFFF24
:1004DE00FFFFFFFFFFFF800080030000FFFFFFFF15
:1004EE00FFFFFFFFFFEF800000030000017FFFFF13
:1004FE00FFFFFFFFFE00000000000000007FFFFF77
:10050E00FFFFFFFFFF0000000000000000FFFFFFE5
:10051E00FFFFFFFFFF8000000000000000FFFFFF55
:10052E00FFFFFFFFFFC000000000000001FFFFFF04
:10053E00FFFFFFFFFFE000000000000003FFFFFFD2
:10054E00FFFFFFFFFFFC6000000000041FFFFFFF26
:10055E00FFFFFFFFFFFFF0000000000FFFFFFFFF98
:10056E00FFFFFFFFFFFFF8000000000FFFFFFFFF80
:10057E00FFFFFFFFFFFFF8000000001FFFFFFFFF60
:10058E00FFFFFFFFFFFC000000000000BFFFFFFFAA
:10059E00FFFFFFFFFFFC0000000000003FFFFFFF1A
:1005AE00FFFFFFFFFFFE0000000000007FFFFFFFC8
:1005BE00FFFFFFFFFFFE0000000000007FFFFFFFB8
:1005CE00FFFFFFFFFFFF800000000001FFFFFFFFA6
:1005DE00FFFFFFFFFFFFE0000000004FFFFFFFFFE8
:1005EE00FFFFFFFFFFFFFF00000000FFFFFFFFFF09
:1005FE00FFFFFFFFFFFFFF80000000FFFFFFFFFF79
:10060E00FFFFFFFFFFFFFF80000000FFFFFFFFFF68
:10061E00FFFFFFFFFFFFE00000000003FFFFFFFFF3
:10062E00FFFFFFFFFFFFF00000000007FFFFFFFFCF
:10063E00FFFFFFFFFFFFF0000000000FFFFFFFFFB7
:10064E00FFFFFFFFFFFFF8000000000FFFFFFFFF9F
:10065E00FFFFFFFFFFFFFE000000003FFFFFFFFF59
:10066E00FFFFFFFFFFFFFFE0000007FFFFFFFFFFA1
:10067E00FFFFFFFFFFFFFFF000000FFFFFFFFFFF79
:10068E00FFFFFFFFFFFFFFF000000FFFFFFFFFFF69
:10069E00FFFFFFFFFFFFFF00000000FFFFFFFFFF58
:1006AE00FFFFFFFFFFFFFF00000000FFFFFFFFFF48
:1006BE00FFFFFFFFFFFFFF80000001FFFFFFFFFFB7
:1006CE00FFFFFFFFFFFFFFC0000001FFFFFFFFFF67
:1006DE00FFFFFFFFFFFFFFE0000003FFFFFFFFFF35
:1006EE00FFFFFFFFFFFFFFFE00001FFFFFFFFFFFEB
:1006FE00FFFFFFFFFFFFFFFF0000FFFFFFFFFFFFFA
:10070E00FFFFFFFFFFFFFFFF8001FFFFFFFFFFFF68
:10071E00FFFFFFFFFFFFFFFF8001FFFFFFFFFFFF58
:10072E00FFFFFFFFFFFFFFFF8001FFFFFFFFFFFF48
:10073E00FFFFFFFFFFFFFFFF0000FFFFFFFFFFFFB9
:10074E00FFFFFFFFFFFFFFFE00007FFFFFFFFFFF2A
:10075E00FFFFFFFFFFFFFFFE00007FFFFFFFFFFF1A
:10076E00FFFFFFFFFFFFFFFF0000FFFFFFFFFFFF89
:10077E00FFFFFFFFFFFFFFFF8000FFFFFFFFFFFFF9
:10078E00FFFFFFFFFFFFFFFF8001FFFFFFFFFFFFE8
:10079E00FFFFFFFFFFFFFFFFC003FFFFFFFFFFFF96
:1007AE00FFFFFFFFFFFFFFFFE003FFFFFFFFFFFF66
:1007BE00FFFFFFFFFFFFFFFFE007FFFFFFFFFFFF52
:1007CE00FFFFFFFFFFFFFFFFF007FFFFFFFFFFFF32
:1007DE00FFFFFFFFFFFFFFFFF80FFFFFFFFFFFFF12
:1007EE00FFFFFFFFFFFFFFFFF81FFFFFFFFFFFFFF2
:1007FE00FFFFFFFFFFFFFFFFFC1FFFFFFFFFFFFFDE
:10080E00FFFFFFFFFFFFFFFFFE3FFFFFFFFFFFFFAB
:10081E00FFFFFFFFFFFFFFFFFE7FFFFFFFFFFFFF5B
:10082E00FFFFFFFFFFFFFFFFFF7FFFFFFFFFFFFF4A
:0B083E00FF0000000000003700370042
:102E2700480609000000BC00F901D25501FB6056B5
:102E37004C48403932302B2624201C191815131200
:102E4700100E0D4401F740E000004101F60141007A
:102E570000014A05FF0001000200030004000542CB
:0D2E670005FBFFFF4205FD00004105F900DD
:0B1E6A007B01900640E4F0A3740AF036
:101E750090063BEEF0A3EFF0A3EBF0A3EAF0A3E9A5
:011E8500F06C
:101E8600900642EBF0A3EAF0A3E9F0C3EE64809477
:101E960080502E900642E0FBA3E475F001120C7A06
:101EA600A9F0FA742D120BB590063BE0FEA3E0FFF5
:101EB600EE3395E0FDFC120C9090063BEEF0A3EF9E
:101EC600F0900642E0F9A3E0FAA3E0A3C9F0A3EA82
:101ED600F0A3E9F0900640E0FAA3E0FB90063BE0B1
:101EE600FEA3E0FFAD03AC02120BD9900648ECF05E
:101EF600A3EDF090063BE0FEA3E0FFAD03AC0212BB
:101F06000C2E90063BEEF0A3EFF0900648E0FEA301
:101F1600E0FFD39409EE94004005EF245780079024
:101F26000648A3E02430FF900642E0FBA3E475F0E8
:101F360001120C7AA9F0FAEF120BB5D390063CE029
:101F4600940090063BE0648094805088900642E0BE
:101F5600FBA374FFF5F0120C7AA9F0FAE4120BB5A4
:101F6600900642E0FBA3E0FAA3E0F9120B6FFF90A4
:101F76000645E0FBA3E0FAA3E0F9120B6FFE90061C
:101F860042E0FBA3E0FAA3E0F9EE120BB59006459A
:101F9600E0FBA3E0FAA3E0F9EF120BB59006437459
:101FA600FFF5F0120C64900646E475F001120C641D
:101FB600900642E0FBA3E0FAA3E0F9C003C002C02A
:101FC60001A3A3E0FAA3E0F9C3D082D083D0E0E96D
:101FD6009582EA9583408990063DE0FBA3E0FAA34B
:021FE600E0F920
:011FE80022D6
:03000B00023013AD
:10301300C0E0C083C082758CDC758A00900001E03B
:0930230004F0D082D083D0E03229
:042B2F00E4FBFAFCCD
:102B3300900613EFF0A3ECF0A3EDF0A3EAF0A3EB00
:012B4300F0A1
:102B440078187C067D017BFF7A0879457E007F0238
:102B5400120B497580FF900616E07002A3E0603501
:102B6400900614E0FEA3E0FF7C007D07120C2EAE5D
:102B740004AF05EF4E60077A067918121E6A9006B4
:102B84003E7401F0A37406F0A37418F07B017D0475
:102B94007F03122D10900613E055806008122EFD5D
:0B2BA4007580FF80F09001F67401F0D6
:012BAF002203
:10213700122F3190061474FFF0A37404F0A3743FB8
:10214700F07B207D107F801228D0E4F5C975CA3056
:1021570075B3C0F5B4F5B1F5B2122F3190063E74E0
:10216700FFF0A37400F0A3740EF07B10E4FD7F0171
:10217700122D1090063E74FFF0A37400F0A3741F95
:10218700F07B0C7D017F02122D1090063E74FFF04C
:10219700A37400F0A3742CF07B087D027F03122D3B
:1021A7001090063E74FFF0A37400F0A37435F07B23
:1021B7000C7D017F04122D101216B212302CE4F59B
:1021C700B3F5B4122F3190000012238B7590F012E3
:1021D700302CE59054F064F060F27F647E00122F9B
:1021E70011E59054F064F06072122AA59004FEEF96
:1021F700F0E59054F064F060057590F080F390047A
:10220700FEE0120CAA222B0B22320C22370D2239A8
:102217000E223E15224316224A1722511822591F11
:102227000000226212226CC2C58022121C1A801D75
:102237008020120D1E801612281580119000007440
:102247000180149000007403800D12275590000040
:1022570080069000007402F012238B7FC47E09125F
:052267002F110221D33C
:0D30570075890175A882758CDCE4F58A226C
:10302C00E5C030E604D2CC8002C2CCE5C030E70368
:06303C00D2CD22C2CD221C
:1019A000900617E4F0A304F0E4A3F0A3F0EF25E021
:1019B0002409F582E43406F583E0FEA3E0FF9006F7
:1019C00015EEF0A3EFF0900613EEF0A3EFF0121077
:1019D0007C90063E7401F0A37402F0A37410F0A38F
:1019E000E4F0A37410F07B017A06791B122CA89006
:1019F000063E7401F0A37406F0A3741BF07B10E4A0
:101A0000FD7F02122D1090063E7401F0A37400F0C9
:101A1000A374FCF0A3E4F0A37410F07B017A0679C0
:101A20001B122CA890063E7401F0A37406F0A37458
:101A30001BF07B10E4FD7F03122D1090063E740115
:101A4000F0A37400F0A37402F0A3E4F0A37410F008
:101A50007B017A06791B122CA890063E7401F0A334
:101A60007406F0A3741BF07B10E4FD7F04122D10AC
:101A7000021C03900613E475F001120C7AFE748ABE
:101A800025F0F58274013EF583E493900611F0E0B1
:101A9000F4700AC28C7F64FE122F1180D69006115A
:101AA000E07003021C19900613E475F001120C7A21
:101AB000FE748A25F0F58274013EF583E493900666
:101AC00012F0D28CB2C5900611122F0D900001E0D9
:101AD000FF900612E06F6003021C0B900615E0FEFB
:101AE000A3E0FFC3900614E09FFF900613E09EFE64
:101AF000EF25E0FFEE33FE740A2FF58274033EF506
:101B000083E0FCA3E0FD900618E0C4F8540FC86819
:101B1000FF900617E0C454F048FED3ED9FEC9E50B2
:101B200003021C0390061AE02410F0900619E0341A
:101B300000F0900618E004F07006900617E004F03C
:101B4000900619E0FEA3E02410F974023EFA900614
:101B50003E7401F0A3EAF0A3E9F0A3E4F0A374104B
:101B6000F07B017A06791B122CA890063E7401F0D6
:101B7000A37406F0A3741BF07B10E4FD7F02122D0A
:101B800010900619E0FEA3E024FCF974003EFA90E0
:101B9000063E7401F0A3EAF0A3E9F0A3E4F0A37415
:101BA00010F07B017A06791B122CA890063E740176
:101BB000F0A37406F0A3741BF07B10E4FD7F031206
:101BC0002D10900619E0FEA3E02402F974003EFAFD
:101BD00090063E7401F0A3EAF0A3E9F0A3E4F0A3B9
:101BE0007410F07B017A06791B122CA890063E74C3
:101BF00001F0A37406F0A3741BF07B10E4FD7F04D6
:101C0000122D10E4900001F0021A737590F0E59027
:091C100054F064F07003021AC4E0
:011C190022A8
:09306F0075B0FFE5B054F0FF223A
:102AA500E4900614F0A3F07590F0E59054F0FF540F
:102AB500F064F07002FF2275900FE590540F4FF40B
:102AC500120CAA2AFC112B08122B14142B20182ADD
:102AD500FF212B0B222B17242B23282B02412B0EF6
:102AE500422B1A442B26482B05812B11822B1D8442
:102AF5002B298800002B2C7F0B227F0C227F0D2297
:102B05007F0E227F15227F16227F17227F18227FB4
:102B15001F227F20227F21227F22227F29227F2AB6
:092B2500227F2B227F2C227F006D
:012B2E002284
:102EFD00B2C5A3E0FEA3E024FAF58274013EF5838A
:042F0D00E0FF7E0063
:102F1100E4FDFCC3ED9FEC9E5015E4FBFA0BBB00F6
:0F2F2100010AEB64024A70F50DBD00010C80E45B
:012F3000227E
:06238B00E0FF3395E0FEC7
:10239100900611EEF0A3EFF0122F31900611E0FE3E
:1023A100A3E0FFEE6003022499EF24FE6061147044
:1023B1000302246B2402600302249990063E74FFF9
:1023C100F0A37400F0A37442F07B047D037F01123B
:1023D1002D1090063E74FFF0A37400F0A37447F033
:1023E1007B0AE4FD7F02122D1090063E74FFF0A3DC
:1023F1007400F0A37452F07B0AE4FD7F03122D10E8
:1024010090063E74FFF0A37400F0A3745D805290B7
:10241100063E74FFF0A37400F0A37466F07B0AE437
:10242100FD7F01122D1090063E74FFF0A37400F0A1
:10243100A37471F07B0AE4FD7F02122D1090063E19
:1024410074FFF0A37400F0A3747CF07B08E4FD7FBB
:1024510003122D1090063E74FFF0A37400F0A374D4
:1024610085F07B08E4FD7F04802B90063E74FFF02D
:10247100A37400F0A3748EF07B0AE4FD7F01122D9A
:102481001090063E74FFF0A37400F0A37499F07BE2
:0924910008E4FD7F02122D102267
:10226C00122F3190063E74FFF0A37400F0A374A2F9
:10227C00F07B08E4FD7F01122D1090063E74FFF0F8
:10228C00A37400F0A374ABF07B06E4FD7F02122D67
:10229C001090063E74FFF0A37400F0A374B2F07BB0
:1022AC000AE4FD7F03122D1090063E74FFF0A37418
:1022BC0000F0A374BDF07B0AE4FD7F04122D101214
:1022CC0030577590F012302CE59054F064F060F5B6
:1022DC007F647E00122F11E59054F064F0700302BD
:1022EC002380122AA59004FEEFF024F4602B1460D6
:1022FC00461460612403600302238A122F31900676
:10230C003E74FFF0A37400F0A374A2F07B08E4FD0C
:10231C007F01122D10E4FF8058122F3190063E746D
:10232C00FFF0A37400F0A374ABF07B06E4FD7F0117
:10233C00122D107F01803A122F3190063E74FFF05F
:10234C00A37400F0A374B2F07B0AE4FD7F01122D9C
:10235C00107F02801C122F3190063E74FFF0A37484
:10236C0000F0A374BDF07B0AE4FD7F01122D107FF9
:0F237C00030219A07FC47E09122F110222D12261
:101C1A0012302C122F3190063E74FFF0A37400F09C
:101C2A00A374C8F07B087D027F01122D1090063E36
:101C3A0074FFF0A37400F0A374D1F07B0C7D017FD4
:101C4A0004122D107590F0E59054F064F0601F7F37
:101C5A00647E00122F11E59054F064F06009122A94
:101C6A00A59004FEEFF0227F647E00122F1175808A
:101C7A00FF12302CA2CDE4FE33FF7C007D07120B4D
:101C8A00C7EF2407FBE43EFAA2CCE4FE33FF120BB3
:101C9A00C7C3EB9FFDEA9EFC1209BF9001F7120C25
:101CAA009EE4FFFE7D607C419001F7E0F8A3E0F935
:101CBA00A3E0FAA3E0FB120941700F90063E74FFFD
:101CCA00F0A37400F0A374DE804EE4FFFE7DE07C96
:101CDA00409001F7E0F8A3E0F9A3E0FAA3E0FB12D1
:101CEA000941700F90063E74FFF0A37400F0A374CC
:101CFA00E38025E4FFFEFDFC9001F7E0F8A3E0F99C
:101D0A00A3E0FAA3E0FB120941701790063E74FFA4
:101D1A00F0A37400F0A374E8F07B047D037F021241
:101D2A002D10E58030E028E4FFFE7DE07C40900144
:101D3A00F7E0F8A3E0F9A3E0FAA3E0FB12085012D7
:101D4A0009F8AD07AC067B017A007F01021E64E543
:101D5A008030E128E4FFFE7DC07C409001F7E0F886
:101D6A00A3E0F9A3E0FAA3E0FB1208501209F8ADC8
:101D7A0007AC067B017A007F02021E64E58030E22E
:101D8A0028E4FFFE7DA07C409001F7E0F8A3E0F98B
:101D9A00A3E0FAA3E0FB1208501209F8AD07AC065B
:101DAA007B017A007F04021E64E58030E328E4FFA9
:101DBA00FE7D807C409001F7E0F8A3E0F9A3E0FA09
:101DCA00A3E0FB1208501209F8AD07AC067B017AB2
:101DDA00007F08021E64E58030E427E4FFFE7D40B0
:101DEA007C409001F7E0F8A3E0F9A3E0FAA3E0FB56
:101DFA001208501209F8AD07AC067B017A007F1071
:101E0A008058E58030E526E4FFFEFD7C409001F72E
:101E1A00E0F8A3E0F9A3E0FAA3E0FB1208501209E4
:101E2A00F8AD07AC067B017A007F20802DE5802083
:101E3A00E603021C4EE4FFFE7D807C3F9001F7E042
:101E4A00F8A3E0F9A3E0FAA3E0FB1208501209F89C
:101E5A00AD07AC067B017A007F40122B33021C4E81
:100D1E00E4900611F0A3F0A3F09005FDF0A3F0749B
:100D2E00FF9005FBF0A3F0E49005F9F012302C12C1
:100D3E002F3190063E74FFF0A37400F0A374EDF013
:100D4E007B087D027F01122D1090063E74FFF0A3EA
:100D5E007400F0A374F6F07B0AE4FD7F02122D10EE
:100D6E0090063E74FFF0A37401F0A37401F07B0CA7
:100D7E007D017F04122D10900611E070387590F0F1
:100D8E00E59054F064F060EF7F647E00122F11E561
:100D9E009054F064F06015122AA59004FEEFF02432
:100DAE00F5600302107B9006117401F07F647E00E3
:100DBE00122F1180C27E007FFA7D007B017A0479AA
:100DCE00FF120CD0122F3190063E74FFF0A3740167
:100DDE00F0A3740EF07B10E4FD7F04122D10E4904E
:100DEE000001F01230577590F0E59054F064F06009
:100DFE00667F647E00122F11E59054F064F060500F
:100E0E00122AA59004FEEFF090063E74FFF0A37434
:100E1E0001F0A3741FF07B08E4FD7F03122D1090E8
:100E2E0005F9E0FF900612E0FCA3E0FD24FFF58239
:100E3E0074043CF583EFF09005FBA3E0FFA3A3E061
:100E4E00C39FFF74002DF58274053CF583EFF022ED
:100E5E007F647E00122F117580FF12302CA2CDE41C
:100E6E00FE33FF7C007D07120BC7EF2407FBE43E29
:100E7E00FAA2CCE4FE33FF120BC7C3EB9FFDEA9E32
:100E8E00FC1209BF9001F7120C9EE4FFFE7D607C00
:100E9E00419001F7E0F8A3E0F9A3E0FAA3E0FB121A
:100EAE000941700F90063E74FFF0A37400F0A37416
:100EBE00DE804EE4FFFE7DE07C409001F7E0F8A37B
:100ECE00E0F9A3E0FAA3E0FB120941700F90063E91
:100EDE0074FFF0A37400F0A374E38025E4FFFEFD1D
:100EEE00FC9001F7E0F8A3E0F9A3E0FAA3E0FB120F
:100EFE000941701790063E74FFF0A37400F0A374BE
:100F0E00E8F07B047D037F02122D10E58030E02C8B
:100F1E00E4FFFE7DE07C409001F7E0F8A3E0F9A34A
:100F2E00E0FAA3E0FB1208501209F8AD07AC0690E8
:100F3E000612E0FAA3E0FB7F0102106DE58030E1BE
:100F4E002CE4FFFE7DC07C409001F7E0F8A3E0F9B1
:100F5E00A3E0FAA3E0FB1208501209F8AD07AC06A5
:100F6E00900612E0FAA3E0FB7F0202106DE58030DE
:100F7E00E22CE4FFFE7DA07C409001F7E0F8A3E0B8
:100F8E00F9A3E0FAA3E0FB1208501209F8AD07AC82
:100F9E0006900612E0FAA3E0FB7F0402106DE580D6
:100FAE0030E32CE4FFFE7D807C409001F7E0F8A357
:100FBE00E0F9A3E0FAA3E0FB1208501209F8AD071E
:100FCE00AC06900612E0FAA3E0FB7F0802106DE576
:100FDE008030E42BE4FFFE7D407C409001F7E0F88A
:100FEE00A3E0F9A3E0FAA3E0FB1208501209F8AD52
:100FFE0007AC06900612E0FAA3E0FB7F108060E5D6
:10100E008030E52AE4FFFEFD7C409001F7E0F8A376
:10101E00E0F9A3E0FAA3E0FB1208501209F8AD07BD
:10102E00AC06900612E0FAA3E0FB7F208031E5804B
:10103E0020E603020DF4E4FFFE7D807C3F9001F775
:10104E00E0F8A3E0F9A3E0FAA3E0FB1208501209BE
:10105E00F8AD07AC06900612E0FAA3E0FB7F401253
:0D106E00258E900612EEF0A3EFF0020DF4B7
:01107B002252
:10258E00900614EFF0A3ECF0A3EDF0A3EAF0A3EBAA
:01259E00F04C
:10259F0078197C067D017BFF7A0879477E007F02E0
:1025AF00120B499005FBE0FEA3E0FFF47002EEF47E
:1025BF00602B9005F9E0FD900617E0FAA3E0FB24ED
:1025CF00FFF58274043AF583EDF0900001E0C39FAC
:1025DF00FF74002BF58274053AF583EFF090061522
:1025EF00E0FEA3E0FF7C007D07120C2EAE04AF05CA
:1025FF00EF4E60077A067919121E6A90063E740133
:10260F00F0A37406F0A37419F07B017D047F03120D
:10261F002D107580FF900001E0FF9005FBE4F0A303
:10262F00EFF0900614E055806008122EFD7580FFC4
:10263F0080F0900001E0FF9005FDE4F0A3EFF09033
:10264F000615E0FEA3E024FAF58274013EF583E05F
:10265F009005F9F0900618E02402FF900617E03479
:02266F0000FE6B
:012671002246
:1028150012302C122F3190063E74FFF0A37401F094
:10282500A37428F07B087D027F01122D1090063ECF
:1028350074FFF0A37400F0A374D1F07B0C7D017FCD
:1028450004122D10123057900612E4F0A37402F012
:10285500E4900001F0900612E475F001120C7AFE86
:1028650074FF25F0F58274043EF583E0900611F0BF
:10287500E0F9F4700AC28C7F64FE122F1180D6E94C
:102885006048900611E0FF7B037A007D027C001210
:102895001FE9900612E475F001120C7AFE74FF250B
:1028A500F0F58274043EF583E0F9D28CB2C590064A
:1028B50011122F0D900001E0B50104E4F08096752A
:0A28C50090F0E59054F064F060E23A
:0128CF0022E6
:08107C0090063BEEF0A3EFF03B
:1010840090063FEEF0A3EFF0E4A3F0A3F002138088
:1010940090063DE0F97003021399900641E0FCA329
:1010A400E0FD90063BE0FEA3E0FFC3900640E09F16
:1010B400FF90063FE09EFEEF25E0FFEE33FE740A4C
:1010C4002FF58274033EF583ECF0A3EDF0E9120CE6
:1010D400AA11970D11820E116D101158121143139C
:1010E400112E1511181811971911821C116D201148
:1010F4005824114326112E2B1118301197321182C6
:1011040039116D4011584811434C112E5611186075
:10111400000011AC900641E0FEA3E024FCF58274CB
:10112400003EF5837431F00211BD900641E0FEA348
:10113400E024FCF58274003EF5837432F0807A90EA
:101144000641E0FEA3E024FCF58274003EF58374BE
:1011540033F08065900641E0FEA3E024FCF5827440
:10116400003EF5837434F08050900641E0FEA3E025
:1011740024FCF58274003EF5837435F0803B9006C0
:1011840041E0FEA3E024FCF58274003EF58374364E
:10119400F08026900641E0FEA3E024FCF582740072
:1011A4003EF5837437F08011900640E004F0700639
:1011B40090063FE004F002138090063DE0FFF470D7
:1011C40003021094C3EF943274809480401D9006FF
:1011D40041E0FEA3E0FF2402F58274003EF583742F
:1011E4002EF074102FF5827402803590063DE0D302
:1011F400941874809480900641E0FEA3E0FF500DA3
:101204002410F58274023EF583742E800B2410F5AD
:101214008274023EF5837420F074022FF582740008
:101224003EF5837420F0900640E004F070069006CA
:101234003FE004F090063FE0FEA3E0248AF58274C8
:10124400013EF583E493FF90063EF07E0064207037
:101254002D900640E004F0700690063FE004F09004
:101264000642E004F07006900641E004F090063F68
:10127400E0FCA3E0248AF58274013C02138EEF643F
:10128400104E7016900641E0FEA3E02402F582742D
:10129400003EF583742DF002136490063EE0FF7E59
:1012A4000064087016900641E0FCA3E02402F58275
:1012B40074003CF583743DF0021364EF64304E70A7
:1012C4003E900642E004F07006900641E004F0907F
:1012D4000641E0FEA3E0FF24FCF58274003EF583A2
:1012E400742EF074022FF58274003EF5837420F09E
:1012F40074102FF58274023EF5837420F08061909F
:10130400063EE0C39440748094804054804C900620
:101314003EE0C39420748094804045900642E004EB
:10132400F07006900641E004F0900641E0FEA3E070
:10133400FF24FCF58274003EF583742DF074022FB3
:10134400F58274003EF5837420F074102FF58274D6
:10135400023EF5837420F090063EE024E0F080AE77
:10136400900640E004F0700690063FE004F090061A
:1013740042E004F07006900641E004F090063FE07D
:10138400FEA3E0248AF58274013EF583E49390067B
:051394003DF002109481
:011399002231
:102E750090063BECF0A3EDF0A3EAF0A3EBF0A90775
:102E8500800DE58059600DB2C590063B122F007587
:102E950080FF80EE90063BE0FEA3E024FAF5827405
:102EA500013EF583E0FF90063DE0B40008A3E0B5E0
:082EB50007037F00227F0122C8
:10139A00E490062EF0A3F090063AF0900616F0A319
:1013AA0004F0E4A3F0A3F0EF25E0FFEE33FE7409A6
:1013BA002FF58274063EF583E0FEA3E0FF90061443
:1013CA00EEF0A3EFF0900612EEF0A3EFF012107C0D
:1013DA0090063E7401F0A37402F0A37410F0A3E423
:1013EA00F0A37410F07B017A06791A122CA89006E1
:1013FA003E7401F0A37406F0A3741AF07B10E4FDA6
:10140A007F02122D1090063E7401F0A37400F0A31F
:10141A0074FCF0A3E4F0A37410F07B017A06791A45
:10142A00122CA890063E7401F0A37406F0A3741A55
:10143A00F07B10E4FD7F03122D1090063E7401F03C
:10144A00A37400F0A37402F0A3E4F0A37410F07B79
:10145A00017A06791A122CA890063E7401F0A37438
:10146A0006F0A3741AF07B10E4FD7F04122D10908D
:10147A000612E0FEA3E0248AF58274013EF583E4B5
:10148A0093900611F0900611E07003021647F4706B
:10149A0024900613E004F07006900612E004F0901F
:1014AA000612E0FEA3E0248AF58274013EF583E485
:1014BA0093900611F012302CA2CDE4FE33FF7C008B
:1014CA007D07120BC7AA06AB07A2CCE4FE33FF12B4
:1014DA000BC7C3EF9BFDEE9AFC1209BF9001F712EE
:1014EA000C9E7580FFE58030E02BE4FFFE7DE07CFA
:1014FA00409001F7E0F8A3E0F9A3E0FAA3E0FB12B9
:10150A0008501209F8AD07AC06900611E0FB7A0004
:10151A007F0102163CE58030E12BE4FFFE7DC07CB2
:10152A00409001F7E0F8A3E0F9A3E0FAA3E0FB1288
:10153A0008501209F8AD07AC06900611E0FB7A00D4
:10154A007F0202163CE58030E22BE4FFFE7DA07CA0
:10155A00409001F7E0F8A3E0F9A3E0FAA3E0FB1258
:10156A0008501209F8AD07AC06900611E0FB7A00A4
:10157A007F0402163CE58030E32BE4FFFE7D807C8D
:10158A00409001F7E0F8A3E0F9A3E0FAA3E0FB1228
:10159A0008501209F8AD07AC06900611E0FB7A0074
:1015AA007F0802163CE58030E42AE4FFFE7D407C99
:1015BA00409001F7E0F8A3E0F9A3E0FAA3E0FB12F8
:1015CA0008501209F8AD07AC06900611E0FB7A0044
:1015DA007F10805EE58030E529E4FFFEFD7C4090C7
:1015EA0001F7E0F8A3E0F9A3E0FAA3E0FB12085040
:1015FA001209F8AD07AC06900611E0FB7A007F20CD
:10160A008030E58020E6030214BFE4FFFE7D807C83
:10161A003F9001F7E0F8A3E0F9A3E0FAA3E0FB1298
:10162A0008501209F8AD07AC06900611E0FB7A00E3
:10163A007F40122E7590063AEFF00214BF122F3136
:10164A0090063E74FFF0A37401F0A3743FF07B1080
:10165A00E4FD7F01122D1090062EE0FEA3E0FF7B31
:10166A00017A067930121E6C7B017A0679301230C3
:10167A0042AB0790063E7401F0A37406F0A37430DF
:10168A00F0E4FD7F02122D107590F0E59054F0649D
:10169A00F060F57F647E00122F11E59054F064F03B
:0716AA007005122F1180E111
:0116B1002216
:10275500122F3190063E74FFF0A37400F0A374A20B
:10276500F07B08E4FD7F01122D1090063E74FFF00A
:10277500A37400F0A374ABF07B06E4FD7F02122D79
:102785001090063E74FFF0A37400F0A374B2F07BC2
:102795000AE4FD7F03122D1090063E74FFF0A3742A
:1027A50000F0A374BDF07B0AE4FD7F04122D1075C3
:1027B50090F012302CE59054F064F060F57F647E63
:1027C50000122F11E59054F064F0603A122AA5909A
:1027D50004FEEFF024F4601214601814601E240344
:1027E500702D122F31E4FFFE8019122F317F017EEB
:1027F500008010122F317F027E008007122F317F5B
:10280500037E0002139A7FC47E09122F1180A32232
:101FE90090061FECF0A3EDF0A3EAF0A3EBF0900646
:101FF9001EEFF0C39432748094804013A3A3E0FFD2
:1020090090063E74FFF0A37400F0A374DE80339051
:10201900061EE0D39418748094805013A3A3E0FFA4
:1020290090063E74FFF0A37400F0A374E880139047
:10203900061FA3E0FF90063E74FFF0A37400F0A30F
:1020490074E3F07B047D03122D1090061EE0120C40
:10205900AA211B0D21060E20F11020DC1220C71326
:1020690020B215209D18211B1921061C20F12020C2
:10207900DC2420C72620B22B209D30211B322106CB
:102089003920F14020DC4820C74C20B256209D6001
:1020990000002136900621A3E0FF90063E74FFF070
:1020A900A37401F0A3744F807C900621A3E0FF90F4
:1020B900063E74FFF0A37401F0A374518067900683
:1020C90021A3E0FF90063E74FFF0A37401F0A3740E
:1020D900538052900621A3E0FF90063E74FFF0A3BF
:1020E9007401F0A37455803D900621A3E0FF90068A
:1020F9003E74FFF0A37401F0A37457802890062161
:10210900A3E0FF90063E74FFF0A37401F0A3745995
:102119008013900621A3E0FF90063E74FFF0A3749C
:0E21290001F0A3745BF07B017D04122D1022E7
:1016B200E4900611F0A3F0900611E0FEA3E0FFC350
:1016C2009405EE64809480400302199FEF4E7031BE
:1016D200122F3190063E74FFF0A37401F0A3745DE3
:1016E200F07B10E4FD7F01122D1090063E74FFF096
:1016F200A37401F0A3746EF07B09E4FD7F02122D46
:10170200107580FFE58030E0517D077F01122B2F9D
:10171200900611E0FCA3E0FD25E0FFEC33FE74FF30
:101722002FF58274053EF583E0FEA3E064074E7058
:101732002690063E74FFF0A37401F0A3745BF07B65
:10174200017F02122D10900612E004F0705C9006E8
:1017520011E004F002196F02197EE58030E1517D3B
:10176200067F02122B2F900611E0FCA3E0FD25E07C
:10177200FFEC33FE74FF2FF58274053EF583E0FE25
:10178200A3E064064E702690063E74FFF0A3740137
:10179200F0A37459F07B017F02122D10900612E023
:1017A20004F07006900611E004F002196F02197E2F
:1017B200E58030E255E4FBFA7D05FC7F04122B3311
:1017C200900611E0FCA3E0FD25E0FFEC33FE74FF80
:1017D2002FF58274053EF583E0FEA3E064054E70AA
:1017E2002690063E74FFF0A37401F0A37457F07BB9
:1017F200017F02122D10900612E004F0700690068E
:1018020011E004F002196F02197EE58030E355E41D
:10181200FBFA7D04FC7F08122B33900611E0FCA337
:10182200E0FD25E0FFEC33FE74FF2FF58274053EE8
:10183200F583E0FEA3E064044E702690063E74FF3A
:10184200F0A37401F0A37455F07B017F02122D10F6
:10185200900612E004F07006900611E004F00219FE
:101862006F02197EE58030E455E4FBFA7D03FC7FCC
:1018720010122B33900611E0FCA3E0FD25E0FFECF3
:1018820033FE74FF2FF58274053EF583E0FEA3E07C
:1018920064034E702690063E74FFF0A37401F0A319
:1018A2007453F07B017F02122D10900612E004F0B7
:1018B2007006900611E004F002196F02197EE580AD
:1018C20030E553E4FBFA7D02FC7F20122B339006B5
:1018D20011E0FCA3E0FD25E0FFEC33FE74FF2FF5E1
:1018E2008274053EF583E0FEA3E064024E7025900B
:1018F200063E74FFF0A37401F0A37451F07B017FE4
:1019020002122D10900612E004F07006900611E00B
:1019120004F080598066E58020E6030216B9E4FBF4
:10192200FA7D01FC7F40122B33900611E0FCA3E00C
:10193200FD25E0FFEC33FE74FF2FF58274053EF5C2
:1019420083E0FEA3E064014E703290063E74FFF025
:10195200A37401F0A3744FF07B017F02122D10904B
:101962000612E004F07006900611E004F090063EC4
:1019720074FFF0A37401F0A374788014E49006114C
:10198200F0A3F090063E74FFF0A37401F0A37481FB
:0D199200F07B087D027F03122D100216B9B4
:01199F002225
:102FB300C2C2C2C0D2C1122F8FD2C2E4F596F59518
:102FC300900643E5A0F0122F8FC2C2900643E02083
:022FD300E7DE37
:012FD50022D9
:102EBD00FEEF8EF0A47C002DFFEC35F0FEE0FBA3C1
:0D2ECD00E0FAA3E0F98F828E83120B88FFDC
:102EDA00900642EFF0122FB3D2C2D2C0C2C1759689
:102EEA00FFE4F595900642122F8CC2C27F147E0031
:032EFA00022F9311
:062F630090065DE02FFF67
:102F6900900642EFF0122FB3D2C2C2C0C2C1759609
:102F7900FFE4F595900642122F8CC2C27F147E00A1
:032F8900022F9381
:0B2D7700900654EBF0A3EAF0A3E9F093
:102D8200122F69E4900658F0900657E0FFA3E0FE88
:102D9200C39F503F900654E0FBA3E0FAA3E0F9750D
:102DA200F002EEA4F58285F083122ED6900654E04E
:102DB200FBA3E0FAA3E0F9900658E075F002A42420
:102DC20001F582E435F0F583122ED6900658E00420
:032DD200F080B5D9
:012DD50022DB
:072D100090063DEBF0AC075B
:102D1700ECFB7A0064017007ED2480900641F0EB2C
:102D270064024A7007ED2490900641F0EC6403704A
:102D370007ED2488900641F0EC64047007ED2498B1
:102D4700900641F0900641E0FF122F6990063DE0A2
:102D5700601DA3E0FBA3E475F001120C7AA9F0FA59
:0F2D6700120B6FFF122EDA90063DE014F080DDA4
:012D7600223A
:052BB000900659EFF052
:102BB500E4A3F090065AE0FFC39402748094805019
:102BC50036900659E02FFF122F697FFF122EDAE4A7
:102BD500FF122EDA90065AE004F0E0FF900659E065
:102BE5002FFF122F69E4FF122EDAE4FF122EDA907E
:102BF500065AE004F080BC90065A7402F090065A1A
:102C0500E0FFC3941074809480501B900659E02F08
:102C1500FF122F69E4FF122EDAE4FF122EDA900676
:062C25005AE004F080D724
:012C2B002286
:052C2C0090065BEFF0D3
:102C3100E4A3F090065CE0FFC39404748094805098
:102C41003690065BE02FFF122F697FFF122EDAE428
:102C5100FF122EDA90065CE004F0E0FF90065BE0E4
:102C61002FFF122F69E4FF122EDAE4FF122EDA9001
:102C7100065CE004F080BC90065C7404F090065C95
:102C8100E0FFC3941074809480501B90065BE02F8A
:102C9100FF122F69E4FF122EDAE4FF122EDA9006FA
:062CA1005CE004F080D7A6
:012CA700220A
:0526720090065DEFF091
:10267700E4A3F090065EE0FFC39402748094805058
:102687002A122F637FFF122EDAE4FF122EDA90064A
:102697005EE004F0E0FF122F63E4FF122EDAE4FF9E
:1026A700122EDA90065EE004F080C890065E74028F
:1026B700F090065EE0FFC394067480948050151274
:1026C7002F63E4FF122EDAE4FF122EDA90065EE0A3
:1026D70004F080DD90065DE02406FF122F697F1865
:1026E700122EDAE4FF122EDA90065DE02407FF12BD
:1026F7002F697F3C122EDAE4FF122EDA90065DE096
:102707002408FF122F697F3C122EDAE4FF122EDA1B
:1027170090065DE02409FF122F697F18122EDAE474
:10272700FF122EDA90065E740AF090065EE0FFC391
:102737009410748094805015122F63E4FF122EDAE0
:0D274700E4FF122EDA90065EE004F080DD63
:012754002262
:05249A0090065FEFF069
:10249F00E4A3F0900660E0FFC3940474809480502E
:1024AF003690065FE02FFF122F697FFF122EDAE4BE
:1024BF00FF122EDA900660E004F0E0FF90065FE076
:1024CF002FFF122F69E4FF122EDAE4FF122EDA909B
:1024DF000660E004F080BC90065FE02404FF122F3A
:1024EF0069E4FF122EDAE4FF122EDA90065FE02481
:1024FF0005FF122F69E4FF122EDAE4FF122EDA9095
:10250F00065FE02406FF122F697F18122EDAE4FF10
:10251F00122EDA90065FE02407FF122F697F3C121C
:10252F002EDAE4FF122EDA90065FE02408FF122F56
:10253F00697F3C122EDAE4FF122EDA90065FE02458
:10254F0009FF122F697F18122EDAE4FF122EDA908C
:10255F000660740AF0900660E0FFC39410748094D4
:10256F0080501B90065FE02FFF122F69E4FF122EA1
:0E257F00DAE4FF122EDA900660E004F080D756
:01258D00222B
:102DD6007F34122F697F36122F69E4900661F090D6
:102DE6000661E0FFC39420748094805033EF248002
:102DF600FF122F697F80122F69E4900662F0900619
:102E060062E0C3942074809480500DE4FF122EDAA1
:102E1600900662E004F080E6900661E004F080BF70
:012E26002289
:0B28D000900611EFF0A3EDF0A3EBF079
:1028DB007F34122F697F36122F69E4900619F0901E
:1028EB000613E0FF900619E0FEC39F400302298404
:1028FB00900611E02EFF122F697F80122F69E49052
:10290B00061AF0900612E0FF90061AE0FDC39F50E6
:10291B0012900619E0900614122EBD90061AE004D0
:10292B00F080E0E4900617F0A3F0900612E0F9FFB8
:10293B00900617E0FAA3E0FBC39FEA940050319096
:10294B000613E0FF900619E02FFFE433FEE9FD7C50
:10295B0000120BC7EB2FFFEA3EFE900614122ECA95
:10296B00900618E004F07006900617E004F080BAA9
:0E297B00900619E004F00228EA7F30022F696E
:102FF600900663EFF0A3EDF07F34122F699006641C
:0D300600E0FF122F69900663E0FF022F69C2
:0B29890090064AEFF0A3EDF0A3EBF086
:10299400E4900651F090064DE0FF900651E0FEC32E
:1029A4009F5068EEFF90064BE0FD2FFFE433FEC31B
:1029B400EF9420EE6480948090064AE0500BC45457
:1029C4000F2480FFED2480800AC4540F2488FFA3C1
:1029D400E02460FE900651E02EFD122FF6E49006EE
:1029E40052F090064CE0FF900652E0FDC39F501257
:1029F400900651E090064E122EBD900652E004F06F
:102A040080E0900651E004F00229997F36122F6984
:052A14007F30022F6974
:102F3100D2C3122F8F7F30122F69122F8F7F02126F
:102F41002F69122F8F7F0C122F69122F8F7F06127C
:102F51002F69122F8F7F80122F69122F8F7F01020D
:022F61002F69D6
:102FD600AD07AC06ECC313ED1375F008A42480FF0F
:102FE600ED5401C454F02FFF122F697F0F022F6991
:072F8C00E0F5A07F147E00B8
:102F9300E4FDFCC3ED9FEC9E5015E4FBFA0BBB0074
:0F2FA300010AEB64784A70F50DBD00010C80E463
:012FB20022FC
:0A306400E4FEEEC39F50030E80F857
:01306E00223F
:10084900020A64E86480F8E933E83360110460F06F
:10085900ED33EC337009E8FCE9FDEAFEEBFF220415
:1008690060DED3EB9FEA9EE99DE8C2E78CF0C2F710
:1008790095F0400CE8CCF8E9CDF9EACEFAEBCFFBDC
:10088900120A2F85D0F05804700320D5B3E80470FC
:10089900075002B2D5020A6E92D5EC0460F7E4CC97
:1008A900C0E0C398F8603B94186008400DD0E0FBA5
:1008B900020A46E4FBFAC9FC8028E830E406E4C9E8
:1008C900FBE4CAFCE830E305E4C9CACBFCE85407F9
:1008D9006010F8C3E913F9EA13FAEB13FBEC13FC04
:1008E900D8F130F52FC3E49CFCEF9BFFEE9AFEEDA7
:1008F90099FDD0E0FBEF4E4D4C701222DB03020A4A
:100909006BEC2CFCEF33FFEE33FEED33FDED30E7FE
:10091900EB020A46EF2BFFEE3AFEED39FDD0E0FB84
:1009290050130BBB0003020A6EED13FDEE13FEEF2D
:0809390013FFEC13FC020A4657
:1009410074F8CC6480CCC86480C8F58204604FC35D
:10095100EB9FF5F0EA9E42F0E99D42F0E89C45F0FC
:10096100603C501DE5825FFFE582D313CB5BCBF486
:100971002B5582FB50280ABA002409B900200880AF
:100981001DE5825BFBE582D313CF5FCFF4C3132F49
:100991005582FF50090EBE00050DBD00010CC3EBD1
:1009A1009FF5F0EA9E42F0E99D42F0E89C45F06037
:0909B10007CC4820E701B3EC2259
:1009BA0075F020800E75F010800575F0087D007EB8
:1009CA00007F003392D530D503120C90EC334010DF
:1009DA00EF33FFEE33FEED33FDEC33FCD5F0ED22C1
:0E09EA00E5F0247EA2D513CC92E7CDCEFF22FD
:1009F800EDD2E7CD33EC3392D524814006E4FFFEF7
:100A0800FDFC22FCE4CFCECDCC24E0501174FF8055
:100A1800EDC3CC13CCCD13CDCE13CECF13CF0470F2
:070A2800F030D5DE020C9056
:100A2F00E9D2E7C933E833F892D5EDD2E7CD33EC0D
:070A3F0033FC5002B2D52286
:100A4600EC30E7100FBF000C0EBE00080DBD000411
:100A56000BEB6014A2D5EB13FCED92E7FD2274FFBD
:100A6600FCFDFEFF22E480F8A2D574FF13FC7D8016
:030A7600E480EF2A
:03000000022A19B8
:0C2A1900787FE4F6D8FD758107022A6082
:100A7900E709F608DFFA8046E709F208DFFA803E5F
:100A890088828C83E709F0A3DFFA8032E309F6084C
:100A9900DFFA8078E309F208DFFA807088828C83B4
:100AA900E309F0A3DFFA806489828A83E0A3F60868
:100AB900DFFA805889828A83E0A3F208DFFA804C42
:100AC90080D280FA80C680D4806980F28033801019
:100AD90080A680EA809A80A880DA80E280CA803382
:100AE90089828A83ECFAE493A3C8C582C8CCC583FA
:100AF900CCF0A3C8C582C8CCC583CCDFE9DEE780CA
:100B09000D89828A83E493A3F608DFF9ECFAA9F048
:100B1900EDFB2289828A83ECFAE0A3C8C582C8CC9E
:100B2900C583CCF0A3C8C582C8CCC583CCDFEADEB7
:100B3900E880DB89828A83E493A3F208DFF980CC19
:100B490088F0EF60010E4E60C388F0ED2402B40412
:100B59000050B9F582EB2402B4040050AF232345B9
:060B69008223900AC9730B
:100B6F00BB010689828A83E0225002E722BBFE0284
:090B7F00E32289828A83E49322B7
:100B8800BB010CE58229F582E5833AF583E0225022
:100B980006E92582F8E622BBFE06E92582F8E2226C
:0D0BA800E58229F582E5833AF583E4932286
:100BB500BB010689828A83F0225002F722BBFE011F
:020BC500F32219
:100BC700EF8DF0A4A8F0CF8CF0A428CE8DF0A42E42
:020BD700FE22FC
:100BD900BC000BBE0029EF8DF084FFADF022E4CC00
:100BE900F875F008EF2FFFEE33FEEC33FCEE9DECC9
:100BF900984005FCEE9DFE0FD5F0E9E4CEFD22ED0F
:100C0900F8F5F0EE8420D21CFEADF075F008EF2F58
:100C1900FFED33FD4007985006D5F0F222C398FD49
:050C29000FD5F0EA22E6
:100C2E00C2D5EC30E709B2D5E4C39DFDE49CFCEEE1
:100C3E0030E715B2D5E4C39FFFE49EFE120BD9C375
:100C4E00E49DFDE49CFC8003120BD930D507C3E470
:060C5E009FFFE49EFE2250
:100C6400C5F0F8A3E028F0C5F0F8E582158270021B
:060C74001583E038F022B8
:100C7A00A3F8E0C5F025F0F0E5821582700215832D
:060C8A00E0C838F0E8228A
:0E0C9000C3E49FFFE49EFEE49DFDE49CFC2275
:0C0C9E00ECF0A3EDF0A3EEF0A3EFF022C9
:100CAA00D083D082F8E4937012740193700DA3A3D9
:100CBA0093F8740193F5828883E4737402936860ED
:060CCA00EFA3A3A380DFED
:102CA80090063BEBF0A3EAF0A3E9F0E4900643F0CA
:102CB800A3F090064174FFF5F0120C7A45F0603CE1
:102CC80090063EE0FBA3E0FAA3E0F9120B6FFF9039
:102CD800063BE0FBA3E0FAA3E0F9900643E475F0B5
:102CE80001120C7A85F082F583EF120CFCEF60C2BA
:102CF80090063FE475F001120C6480B690063BE044
:082D0800FBA3E0FAA3E0F922AD
:10304200E4FFFE120B6F600C0FEF70010E09E970C6
:05305200F20A80EF22EC
:100CD000EF4E6012EF60010EEDBB010B89828A833B
:100CE000F0A3DFFCDEFA2289F05007F709DFFCA948
:0C0CF000F022BBFEFCF309DFFCA9F0229F
:102A2500022137E493A3F8E493A34003F68001F26F
:102A350008DFF48029E493A3F85407240CC8C333B2
:102A4500C4540F4420C8834004F456800146F6DF81
:102A5500E4800B0102040810204080902E27E47EBC
:102A6500019360BCA3FF543F30E509541FFEE49376
:102A7500A360010ECF54C025E060A840B8E493A33D
:102A8500FAE493A3F8E493A3C8C582C8CAC583CA68
:102A9500F0A3C8C582C8CAC583CADFE9DEE780BE20
:012E7400005D
:100CFC00F8BB010DE58229F582E5833AF583E8F02E
:100D0C00225006E92582C8F622BBFE05E92582C8D9
:020D1C00F222C1
:00000001FF
