:1004E300D5E3BDADB4F3D1A7B9E2B5E7D1A7D4BA8B
:1004F30000B5E7D7D3CFDFC2B7C9E8BCC6003837EA
:1005030039353131393700D2BABEA7CFD4CABEB3D9
:10051300C9B9A600B2CBB5A500312EB2A5B7C5D2D5
:10052300F4C0D600322EB5AFD7E0C4A3CABD0033A2
:100533002ECFC2D2BBD2B300342EC2BCD2F4C4A3DA
:10054300CABD00352EB2A5B7C5C2BCD2F400362E43
:10055300C9CFD2BBD2B300372ECFC2D2BBD2B300E6
:10056300382EC1B7CFB0C4A3CABD00392EC9CFD26C
:10057300BBD2B300312ED0C2B1A6B5BA00322EB071
:10058300AEBAD300332ED7A3C4E3C6BDB0B2003492
:100593002ECCECBFD5D6AEB3C700D1DDD7E0C4A314
:1005A300CABD00B0B4C8CED2E2BCFCB7B5BBD8005C
:1005B300B8DFD2F400D6D0D2F400B5CDD2F400C265
:1005C300BCD2F4C4A3CABD00312EBFAACABCC2BCEC
:1005D300D2F400B0B4C6E4CBFBBCFCB7B5BBD800C7
:1005E300B0B4C8CED2E2BCFCBDE1CAF8C2BCD2F4FE
:1005F30000C2BCD2F4CDEAB3C900B2A5B7C5C2BC30
:10060300D2F4004572726F722100526967687421D7
:10061300004572726F72204E756D62657220697348
:10062300003100320033003400350036003700C794
:10063300EBD1DDD7E0D2D4CAE4C8EBC3DCC2EB0014
:100643005F205F205F205F205F00C3DCC2EBCEDE54
:10065300CEF300C3DCC2EBB4EDCEF300C3DCC2EBDC
:10066300D5C8B7001C80204026202B40302039A05D
:100673004020394030402B4030202B402680202022
:100683002620202026201CFE20FE392026202B2079
:100693002610203026202B202624392026202B200C
:1006A3002610203026202B202624392026202B20FC
:1006B3002610203026202B202624392026202B20EC
:1006C3002610203026202B20260BFF260BFF26A0EA
:1006D30030202020241026B0302020202410261083
:1006E3001C2026202B202B202B1030102B103020E9
:1006F30026E0260BFF260BFF26A030202020241007
:1007030026B030202020241026301C2026202B2029
:100713002B202B1030102B10300BFF301030FF002C
:1007230030202B202620262020201C201C30301097
:10073300302026202B20302030202B202640302034
:100743002B202620262020201C201C303010302077
:1007530026202B203020302032203020002620205D
:100763002020202610201020802620302030203901
:1007730010301030802620202020201C2020802BA9
:1007830020262020202B1026102B802620302030DE
:1007930020391026102660401039102620302030D2
:1007A3002039102610268026202B102B102B2030CA
:1007B30010391026102B102B202B40402020102006
:1007C300102B1026303080182018202620202020BF
:1007D3004026202B20302030201C20202020801C6D
:1007E300201C201C20302030603910301020202B9A
:1007F3001026102B10261026102B102B80182018D3
:100803002026202020206026102B20302030201C82
:100813002020202080262030103010302039202640
:10082300102B102B202B4040104010201020102B99
:10083300102630308000263026301C4020301C30FB
:1008430018302060263026302440263024301840CB
:10085300266018201820182019402430243019301D
:1008630019601C30193018401930183013301960D2
:10087300263026301C4020301C3018302080263093
:100883002430243018301920193018301520152041
:1008930013201840183019301C201C201930203028
:1008A3001C601830153013401530133010301560AC
:1008B30020302030183019301830133013601C20CA
:1008C30019201830193015201520184020302030F9
:1008D300123013301530183013C0138013300E80CC
:1008E3001030103013201520184018301530182000
:1008F300152015301030136013300E601060132074
:1009030015201840183015301520182015301930CF
:0D0913001C601C3019301CC000370037007C
:102A5100480609000000BC00F901D25501FB60568F
:102A61004C48403932302B2624201C1918151312DA
:102A7100100E0D4401F740E000004101F601410054
:102A810000014A05FF0001000200030004000542A5
:0D2A910005FBFFFF4205FD00004105F900B7
:0B1AAD007B01900640E4F0A3740AF0F7
:101AB80090063BEEF0A3EFF0A3EBF0A3EAF0A3E966
:011AC800F02D
:101AC900900642EBF0A3EAF0A3E9F0C3EE64809438
:101AD90080502E900642E0FBA3E475F00112043F0A
:101AE900A9F0FA742D12037A90063BE0FEA3E0FFF9
:101AF900EE3395E0FDFC12045590063BEEF0A3EFA2
:101B0900F0900642E0F9A3E0FAA3E0A3C9F0A3EA42
:101B1900F0A3E9F0900640E0FAA3E0FB90063BE071
:101B2900FEA3E0FFAD03AC0212039E900648ECF061
:101B3900A3EDF090063BE0FEA3E0FFAD03AC02127B
:101B490003F390063BEEF0A3EFF0900648E0FEA306
:101B5900E0FFD39409EE94004005EF2457800790E5
:101B69000648A3E02430FF900642E0FBA3E475F0A9
:101B79000112043FA9F0FAEF12037AD390063CE070
:101B8900940090063BE0648094805088900642E07F
:101B9900FBA374FFF5F012043FA9F0FAE412037AEB
:101BA900900642E0FBA3E0FAA3E0F9120334FF90A8
:101BB9000645E0FBA3E0FAA3E0F9120334FE900620
:101BC90042E0FBA3E0FAA3E0F9EE12037A9006459E
:101BD900E0FBA3E0FAA3E0F9EF12037A900643745D
:101BE900FFF5F0120429900646E475F00112042964
:101BF900900642E0FBA3E0FAA3E0F9C003C002C0EB
:101C090001A3A3E0FAA3E0F9C3D082D083D0E0E92D
:101C19009582EA9583408990063DE0FBA3E0FAA30B
:021C2900E0F9E0
:011C2B002296
:03000B00022C3D87
:102C3D00C0E0C083C082758CDC758A00900001E015
:092C4D0004F0D082D083D0E03203
:04275900E4FBFAFCA7
:10275D00900613EFF0A3ECF0A3EDF0A3EAF0A3EBDA
:01276D00F07B
:10276E0078187C067D017BFF7A09791C7E007F023A
:10277E0012030E7580FF900616E07002A3E060351E
:10278E00900614E0FEA3E0FF7C007D071203F3AE7B
:10279E0004AF05EF4E60077A067918121AAD90064F
:1027AE003E7401F0A37406F0A37418F07B017D044F
:1027BE007F0312293A900613E055806008122B27EA
:0B27CE007580FF80F09001F67401F0B0
:0127D90022DD
:101E9900E4F5C975CA3075B3C0F5B4F5B1F5B21238
:101EA9002B5B90063E74FFF0A37404F0A374E3F077
:101EB9007B10E4FD7F0112293A90063E74FFF0A3DE
:101EC9007404F0A374F4F07B0C7D017F0212293AAB
:101ED90090063E74FFF0A37405F0A37401F07B082B
:101EE9007D027F0312293A90063E74FFF0A3740520
:101EF900F0A3740AF07B0C7D017F0412293A120CBD
:101F09007E122C56E4F5B3F5B4122B5B9000001247
:101F19001FB47590F0122C56E59054F064F060F2FD
:101F29007F647E00122B3BE59054F064F0607212DE
:101F390026CF9004FEEFF0E59054F064F06005754B
:101F490090F080F39004FEE012046F1F730B1F7A68
:101F59000C1F7F0D1F810E1F86151F8B161F9217D1
:101F69001F99181FA11F00001FAA121D7AC2C58040
:101F79002212185D801D8020120920801612243E2D
:101F89008011900000740180149000007403800D8A
:101F990012237E90000080069000007402F0121F48
:0B1FA900B47FC47E09122B3B021F1BFB
:0D2C810075890175A882758CDCE4F58A2246
:102C5600E5C030E604D2CC8002C2CCE5C030E70342
:062C6600D2CD22C2CD22F6
:1015E300900617E4F0A304F0E4A3F0A3F0EF25E0E2
:1015F3002409F582E43406F583E0FEA3E0FF9006B8
:1016030015EEF0A3EFF0900613EEF0A3EFF0120F38
:10161300AD90063E7401F0A37402F0A37410F0A31E
:10162300E4F0A37410F07B017A06791B1228D290A0
:10163300063E7401F0A37406F0A3741BF07B10E460
:10164300FD7F0212293A90063E7401F0A37400F064
:10165300A374FCF0A3E4F0A37410F07B017A067981
:101663001B1228D290063E7401F0A37406F0A374F3
:101673001BF07B10E4FD7F0312293A90063E7401B0
:10168300F0A37400F0A37402F0A3E4F0A37410F0C9
:101693007B017A06791B1228D290063E7401F0A3CF
:1016A3007406F0A3741BF07B10E4FD7F0412293A47
:1016B300021846900613E475F00112043FFE7467A6
:1016C30025F0F58274063EF583E493900611F0E06D
:1016D300F4700AC28C7F64FE122B3B80D6900611F5
:1016E300E0700302185C900613E475F00112043FE6
:1016F300FE746725F0F58274063EF583E493900645
:1017030012F0D28CB2C5900611122B37900001E073
:10171300FF900612E06F600302184E900615E0FE7C
:10172300A3E0FFC3900614E09FFF900613E09EFE24
:10173300EF25E0FFEE33FE740A2FF58274033EF5C6
:1017430083E0FCA3E0FD900618E0C4F8540FC868DA
:10175300FF900617E0C454F048FED3ED9FEC9E5073
:101763000302184690061AE02410F0900619E0349C
:1017730000F0900618E004F07006900617E004F0FD
:10178300900619E0FEA3E02410F974023EFA9006D5
:101793003E7401F0A3EAF0A3E9F0A3E4F0A374100C
:1017A300F07B017A06791B1228D290063E7401F071
:1017B300A37406F0A3741BF07B10E4FD7F021229CF
:1017C3003A900619E0FEA3E024FCF974003EFA9077
:1017D300063E7401F0A3EAF0A3E9F0A3E4F0A374D6
:1017E30010F07B017A06791B1228D290063E740111
:1017F300F0A37406F0A3741BF07B10E4FD7F0312C7
:10180300293A900619E0FEA3E02402F974003EFA97
:1018130090063E7401F0A3EAF0A3E9F0A3E4F0A379
:101823007410F07B017A06791B1228D290063E745D
:1018330001F0A37406F0A3741BF07B10E4FD7F0496
:1018430012293AE4900001F00216B67590F0E59083
:0918530054F064F0700302170761
:01185C002269
:092C990075B0FFE5B054F0FF2214
:1026CF00E4900614F0A3F07590F0E59054F0FF54E9
:1026DF00F064F07002FF2275900FE590540F4FF4E5
:1026EF0012046F272611273212273E14274A182764
:1026FF002921273522274124274D28272C412738E8
:10270F0042274444275048272F81273B822747845D
:10271F00275388000027567F0B227F0C227F0D2224
:10272F007F0E227F15227F16227F17227F18227F8E
:10273F001F227F20227F21227F22227F29227F2A90
:09274F00227F2B227F2C227F0047
:01275800225E
:102B2700B2C5A3E0FEA3E024FAF58274013EF58363
:042B3700E0FF7E003D
:102B3B00E4FDFCC3ED9FEC9E5015E4FBFA0BBB00D0
:0F2B4B00010AEB64024A70F50DBD00010C80E435
:012B5A002258
:061FB400E0FF3395E0FEA2
:101FBA00900611EEF0A3EFF0122B5B900611E0FEF3
:101FCA00A3E0FFEE60030220C2EF24FE60611470FA
:101FDA0003022094240260030220C290063E74FF8A
:101FEA00F0A37405F0A37417F07B047D037F01123C
:101FFA00293A90063E74FFF0A37405F0A3741CF00E
:10200A007B0AE4FD7F0212293A90063E74FFF0A390
:10201A007405F0A37427F07B0AE4FD7F0312293AC2
:10202A0090063E74FFF0A37405F0A37432805290B8
:10203A00063E74FFF0A37405F0A3743BF07B0AE438
:10204A00FD7F0112293A90063E74FFF0A37405F051
:10205A00A37446F07B0AE4FD7F0212293A90063EF9
:10206A0074FFF0A37405F0A37451F07B08E4FD7FBC
:10207A000312293A90063E74FFF0A37405F0A37484
:10208A005AF07B08E4FD7F04802B90063E74FFF033
:10209A00A37405F0A37463F07B0AE4FD7F0112299F
:1020AA003A90063E74FFF0A37405F0A3746EF07BB9
:0920BA0008E4FD7F0212293A221C
:101D7A00122B5B90063E74FFF0A37405F0A37477F0
:101D8A00F07B08E4FD7F0112293A90063E74FFF0C9
:101D9A00A37405F0A37480F07B06E4FD7F02122988
:101DAA003A90063E74FFF0A37405F0A37487F07BA3
:101DBA000AE4FD7F0312293A90063E74FFF0A374E9
:101DCA0005F0A37492F07B0AE4FD7F0412293A120B
:101DDA002C817590F0122C56E59054F064F060F561
:101DEA007F647E00122B3BE59054F064F07003028E
:101DFA001E8E1226CF9004FEEFF024F4602B14609E
:101E0A004614606124036003021E98122B5B90063D
:101E1A003E74FFF0A37405F0A37477F07B08E4FD29
:101E2A007F0112293AE4FF8058122B5B90063E7418
:101E3A00FFF0A37405F0A37480F07B06E4FD7F0134
:101E4A0012293A7F01803A122B5B90063E74FFF00A
:101E5A00A37405F0A37487F07B0AE4FD7F011229BD
:101E6A003A7F02801C122B5B90063E74FFF0A3742B
:101E7A0005F0A37492F07B0AE4FD7F0112293A7FF0
:0F1E8A00030215E37FC47E09122B3B021DDF22EA
:10185D00122C56122B5B90063E74FFF0A37405F00C
:10186D00A3749DF07B087D027F0112293A90063EFC
:10187D0074FFF0A37405F0A374A6F07B0C7D017FBB
:10188D000412293A7590F0E59054F064F0601F7FD2
:10189D00647E00122B3BE59054F064F06009122633
:1018AD00CF9004FEEFF0227F647E00122B3B7580FB
:1018BD00FF122C56A2CDE4FE33FF7C007D071203F0
:1018CD008CEF2407FBE43EFAA2CCE4FE33FF1203B7
:1018DD008CC3EB9FFDEA9EFC1201849001F712046C
:1018ED0063E4FFFE7D607C419001F7E0F8A3E0F931
:1018FD00A3E0FAA3E0FB120106700F90063E74FF01
:10190D00F0A37405F0A374B3804EE4FFFE7DE07C7C
:10191D00409001F7E0F8A3E0F9A3E0FAA3E0FB1291
:10192D000106700F90063E74FFF0A37405F0A374CA
:10193D00B88025E4FFFEFDFC9001F7E0F8A3E0F987
:10194D00A3E0FAA3E0FB120106701790063E74FFA8
:10195D00F0A37405F0A374BDF07B047D037F021228
:10196D00293AE58030E028E4FFFE7DE07C409001DF
:10197D00F7E0F8A3E0F9A3E0FAA3E0FB12001512DB
:10198D0001BDAD07AC067B017A007F01021AA7E508
:10199D008030E128E4FFFE7DC07C409001F7E0F847
:1019AD00A3E0F9A3E0FAA3E0FB1200151201BDAD0F
:1019BD0007AC067B017A007F02021AA7E58030E2B0
:1019CD0028E4FFFE7DA07C409001F7E0F8A3E0F94C
:1019DD00A3E0FAA3E0FB1200151201BDAD07AC06A2
:1019ED007B017A007F04021AA7E58030E328E4FF2B
:1019FD00FE7D807C409001F7E0F8A3E0F9A3E0FACA
:101A0D00A3E0FB1200151201BDAD07AC067B017AF8
:101A1D00007F08021AA7E58030E427E4FFFE7D4031
:101A2D007C409001F7E0F8A3E0F9A3E0FAA3E0FB16
:101A3D001200151201BDAD07AC067B017A007F10B7
:101A4D008058E58030E526E4FFFEFD7C409001F7EF
:101A5D00E0F8A3E0F9A3E0FAA3E0FB1200151201F0
:101A6D00BDAD07AC067B017A007F20802DE580207F
:101A7D00E603021891E4FFFE7D807C3F9001F7E0C4
:101A8D00F8A3E0F9A3E0FAA3E0FB1200151201BDE3
:101A9D00AD07AC067B017A007F4012275D021891DD
:10092000E4900611F0A3F0A3F09005FDF0A3F0749D
:10093000FF9005FBF0A3F0E49005F9F0122C56129D
:100940002B5B90063E74FFF0A37405F0A374C2F015
:100950007B087D027F0112293A90063E74FFF0A3C6
:100960007405F0A374CBF07B0AE4FD7F0212293AF0
:1009700090063E74FFF0A37405F0A374D6F07B0CD0
:100980007D017F0412293A900611E070387590F0CD
:10099000E59054F064F060EF7F647E00122B3BE53D
:1009A0009054F064F060151226CF9004FEEFF0240E
:1009B000F56003020C7D9006117401F07F647E00E7
:1009C000122B3B80C27E007FFA7D007B017A047986
:1009D000FF120495122B5B90063E74FFF0A3740582
:1009E000F0A374E3F07B10E4FD7F0412293AE49055
:1009F0000001F0122C817590F0E59054F064F060E5
:100A0000667F647E00122B3BE59054F064F06050EA
:100A10001226CF9004FEEFF090063E74FFF0A37410
:100A200005F0A374F4F07B08E4FD7F0312293A90EB
:100A300005F9E0FF900612E0FCA3E0FD24FFF5823B
:100A400074043CF583EFF09005FBA3E0FFA3A3E063
:100A5000C39FFF74002DF58274053CF583EFF022EF
:100A60007F647E00122B3B7580FF122C56A2CDE4D2
:100A7000FE33FF7C007D0712038CEF2407FBE43E6E
:100A8000FAA2CCE4FE33FF12038CC3EB9FFDEA9E77
:100A9000FC1201849001F7120463E4FFFE7D607C88
:100AA000419001F7E0F8A3E0F9A3E0FAA3E0FB121C
:100AB0000106700F90063E74FFF0A37405F0A37456
:100AC000B3804EE4FFFE7DE07C409001F7E0F8A3A8
:100AD000E0F9A3E0FAA3E0FB120106700F90063ED6
:100AE00074FFF0A37405F0A374B88025E4FFFEFD45
:100AF000FC9001F7E0F8A3E0F9A3E0FAA3E0FB1211
:100B00000106701790063E74FFF0A37405F0A374FD
:100B1000BDF07B047D037F0212293AE58030E02C92
:100B2000E4FFFE7DE07C409001F7E0F8A3E0F9A34C
:100B3000E0FAA3E0FB1200151201BDAD07AC069070
:100B40000612E0FAA3E0FB7F01020C6FE58030E1C2
:100B50002CE4FFFE7DC07C409001F7E0F8A3E0F9B3
:100B6000A3E0FAA3E0FB1200151201BDAD07AC062D
:100B7000900612E0FAA3E0FB7F02020C6FE58030E2
:100B8000E22CE4FFFE7DA07C409001F7E0F8A3E0BA
:100B9000F9A3E0FAA3E0FB1200151201BDAD07AC0A
:100BA00006900612E0FAA3E0FB7F04020C6FE580DA
:100BB00030E32CE4FFFE7D807C409001F7E0F8A359
:100BC000E0F9A3E0FAA3E0FB1200151201BDAD07A6
:100BD000AC06900612E0FAA3E0FB7F08020C6FE57A
:100BE0008030E42BE4FFFE7D407C409001F7E0F88C
:100BF000A3E0F9A3E0FAA3E0FB1200151201BDADDA
:100C000007AC06900612E0FAA3E0FB7F108060E5D7
:100C10008030E52AE4FFFEFD7C409001F7E0F8A378
:100C2000E0F9A3E0FAA3E0FB1200151201BDAD0745
:100C3000AC06900612E0FAA3E0FB7F208031E5804D
:100C400020E6030209F6E4FFFE7D807C3F9001F779
:100C5000E0F8A3E0F9A3E0FAA3E0FB12001512010B
:100C6000BDAD07AC06900612E0FAA3E0FB7F401290
:0D0C700021B7900612EEF0A3EFF00209F696
:010C7D002254
:1021B700900614EFF0A3ECF0A3EDF0A3EAF0A3EB85
:0121C700F027
:1021C80078197C067D017BFF7A09791E7E007F02E3
:1021D80012030E9005FBE0FEA3E0FFF47002EEF49C
:1021E800602B9005F9E0FD900617E0FAA3E0FB24C8
:1021F800FFF58274043AF583EDF0900001E0C39F87
:10220800FF74002BF58274053AF583EFF0900615FC
:10221800E0FEA3E0FF7C007D071203F3AE04AF05E8
:10222800EF4E60077A067919121AAD90063E7401CE
:10223800F0A37406F0A37419F07B017D047F0312E8
:10224800293A7580FF900001E0FF9005FBE4F0A3B8
:10225800EFF0900614E055806008122B277580FF78
:1022680080F0900001E0FF9005FDE4F0A3EFF0900E
:102278000615E0FEA3E024FAF58274013EF583E03A
:102288009005F9F0900618E02402FF900617E03454
:0222980000FE46
:01229A002221
:10243E00122C56122B5B90063E74FFF0A37405F01F
:10244E00A374FDF07B087D027F0112293A90063EAF
:10245E0074FFF0A37405F0A374A6F07B0C7D017FCE
:10246E000412293A122C81900612E4F0A37402F0A1
:10247E00E4900001F0900612E475F00112043FFEA4
:10248E0074FF25F0F58274043EF583E0900611F09A
:10249E00E0F9F4700AC28C7F64FE122B3B80D6E901
:1024AE006049900611E0FF7B037A007D027C0012EA
:1024BE001C2C900612E475F00112043FFE74672581
:1024CE00F0F58274063EF583E493F9D28CB2C59092
:1024DE000611122B37900001E0B50104E4F080954F
:0B24EE007590F0E59054F064F060E29F
:0124F90022C0
:080FAD0090063BEEF0A3EFF00B
:100FB50090063FEEF0A3EFF0E4A3F0A3F00212B128
:100FC50090063DE0F970030212CA900641E0FCA3C9
:100FD500E0FD90063BE0FEA3E0FFC3900640E09FE6
:100FE500FF90063FE09EFEEF25E0FFEE33FE740A1C
:100FF5002FF58274033EF583ECF0A3EDF0E91204BE
:101005006F10C80D10B30E109E10108912107413B6
:10101500105F1510491810C81910B31C109E201028
:101025008924107426105F2B10493010C83210B374
:1010350039109E4010894810744C105F5610496055
:10104500000010DD900641E0FEA3E024FCF582746B
:10105500003EF5837431F00210EE900641E0FEA3E8
:10106500E024FCF58274003EF5837432F0807A90BA
:101075000641E0FEA3E024FCF58274003EF583748E
:1010850033F08065900641E0FEA3E024FCF5827410
:10109500003EF5837434F08050900641E0FEA3E0F5
:1010A50024FCF58274003EF5837435F0803B900690
:1010B50041E0FEA3E024FCF58274003EF58374361E
:1010C500F08026900641E0FEA3E024FCF582740042
:1010D5003EF5837437F08011900640E004F0700609
:1010E50090063FE004F00212B190063DE0FFF47077
:1010F50003020FC5C3EF943274809480401D90069F
:1011050041E0FEA3E0FF2402F58274003EF58374FE
:101115002EF074102FF5827402803590063DE0D3D1
:10112500941874809480900641E0FEA3E0FF500D72
:101135002410F58274023EF583742E800B2410F57D
:101145008274023EF5837420F074022FF5827400D8
:101155003EF5837420F0900640E004F0700690069A
:101165003FE004F090063FE0FEA3E02467F58274BB
:10117500063EF583E493FF90063EF07E0064207002
:101185002D900640E004F0700690063FE004F090D4
:101195000642E004F07006900641E004F090063F38
:1011A500E0FCA3E02467F58274063C0212BFEF64FD
:1011B500104E7016900641E0FEA3E02402F58274FD
:1011C500003EF583742DF002129590063EE0FF7EF9
:1011D5000064087016900641E0FCA3E02402F58245
:1011E50074003CF583743DF0021295EF64304E7047
:1011F5003E900642E004F07006900641E004F0904F
:101205000641E0FEA3E0FF24FCF58274003EF58371
:10121500742EF074022FF58274003EF5837420F06D
:1012250074102FF58274023EF5837420F08061906E
:10123500063EE0C39440748094804054804C9006F0
:101245003EE0C39420748094804045900642E004BB
:10125500F07006900641E004F0900641E0FEA3E040
:10126500FF24FCF58274003EF583742DF074022F83
:10127500F58274003EF5837420F074102FF58274A6
:10128500023EF5837420F090063EE024E0F080AE47
:10129500900640E004F0700690063FE004F09006EA
:1012A50042E004F07006900641E004F090063FE04D
:1012B500FEA3E02467F58274063EF583E493900669
:0512C5003DF0020FC521
:0112CA002201
:102A9F0090063BECF0A3EDF0A3EAF0A3EBF0A9074F
:102AAF00800DE58059600DB2C590063B122B2A753B
:102ABF0080FF80EE90063BE0FEA3E024FAF58274DF
:102ACF00013EF583E0FF90063DE0B40008A3E0B5BA
:082ADF0007037F00227F0122A2
:1012CB00E490062EF0A3F090063AF0900616F0A3E9
:1012DB0004F0E4A3F0A3F0EF25E0FFEE33FE740976
:1012EB002FF58274063EF583E0FEA3E0FF90061413
:1012FB00EEF0A3EFF0900612EEF0A3EFF0120FADAD
:10130B0090063E7401F0A37402F0A37410F0A3E4F2
:10131B00F0A37410F07B017A06791A1228D290068A
:10132B003E7401F0A37406F0A3741AF07B10E4FD75
:10133B007F0212293A90063E7401F0A37400F0A3C9
:10134B0074FCF0A3E4F0A37410F07B017A06791A15
:10135B001228D290063E7401F0A37406F0A3741AFF
:10136B00F07B10E4FD7F0312293A90063E7401F0E6
:10137B00A37400F0A37402F0A3E4F0A37410F07B49
:10138B00017A06791A1228D290063E7401F0A374E2
:10139B0006F0A3741AF07B10E4FD7F0412293A9037
:1013AB000612E0FEA3E02467F58274063EF583E4A3
:1013BB0093900611F0900611E07003021578F4700B
:1013CB0024900613E004F07006900612E004F090EF
:1013DB000612E0FEA3E02467F58274063EF583E473
:1013EB0093900611F0122C56A2CDE4FE33FF7C0035
:1013FB007D0712038CAA06AB07A2CCE4FE33FF12C7
:10140B00038CC3EF9BFDEE9AFC1201849001F71243
:10141B0004637580FFE58030E02BE4FFFE7DE07C0C
:10142B00409001F7E0F8A3E0F9A3E0FAA3E0FB1288
:10143B0000151201BDAD07AC06900611E0FB7A005A
:10144B007F0102156DE58030E12BE4FFFE7DC07C52
:10145B00409001F7E0F8A3E0F9A3E0FAA3E0FB1258
:10146B0000151201BDAD07AC06900611E0FB7A002A
:10147B007F0202156DE58030E22BE4FFFE7DA07C40
:10148B00409001F7E0F8A3E0F9A3E0FAA3E0FB1228
:10149B0000151201BDAD07AC06900611E0FB7A00FA
:1014AB007F0402156DE58030E32BE4FFFE7D807C2D
:1014BB00409001F7E0F8A3E0F9A3E0FAA3E0FB12F8
:1014CB0000151201BDAD07AC06900611E0FB7A00CA
:1014DB007F0802156DE58030E42AE4FFFE7D407C39
:1014EB00409001F7E0F8A3E0F9A3E0FAA3E0FB12C8
:1014FB0000151201BDAD07AC06900611E0FB7A009A
:10150B007F10805EE58030E529E4FFFEFD7C409096
:10151B0001F7E0F8A3E0F9A3E0FAA3E0FB12001552
:10152B001201BDAD07AC06900611E0FB7A007F20DF
:10153B008030E58020E6030213F0E4FFFE7D807C23
:10154B003F9001F7E0F8A3E0F9A3E0FAA3E0FB1268
:10155B0000151201BDAD07AC06900611E0FB7A0039
:10156B007F40122A9F90063AEFF00213F0122B5B8A
:10157B0090063E74FFF0A37406F0A37414F07B1076
:10158B00E4FD7F0112293A90062EE0FEA3E0FF7BDB
:10159B00017A067930121AAF7B017A067930122C58
:1015AB006CAB0790063E7401F0A37406F0A3743085
:1015BB00F0E4FD7F0212293A7590F0E59054F06447
:1015CB00F060F57F647E00122B3BE59054F064F0E5
:0715DB007005122B3B80E1BB
:0115E20022E6
:10237E00122B5B90063E74FFF0A37405F0A37477E6
:10238E00F07B08E4FD7F0112293A90063E74FFF0BF
:10239E00A37405F0A37480F07B06E4FD7F0212297E
:1023AE003A90063E74FFF0A37405F0A37487F07B99
:1023BE000AE4FD7F0312293A90063E74FFF0A374DF
:1023CE0005F0A37492F07B0AE4FD7F0412293A759E
:1023DE0090F0122C56E59054F064F060F57F647E18
:1023EE0000122B3BE59054F064F0603A1226CF9029
:1023FE0004FEEFF024F4601214601814601E24031F
:10240E00702D122B5BE4FFFE8019122B5B7F017E79
:10241E00008010122B5B7F027E008007122B5B7FE9
:10242E00037E000212CB7FC47E09122B3B80A322B7
:101C2C0090061FECF0A3EDF0A3EAF0A3EBF0900606
:101C3C001EEFF0C39432748094804013A3A3E0FF92
:101C4C0090063E74FFF0A37405F0A374B380339038
:101C5C00061EE0D39418748094805013A3A3E0FF65
:101C6C0090063E74FFF0A37405F0A374BD8013902E
:101C7C00061FA3E0FF90063E74FFF0A37405F0A3CB
:101C8C0074B8F07B047D0312293A90061EE012040E
:101C9C006F1D5E0D1D490E1D34101D1F121D0A13E4
:101CAC001CF5151CE0181D5E191D491C1D34201D4A
:101CBC001F241D0A261CF52B1CE0301D5E321D490D
:101CCC00391D34401D1F481D0A4C1CF5561CE06084
:101CDC0000001D79900621A3E0FF90063E74FFF0F2
:101CEC00A37406F0A37424807C900621A3E0FF90DB
:101CFC00063E74FFF0A37406F0A37426806790066A
:101D0C0021A3E0FF90063E74FFF0A37406F0A374C9
:101D1C00288052900621A3E0FF90063E74FFF0A3AA
:101D2C007406F0A3742A803D900621A3E0FF900670
:101D3C003E74FFF0A37406F0A3742C802890062147
:101D4C00A3E0FF90063E74FFF0A37406F0A3742E7C
:101D5C008013900621A3E0FF90063E74FFF0A3745D
:0E1D6C0006F0A37430F07B017D0412293A22A8
:100C7E00E4900611F0A3F0900611E0FEA3E0FFC38E
:100C8E009405EE648094804003020FACEF4E7031F9
:100C9E00122B5B90063E74FFF0A37406F0A3743221
:100CAE00F07B10E4FD7F0112293A90063E74FFF0AE
:100CBE00A37406F0A37443F07B09E4FD7F021229AE
:100CCE003A7580FFE58030E0517D077F011227598C
:100CDE00900611E0FCA3E0FD25E0FFEC33FE74FF6F
:100CEE002FF58274053EF583E0FEA3E064074E7097
:100CFE002690063E74FFF0A37406F0A37430F07BCA
:100D0E00017F0212293A900612E004F0705C900600
:100D1E0011E004F0020E84020E94E58030E1517D64
:100D2E00067F02122759900611E0FCA3E0FD25E094
:100D3E00FFEC33FE74FF2FF58274053EF583E0FE63
:100D4E00A3E064064E702690063E74FFF0A3740670
:100D5E00F0A3742EF07B017F0212293A900612E066
:100D6E0004F07006900611E004F0020E84020E9458
:100D7E00E58030E255E4FBFA7D05FC7F0412275D29
:100D8E00900611E0FCA3E0FD25E0FFEC33FE74FFBE
:100D9E002FF58274053EF583E0FEA3E064054E70E8
:100DAE002690063E74FFF0A37406F0A3742CF07B1D
:100DBE00017F0212293A900612E004F070069006A6
:100DCE0011E004F0020E84020E94E58030E353E449
:100DDE00FBFA7D04FC7F0812275D900611E0FCA350
:100DEE00E0FD25E0FFEC33FE74FF2FF58274053E27
:100DFE00F583E0FEA3E064044E702590063E74FF7A
:100E0E00F0A37406F0A3742AF07B017F0212293A34
:100E1E00900612E004F07006900611E004F0805681
:100E2E008064E58030E476E4FBFA7D03FC7F1012EB
:100E3E00275D900611E0FCA3E0FD25E0FFEC33FEFC
:100E4E0074FF2FF58274053EF583E0FEA3E0640384
:100E5E004E703390063E74FFF0A37406F0A3742810
:100E6E00F07B017F0212293A900612E004F0700620
:100E7E00900611E004F090063E74FFF0A37406F0A5
:100E8E00A3744D020F9FE4900611F0A3F090063E5E
:100E9E0074FFF0A37406F0A37456020F9FE5803022
:100EAE00E575E4FBFA7D02FC7F2012275D900611AA
:100EBE00E0FCA3E0FD25E0FFEC33FE74FF2FF5828E
:100ECE0074053EF583E0FEA3E064024E7033900697
:100EDE003E74FFF0A37406F0A37426F07B017F022C
:100EEE0012293A900612E004F07006900611E00402
:100EFE00F090063E74FFF0A37406F0A3745F020F29
:100F0E009FE4900611F0A3F090063E74FFF0A374D8
:100F1E0006F0A37456807AE58020E603020C85E481
:100F2E00FBFA7D01FC7F4012275D900611E0FCA3C9
:100F3E00E0FD25E0FFEC33FE74FF2FF58274053ED5
:100F4E00F583E0FEA3E064014E703290063E74FF1E
:100F5E00F0A37406F0A37424F07B017F0212293AE9
:100F6E00900612E004F07006900611E004F0900670
:100F7E003E74FFF0A37406F0A3745F8014E4900631
:100F8E0011F0A3F090063E74FFF0A37406F0A37464
:0E0F9E0056F07B087D027F0312293A020C8573
:010FAC002222
:102BDD00C2C2C2C0D2C1122BB9D2C2E4F596F595CC
:102BED00900643E5A0F0122BB9C2C2900643E02037
:022BFD00E7DE11
:012BFF0022B3
:102AE700FEEF8EF0A47C002DFFEC35F0FEE0FBA39B
:0D2AF700E0FAA3E0F98F828E8312034DFFF9
:102B0400900642EFF0122BDDD2C2D2C0C2C175963C
:102B1400FFE4F595900642122BB6C2C27F147E00E4
:032B2400022BBDC4
:062B8D00900667E02FFF37
:102B9300900642EFF0122BDDD2C2C2C0C2C17596BD
:102BA300FFE4F595900642122BB6C2C27F147E0055
:032BB300022BBD35
:0B29A10090065EEBF0A3EAF0A3E9F063
:1029AC00122B93E4900662F0900661E0FFA3E0FE28
:1029BC00C39F503F90065EE0FBA3E0FAA3E0F975DD
:1029CC00F002EEA4F58285F083122B0090065EE0F7
:1029DC00FBA3E0FAA3E0F9900662E075F002A424F0
:1029EC0001F582E435F0F583122B00900662E004C9
:0329FC00F080B5B3
:0129FF0022B5
:07293A0090063DEBF0AC0735
:10294100ECFB7A0064017007ED2480900641F0EB06
:1029510064024A7007ED2490900641F0EC64037024
:1029610007ED2488900641F0EC64047007ED24988B
:10297100900641F0900641E0FF122B9390063DE056
:10298100601DA3E0FBA3E475F00112043FA9F0FA76
:0F299100120334FF122B0490063DE014F080DD9A
:0129A0002214
:0527DA00900663EFF022
:1027DF00E4A3F0900664E0FFC394027480948050E9
:1027EF0036900663E02FFF122B937FFF122B04E42A
:1027FF00FF122B04900664E004F0E0FF900663E004
:10280F002FFF122B93E4FF122B04E4FF122B0490E3
:10281F000664E004F080BC9006647402F0900664D5
:10282F00E0FFC3941074809480501B900663E02FD8
:10283F00FF122B93E4FF122B04E4FF122B049006DC
:06284F0064E004F080D7F4
:012855002260
:05285600900665EFF0A3
:10285B00E4A3F0900666E0FFC39404748094805068
:10286B0036900665E02FFF122B937FFF122B04E4AB
:10287B00FF122B04900666E004F0E0FF900665E083
:10288B002FFF122B93E4FF122B04E4FF122B049067
:10289B000666E004F080BC9006667404F090066651
:1028AB00E0FFC3941074809480501B900665E02F5A
:1028BB00FF122B93E4FF122B04E4FF122B04900660
:0628CB0066E004F080D776
:0128D10022E4
:05229B00900667EFF062
:1022A000E4A3F0900668E0FFC39402748094805029
:1022B0002A122B8D7FFF122B04E4FF122B049006B1
:1022C00068E004F0E0FF122B8DE4FF122B04E4FF22
:1022D000122B04900668E004F080C890066874022F
:1022E000F0900668E0FFC394067480948050151245
:1022F0002B8DE4FF122B04E4FF122B04900668E000
:1023000004F080DD900667E02406FF122B937F180F
:10231000122B04E4FF122B04900667E02407FF123F
:102320002B937F3C122B04E4FF122B04900667E0F2
:102330002408FF122B937F3C122B04E4FF122B0482
:10234000900667E02409FF122B937F18122B04E4F8
:10235000FF122B04900668740AF0900668E0FFC331
:102360009410748094805015122B8DE4FF122B046E
:0D237000E4FF122B04900668E004F080DD0D
:01237D00223D
:0520C300900669EFF03A
:1020C800E4A3F090066AE0FFC394047480948050FF
:1020D80036900669E02FFF122B937FFF122B04E442
:1020E800FF122B0490066AE004F0E0FF900669E016
:1020F8002FFF122B93E4FF122B04E4FF122B049002
:10210800066AE004F080BC900669E02404FF122B04
:1021180093E4FF122B04E4FF122B04900669E024D9
:1021280005FF122B93E4FF122B04E4FF122B0490FB
:102138000669E02406FF122B937F18122B04E4FF94
:10214800122B04900669E02407FF122B937F3C12A0
:102158002B04E4FF122B04900669E02408FF122BDD
:10216800937F3C122B04E4FF122B04900669E024B1
:1021780009FF122B937F18122B04E4FF122B0490F3
:10218800066A740AF090066AE0FFC394107480949B
:1021980080501B900669E02FFF122B93E4FF122B4F
:0E21A80004E4FF122B0490066AE004F080D7D6
:0121B6002206
:102A00007F34122B937F36122B93E490066BF09059
:102A1000066BE0FFC39420748094805033EF2480D1
:102A2000FF122B937F80122B93E490066CF090069C
:102A30006CE0C3942074809480500DE4FF122B044A
:102A400090066CE004F080E690066BE004F080BF36
:012A50002263
:0B24FA0090064AEFF0A3EDF0A3EBF01A
:102505007F34122B937F36122B93E4900652F09072
:10251500064CE0FF900652E0FEC39F40030225AE45
:1025250090064AE02EFF122B937F80122B93E490A6
:102535000653F090064BE0FF900653E0FDC39F5015
:1025450012900652E090064D122AE7900653E004D9
:10255500F080E0E4900650F0A3F090064BE0F9FF20
:10256500900650E0FAA3E0FBC39FEA940050319037
:10257500064CE0FF900652E02FFFE433FEE9FD7CB8
:102585000012038CEB2FFFEA3EFE90064D122AF453
:10259500900651E004F07006900650E004F080BA11
:0E25A500900652E004F00225147F30022B93C2
:102C200090066DEFF0A3EDF07F34122B9390066EBB
:0D2C3000E0FF122B9390066DE0FF022B9346
:0B25B300900654EFF0A3EDF0A3EBF056
:1025BE00E490065BF0900657E0FF90065BE0FEC3EA
:1025CE009F5068EEFF900655E0FD2FFFE433FEC3EB
:1025DE00EF9420EE64809480900654E0500BC45427
:1025EE000F2480FFED2480800AC4540F2488FFA39B
:1025FE00E02460FE90065BE02EFD122C20E4900697
:10260E005CF0900656E0FF90065CE0FDC39F501212
:10261E0090065BE0900658122AE790065CE004F004
:10262E0080E090065BE004F00225C37F36122B9308
:05263E007F30022B9328
:102B5B00D2C3122BB97F30122B93122BB97F0212D7
:102B6B002B93122BB97F0C122B93122BB97F0612BE
:102B7B002B93122BB97F80122B93122BB97F01024F
:022B8B002B938A
:102C0000AD07AC06ECC313ED1375F008A42480FFE8
:102C1000ED5401C454F02FFF122B937F0F022B931E
:072BB600E0F5A07F147E0092
:102BBD00E4FDFCC3ED9FEC9E5015E4FBFA0BBB004E
:0F2BCD00010AEB64784A70F50DBD00010C80E43D
:012BDC0022D6
:0A2C8E00E4FEEEC39F50030E80F831
:012C98002219
:10000E00020229E86480F8E933E83360110460F0F5
:10001E00ED33EC337009E8FCE9FDEAFEEBFF220458
:10002E0060DED3EB9FEA9EE99DE8C2E78CF0C2F753
:10003E0095F0400CE8CCF8E9CDF9EACEFAEBCFFB1F
:10004E001201F485D0F05804700320D5B3E8047083
:10005E00075002B2D502023392D5EC0460F7E4CC1D
:10006E00C0E0C398F8603B94186008400DD0E0FBE8
:10007E0002020BE4FBFAC9FC8028E830E406E4C96E
:10008E00FBE4CAFCE830E305E4C9CACBFCE854073C
:10009E006010F8C3E913F9EA13FAEB13FBEC13FC47
:1000AE00D8F130F52FC3E49CFCEF9BFFEE9AFEEDEA
:1000BE0099FDD0E0FBEF4E4D4C701222DB03020295
:1000CE0030EC2CFCEF33FFEE33FEED33FDED30E77D
:1000DE00EB02020BEF2BFFEE3AFEED39FDD0E0FB0B
:1000EE0050130BBB0003020233ED13FDEE13FEEFB4
:0800FE0013FFEC13FC02020BDE
:1001060074F8CC6480CCC86480C8F58204604FC3A0
:10011600EB9FF5F0EA9E42F0E99D42F0E89C45F03F
:10012600603C501DE5825FFFE582D313CB5BCBF4C9
:100136002B5582FB50280ABA002409B900200880F2
:100146001DE5825BFBE582D313CF5FCFF4C3132F8C
:100156005582FF50090EBE00050DBD00010CC3EB14
:100166009FF5F0EA9E42F0E99D42F0E89C45F0607A
:0901760007CC4820E701B3EC229C
:10017F0075F020800E75F010800575F0087D007EFB
:10018F00007F003392D530D503120455EC33401065
:10019F00EF33FFEE33FEED33FDEC33FCD5F0ED2204
:0E01AF00E5F0247EA2D513CC92E7CDCEFF2240
:1001BD00EDD2E7CD33EC3392D524814006E4FFFE3A
:1001CD00FDFC22FCE4CFCECDCC24E0501174FF8099
:1001DD00EDC3CC13CCCD13CDCE13CECF13CF047036
:0701ED00F030D5DE020455DD
:1001F400E9D2E7C933E833F892D5EDD2E7CD33EC51
:0702040033FC5002B2D522C9
:10020B00EC30E7100FBF000C0EBE00080DBD000454
:10021B000BEB6014A2D5EB13FCED92E7FD2274FF00
:10022B00FCFDFEFF22E480F8A2D574FF13FC7D8059
:03023B00E480EF6D
:0300000002264392
:0C264300787FE4F6D8FD75810702268A36
:10023E00E709F608DFFA8046E709F208DFFA803EA2
:10024E0088828C83E709F0A3DFFA8032E309F6088F
:10025E00DFFA8078E309F208DFFA807088828C83F7
:10026E00E309F0A3DFFA806489828A83E0A3F608AB
:10027E00DFFA805889828A83E0A3F208DFFA804C85
:10028E0080D280FA80C680D4806980F2803380105C
:10029E0080A680EA809A80A880DA80E280CA8033C5
:1002AE0089828A83ECFAE493A3C8C582C8CCC5833D
:1002BE00CCF0A3C8C582C8CCC583CCDFE9DEE7800D
:1002CE000D89828A83E493A3F608DFF9ECFAA9F08C
:1002DE00EDFB2289828A83ECFAE0A3C8C582C8CCE2
:1002EE00C583CCF0A3C8C582C8CCC583CCDFEADEFB
:1002FE00E880DB89828A83E493A3F208DFF980CC5D
:10030E0088F0EF60010E4E60C388F0ED2402B40455
:10031E000050B9F582EB2402B4040050AF232345FC
:06032E00822390028E7391
:10033400BB010689828A83E0225002E722BBFE02C7
:09034400E32289828A83E49322FA
:10034D00BB010CE58229F582E5833AF583E0225065
:10035D0006E92582F8E622BBFE06E92582F8E222AF
:0D036D00E58229F582E5833AF583E49322C9
:10037A00BB010689828A83F0225002F722BBFE0162
:02038A00F3225C
:10038C00EF8DF0A4A8F0CF8CF0A428CE8DF0A42E85
:02039C00FE223F
:10039E00BC000BBE0029EF8DF084FFADF022E4CC43
:1003AE00F875F008EF2FFFEE33FEEC33FCEE9DEC0C
:1003BE00984005FCEE9DFE0FD5F0E9E4CEFD22ED52
:1003CE00F8F5F0EE8420D21CFEADF075F008EF2F9C
:1003DE00FFED33FD4007985006D5F0F222C398FD8D
:0503EE000FD5F0EA222A
:1003F300C2D5EC30E709B2D5E4C39DFDE49CFCEE25
:1004030030E715B2D5E4C39FFFE49EFE12039EC3FB
:10041300E49DFDE49CFC800312039E30D507C3E4F6
:060423009FFFE49EFE2293
:10042900C5F0F8A3E028F0C5F0F8E582158270025E
:060439001583E038F022FB
:10043F00A3F8E0C5F025F0F0E58215827002158370
:06044F00E0C838F0E822CD
:0E045500C3E49FFFE49EFEE49DFDE49CFC22B8
:0C046300ECF0A3EDF0A3EEF0A3EFF0220C
:10046F00D083D082F8E4937012740193700DA3A31C
:10047F0093F8740193F5828883E473740293686030
:06048F00EFA3A3A380DF30
:1028D20090063BEBF0A3EAF0A3E9F0E4900643F0A4
:1028E200A3F090064174FFF5F012043F45F0603CFE
:1028F20090063EE0FBA3E0FAA3E0F9120334FF9056
:10290200063BE0FBA3E0FAA3E0F9900643E475F08E
:102912000112043F85F082F583EF1204C1EF60C219
:1029220090063FE475F00112042980B690063BE060
:08293200FBA3E0FAA3E0F92287
:102C6C00E4FFFE120334600C0FEF70010E09E970E3
:052C7C00F20A80EF22C6
:10049500EF4E6012EF60010EEDBB010B89828A837E
:1004A500F0A3DFFCDEFA2289F05007F709DFFCA98B
:0C04B500F022BBFEFCF309DFFCA9F022E2
:10264F00021E99E493A3F8E493A34003F68001F2EA
:10265F0008DFF48029E493A3F85407240CC8C3338C
:10266F00C4540F4420C8834004F456800146F6DF5B
:10267F00E4800B0102040810204080902A51E47E70
:10268F00019360BCA3FF543F30E509541FFEE49350
:10269F00A360010ECF54C025E060A840B8E493A317
:1026AF00FAE493A3F8E493A3C8C582C8CAC583CA42
:1026BF00F0A3C8C582C8CAC583CADFE9DEE780BEFA
:012A9E000037
:1004C100F8BB010DE58229F582E5833AF583E8F071
:1004D100225006E92582C8F622BBFE05E92582C81D
:0204E100F22205
:00000001FF
