:10000E00D5E3BDADB4F3D1A7B9E2B5E7D1A7D4BA64
:10001E0000B5E7D7D3CFDFC2B7C9E8BCC6003837C3
:10002E0039353131393700D2BABEA7CFD4CABEB3B3
:10003E00C9B9A600B2CBB5A500312EB2A5B7C5D2AF
:10004E00F4C0D600322EB5AFD7E0C4A3CABD00337C
:10005E002ECFC2D2BBD2B300342EC2BCD2F4C4A3B4
:10006E00CABD00352EB2A5B7C5C2BCD2F400362E1D
:10007E00C9CFD2BBD2B300312ED0C2B1A6B5BA0011
:10008E00322EB0AEBAD300332ED7A3C4E3C6BDB062
:10009E00B200342ECCECBFD5D6AEB3C700D1DDD76F
:1000AE00E0C4A3CABD00322EBDB5B5CDD2F4B8DFC3
:1000BE0000332ECCE1B8DFD2F4B8DF00B0B4C8CE36
:1000CE00D2E2BCFCB7B5BBD800D2F4B8DFD2D1BEF9
:1000DE00ADCAC7D7EEB5CDC1CB00D2F4B8DFD2D101
:1000EE00BEADCAC7D7EEB8DFC1CB00C2BCD2F4C416
:1000FE00A3CABD00312EBFAACABCC2BCD2F400B086
:10010E00B4C6E4CBFBBCFCB7B5BBD800C2BCD2F4C2
:10011E00D6D000322EBDE1CAF8C2BCD2F400C2BCA9
:10012E00D2F4CDEAB3C900B2A5B7C5C2BCD2F400B1
:10013E001C80204026202B40302039A04020394002
:10014E0030402B4030202B4026802020262020209F
:10015E0026201CFE20FE392026202B2026102030A3
:10016E0026202B202624392026202B202610203036
:10017E0026202B202624392026202B202610203026
:10018E0026202B202624392026202B202610203016
:10019E0026202B20260BFF260BFF26A0302020200A
:1001AE00241026B030202020241026101C202620BB
:1001BE002B202B202B1030102B10302026E0260B5E
:1001CE00FF260BFF26A030202020241026B0302042
:1001DE002020241026301C2026202B202B202B10F4
:1001EE0030102B10300BFF301030FF0030202B2042
:1001FE002620262020201C201C30301030202620C7
:10020E002B20302030202B20264030202B20262063
:10021E00262020201C201C303010302026202B20A1
:10022E003020302032203020002620202020202692
:10023E001020102080262030203020391030103031
:10024E00802620202020201C2020802B20262020CD
:10025E00202B1026102B80262030203020391026FF
:10026E0010266040103910262030203020391026FC
:10027E0010268026202B102B102B20301039102604
:10028E00102B102B202B404020201020102B10263E
:10029E003030801820182026202020204026202BA9
:1002AE0020302030201C20202020801C201C201CD0
:1002BE0020302030603910301020202B1026102BCB
:1002CE0010261026102B102B8018201820262020E8
:1002DE0020206026102B20302030201C20202020B3
:1002EE00802620301030103020392026102B102B75
:1002FE00202B4040104010201020102B10263030A4
:10030E008000263026301C4020301C3018302060F3
:10031E0026302630244026302430184026601820FF
:10032E0018201820194024302430193019601C3040
:10033E001930184019301830133019602630263015
:10034E001C4020301C3018302080263024302430C1
:10035E001830192019301830152015201320184088
:10036E00183019301C201C20193020301C60183019
:10037E0015301340153013301030156020302030FA
:10038E00183019301830133013601C201920183013
:10039E00193015201520184020302030123013301F
:1003AE001530183013C0138013300E8010301030FB
:1003BE001320152018401830153018201520153030
:1003CE001030136013300E6010601320152018408B
:1003DE001830153015201820153019301C601C30BF
:0503EE0019301CC000E5
:101D30004805FF000000BC00F901D25501FB6056C8
:101D40004C48403932302B2624201C191815131208
:101D5000100E0D4401F740E000004101F601410082
:101D600000014205FBFFFF4205FD00004105F900AF
:03000B00021EEFE3
:101EEF00C0E0C083C082758CDC758A00900001E071
:091EFF0004F0D082D083D0E0325F
:101DB100900607EFF0A3ECF0A3EDF0801F9006076B
:101DC100E05580601CB2C5A3E0FEA3E024FAF582D1
:101DD10074013EF583E0FF7E00121E6F7580FF8067
:081DE100DC9001F67401F02210
:10145800E4F5C975CA3075B3C0F5B4F5B1F5B21283
:101468001DE990062874FFF0A37400F0A3740EF031
:101478007B10E4FD7F01121C1990062874FFF0A36D
:101488007400F0A3741FF07B0C7D017F02121C19FD
:1014980090062874FFF0A37400F0A3742CF07B0866
:1014A8007D027F03121C1990062874FFF0A37400B4
:1014B800F0A37435F07B0C7D017F04121C19121FF8
:1014C80008E4F5B3F5B4121DE99000001216227570
:1014D80090F0121F08E59054F064F060F5121E6B4E
:1014E800E59054F064F06046121A2F9004FEEFF075
:1014F80024F4601814601A14601E24F9601F146024
:1015080024240B7029121249C2C58014120A1580AE
:101518000F900000E0048012120D1380031217B61A
:101528009000008006900000E014F01216227FC49C
:071538007E09121E6F809B6B
:0D1F1E0075890175A882758CDCE4F58A22B6
:101F0800E5C030E604D2CC8002C2CCE5C030E7039D
:061F1800D2CD22C2CD2251
:100FCB0090060DE4F0A304F0E4A3F0A3F0EF25E00A
:100FDB0024FFF582E43405F583E0FEA3E0FF9006E1
:100FEB000BEEF0A3EFF0900609EEF0A3EFF0120377
:100FFB00F39006287401F0A37402F0A37410F0A30D
:10100B00E4F0A37410F07B017A067911121BB190F6
:10101B0006287401F0A37406F0A37411F07B10E49E
:10102B00FD7F02121C199006287401F0A37400F0C6
:10103B00A374FCF0A3E4F0A37410F07B017A06799F
:10104B0011121BB19006287401F0A37406F0A3745F
:10105B0011F07B10E4FD7F03121C1990062874011C
:10106B00F0A37400F0A37402F0A3E4F0A37410F0E7
:10107B007B017A067911121BB19006287401F0A33B
:10108B007406F0A37411F07B10E4FD7F04121C199D
:10109B00021232900609E475F00112095BFE743EF0
:1010AB0025F0F58274013EF583E493900607F0E09A
:1010BB00F4700AC28C7F64FE121E6F80D6900607F6
:1010CB00E07003021248900609E475F00112095B07
:1010DB00FE743E25F0F58274013EF583E493900691
:1010EB0008F0D28CB2C5900607E0FF7E00121E6F8F
:1010FB00900001E0FF900608E06F600302123A9047
:10110B00060BE0FEA3E0FFC390060AE09FFF9006EC
:10111B0009E09EFEEF25E0FFEE33FE740A2FF58209
:10112B0074033EF583E0FCA3E0FD90060EE0C4F8EB
:10113B00540FC868FF90060DE0C454F048FED3ED81
:10114B009FEC9E5003021232900610E02410F09098
:10115B00060FE03400F090060EE004F070069006E7
:10116B000DE004F090060FE0FEA3E02410F97402EA
:10117B003EFA9006287401F0A3EAF0A3E9F0A3E489
:10118B00F0A37410F07B017A067911121BB1900653
:10119B00287401F0A37406F0A37411F07B10E4FD26
:1011AB007F02121C1990060FE0FEA3E024FCF974D9
:1011BB00003EFA9006287401F0A3EAF0A3E9F0A32D
:1011CB00E4F0A37410F07B017A067911121BB19035
:1011DB0006287401F0A37406F0A37411F07B10E4DD
:1011EB00FD7F03121C1990060FE0FEA3E02402F909
:1011FB0074003EFA9006287401F0A3EAF0A3E9F01C
:10120B00A3E4F0A37410F07B017A067911121BB1E1
:10121B009006287401F0A37406F0A37411F07B10F0
:10122B00E4FD7F04121C19E4900001F002109E757E
:0D123B0090F0E59054F064F070030210EFA5
:011248002283
:091F360075B0FFE5B054F0FF2284
:101A2F00E490060AF0A3F07590F0E59054F0FF549F
:101A3F00F064F07002FF2275900FE590540F4FF491
:101A4F0012098B1A86111A92121A9E141AAA181AB0
:101A5F0089211A95221AA1241AAD281A8C411A9895
:101A6F00421AA4441AB0481A8F811A9B821AA7846B
:101A7F001AB38800001AB67F0B227F0C227F0D222B
:101A8F007F0E227F15227F16227F17227F18227F3B
:101A9F001F227F20227F21227F22227F29227F2A3D
:091AAF00227F2B227F2C227F00F4
:011AB800220B
:041E6B007F647E0012
:101E6F00E4FDFCC3ED9FEC9E5015E4FBFA0BBB00A9
:0F1E7F00010AEB64024A70F50DBD00010C80E40E
:011E8E002231
:06162200E0FF3395E0FE3D
:10162800900607EEF0A3EFF0121DE9900607E0FE22
:10163800A3E0FFEE60030216FCEF24FE605A04608C
:10164800030216FC90062874FFF0A37400F0A3743C
:1016580042F07B047D037F01121C1990062874FF59
:10166800F0A37400F0A37447F07B0AE4FD7F021234
:101678001C1990062874FFF0A37400F0A37452F0AC
:101688007B0AE4FD7F03121C1990062874FFF0A35F
:101698007400F0A3745D805290062874FFF0A37460
:1016A80000F0A37442F07B047D037F01121C1990A3
:1016B800062874FFF0A37400F0A37466F07B0AE4B4
:1016C800FD7F02121C1990062874FFF0A37400F025
:1016D800A37471F07B0AE4FD7F03121C199006289D
:1016E80074FFF0A37400F0A3747CF07B08E4FD7F22
:0516F80004121C192280
:10124900121DE990062874FFF0A37400F0A37485B9
:10125900F07B08E4FD7F01121C1990062874FFF049
:10126900A37400F0A3748EF07B06E4FD7F02121CC8
:101279001990062874FFF0A37400F0A37495F07B0D
:101289000AE4FD7F03121C1990062874FFF0A37469
:1012990000F0A374A0F07B0AE4FD7F04121C19126C
:1012A9001F1E7590F0121F08E59054F064F060F568
:1012B900121E6BE59054F064F07003021359121A70
:1012C9002F9004FEEFF024F4602B14604614606143
:1012D90024036003021363121DE990062874FFF0CA
:1012E900A37400F0A37485F07B08E4FD7F01121C50
:1012F90019E4FF8058121DE990062874FFF0A374C1
:1013090000F0A3748EF07B06E4FD7F01121C197FA7
:1013190001803A121DE990062874FFF0A37400F0C9
:10132900A37495F07B0AE4FD7F01121C197F0280EA
:101339001C121DE990062874FFF0A37400F0A37431
:10134900A0F07B0AE4FD7F01121C197F03020FCB79
:0B1359007FC47E09121E6F0212AE223C
:100A1500121F08121DE990062874FFF0A37400F058
:100A2500A374ABF07B087D027F01121C19E4FFFE65
:100A3500FDFC9001F7E0F8A3E0F9A3E0FAA3E0FBE1
:100A4500120809601790062874FFF0A37400F0A33C
:100A550074B4F07B0AE4FD7F02121C19E4FFFE7DED
:100A6500607C419001F7E0F8A3E0F9A3E0FAA3E088
:100A7500FB120809601790062874FFF0A37400F0B4
:100A8500A374BFF07B0AE4FD7F03121C19900628AE
:100A950074FFF0A37400F0A374CAF07B0C7D017F92
:100AA50004121C197590F0E59054F064F07003027F
:100AB5000BEE121E6BE59054F064F07003020BEB25
:100AC500121A2F9004FEEFF024F37003020B5F045B
:100AD5006003020D129001F6E07003020BEBE4FFD8
:100AE500FEFDFCA3E0F8A3E0F9A3E0FAA3E0FB1206
:100AF50008096020401E9001F7E0FCA3E0FDA3E09B
:100B0500FEA3E0FFE4FBFA79E078401207149001B8
:100B1500F712097FE4FFFEFDFC9001F7E0F8A3E082
:100B2500F9A3E0FAA3E0FB120809701790062874F0
:100B3500FFF0A37400F0A374D7F07B10E4FD7F02EF
:100B4500121C1990062874FFF0A37400F0A374BF5B
:100B5500F07B0AE4FD7F03020BE39001F6E07003EE
:100B6500020BEBE4FFFE7D607C41A3E0F8A3E0F916
:100B7500A3E0FAA3E0FB120809501E9001F7E0FC80
:100B8500A3E0FDA3E0FEA3E0FFE4FBFA79E07840F3
:100B95001207189001F712097FE4FFFE7D607C4182
:100BA5009001F7E0F8A3E0F9A3E0FAA3E0FB12084F
:100BB50009701790062874FFF0A37400F0A374E879
:100BC500F07B10E4FD7F03121C1990062874FFF0DA
:100BD500A37400F0A374B4F07B0AE4FD7F02121C39
:100BE50019E49001F6F0121E6B7580FFE58030E088
:100BF50024E4FFFE7DE07C409001F7E0F8A3E0F9F6
:100C0500A3E0FAA3E0FB120718120882AD07AC06B1
:100C15007F01020D0CE58030E124E4FFFE7DC07C00
:100C2500409001F7E0F8A3E0F9A3E0FAA3E0FB1296
:100C35000718120882AD07AC067F02020D0CE5808D
:100C450030E224E4FFFE7DA07C409001F7E0F8A3AC
:100C5500E0F9A3E0FAA3E0FB120718120882AD073A
:100C6500AC067F04020D0CE58030E323E4FFFE7D36
:100C7500807C409001F7E0F8A3E0F9A3E0FAA3E057
:100C8500FB120718120882AD07AC067F088078E5CD
:100C95008030E423E4FFFE7D407C409001F7E0F8DE
:100CA500A3E0F9A3E0FAA3E0FB120718120882AD4E
:100CB50007AC067F108050E58030E522E4FFFEFD9D
:100CC5007C409001F7E0F8A3E0F9A3E0FAA3E0FB8C
:100CD500120718120882AD07AC067F208029E5802F
:100CE50020E603020AA9E4FFFE7D807C3F9001F720
:100CF500E0F8A3E0F9A3E0FAA3E0FB120718120855
:0E0D050082AD07AC067F40121DB1020AA92282
:100D1300E4900607F0A3F0A3F09005FDF0A3F074B0
:100D2300FF9005FBF0A3F0E49005F9F0121F081201
:100D33001DE990062874FFF0A37400F0A374F9F082
:100D43007B087D027F01121C1990062874FFF0A313
:100D53007401F0A37402F07B0AE4FD7F02121C19F4
:100D630090062874FFF0A37401F0A3740DF07B0CBC
:100D73007D017F04121C19900607E070307590F016
:100D8300E59054F064F060EF121E6BE59054F0644C
:100D9300F06015121A2F9004FEEFF024F5600302A1
:100DA3000FCA9006077401F0121E6B80CA7E007F83
:100DB300FA7D007B017A0479FF1209B19006287449
:100DC300FFF0A37401F0A3741AF07B06E4FD7F0225
:100DD300121C1990062874FFF0A37401F0A3742168
:100DE300F07B0AE4FD7F03121C19E4900001F0126A
:100DF3001F1E7590F0E59054F064F06065121E6B51
:100E0300E59054F064F06057121A2F9004FEEFF04F
:100E130024F46003020FCA90062874FFF0A3740140
:100E2300F0A3742CF07B08E4FD7F03121C199005DA
:100E3300F9E0FF900608E0FCA3E0FD24FFF58274CF
:100E4300043CF583EFF09005FBA3E0FFA3A3E0C30D
:100E53009FFF74002DF58274053CF583EFF0221299
:100E63001E6B7580FFE58030E02CE4FFFE7DE07CA7
:100E7300409001F7E0F8A3E0F9A3E0FAA3E0FB1246
:100E83000718120882AD07AC06900608E0FAA3E043
:100E9300FB7F01020FBCE58030E12CE4FFFE7DC047
:100EA3007C409001F7E0F8A3E0F9A3E0FAA3E0FBAC
:100EB300120718120882AD07AC06900608E0FAA3E1
:100EC300E0FB7F02020FBCE58030E22CE4FFFE7DF5
:100ED300A07C409001F7E0F8A3E0F9A3E0FAA3E0D7
:100EE300FB120718120882AD07AC06900608E0FA59
:100EF300A3E0FB7F04020FBCE58030E32CE4FFFE9C
:100F03007D807C409001F7E0F8A3E0F9A3E0FAA329
:100F1300E0FB120718120882AD07AC06900608E042
:100F2300FAA3E0FB7F08020FBCE58030E42BE4FF6B
:100F3300FE7D407C409001F7E0F8A3E0F9A3E0FADE
:100F4300A3E0FB120718120882AD07AC069006084F
:100F5300E0FAA3E0FB7F108060E58030E52AE4FF40
:100F6300FEFD7C409001F7E0F8A3E0F9A3E0FAA3CB
:100F7300E0FB120718120882AD07AC06900608E0E2
:100F8300FAA3E0FB7F208031E58020E603020DF524
:100F9300E4FFFE7D807C3F9001F7E0F8A3E0F9A336
:100FA300E0FAA3E0FB120718120882AD07AC069023
:100FB3000608E0FAA3E0FB7F40121865900608EEEE
:070FC300F0A3EFF0020DF5B1
:010FCA002204
:1018650090060AECF0A3EDF0A3EAF0A3EBF0A907CC
:101875009005FBE0FEA3E0FFF47002EEF4602B9010
:1018850005F9E0FD90060CE0FAA3E0FB24FFF582E4
:1018950074043AF583EDF0900001E0C39FFF7400F6
:1018A5002BF58274053AF583EFF07580FF90000102
:1018B500E0FF9005FBE4F0A3EFF0E58059601EB270
:1018C500C590060AE0FEA3E024FAF58274013EF510
:1018D50083E0FF7E00121E6F7580FF80DD900001A2
:1018E500E0FF9005FDE4F0A3EFF090060AE0FEA30B
:1018F500E024FAF58274013EF583E09005F9F09055
:0E190500060DE02402FF90060CE03400FE22E6
:1017B600121F08121DE990062874FFF0A37401F0A9
:1017C600A37435F07B087D027F01121C1990062850
:1017D60074FFF0A37400F0A374CAF07B0C7D017F44
:1017E60004121C19121F1E900608E4F0A37402F0DE
:1017F600805A900608E475F00112095BFE74FF2515
:10180600F0F58274043EF583E0F9F4700AC28C7F29
:1018160064FE121E6F80DBE96044900608E475F0F2
:101826000112095BFE74FF25F0F58274043EF58310
:10183600E0900607F0D28CB2C5E9FF7E00121E6F5B
:10184600900001E0FF900607E0B50707E49000016D
:0E185600F0809F7590F0E59054F064F060D93A
:011864002261
:0803F300900625EEF0A3EFF0E7
:1003FB00900629EEF0A3EFF0E4A3F0A3F00206F7CA
:10040B00900627E0F9700302071090062BE0FCA37F
:10041B00E0FD900625E0FEA3E0FFC390062AE09FD7
:10042B00FF900629E09EFEEF25E0FFEE33FE740AF7
:10043B002FF58274033EF583ECF0A3EDF0E912097E
:10044B008B050E0D04F90E04E41004CF1204BA133D
:10045B0004A515048F18050E1904F91C04E42004D7
:10046B00CF2404BA2604A52B048F30050E3204F9D1
:10047B003904E44004CF4804BA4C04A556048F60F9
:10048B000000052390062BE0FEA3E024FCF582740C
:10049B00003EF5837431F002053490062BE0FEA389
:1004AB00E024FCF58274003EF5837432F0807A9080
:1004BB00062BE0FEA3E024FCF58274003EF583746A
:1004CB0033F0806590062BE0FEA3E024FCF58274EC
:1004DB00003EF5837434F0805090062BE0FEA3E0D1
:1004EB0024FCF58274003EF5837435F0803B900656
:1004FB002BE0FEA3E024FCF58274003EF5837436FA
:10050B00F0802690062BE0FEA3E024FCF58274001D
:10051B003EF5837437F0801190062AE004F07006E4
:10052B00900629E004F00206F7900627E0FFF4702E
:10053B000302040BC3EF943274809480401D900629
:10054B002BE0FEA3E0FF2402F58274003EF58374DA
:10055B002EF074102FF58274028035900627E0D3AD
:10056B0094187480948090062BE0FEA3E0FF500D4E
:10057B002410F58274023EF583742E800B2410F543
:10058B008274023EF5837420F074022FF58274009E
:10059B003EF5837420F090062AE004F07006900676
:1005AB0029E004F0900629E0FEA3E0243EF58274D6
:1005BB00013EF583E493FF900628F07E00642070E3
:1005CB002D90062AE004F07006900629E004F090C6
:1005DB00062CE004F0700690062BE004F090062940
:1005EB00E0FCA3E0243EF58274013C020705EF64B6
:1005FB00104E701690062BE0FEA3E02402F58274D9
:10060B00003EF583742DF00206DB900628E0FF7E9A
:10061B00006408701690062BE0FCA3E02402F58220
:10062B0074003CF583743DF00206DBEF64304E70D2
:10063B003E90062CE004F0700690062BE004F09040
:10064B00062BE0FEA3E0FF24FCF58274003EF5834D
:10065B00742EF074022FF58274003EF5837420F033
:10066B0074102FF58274023EF5837420F080619034
:10067B000628E0C39440748094804054804C9006CC
:10068B0028E0C3942074809480404590062CE004AD
:10069B00F0700690062BE004F090062BE0FEA3E032
:1006AB00FF24FCF58274003EF583742DF074022F49
:1006BB00F58274003EF5837420F074102FF582746C
:1006CB00023EF5837420F0900628E024E0F080AE23
:1006DB0090062AE004F07006900629E004F09006DC
:1006EB002CE004F0700690062BE004F0900629E055
:1006FB00FEA3E0243EF58274013EF583E49390065D
:05070B0027F002040BC1
:0107100022C6
:101E8F00C2C2C2C0D2C1121E47D2C2E4F596F595A6
:101E9F0090062DE5A0F0121E47C2C290062DE0203D
:021EAF00E7DE6C
:011EB100220E
:101D7100FEEF8EF0A47C002DFFEC35F0FEE0FBA31E
:0D1D8100E0FAA3E0F98F828E8312091CFFA7
:101D8E0090062CEFF0121E8FD2C2D2C0C2C1759631
:101D9E00FFE4F59590062C121E44C2C27F147E00FD
:031DAE00021E4BC7
:061E1B0090064CE02FFFD1
:101E210090062CEFF0121E8FD2C2C2C0C2C17596AD
:101E3100FFE4F59590062C121E44C2C27F147E0069
:031E4100021E4B33
:0B1C8000900643EBF0A3EAF0A3E9F0AC
:101C8B00121E21E4900647F0900646E0FFA3E0FE0B
:101C9B00C39F503F900643E0FBA3E0FAA3E0F97526
:101CAB00F002EEA4F58285F083121D8A900643E0C4
:101CBB00FBA3E0FAA3E0F9900647E075F002A42439
:101CCB0001F582E435F0F583121D8A900647E00496
:031CDB00F080B5E1
:011CDE0022E3
:071C1900900627EBF0AC0779
:101C2000ECFB7A0064017007ED248090062BF0EB4A
:101C300064024A7007ED249090062BF0EC64037068
:101C400007ED248890062BF0EC64047007ED2498CF
:101C500090062BF090062BE0FF121E21900627E045
:101C6000601DA3E0FBA3E475F00112095BA9F0FA83
:0F1C7000120903FF121D8E900627E014F080DD8D
:011C7F002242
:051AB900900648EFF06B
:101ABE00E4A3F0900649E0FFC39402748094805032
:101ACE0036900648E02FFF121E217FFF121D8EE476
:101ADE00FF121D8E900649E004F0E0FF900648E0EC
:101AEE002FFF121E21E4FF121D8EE4FF121D8E9099
:101AFE000649E004F080BC9006497402F090064955
:101B0E00E0FFC3941074809480501B900648E02F21
:101B1E00FF121E21E4FF121D8EE4FF121D8E900691
:061B2E0049E004F080D73D
:011B3400228E
:051B350090064AEFF0EC
:101B3A00E4A3F090064BE0FFC394047480948050B1
:101B4A003690064AE02FFF121E217FFF121D8EE4F7
:101B5A00FF121D8E90064BE004F0E0FF90064AE06B
:101B6A002FFF121E21E4FF121D8EE4FF121D8E901C
:101B7A00064BE004F080BC90064B7404F090064BD0
:101B8A00E0FFC3941074809480501B90064AE02FA3
:101B9A00FF121E21E4FF121D8EE4FF121D8E900615
:061BAA004BE004F080D7BF
:011BB0002212
:05153F0090064CEFF0E6
:10154400E4A3F090064DE0FFC394027480948050AD
:101554002A121E1B7FFF121D8EE4FF121D8E9006A1
:101564004DE004F0E0FF121E1BE4FF121D8EE4FFA9
:10157400121D8E90064DE004F080C890064D740252
:10158400F090064DE0FFC3940674809480501512C9
:101594001E1BE4FF121D8EE4FF121D8E90064DE00B
:1015A40004F080DD90064CE02406FF121E217F1813
:1015B400121D8EE4FF121D8E90064CE02407FF12CC
:1015C4001E217F3C121D8EE4FF121D8E90064CE0FE
:1015D4002408FF121E217F3C121D8EE4FF121D8E73
:1015E40090064CE02409FF121E217F18121D8EE480
:1015F400FF121D8E90064D740AF090064DE0FFC355
:101604009410748094805015121E1BE4FF121D8EDA
:0D161400E4FF121D8E90064DE004F080DD15
:0116210022A6
:0513640090064EEFF0C1
:10136900E4A3F090064FE0FFC39404748094805086
:101379003690064EE02FFF121E217FFF121D8EE4CC
:10138900FF121D8E90064FE004F0E0FF90064EE03C
:101399002FFF121E21E4FF121D8EE4FF121D8E90F5
:1013A900064FE004F080BC90064EE02404FF121EB4
:1013B90021E4FF121D8EE4FF121D8E90064EE024DB
:1013C90005FF121E21E4FF121D8EE4FF121D8E90EF
:1013D900064EE02406FF121E217F18121D8EE4FF1F
:1013E900121D8E90064EE02407FF121E217F3C122B
:1013F9001D8EE4FF121D8E90064EE02408FF121E7A
:10140900217F3C121D8EE4FF121D8E90064EE024B2
:1014190009FF121E217F18121D8EE4FF121D8E90E6
:10142900064F740AF090064FE0FFC394107480943D
:1014390080501B90064EE02FFF121E21E4FF121D63
:0E1449008EE4FF121D8E90064FE004F080D757
:011457002272
:101CDF007F34121E217F36121E21E4900650F090A1
:101CEF000650E0FFC39420748094805033EF24801B
:101CFF00FF121E217F80121E21E4900651F09006E4
:101D0F0051E0C3942074809480500DE4FF121D8E17
:101D1F00900651E004F080E6900650E004F080BF9A
:011D2F002291
:0B16FD0090062FEFF0A3EDF0A3EBF040
:101708007F34121E217F36121E21E4900637F09096
:101718000631E0FF900637E0FEC39F40030217B191
:1017280090062FE02EFF121E217F80121E21E490CA
:101738000638F0900630E0FF900638E0FDC39F5071
:1017480012900637E0900632121D71900638E004B8
:10175800F080E0E4900635F0A3F0900630E0F9FF61
:10176800900635E0FAA3E0FBC39FEA94005031905D
:101778000631E0FF900637E02FFFE433FEE9FD7CF9
:1017880000120949EB2FFFEA3EFE900632121D7E39
:10179800900636E004F07006900635E004F080BA52
:0E17A800900637E004F00217177F30021E2172
:101ED200900652EFF0A3EDF07F34121E21900653CC
:0D1EE200E0FF121E21900652E0FF021E21BB
:0B191300900639EFF0A3EDF0A3EBF01D
:10191E00E4900640F090063CE0FF900640E0FEC3E7
:10192E009F5068EEFF90063AE0FD2FFFE433FEC3B2
:10193E00EF9420EE64809480900639E0500BC454EE
:10194E000F2480FFED2480800AC4540F2488FFA347
:10195E00E02460FE900640E02EFD121ED2E49006BA
:10196E0041F090063BE0FF900641E0FDC39F501210
:10197E00900640E090063D121D71900641E004F085
:10198E0080E0900640E004F00219237F36121E21FB
:05199E007F30021E2154
:101DE900D2C3121E477F30121E21121E477F0212D4
:101DF9001E21121E477F0C121E21121E477F06123A
:101E09001E21121E477F80121E21121E477F0102CA
:021E19001E2188
:101EB200AD07AC06ECC313ED1375F008A42480FF44
:101EC200ED5401C454F02FFF121E217F0F021E2178
:071E4400E0F5A07F147E0011
:101E4B00E4FDFCC3ED9FEC9E5015E4FBFA0BBB00CD
:0F1E5B00010AEB64784A70F50DBD00010C80E4BC
:011E6A002255
:0A1F2B00E4FEEEC39F50030E80F8A1
:011F35002289
:100711000208EEE86480F8E933E83360110460F020
:10072100ED33EC337009E8FCE9FDEAFEEBFF22044E
:1007310060DED3EB9FEA9EE99DE8C2E78CF0C2F749
:1007410095F0400CE8CCF8E9CDF9EACEFAEBCFFB15
:100751001208B985D0F05804700320D5B3E80470AD
:10076100075002B2D50208F892D5EC0460F7E4CC48
:10077100C0E0C398F8603B94186008400DD0E0FBDE
:100781000208D0E4FBFAC9FC8028E830E406E4C999
:10079100FBE4CAFCE830E305E4C9CACBFCE8540732
:1007A1006010F8C3E913F9EA13FAEB13FBEC13FC3D
:1007B100D8F130F52FC3E49CFCEF9BFFEE9AFEEDE0
:1007C10099FDD0E0FBEF4E4D4C701222DB03020885
:1007D100F5EC2CFCEF33FFEE33FEED33FDED30E7AE
:1007E100EB0208D0EF2BFFEE3AFEED39FDD0E0FB36
:1007F10050130BBB00030208F8ED13FDEE13FEEFDF
:0808010013FFEC13FC0208D008
:1008090074F8CC6480CCC86480C8F58204604FC396
:10081900EB9FF5F0EA9E42F0E99D42F0E89C45F035
:10082900603C501DE5825FFFE582D313CB5BCBF4BF
:100839002B5582FB50280ABA002409B900200880E8
:100849001DE5825BFBE582D313CF5FCFF4C3132F82
:100859005582FF50090EBE00050DBD00010CC3EB0A
:100869009FF5F0EA9E42F0E99D42F0E89C45F06070
:0908790007CC4820E701B3EC2292
:10088200EDD2E7CD33EC3392D524814006E4FFFE6E
:10089200FDFC22FCE4CFCECDCC24E0501174FF80CD
:1008A200EDC3CC13CCCD13CDCE13CECF13CF04706A
:0708B200F030D5DE020971F0
:1008B900E9D2E7C933E833F892D5EDD2E7CD33EC85
:0708C90033FC5002B2D522FE
:1008D000EC30E7100FBF000C0EBE00080DBD000489
:1008E0000BEB6014A2D5EB13FCED92E7FD2274FF35
:1008F000FCFDFEFF22E480F8A2D574FF13FC7D808E
:03090000E480EFA1
:030000000219A33F
:0C19A300787FE4F6D8FD7581070219EA90
:10090300BB010689828A83E0225002E722BBFE02F2
:09091300E32289828A83E4932225
:10091C00BB010CE58229F582E5833AF583E0225090
:10092C0006E92582F8E622BBFE06E92582F8E222DA
:0D093C00E58229F582E5833AF583E49322F4
:10094900EF8DF0A4A8F0CF8CF0A428CE8DF0A42EC2
:02095900FE227C
:10095B00A3F8E0C5F025F0F0E5821582700215834F
:06096B00E0C838F0E822AC
:0E097100C3E49FFFE49EFEE49DFDE49CFC2297
:0C097F00ECF0A3EDF0A3EEF0A3EFF022EB
:10098B00D083D082F8E4937012740193700DA3A3FB
:10099B0093F8740193F5828883E47374029368600F
:0609AB00EFA3A3A380DF0F
:101BB100900625EBF0A3EAF0A3E9F0E490062DF0FE
:101BC100A3F090062B74FFF5F012095B45F0603C21
:101BD100900628E0FBA3E0FAA3E0F9120903FF90C5
:101BE1000625E0FBA3E0FAA3E0F990062DE475F0E9
:101BF1000112095B85F082F583EF1209DDEF60C206
:101C0100900629E475F0011209FF80B6900625E0DF
:081C1100FBA3E0FAA3E0F922B5
:1009B100EF4E6012EF60010EEDBB010B89828A835D
:1009C100F0A3DFFCDEFA2289F05007F709DFFCA96A
:0C09D100F022BBFEFCF309DFFCA9F022C1
:1019AF00021458E493A3F8E493A34003F68001F2E2
:1019BF0008DFF48029E493A3F85407240CC8C33339
:1019CF00C4540F4420C8834004F456800146F6DF08
:1019DF00E4800B0102040810204080901D30E47E4B
:1019EF00019360BCA3FF543F30E509541FFEE493FD
:1019FF00A360010ECF54C025E060A840B8E493A3C4
:101A0F00FAE493A3F8E493A3C8C582C8CAC583CAEE
:101A1F00F0A3C8C582C8CAC583CADFE9DEE780BEA6
:011D70000072
:1009DD00F8BB010DE58229F582E5833AF583E8F050
:1009ED00225006E92582C8F622BBFE05E92582C8FC
:0209FD00F222E4
:1009FF00C5F0F8A3E028F0C5F0F8E5821582700283
:060A0F001583E038F0221F
:00000001FF
