:10000E00D5E3BDADB4F3D1A7B9E2B5E7D1A7D4BA64
:10001E0000B5E7D7D3CFDFC2B7C9E8BCC6003837C3
:10002E0039353131393700D2BABEA7CFD4CABEB3B3
:10003E00C9B9A600B2CBB5A500312EB2A5B7C5D2AF
:10004E00F4C0D600322EB5AFD7E0C4A3CABD00337C
:10005E002ECFC2D2BBD2B300342EC2BCD2F4C4A3B4
:10006E00CABD00352EB2A5B7C5C2BCD2F400362E1D
:10007E00C9CFD2BBD2B300372ECFC2D2BBD2B300C0
:10008E00382EC1B7CFB0C4A3CABD00392EC9CFD246
:10009E00BBD2B300C2BCD2F4C4A3CABD00312EBFC2
:1000AE00AACABCC2BCD2F400B0B4C6E4CBFBBCFC42
:1000BE00B7B5BBD800B0B4C8CED2E2BCFCBDE1CA65
:1000CE00F8C2BCD2F400C2BCD2F4CDEAB3C900B8B7
:1000DE00DFD2F400D6D0D2F400B5CDD2F400B2A562
:1000EE00B7C5C2BCD2F400B0B4C8CED2E2BCFCB725
:1000FE00B5BBD8004572726F722100526967687481
:10010E0021004572726F72204E756D6265722069A4
:10011E007300312ED0C2B1A6B5BA00322EB0AEBA2F
:10012E00D300332ED7A3C4E3C6BDB0B200342ECC59
:10013E00ECBFD5D6AEB3C700310032003300340069
:10014E003500360037001C80204026202B40302002
:10015E0039A04020394030402B4030202B402680A3
:10016E0020202620202026201CFE20FE392026209E
:10017E002B202610203026202B2026243920262026
:10018E002B202610203026202B2026243920262016
:10019E002B202610203026202B2026243920262006
:1001AE002B202610203026202B20260BFF260BFF7F
:1001BE0026A030202020241026B03020202024100D
:1001CE0026101C2026202B202B202B1030102B101D
:1001DE00302026E0260BFF260BFF26A03020202005
:1001EE00241026B030202020241026301C2026205B
:1001FE002B202B202B1030102B10300BFF301030FB
:10020E00FF0030202B202620262020201C201C30F2
:10021E003010302026202B20302030202B2026405E
:10022E0030202B202620262020201C201C30301091
:10023E00302026202B203020302032203020002667
:10024E002020202020261020102080262030203034
:10025E00203910301030802620202020201C202015
:10026E00802B20262020202B1026102B802620309D
:10027E0020302039102610266040103910262030EC
:10028E0020302039102610268026202B102B102BE4
:10029E00203010391026102B102B202B4040202000
:1002AE001020102B102630308018201820262020E9
:1002BE0020204026202B20302030201C20202020E3
:1002CE00801C201C201C2030203060391030102063
:1002DE00202B1026102B10261026102B102B8018DA
:1002EE0020182026202020206026102B20302030A1
:1002FE00201C202020208026203010301030203965
:10030E002026102B102B202B4040104010201020A8
:10031E00102B102630308000263026301C40203026
:10032E001C301830206026302630244026302430F1
:10033E001840266018201820182019402430243028
:10034E00193019601C30193018401930183013301C
:10035E001960263026301C4020301C30183020808A
:10036E00263024302430183019201930183015203A
:10037E00152013201840183019301C201C2019305D
:10038E0020301C60183015301340153013301030EB
:10039E0015602030203018301930183013301360AB
:1003AE001C20192018301930152015201840203027
:1003BE002030123013301530183013C01380133024
:1003CE000E801030103013201520184018301530C4
:1003DE001820152015301030136013300E60106089
:1003EE001320152018401830153015201820153000
:1003FE0019301C601C3019301CC0000001000200B6
:10040E000300040005FFFFFFFFFFFFFFFE0FFFFFCE
:10041E00FFFFFFFFFFFFFFFFFFFFFFFFF801FFFFE3
:10042E00FFFFFFFFFFFFFFFFFFA000FFF0007F00B9
:10043E000003FFFFFFFFFFFFC000001FE0003800BA
:10044E000003FFFFFFFFFFFFC000000FE000700082
:10045E000007FFFFFFFFFFFFE0000007C003E00003
:10046E000007FFFFFFFFFFFFF0000003C00FC000FB
:10047E00001FFFFFFFFFFFFFFC000003C007C000CF
:10048E00003FFFFFFFFFFFFFFFC00001C00780001E
:10049E00FBFFFFFFFFFFFFFFFFFF00018003800058
:1004AE00FFFFFFFFFFFFFFFFFFFF80008003000045
:1004BE00FFFFFFFFFFFFFFFFFFEF800000030000C5
:1004CE00017FFFFFFFFFFFFFFE00000000000000A6
:1004DE00007FFFFFFFFFFFFFFF0000000000000096
:1004EE0000FFFFFFFFFFFFFFFF8000000000000086
:1004FE0000FFFFFFFFFFFFFFFFC000000000000036
:10050E0001FFFFFFFFFFFFFFFFE000000000000004
:10051E0003FFFFFFFFFFFFFFFFFC60000000000472
:10052E001FFFFFFFFFFFFFFFFFFFF0000000000FA8
:10053E00FFFFFFFFFFFFFFFFFFFFF8000000000FB0
:10054E00FFFFFFFFFFFFFFFFFFFFF8000000001F90
:10055E00FFFFFFFFFFFFFFFFFFFC0000000000009A
:10056E00BFFFFFFFFFFFFFFFFFFC000000000000CA
:10057E003FFFFFFFFFFFFFFFFFFE00000000000038
:10058E007FFFFFFFFFFFFFFFFFFE000000000000E8
:10059E007FFFFFFFFFFFFFFFFFFF80000000000156
:1005AE00FFFFFFFFFFFFFFFFFFFFE0000000004F18
:1005BE00FFFFFFFFFFFFFFFFFFFFFF00000000FF39
:1005CE00FFFFFFFFFFFFFFFFFFFFFF80000000FFA9
:1005DE00FFFFFFFFFFFFFFFFFFFFFF80000000FF99
:1005EE00FFFFFFFFFFFFFFFFFFFFE0000000000324
:1005FE00FFFFFFFFFFFFFFFFFFFFF0000000000700
:10060E00FFFFFFFFFFFFFFFFFFFFF0000000000FE7
:10061E00FFFFFFFFFFFFFFFFFFFFF8000000000FCF
:10062E00FFFFFFFFFFFFFFFFFFFFFE000000003F89
:10063E00FFFFFFFFFFFFFFFFFFFFFFE0000007FFD1
:10064E00FFFFFFFFFFFFFFFFFFFFFFF000000FFFA9
:10065E00FFFFFFFFFFFFFFFFFFFFFFF000000FFF99
:10066E00FFFFFFFFFFFFFFFFFFFFFF00000000FF88
:10067E00FFFFFFFFFFFFFFFFFFFFFF00000000FF78
:10068E00FFFFFFFFFFFFFFFFFFFFFF80000001FFE7
:10069E00FFFFFFFFFFFFFFFFFFFFFFC0000001FF97
:1006AE00FFFFFFFFFFFFFFFFFFFFFFE0000003FF65
:1006BE00FFFFFFFFFFFFFFFFFFFFFFFE00001FFF1B
:1006CE00FFFFFFFFFFFFFFFFFFFFFFFF0000FFFF2A
:1006DE00FFFFFFFFFFFFFFFFFFFFFFFF8001FFFF99
:1006EE00FFFFFFFFFFFFFFFFFFFFFFFF8001FFFF89
:1006FE00FFFFFFFFFFFFFFFFFFFFFFFF8001FFFF79
:10070E00FFFFFFFFFFFFFFFFFFFFFFFF0000FFFFE9
:10071E00FFFFFFFFFFFFFFFFFFFFFFFE00007FFF5A
:10072E00FFFFFFFFFFFFFFFFFFFFFFFE00007FFF4A
:10073E00FFFFFFFFFFFFFFFFFFFFFFFF0000FFFFB9
:10074E00FFFFFFFFFFFFFFFFFFFFFFFF8000FFFF29
:10075E00FFFFFFFFFFFFFFFFFFFFFFFF8001FFFF18
:10076E00FFFFFFFFFFFFFFFFFFFFFFFFC003FFFFC6
:10077E00FFFFFFFFFFFFFFFFFFFFFFFFE003FFFF96
:10078E00FFFFFFFFFFFFFFFFFFFFFFFFE007FFFF82
:10079E00FFFFFFFFFFFFFFFFFFFFFFFFF007FFFF62
:1007AE00FFFFFFFFFFFFFFFFFFFFFFFFF80FFFFF42
:1007BE00FFFFFFFFFFFFFFFFFFFFFFFFF81FFFFF22
:1007CE00FFFFFFFFFFFFFFFFFFFFFFFFFC1FFFFF0E
:1007DE00FFFFFFFFFFFFFFFFFFFFFFFFFE3FFFFFDC
:1007EE00FFFFFFFFFFFFFFFFFFFFFFFFFE7FFFFF8C
:1007FE00FFFFFFFFFFFFFFFFFFFFFFFFFF7FFFFF7B
:0D080E00FFFFFFFFFF0000000000003700AB
:102629004805FE000000BC00F901D25501FA6056C8
:102639004C48403932302B2624201C191815131206
:10264900100E0D4401F640E0000041000001420572
:0C265900FAFFFF4205FC00004105F800FC
:03000B0002277950
:10277900C0E0C083C082758CDC758A00900001E0DE
:0927890004F0D082D083D0E032CC
:101A430012266690060974FFF0A37404F0A37413BE
:101A5300F07B207D107F801220CBE4F5C975CA305E
:101A630075B3C0F5B4F5B1F5B212266690063374BA
:101A7300FFF0A37400F0A3740EF07B10E4FD7F016C
:101A830012248A90063374FFF0A37400F0A3741F2A
:101A9300F07B0C7D017F0212248A90063374FFF0E1
:101AA300A37400F0A3742CF07B087D027F0312243F
:101AB3008A90063374FFF0A37400F0A37435F07BAF
:101AC3000C7D017F0412248A120000122792E4F590
:101AD300B3F5B4122666900000121B787590F012CD
:101AE3002792E59054F064F060F27F647E00122642
:101AF300A9E59054F064F060721222A09004FDEF07
:101B0300F0E59054F064F060057590F080F3900474
:101B1300FDE0120BFF1B370B1B3E0C1B430D1B453C
:101B23000E1B4A151B4F161B56171B5D181B651FF3
:101B330000001B6E120000C2C58022120000801D2F
:101B43008020120CDE801612201080119000007489
:101B53000180149000007403800D121F5090000048
:101B630080069000007402F0121B787FC47E091275
:051B730026A9021ADFA3
:0D27BD0075890175A882758CDCE4F58A220F
:10279200E5C030E604D2CC8002C2CCE5C030E7030B
:0627A200D2CD22C2CD22BF
:10167B00900640E4F0A304F0E4A3F0A3F0EF25E020
:10168B0024FEF582E43405F583E0FEA3E0FF90062B
:10169B003EEEF0A3EFF090063CEEF0A3EFF012134A
:1016AB005D9006337401F0A37402F0A3740FF0A3E2
:1016BB00E4F0A37410F07B017A0679441224229093
:1016CB0006337401F0A37406F0A37444F07B10E4AA
:1016DB00FD7F0212248A9006337401F0A37400F08C
:1016EB00A374FCF0A3E4F0A37410F07B017A0679E9
:1016FB00441224229006337401F0A37406F0A374F1
:10170B0044F07B10E4FD7F0312248A9006337401AE
:10171B00F0A37400F0A37402F0A3E4F0A37410F030
:10172B007B017A0679441224229006337401F0A3CC
:10173B007406F0A37444F07B10E4FD7F0412248A3A
:10174B000218DE90063CE475F001120BCFFE7454C8
:10175B0025F0F58274013EF583E49390063AF0E0B0
:10176B00F4700AC28C7F64FE1226A980D690063ACA
:10177B00E070030218F490063CE475F001120BCFF5
:10178B00FE745425F0F58274013EF583E4939006C4
:10179B003BF0D28CB2C590063A1226A5900001E020
:1017AB00FF90063BE06F60030218E690063EE0FEFA
:1017BB00A3E0FFC390063DE09FFF90063CE09EFE3A
:1017CB00EF25E0FFEE33FE74092FF58274033EF52F
:1017DB0083E0FCA3E0FD900641E0C4F8540FC86819
:1017EB00FF900640E0C454F048FED3ED9FEC9E50B2
:1017FB00030218DE900643E02410F0900642E0341A
:10180B0000F0900641E004F07006900640E004F012
:10181B00900642E0FEA3E0240FF974023EFA900614
:10182B00337401F0A3EAF0A3E9F0A3E4F0A374107E
:10183B00F07B017A0679441224229006337401F06E
:10184B00A37406F0A37444F07B10E4FD7F02122412
:10185B008A900642E0FEA3E024FCF974003EFA9065
:10186B0006337401F0A3EAF0A3E9F0A3E4F0A37448
:10187B0010F07B017A06794412242290063374010E
:10188B00F0A37406F0A37444F07B10E4FD7F031205
:10189B00248A900642E0FEA3E02402F974003EFA8B
:1018AB009006337401F0A3EAF0A3E9F0A3E4F0A3EC
:1018BB007410F07B017A067944122422900633745B
:1018CB0001F0A37406F0A37444F07B10E4FD7F04D5
:1018DB0012248AE4900001F002174E7590F0E59007
:0918EB0054F064F0700302179F31
:0118F40022D1
:0927D50075B0FFE5B054F0FF22DD
:1022A000E4900609F0A3F07590F0E59054F0FF5427
:1022B000F064F07002FF2275900FE590540F4FF418
:1022C000120BFF22F711230312230F14231B1822D2
:1022D000FA21230622231224231E2822FD4123094A
:1022E00042231544232148230081230C8223188490
:1022F000232488000023277F0B227F0C227F0D22BE
:102300007F0E227F15227F16227F17227F18227FC1
:102310001F227F20227F21227F22227F29227F2AC3
:09232000227F2B227F2C227F007A
:012329002291
:10269800E0FEA3E024F9F58274013EF583E0FF7EB5
:0126A8000031
:1026A900E4FDFCC3ED9FEC9E5015E4FBFA0BBB0067
:0F26B900010AEB64024A70F50DBD00010C80E4CC
:0126C80022EF
:061B7800E0FF3395E0FEE2
:101B7E00900606EEF0A3EFF0122666900606E0FE43
:101B8E00A3E0FFEE6003021C86EF24FE606114707A
:101B9E0003021C5824026003021C8690063374FF55
:101BAE00F0A37400F0A37442F07B047D037F011256
:101BBE00248A90063374FFF0A37400F0A37447F0E8
:101BCE007B0AE4FD7F0212248A90063374FFF0A391
:101BDE007400F0A37452F07B0AE4FD7F0312248A92
:101BEE0090063374FFF0A37400F0A3745D805290DE
:101BFE00063374FFF0A37400F0A37466F07B0AE45E
:101C0E00FD7F0112248A90063374FFF0A37400F056
:101C1E00A37471F07B0AE4FD7F0212248A900633CE
:101C2E0074FFF0A37400F0A3747CF07B08E4FD7FD6
:101C3E000312248A90063374FFF0A37400F0A37489
:101C4E0085F07B08E4FD7F04802B90063374FFF053
:101C5E00A37400F0A3748EF07B0AE4FD7F011224BE
:101C6E008A90063374FFF0A37400F0A37499F07B8E
:091C7E0008E4FD7F0212248A2211
:100CDE00E4900606F0A3F0A3F09005FCF0A3F074E8
:100CEE00FF9005FAF0A3F0E49005F8F012279212A7
:100CFE00266690063374FFF0A37400F0A374A2F07E
:100D0E007B087D027F0112248A90063374FFF0A3C4
:100D1E007400F0A374ABF07B0AE4FD7F0212248A08
:100D2E0090063374FFF0A37400F0A374B6F07B0C3E
:100D3E007D017F0412248A900606E070387590F0CB
:100D4E00E59054F064F060EF7F647E001226A9E512
:100D5E009054F064F060151222A09004FDEFF02480
:100D6E00F5600302103B9006067401F07F647E006E
:100D7E001226A980C27E007FFA7D007B017A04795B
:100D8E00FE120C2512266690063374FFF0A3740033
:100D9E00F0A374C3F07B10E4FD7F0412248AE49068
:100DAE000001F01227BD7590F0E59054F064F060EC
:100DBE00667F647E001226A9E59054F064F06050C0
:100DCE001222A09004FDEFF090063374FFF0A3748E
:100DDE0000F0A374D4F07B08E4FD7F0312248A9004
:100DEE0005F8E0FF900607E0FCA3E0FD24FEF58287
:100DFE0074043CF583EFF09005FAA3E0FFA3A3E0A3
:100E0E00C39FFF74FF2DF58274043CF583EFF0222F
:100E1E007F647E001226A97580FF122792A2CDE470
:100E2E00FE33FF7C007D07120B87EF2407FBE43EA9
:100E3E00FAA2CCE4FE33FF120B87C3EB9FFDEA9EB2
:100E4E00FC1209919001F6120BF3E4FFFE7D607C1B
:100E5E00419001F6E0F8A3E0F9A3E0FAA3E0FB125B
:100E6E000913700F90063374FFF0A37400F0A3748F
:100E7E00DD804EE4FFFE7DE07C409001F6E0F8A3BD
:100E8E00E0F9A3E0FAA3E0FB120913700F9006330A
:100E9E0074FFF0A37400F0A374E28025E4FFFEFD5E
:100EAE00FC9001F6E0F8A3E0F9A3E0FAA3E0FB1250
:100EBE000913701790063374FFF0A37400F0A37437
:100ECE00E7F07B047D037F0212248AE58030E02C5C
:100EDE00E4FFFE7DE07C409001F6E0F8A3E0F9A38C
:100EEE00E0FAA3E0FB1208221209CAAD07AC069085
:100EFE000607E0FAA3E0FB7F0102102DE58030E14A
:100F0E002CE4FFFE7DC07C409001F6E0F8A3E0F9F2
:100F1E00A3E0FAA3E0FB1208221209CAAD07AC0641
:100F2E00900607E0FAA3E0FB7F0202102DE5803069
:100F3E00E22CE4FFFE7DA07C409001F6E0F8A3E0F9
:100F4E00F9A3E0FAA3E0FB1208221209CAAD07AC1E
:100F5E0006900607E0FAA3E0FB7F0402102DE58061
:100F6E0030E32CE4FFFE7D807C409001F6E0F8A398
:100F7E00E0F9A3E0FAA3E0FB1208221209CAAD07BA
:100F8E00AC06900607E0FAA3E0FB7F0802102DE501
:100F9E008030E42BE4FFFE7D407C409001F6E0F8CB
:100FAE00A3E0F9A3E0FAA3E0FB1208221209CAADEE
:100FBE0007AC06900607E0FAA3E0FB7F108060E521
:100FCE008030E52AE4FFFEFD7C409001F6E0F8A3B8
:100FDE00E0F9A3E0FAA3E0FB1208221209CAAD075A
:100FEE00AC06900607E0FAA3E0FB7F208031E58097
:100FFE0020E603020DB4E4FFFE7D807C3F9001F6F7
:10100E00E0F8A3E0F9A3E0FAA3E0FB12082212092C
:10101E00CAAD07AC06900607E0FAA3E0FB7F4012CC
:0D102E001D7B900607EEF0A3EFF0020DB45D
:01103B002292
:101D7B00900609EFF0A3ECF0A3EDF0A3EAF0A3EBD0
:011D8B00F067
:101D8C00780E7C067D017BFF7A0879197E007F0234
:101D9C00120B1B9005FAE0FEA3E0FFF47002EEF4C8
:101DAC00602B9005F8E0FD90060CE0FAA3E0FB2414
:101DBC00FEF58274043AF583EDF0900001E0C39FC8
:101DCC00FF74FF2BF58274043AF583EFF090060A4A
:101DDC00E0FEA3E0FF7C007D07120B99AE04AF057B
:101DEC00EF4E60127B017A06790E900000E4F0A3AE
:101DFC00740AF01200009006337401F0A37406F01C
:101E0C00A3740EF07B017D047F0312248A7580FF7E
:101E1C00900001E0FF9005FAE4F0A3EFF0900609C2
:101E2C00E05580600BB2C5A31226987580FF80ED3B
:101E3C00900001E0FF9005FCE4F0A3EFF090060A9F
:101E4C00E0FEA3E024F9F58274013EF583E09005F1
:101E5C00F8F090060DE02402FF90060CE03400FE32
:011E6C002253
:1020100012279212266690063374FFF0A37400F024
:10202000A374ECF07B087D027F0112248A900633B2
:1020300074FFF0A37400F0A374F5F07B0C7D017FB6
:102040000412248A1227BD900607E4F0A37402F05C
:10205000E4900001F0900607E475F001120BCFFE4A
:1020600074FE25F0F58274043EF583E0900606F0D8
:10207000E0F9F4700AC28C7F64FE1226A980D6E9CA
:102080006048900606E0FF7B037A007D027C001228
:1020900018F5900607E475F001120BCFFE74FE25CB
:1020A000F0F58274043EF583E0F9D28CB2C5900657
:1020B000061226A5900001E0B50104E4F0809675B3
:0A20C00090F0E59054F064F060E247
:0120CA0022F3
:08135D00900630EEF0A3EFF062
:10136500900634EEF0A3EFF0E4A3F0A3F0021661CB
:10137500900632E0F9700302167A900636E0FCA377
:10138500E0FD900630E0FEA3E0FFC3900635E09F48
:10139500FF900634E09EFEEF25E0FFEE33FE740974
:1013A5002FF58274033EF583ECF0A3EDF0E9120B03
:1013B500FF14780D14630E144E10143912142413EF
:1013C500140F1513F91814781914631C144E2014EE
:1013D5003924142426140F2B13F93014783214638E
:1013E50039144E4014394814244C140F5613F9601F
:1013F5000000148D900636E0FEA3E024FCF582740F
:10140500003EF5837431F002149E900636E0FEA38B
:10141500E024FCF58274003EF5837432F0807A9006
:101425000636E0FEA3E024FCF58274003EF58374E5
:1014350033F08065900636E0FEA3E024FCF5827467
:10144500003EF5837434F08050900636E0FEA3E04C
:1014550024FCF58274003EF5837435F0803B9006DC
:1014650036E0FEA3E024FCF58274003EF583743675
:10147500F08026900636E0FEA3E024FCF582740099
:101485003EF5837437F08011900635E004F0700660
:10149500900634E004F0021661900632E0FFF47025
:1014A50003021375C3EF943274809480401D900637
:1014B50036E0FEA3E0FF2402F58274003EF5837456
:1014C5002EF0740F2FF58274028035900632E0D32A
:1014D500941874809480900636E0FEA3E0FF500DCA
:1014E500240FF58274023EF583742E800B240FF5CC
:1014F5008274023EF5837420F074022FF582740025
:101505003EF5837420F0900635E004F070069006F1
:1015150034E004F0900634E0FEA3E02454F5827430
:10152500013EF583E493FF900633F07E006420705E
:101535002D900635E004F07006900634E004F09036
:101545000637E004F07006900636E004F0900634A5
:10155500E0FCA3E02454F58274013C02166FEF64AD
:10156500104E7016900636E0FEA3E02402F5827454
:10157500003EF583742DF0021645900633E0FF7E9C
:101585000064087016900636E0FCA3E02402F5829C
:1015950074003CF583743DF0021645EF64304E70DF
:1015A5003E900637E004F07006900636E004F090B1
:1015B5000636E0FEA3E0FF24FCF58274003EF583C9
:1015C500742EF074022FF58274003EF5837420F0BA
:1015D500740F2FF58274023EF5837420F0806190BC
:1015E5000633E0C39440748094804054804C900648
:1015F50033E0C39420748094804045900637E0041E
:10160500F07006900636E004F0900636E0FEA3E0A2
:10161500FF24FCF58274003EF583742DF074022FCF
:10162500F58274003EF5837420F0740F2FF58274F3
:10163500023EF5837420F0900633E024E0F080AE9E
:10164500900635E004F07006900634E004F090064C
:1016550037E004F07006900636E004F0900634E0BA
:10166500FEA3E02454F58274013EF583E4939006CD
:0516750032F0021375C4
:01167A00224D
:1025A100900630ECF0A3EDF0A3EAF0A3EBF0A9075D
:1025B100800DE58059600DB2C590063012269875E0
:1025C10080FF80EE900630E0FEA3E024F9F58274EE
:1025D100013EF583E0FF900632E0B40008A3E0B5C8
:0825E10007037F00227F0122A5
:10103C00E4900623F0A3F090062FF090060BF0A39B
:10104C0004F0E4A3F0A3F0EF25E0FFEE33FE74FE12
:10105C002FF58274053EF583E0FEA3E0FF900609B0
:10106C00EEF0A3EFF0900607EEF0A3EFF012135D95
:10107C009006337401F0A37402F0A3740FF0A3E490
:10108C00F0A37410F07B017A06790F1224229006DB
:10109C00337401F0A37406F0A3740FF07B10E4FD1D
:1010AC007F0212248A9006337401F0A37400F0A31B
:1010BC0074FCF0A3E4F0A37410F07B017A06790FB2
:1010CC001224229006337401F0A37406F0A3740F5B
:1010DC00F07B10E4FD7F0312248A9006337401F038
:1010EC00A37400F0A37402F0A3E4F0A37410F07BDB
:1010FC00017A06790F1224229006337401F0A3743E
:10110C0006F0A3740FF07B10E4FD7F0412248A9088
:10111C000607E0FEA3E02454F58274013EF583E457
:10112C0093900606F0900606E070030212E9F47044
:10113C0024900608E004F07006900607E004F09096
:10114C000607E0FEA3E02454F58274013EF583E427
:10115C0093900606F0122792A2CDE4FE33FF7C009A
:10116C007D07120B87AA06AB07A2CCE4FE33FF1255
:10117C000B87C3EF9BFDEE9AFC1209919001F612BE
:10118C000BF37580FFE58030E02BE4FFFE7DE07C07
:10119C00409001F6E0F8A3E0F9A3E0FAA3E0FB121B
:1011AC0008221209CAAD07AC06900606E0FB7A00CD
:1011BC007F010212DEE58030E12BE4FFFE7DC07C76
:1011CC00409001F6E0F8A3E0F9A3E0FAA3E0FB12EB
:1011DC0008221209CAAD07AC06900606E0FB7A009D
:1011EC007F020212DEE58030E22BE4FFFE7DA07C64
:1011FC00409001F6E0F8A3E0F9A3E0FAA3E0FB12BB
:10120C0008221209CAAD07AC06900606E0FB7A006C
:10121C007F040212DEE58030E32BE4FFFE7D807C50
:10122C00409001F6E0F8A3E0F9A3E0FAA3E0FB128A
:10123C0008221209CAAD07AC06900606E0FB7A003C
:10124C007F080212DEE58030E42AE4FFFE7D407C5C
:10125C00409001F6E0F8A3E0F9A3E0FAA3E0FB125A
:10126C0008221209CAAD07AC06900606E0FB7A000C
:10127C007F10805EE58030E529E4FFFEFD7C409028
:10128C0001F6E0F8A3E0F9A3E0FAA3E0FB120822D0
:10129C001209CAAD07AC06900606E0FB7A007F2067
:1012AC008030E58020E603021161E4FFFE7D807C46
:1012BC003F9001F6E0F8A3E0F9A3E0FAA3E0FB12FB
:1012CC0008221209CAAD07AC06900606E0FB7A00AC
:1012DC007F401225A190062FEFF0021161122666B5
:1012EC0090063374FFF0A37401F0A37410F07B101C
:1012FC00E4FD7F0112248A900623E0FEA3E0FF7B2D
:10130C00017A067925900000E4F0A3740AF012002B
:10131C00007B017A0679251227A8AB079006337457
:10132C0001F0A37406F0A37425F0E4FD7F021224EF
:10133C008A7590F0E59054F064F060F57F647E005F
:10134C001226A9E59054F064F070051226A980E1EC
:01135C00226E
:101F500012266690063374FFF0A37401F0A3742078
:101F6000F07B08E4FD7F0112248A90063374FFF0B1
:101F7000A37401F0A37429F07B06E4FD7F02122410
:101F80008A90063374FFF0A37401F0A37430F07BE1
:101F90000AE4FD7F0312248A90063374FFF0A374D1
:101FA00001F0A3743BF07B0AE4FD7F0412248A75E0
:101FB00090F0122792E59054F064F060F57F647E13
:101FC000001226A9E59054F064F0603A1222A09025
:101FD00004FDEFF024F4601214601814601E240352
:101FE000702D122666E4FFFE80191226667F017EA0
:101FF0000080101226667F027E0080071226667F10
:10200000037E0002103C7FC47E091226A980A32211
:1018F500900614ECF0A3EDF0A3EAF0A3EBF090064C
:1019050013EFF0C39432748094804013A3A3E0FFD7
:1019150090063374FFF0A37400F0A374DD80339058
:101925000613E0D39418748094805013A3A3E0FFAA
:1019350090063374FFF0A37400F0A374E78013904E
:101945000614A3E0FF90063374FFF0A37400F0A320
:1019550074E2F07B047D0312248A900613E0120BD7
:10196500FF1A270D1A120E19FD1019E81219D313B3
:1019750019BE1519A9181A27191A121C19FD2019AB
:10198500E82419D32619BE2B19A9301A27321A12A1
:101995003919FD4019E84819D34C19BE5619A960E3
:1019A50000001A42900616A3E0FF90063374FFF07C
:1019B500A37401F0A37446807C900616A3E0FF9003
:1019C500063374FFF0A37401F0A374488067900692
:1019D50016A3E0FF90063374FFF0A37401F0A3741F
:1019E5004A8052900616A3E0FF90063374FFF0A3D9
:1019F5007401F0A3744C803D900616A3E0FF900699
:101A05003374FFF0A37401F0A3744E80289006167A
:101A1500A3E0FF90063374FFF0A37401F0A37450A4
:101A25008013900616A3E0FF90063374FFF0A374AD
:0E1A350001F0A37452F07B017D0412248A227A
:10271900C2C2C2C0D2C11226F5D2C2E4F596F5955D
:10272900900638E5A0F01226F5C2C2900638E020DE
:02273900E7DED9
:01273B00227B
:1025E900FEEF8EF0A47C002DFFEC35F0FEE0FBA39E
:0D25F900E0FAA3E0F98F828E83120B5AFFE7
:10260600900637EFF0122719D2C2D2C0C2C1759612
:10261600FFE4F5959006371226F2C2C27F147E00BB
:032626000226F990
:0626C90090066BE02FFFFC
:1026CF00900637EFF0122719D2C2C2C0C2C1759659
:1026DF00FFE4F5959006371226F2C2C27F147E00F2
:0326EF000226F9C7
:0B24F100900662EBF0A3EAF0A3E9F014
:1024FC001226CFE4900666F0900665E0FFA3E0FE9E
:10250C00C39F503F900662E0FBA3E0FAA3E0F9758D
:10251C00F002EEA4F58285F083122602900662E0AA
:10252C00FBA3E0FAA3E0F9900666E075F002A424A0
:10253C0001F582E435F0F583122602900666E0047C
:03254C00F080B567
:01254F002269
:07248A00900632EBF0AC07F5
:10249100ECFB7A0064017007ED2480900636F0EBC6
:1024A10064024A7007ED2490900636F0EC640370E4
:1024B10007ED2488900636F0EC64047007ED24984B
:1024C100900636F0900636E0FF1226CF900632E0F5
:1024D100601DA3E0FBA3E475F001120BCFA9F0FA94
:0F24E100120B41FF122606900632E014F080DD48
:0124F00022C9
:05232A00900667EFF0D2
:10232F00E4A3F0900668E0FFC39402748094805099
:10233F0036900667E02FFF1226CF7FFF122606E4A6
:10234F00FF122606900668E004F0E0FF900667E0B3
:10235F002FFF1226CFE4FF122606E4FF1226069067
:10236F000668E004F080BC9006687402F09006687E
:10237F00E0FFC3941074809480501B900667E02F89
:10238F00FF1226CFE4FF122606E4FF122606900660
:06239F0068E004F080D7A5
:0123A5002215
:0523A600900669EFF054
:1023AB00E4A3F090066AE0FFC39404748094805019
:1023BB0036900669E02FFF1226CF7FFF122606E428
:1023CB00FF12260690066AE004F0E0FF900669E033
:1023DB002FFF1226CFE4FF122606E4FF12260690EB
:1023EB00066AE004F080BC90066A7404F090066AFA
:1023FB00E0FFC3941074809480501B900669E02F0B
:10240B00FF1226CFE4FF122606E4FF1226069006E3
:06241B006AE004F080D726
:012421002298
:051E6D0090066BEFF090
:101E7200E4A3F090066CE0FFC39402748094805057
:101E82002A1226C97FFF122606E4FF1226069006B2
:101E92006CE004F0E0FF1226C9E4FF122606E4FF1C
:101EA20012260690066CE004F080C890066C74025C
:101EB200F090066CE0FFC394067480948050151273
:101EC20026C9E4FF122606E4FF12260690066CE0FD
:101ED20004F080DD90066BE02406FF1226CF7F1807
:101EE200122606E4FF12260690066BE02407FF1274
:101EF20026CF7F3C122606E4FF12260690066BE0F0
:101F02002408FF1226CF7F3C122606E4FF12260683
:101F120090066BE02409FF1226CF7F18122606E4F2
:101F2200FF12260690066C740AF090066CE0FFC35E
:101F320094107480948050151226C9E4FF1226066C
:0D1F4200E4FF12260690066CE004F080DD3E
:011F4F00226F
:051C870090066DEFF076
:101C8C00E4A3F090066EE0FFC3940474809480503B
:101C9C003690066DE02FFF1226CF7FFF122606E44A
:101CAC00FF12260690066EE004F0E0FF90066DE051
:101CBC002FFF1226CFE4FF122606E4FF1226069011
:101CCC00066EE004F080BC90066DE02404FF122642
:101CDC00CFE4FF122606E4FF12260690066DE024E0
:101CEC0005FF1226CFE4FF122606E4FF122606900B
:101CFC00066DE02406FF1226CF7F18122606E4FF9D
:101D0C0012260690066DE02407FF1226CF7F3C12A8
:101D1C002606E4FF12260690066DE02408FF122624
:101D2C00CF7F3C122606E4FF12260690066DE024B7
:101D3C0009FF1226CF7F18122606E4FF1226069002
:101D4C00066E740AF090066EE0FFC39410748094D3
:101D5C0080501B90066DE02FFF1226CFE4FF122659
:0E1D6C0006E4FF12260690066EE004F080D713
:011D7A002246
:102550007F341226CF7F361226CFE490066FF0909C
:10256000066FE0FFC39420748094805033EF248082
:10257000FF1226CF7F801226CFE4900670F09006DF
:1025800070E0C3942074809480500DE4FF122606FE
:10259000900670E004F080E690066FE004F080BFE3
:0125A0002218
:0B20CB00900606EFF0A3EDF0A3EBF091
:1020D6007F341226CF7F361226CFE490060EF0907C
:1020E6000608E0FF90060EE0FEC39F400302217F34
:1020F600900606E02EFF1226CF7F801226CFE490B0
:10210600060FF0900607E0FF90060FE0FDC39F5014
:102116001290060EE09006091225E990060FE004DB
:10212600F080E0E490060CF0A3F0900607E0F9FFDB
:1021360090060CE0FAA3E0FBC39FEA9400503190AE
:102146000608E0FF90060EE02FFFE433FEE9FD7C73
:1021560000120B87EB2FFFEA3EFE9006091225F6CA
:1021660090060DE004F0700690060CE004F080BACC
:0E21760090060EE004F00220E57F300226CF36
:10275C00900671EFF0A3EDF07F341226CF90067245
:0D276C00E0FF1226CF900671E0FF0226CF9D
:0B218400900658EFF0A3EDF0A3EBF085
:10218F00E490065FF090065BE0FF90065FE0FEC311
:10219F009F5068EEFF900659E0FD2FFFE433FEC31A
:1021AF00EF9420EE64809480900658E0500BC45456
:1021BF000F2480FFED2480800AC4540F2488FFA3CE
:1021CF00E02460FE90065FE02EFD12275CE490068F
:1021DF0060F090065AE0FF900660E0FDC39F50123A
:1021EF0090065FE090065C1225E9900660E004F02F
:1021FF0080E090065FE004F00221947F361226CF34
:05220F007F300226CF24
:10266600D2C31226F57F301226CF1226F57F02122C
:1026760026CF1226F57F0C1226CF1226F57F0612DC
:1026860026CF1226F57F801226CF1226F57F01026D
:0226960026CF4D
:10273C00AD07AC06ECC313ED1375F008A42480FFB1
:10274C00ED5401C454F02FFF1226CF7F0F0226CF79
:0726F200E0F5A07F147E005B
:1026F900E4FDFCC3ED9FEC9E5015E4FBFA0BBB0017
:0F270900010AEB64784A70F50DBD00010C80E405
:01271800229E
:0A27CA00E4FEEEC39F50030E80F8FA
:0127D40022E2
:10081B00020A36E86480F8E933E83360110460F0CB
:10082B00ED33EC337009E8FCE9FDEAFEEBFF220443
:10083B0060DED3EB9FEA9EE99DE8C2E78CF0C2F73E
:10084B0095F0400CE8CCF8E9CDF9EACEFAEBCFFB0A
:10085B00120A0185D0F05804700320D5B3E8047058
:10086B00075002B2D5020A4092D5EC0460F7E4CCF3
:10087B00C0E0C398F8603B94186008400DD0E0FBD3
:10088B00020A18E4FBFAC9FC8028E830E406E4C944
:10089B00FBE4CAFCE830E305E4C9CACBFCE8540727
:1008AB006010F8C3E913F9EA13FAEB13FBEC13FC32
:1008BB00D8F130F52FC3E49CFCEF9BFFEE9AFEEDD5
:1008CB0099FDD0E0FBEF4E4D4C701222DB03020A78
:1008DB003DEC2CFCEF33FFEE33FEED33FDED30E75B
:1008EB00EB020A18EF2BFFEE3AFEED39FDD0E0FBE1
:1008FB0050130BBB0003020A40ED13FDEE13FEEF8A
:08090B0013FFEC13FC020A18B3
:1009130074F8CC6480CCC86480C8F58204604FC38B
:10092300EB9FF5F0EA9E42F0E99D42F0E89C45F02A
:10093300603C501DE5825FFFE582D313CB5BCBF4B4
:100943002B5582FB50280ABA002409B900200880DD
:100953001DE5825BFBE582D313CF5FCFF4C3132F77
:100963005582FF50090EBE00050DBD00010CC3EBFF
:100973009FF5F0EA9E42F0E99D42F0E89C45F06065
:0909830007CC4820E701B3EC2287
:10098C0075F020800E75F010800575F0087D007EE6
:10099C00007F003392D530D503120BE5EC334010B9
:1009AC00EF33FFEE33FEED33FDEC33FCD5F0ED22EF
:0E09BC00E5F0247EA2D513CC92E7CDCEFF222B
:1009CA00EDD2E7CD33EC3392D524814006E4FFFE25
:1009DA00FDFC22FCE4CFCECDCC24E0501174FF8084
:1009EA00EDC3CC13CCCD13CDCE13CECF13CF047021
:0709FA00F030D5DE020BE531
:100A0100E9D2E7C933E833F892D5EDD2E7CD33EC3B
:070A110033FC5002B2D522B4
:100A1800EC30E7100FBF000C0EBE00080DBD00043F
:100A28000BEB6014A2D5EB13FCED92E7FD2274FFEB
:100A3800FCFDFEFF22E480F8A2D574FF13FC7D8044
:030A4800E480EF58
:03000000022214C5
:0C221400787FE4F6D8FD75810702225B9C
:100A4B00E709F608DFFA8046E709F208DFFA803E8D
:100A5B0088828C83E709F0A3DFFA8032E309F6087A
:100A6B00DFFA8078E309F208DFFA807088828C83E2
:100A7B00E309F0A3DFFA806489828A83E0A3F60896
:100A8B00DFFA805889828A83E0A3F208DFFA804C70
:100A9B0080D280FA80C680D4806980F28033801047
:100AAB0080A680EA809A80A880DA80E280CA8033B0
:100ABB0089828A83ECFAE493A3C8C582C8CCC58328
:100ACB00CCF0A3C8C582C8CCC583CCDFE9DEE780F8
:100ADB000D89828A83E493A3F608DFF9ECFAA9F077
:100AEB00EDFB2289828A83ECFAE0A3C8C582C8CCCD
:100AFB00C583CCF0A3C8C582C8CCC583CCDFEADEE6
:100B0B00E880DB89828A83E493A3F208DFF980CC47
:100B1B0088F0EF60010E4E60C388F0ED2402B40440
:100B2B000050B9F582EB2402B4040050AF232345E7
:060B3B008223900A9B7367
:100B4100BB010689828A83E0225002E722BBFE02B2
:090B5100E32289828A83E49322E5
:100B5A00BB010CE58229F582E5833AF583E0225050
:100B6A0006E92582F8E622BBFE06E92582F8E2229A
:0D0B7A00E58229F582E5833AF583E49322B4
:100B8700EF8DF0A4A8F0CF8CF0A428CE8DF0A42E82
:020B9700FE223C
:100B9900C2D5EC30E709B2D5E4C39DFDE49CFCEE77
:100BA90030E715B2D5E4C39FFFE49EFE120C73C370
:100BB900E49DFDE49CFC8003120C7330D507C3E46B
:060BC9009FFFE49EFE22E6
:100BCF00A3F8E0C5F025F0F0E582158270021583D9
:060BDF00E0C838F0E82236
:0E0BE500C3E49FFFE49EFEE49DFDE49CFC2221
:0C0BF300ECF0A3EDF0A3EEF0A3EFF02275
:100BFF00D083D082F8E4937012740193700DA3A385
:100C0F0093F8740193F5828883E473740293686098
:060C1F00EFA3A3A380DF98
:10242200900630EBF0A3EAF0A3E9F0E4900638F06E
:10243200A3F090063674FFF5F0120BCF45F0603C26
:10244200900633E0FBA3E0FAA3E0F9120B41FF9000
:102452000630E0FBA3E0FAA3E0F9900638E475F059
:1024620001120BCF85F082F583EF120C51EF60C29F
:10247200900634E475F001120CC880B6900630E084
:08248200FBA3E0FAA3E0F9223C
:1027A800E4FFFE120B41600C0FEF70010E09E97097
:0527B800F20A80EF228F
:100C2500EF4E6012EF60010EEDBB010B89828A83E6
:100C3500F0A3DFFCDEFA2289F05007F709DFFCA9F3
:0C0C4500F022BBFEFCF309DFFCA9F0224A
:10222000021A43E493A3F8E493A34003F68001F277
:1022300008DFF48029E493A3F85407240CC8C333BF
:10224000C4540F4420C8834004F456800146F6DF8E
:10225000E4800B0102040810204080902629E47ECF
:10226000019360BCA3FF543F30E509541FFEE49383
:10227000A360010ECF54C025E060A840B8E493A34A
:10228000FAE493A3F8E493A3C8C582C8CAC583CA75
:10229000F0A3C8C582C8CAC583CADFE9DEE780BE2D
:012665000074
:100C5100F8BB010DE58229F582E5833AF583E8F0D9
:100C6100225006E92582C8F622BBFE05E92582C885
:020C7100F2226D
:100C7300BC000BBE0029EF8DF084FFADF022E4CC65
:100C8300F875F008EF2FFFEE33FEEC33FCEE9DEC2E
:100C9300984005FCEE9DFE0FD5F0E9E4CEFD22ED74
:100CA300F8F5F0EE8420D21CFEADF075F008EF2FBE
:100CB300FFED33FD4007985006D5F0F222C398FDAF
:050CC3000FD5F0EA224C
:100CC800C5F0F8A3E028F0C5F0F8E58215827002B7
:060CD8001583E038F02254
:00000001FF
