:100E7500D5E3BDADB4F3D1A7B9E2B5E7D1A7D4BAEF
:100E850000B5E7D7D3CFDFC2B7C9E8BCC60038374E
:100E950039353131393700D2BABEA7CFD4CABEB33E
:100EA500C9B9A600B2CBB5A500312EB2A5B7C5D23A
:100EB500F4C0D600322EB5AFD7E0C4A3CABD003307
:100EC5002ECFC2D2BBD2B300342EC2BCD2F4C4A33F
:100ED500CABD00352EB2A5B7C5C2BCD2F400362EA8
:100EE500C9CFD2BBD2B300D2F4C0D6B2A5B7C50024
:100EF500D1DDD7E0C4A3CABD00322EBDB5B5CDD274
:100F0500F4B8DF00332ECCE1B8DFD2F4B8DF00B09F
:100F1500B4C8CED2E2BCFCB7B5BBD800D2F4B8DFBA
:100F2500D2D1BEADCAC7D7EEB5CDC1CB00D2F4B8CC
:100F3500DFD2D1BEADCAC7D7EEB8DFC1CB00C2BCC8
:100F4500D2F4C4A3CABD00312EBFAACABCC2BCD24A
:100F5500F400B0B4C6E4CBFBBCFCB7B5BBD800C24B
:100F6500BCD2F4D6D000322EBDE1CAF8C2BCD2F450
:100F750000C2BCD2F4CDEAB3C900B2A5B7C5C2BCA4
:100F8500D2F4001C80204026202B40302039A04080
:100F950020394030402B4030202B40268020202611
:100FA50020202026201CFE20FE392026202B20264E
:100FB50010203026202B202624392026202B2026E1
:100FC50010203026202B202624392026202B2026D1
:100FD50010203026202B202624392026202B2026C1
:100FE50010203026202B20260BFF260BFF26A030B5
:100FF500202020241026B030202020241026101C6C
:101005002026202B202B202B1030102B10302026B3
:10101500E0260BFF260BFF26A030202020241026DB
:10102500B030202020241026301C2026202B202BF9
:0F103500202B1030102B10300BFF301030FF002D
:101A42004505FF00BBF8C4A75501FB60564C484052
:101A52003932302B2624201C1918151312100E0DA2
:101A62004401F740E000004101F60141000001425B
:0D1A720005FBFFFF4205FD00004105F900E6
:03000B00021BDCF9
:101BDC00C0E0C083C082758CDC758A00900001E087
:091BEC0004F0D082D083D0E03275
:101B0C00900604EFF0A3ECF0A3EDF0800E90060429
:101B1C00E05580600BB2C5A3121AB27580FF80ED40
:071B2C009001F67401F022A4
:10113800E4F5C975CA3075B3C0F5B4F5B1F5B212A6
:101148001A8090062574FFF0A3740EF0A37475F04E
:101158007B10E4FD7F011218EB90062574FFF0A3C5
:10116800740EF0A37486F07B0C7D017F021218EBDD
:1011780090062574FFF0A3740EF0A37493F07B0817
:101188007D027F031218EB90062574FFF0A3740EFE
:10119800F0A3749CF07B0C7D017F041218EB121BEA
:1011A800F5E4F5B3F5B4121A809000001213047533
:1011B80090F0121BF5E59054F064F060F57F647EC2
:1011C80000121AC3E59054F064F0604412170190BD
:1011D80004FEEFF024F4601614601814601C24F95F
:1011E800601D146022240B7027121B7D80141203CB
:1011F8002C800F900000E004801212093680031240
:1012080014989000008006900000E014F012130477
:091218007FC47E09121AC38099FB
:0D1C0B0075890175A882758CDCE4F58A22CC
:101BF500E5C030E604D2CC8002C2CCE5C030E703B4
:061C0500D2CD22C2CD2267
:100BFE0090060AE4F0A304F0E4A3F0A3F074FF2F30
:100C0E00F582E43405F583E0FF7E00900608EEF0F1
:100C1E00A3EFF0900606EEF0A3EFF012000E900692
:100C2E00257401F0A37402F0A37410F0A3E4F0A3F2
:100C3E007410F07B017A06790E12188390062574D3
:100C4E0001F0A37406F0A3740EF07B10E4FD7F0296
:100C5E001218EB9006257401F0A37400F0A374FC37
:100C6E00F0A3E4F0A37410F07B017A06790E12184B
:100C7E00839006257401F0A37406F0A3740EF07B26
:100C8E0010E4FD7F031218EB9006257401F0A37497
:100C9E0000F0A37402F0A3E4F0A37410F07B017AC9
:100CAE0006790E1218839006257401F0A37406F0CF
:100CBE00A3740EF07B10E4FD7F041218EB020E5E9F
:100CCE00900606E475F00112087CFE748825F0F596
:100CDE0082740F3EF583E493900604F0E0F4700AFC
:100CEE00C28C7F64FE121AC380D6900604E0700395
:100CFE00020E74900606E475F00112087CFE7488EC
:100D0E0025F0F582740F3EF583E493900605F0D23C
:100D1E008CB2C5900604121ABF900001E0FF900637
:100D2E0005E06F6003020E66900608E0FEA3E0FF8A
:100D3E00C3900607E09FFF900606E09EFEEF25E0BB
:100D4E00FFEE33FE740A2FF58274033EF583E0FC4A
:100D5E00A3E0FD90060BE0C4F8540FC868FF9006A0
:100D6E000AE0C454F048FED3ED9FEC9E5003020EF1
:100D7E005E90060DE02410F090060CE03400F0902A
:100D8E00060BE004F0700690060AE004F090060CE4
:100D9E00E0FEA3E02410F974023EFA9006257401D9
:100DAE00F0A3EAF0A3E9F0A3E4F0A37410F07B0142
:100DBE007A06790E1218839006257401F0A3740634
:100DCE00F0A3740EF07B10E4FD7F021218EB900678
:100DDE000CE0FEA3E024FCF974003EFA90062574A4
:100DEE0001F0A3EAF0A3E9F0A3E4F0A37410F07B02
:100DFE00017A06790E1218839006257401F0A374F9
:100E0E0006F0A3740EF07B10E4FD7F031218EB9036
:100E1E00060CE0FEA3E02402F974003EFA900625CB
:100E2E007401F0A3EAF0A3E9F0A3E4F0A37410F0C8
:100E3E007B017A06790E1218839006257401F0A3B1
:100E4E007406F0A3740EF07B10E4FD7F041218EB11
:100E5E00E4900001F0020CCE7590F0E59054F06431
:060E6E00F07003020D1FED
:010E7400225B
:091C230075B0FFE5B054F0FF229A
:10170100E4900607F0A3F07590F0E59054F0FF54D3
:10171100F064F07002FF2275900FE590540F4FF4C2
:101721001208AC175811176412177014177C181788
:101731005B21176722177324177F28175E41176AE9
:1017410042177644178248176181176D8217798491
:10175100178588000017887F0B227F0C227F0D22BE
:101761007F0E227F15227F16227F17227F18227F6C
:101771001F227F20227F21227F22227F29227F2A6E
:09178100227F2B227F2C227F0025
:01178A00223C
:101AB200E0FEA3E024FAF58274013EF583E0FF7EA6
:011AC2000023
:101AC300E4FDFCC3ED9FEC9E5015E4FBFA0BBB0059
:0F1AD300010AEB64024A70F50DBD00010C80E4BE
:011AE20022E1
:06130400E0FF3395E0FE5E
:10130A00900604EEF0A3EFF0121A80900604E0FEB5
:10131A00A3E0FFEE60030213DEEF24FE605A0460CE
:10132A00030213DE90062574FFF0A3740EF0A37473
:10133A00A9F07B047D037F011218EB90062574FF48
:10134A00F0A3740EF0A374AEF07B0AE4FD7F0212E0
:10135A0018EB90062574FFF0A3740EF0A374B9F08D
:10136A007B0AE4FD7F031218EB90062574FFF0A3B5
:10137A00740EF0A374C4805290062574FFF0A3740F
:10138A000EF0A374A9F07B047D037F011218EB9081
:10139A00062574FFF0A3740EF0A374CDF07B0AE463
:1013AA00FD7F021218EB90062574FFF0A3740EF06D
:1013BA00A374D8F07B0AE4FD7F031218EB9006258C
:1013CA0074FFF0A3740EF0A374E3F07B08E4FD7FCE
:0513DA00041218EB22D3
:101B7D00121A8090062574FFF0A3740EF0A374EC76
:101B8D00F07B087D027F011218EB121C0BE4FF02A3
:021B9D000BFE3D
:10032C00121BF5121A8090062574FFF0A3740EF0C0
:10033C00A374F5F07B087D027F011218EBE4FFFE3D
:10034C00FDFC9001F7E0F8A3E0F9A3E0FAA3E0FBD1
:10035C0012072A601790062574FFF0A3740EF0A301
:10036C0074FEF07B0AE4FD7F021218EBE4FFFE7DC5
:10037C00607C419001F7E0F8A3E0F9A3E0FAA3E078
:10038C00FB12072A601790062574FFF0A3740FF078
:10039C00A37409F07B0AE4FD7F031218EB90062589
:1003AC0074FFF0A3740FF0A37414F07B0C7D017F29
:1003BC00041218EB7590F0E59054F064F0700302A1
:1003CC00050D7F647E00121AC3E59054F064F07042
:1003DC00030205061217019004FEEFF024F37003DC
:1003EC0002047A0460030206319001F6E070030205
:1003FC000506E4FFFEFDFCA3E0F8A3E0F9A3E0FA98
:10040C00A3E0FB12072A6020401E9001F7E0FCA33A
:10041C00E0FDA3E0FEA3E0FFE4FBFA79E0784012F4
:10042C0006359001F71208A0E4FFFEFDFC9001F7E1
:10043C00E0F8A3E0F9A3E0FAA3E0FB12072A701797
:10044C0090062574FFF0A3740FF0A37421F07B10B9
:10045C00E4FD7F021218EB90062574FFF0A3740FD5
:10046C00F0A37409F07B0AE4FD7F030204FE900103
:10047C00F6E07003020506E4FFFE7D607C41A3E01C
:10048C00F8A3E0F9A3E0FAA3E0FB12072A501E90B0
:10049C0001F7E0FCA3E0FDA3E0FEA3E0FFE4FBFA20
:1004AC0079E078401206399001F71208A0E4FFFEBB
:1004BC007D607C419001F7E0F8A3E0F9A3E0FAA39A
:1004CC00E0FB12072A701790062574FFF0A3740F37
:1004DC00F0A37432F07B10E4FD7F031218EB90064E
:1004EC002574FFF0A3740EF0A374FEF07B0AE4FDF8
:1004FC007F021218EBE49001F6F07F647E00121A72
:10050C00C37580FFE58030E024E4FFFE7DE07C4095
:10051C009001F7E0F8A3E0F9A3E0FAA3E0FB1206E0
:10052C00391207A3AD07AC067F0102062BE580301C
:10053C00E124E4FFFE7DC07C409001F7E0F8A3E0ED
:10054C00F9A3E0FAA3E0FB1206391207A3AD07AC3E
:10055C00067F0202062BE58030E224E4FFFE7DA03C
:10056C007C409001F7E0F8A3E0F9A3E0FAA3E0FBEC
:10057C001206391207A3AD07AC067F0402062BE561
:10058C008030E323E4FFFE7D807C409001F7E0F8AF
:10059C00A3E0F9A3E0FAA3E0FB1206391207A3AD1E
:1005AC0007AC067F088078E58030E423E4FFFE7D0D
:1005BC00407C409001F7E0F8A3E0F9A3E0FAA3E057
:1005CC00FB1206391207A3AD07AC067F108050E56D
:1005DC008030E522E4FFFEFD7C409001F7E0F8A3BB
:1005EC00E0F9A3E0FAA3E0FB1206391207A3AD076A
:1005FC00AC067F208029E58020E6030203C0E4FFDF
:10060C00FE7D807C3F9001F7E0F8A3E0F9A3E0FACF
:10061C00A3E0FB1206391207A3AD07AC067F40120C
:06062C001B0C0203C022BA
:10093600E4900604F0A3F0A3F09005FDF0A3F07494
:10094600FF9005FBF0A3F0E49005F9F0121BF512F9
:100956001A8090062574FFF0A3740FF0A37443F079
:100966007B087D027F011218EB90062574FFF0A329
:10097600740FF0A3744CF07B0AE4FD7F021218EBAF
:1009860090062574FFF0A3740FF0A37457F07B0C48
:100996007D017F041218EB900604E070387590F024
:1009A600E59054F064F060EF7F647E00121AC3E5B0
:1009B6009054F064F060151217019004FEEFF024D5
:1009C600F56003020BFD9006047401F07F647E005F
:1009D600121AC380C27E007FFA7D007B017A0479F9
:1009E600FF1208D290062574FFF0A3740FF0A374CB
:1009F60064F07B06E4FD7F021218EB90062574FF77
:100A0600F0A3740FF0A3746BF07B0AE4FD7F03126E
:100A160018EBE4900001F0121C0B7590F0E5905471
:100A2600F064F0606D7F647E00121AC3E59054F0A6
:100A360064F060571217019004FEEFF024F460038F
:100A4600020BFD90062574FFF0A3740FF0A37476D5
:100A5600F07B08E4FD7F031218EB9005F9E0FF90A8
:100A66000605E0FCA3E0FD24FFF58274043CF58353
:100A7600EFF09005FBA3E0FFA3A3E0C39FFF740084
:100A86002DF58274053CF583EFF0227F647E00121B
:100A96001AC37580FFE58030E02CE4FFFE7DE07C24
:100AA600409001F7E0F8A3E0F9A3E0FAA3E0FB1217
:100AB60006391207A3AD07AC06900605E0FAA3E0D7
:100AC600FB7F01020BEFE58030E12CE4FFFE7DC0E9
:100AD6007C409001F7E0F8A3E0F9A3E0FAA3E0FB7D
:100AE6001206391207A3AD07AC06900605E0FAA375
:100AF600E0FB7F02020BEFE58030E22CE4FFFE7D97
:100B0600A07C409001F7E0F8A3E0F9A3E0FAA3E0A7
:100B1600FB1206391207A3AD07AC06900605E0FAEC
:100B2600A3E0FB7F04020BEFE58030E32CE4FFFE3D
:100B36007D807C409001F7E0F8A3E0F9A3E0FAA3FA
:100B4600E0FB1206391207A3AD07AC06900605E0D6
:100B5600FAA3E0FB7F08020BEFE58030E42BE4FF0D
:100B6600FE7D407C409001F7E0F8A3E0F9A3E0FAAF
:100B7600A3E0FB1206391207A3AD07AC06900605E3
:100B8600E0FAA3E0FB7F108060E58030E52AE4FF11
:100B9600FEFD7C409001F7E0F8A3E0F9A3E0FAA39C
:100BA600E0FB1206391207A3AD07AC06900605E076
:100BB600FAA3E0FB7F208031E58020E603020A20CD
:100BC600E4FFFE7D807C3F9001F7E0F8A3E0F9A307
:100BD600E0FAA3E0FB1206391207A3AD07AC0690B4
:100BE6000605E0FAA3E0FB7F40121548900605EEE5
:070BF600F0A3EFF0020A205A
:010BFD0022D5
:10154800900607ECF0A3EDF0A3EAF0A3EBF0A907EF
:101558009005FBE0FEA3E0FFF47002EEF4602B9030
:1015680005F9E0FD900609E0FAA3E0FB24FFF58207
:1015780074043AF583EDF0900001E0C39FFF740016
:101588002BF58274053AF583EFF07580FF90000122
:10159800E0FF9005FBE4F0A3EFF0E58059600DB2A1
:1015A800C5900607121AB27580FF80EE900001E020
:1015B800FF9005FDE4F0A3EFF0900607E0FEA3E03E
:1015C80024FAF58274013EF583E09005F9F090065F
:0D15D8000AE02402FF900609E03400FE2224
:10149800121BF5121A8090062574FFF0A3740FF042
:1014A800A3747FF07B087D027F011218EB9006255C
:1014B80074FFF0A3740FF0A37414F07B0C7D017F0C
:1014C800041218EBE4900001F0121C0BE4900605DE
:1014D800F0A3F0900605E475F00112087CFE74FF95
:1014E80025F0F58274043EF583E0F9F4700AC28CA5
:1014F8007F64FE121AC380DBE96044900605E47538
:10150800F00112087CFE74FF25F0F58274043EF5A4
:1015180083E0900604F0D28CB2C5E9FF7E00121A6F
:10152800C3900001E0FF900604E0B50707E49000CF
:0F15380001F0809F7590F0E59054F064F060D959
:011547002281
:08000E00900622EEF0A3EFF0D2
:10001600900626EEF0A3EFF0E4A3F0A3F00203129D
:10002600900624E0F9700302032B900628E0FCA357
:10003600E0FD900622E0FEA3E0FFC3900627E09FC6
:10004600FF900626E09EFEEF25E0FFEE33FE740AE3
:100056002FF58274033EF583ECF0A3EDF0E9120868
:10006600AC01290D01140E00FF1000EA1200D51391
:1000760000C01500AA1801291901141C00FF200050
:10008600EA2400D52600C02B00AA3001293201142B
:100096003900FF4000EA4800D54C00C05600AA606F
:1000A6000000013E900628E0FEA3E024FCF58274E1
:1000B600003EF5837431F002014F900628E0FEA35E
:1000C600E024FCF58274003EF5837432F0807A9069
:1000D6000628E0FEA3E024FCF58274003EF5837456
:1000E60033F08065900628E0FEA3E024FCF58274D8
:1000F600003EF5837434F08050900628E0FEA3E0BD
:1001060024FCF58274003EF5837435F0803B90063E
:1001160028E0FEA3E024FCF58274003EF5837436E5
:10012600F08026900628E0FEA3E024FCF582740009
:100136003EF5837437F08011900627E004F07006D0
:10014600900626E004F0020312900624E0FFF47005
:1001560003020026C3EF943274809480401D9006FB
:1001660028E0FEA3E0FF2402F58274003EF58374C6
:100176002EF074102FF58274028035900624E0D399
:10018600941874809480900628E0FEA3E0FF500D3A
:100196002410F58274023EF583742E800B2410F52C
:1001A6008274023EF5837420F074022FF582740087
:1001B6003EF5837420F0900627E004F07006900662
:1001C60026E004F0900626E0FEA3E02488F582747B
:1001D6000F3EF583E493FF900625F07E00642070C1
:1001E6002D900627E004F07006900626E004F090B5
:1001F6000629E004F07006900628E004F090062632
:10020600E0FCA3E02488F582740F3C020320EF642F
:10021600104E7016900628E0FEA3E02402F58274C4
:10022600003EF583742DF00202F6900625E0FF7E6F
:100236000064087016900628E0FCA3E02402F5820C
:1002460074003CF583743DF00202F6EF64304E70A4
:100256003E900629E004F07006900628E004F0902F
:100266000628E0FEA3E0FF24FCF58274003EF58339
:10027600742EF074022FF58274003EF5837420F01C
:1002860074102FF58274023EF5837420F08061901D
:100296000625E0C39440748094804054804C9006B8
:1002A60025E0C39420748094804045900629E0049C
:1002B600F07006900628E004F0900628E0FEA3E021
:1002C600FF24FCF58274003EF583742DF074022F32
:1002D600F58274003EF5837420F074102FF5827455
:1002E600023EF5837420F0900625E024E0F080AE0F
:1002F600900627E004F07006900626E004F09006CB
:1003060029E004F07006900628E004F0900626E046
:10031600FEA3E02488F582740F3EF583E4939006ED
:0503260024F002002696
:01032B0022AF
:101B5A00C2C2C2C0D2C1121B36D2C2E4F596F595F2
:101B6A0090062AE5A0F0121B36C2C290062AE0208F
:021B7A00E7DEA4
:011B7C002246
:101A0200FEEF8EF0A47C002DFFEC35F0FEE0FBA390
:0D1A1200E0FAA3E0F98F828E8312083DFFF9
:101A1F00900629EFF0121B5AD2C2D2C0C2C17596DE
:101A2F00FFE4F595900629121B33C2C27F147E0086
:031A3F00021B3A4D
:061AE300900649E02FFF10
:101AE900900629EFF0121B5AD2C2C2C0C2C1759624
:101AF900FFE4F595900629121B33C2C27F147E00BC
:031B0900021B3A82
:0B195200900640EBF0A3EAF0A3E9F0E0
:10195D00121AE9E4900644F0900643E0FFA3E0FE7E
:10196D00C39F503F900640E0FBA3E0FAA3E0F9755A
:10197D00F002EEA4F58285F083121A1B900640E06A
:10198D00FBA3E0FAA3E0F9900644E075F002A4246D
:10199D0001F582E435F0F583121A1B900644E0043C
:0319AD00F080B512
:0119B0002214
:0718EB00900624EBF0AC07AE
:1018F200ECFB7A0064017007ED2480900628F0EB7F
:1019020064024A7007ED2490900628F0EC6403709C
:1019120007ED2488900628F0EC64047007ED249803
:10192200900628F0900628E0FF121AE9900624E0BB
:10193200601DA3E0FBA3E475F00112087CA9F0FA94
:0F194200120824FF121A1F900624E014F080DD13
:011951002273
:05178B00900645EFF09F
:10179000E4A3F0900646E0FFC39402748094805066
:1017A00036900645E02FFF121AE97FFF121A1FE458
:1017B000FF121A1F900646E004F0E0FF900645E095
:1017C0002FFF121AE9E4FF121A1FE4FF121A1F90EA
:1017D0000646E004F080BC9006467402F09006468F
:1017E000E0FFC3941074809480501B900645E02F56
:1017F000FF121AE9E4FF121A1FE4FF121A1F9006E3
:0618000046E004F080D771
:0118060022BF
:05180700900647EFF020
:10180C00E4A3F0900648E0FFC394047480948050E5
:10181C0036900647E02FFF121AE97FFF121A1FE4D9
:10182C00FF121A1F900648E004F0E0FF900647E014
:10183C002FFF121AE9E4FF121A1FE4FF121A1F906D
:10184C000648E004F080BC9006487404F09006480A
:10185C00E0FFC3941074809480501B900647E02FD7
:10186C00FF121AE9E4FF121A1FE4FF121A1F900666
:06187C0048E004F080D7F3
:011882002243
:05122100900649EFF00A
:10122600E4A3F090064AE0FFC394027480948050D1
:101236002A121AE37FFF121A1FE4FF121A1F9006E2
:101246004AE004F0E0FF121AE3E4FF121A1FE4FF7B
:10125600121A1F90064AE004F080C890064A7402EB
:10126600F090064AE0FFC3940674809480501512ED
:101276001AE3E4FF121A1FE4FF121A1F90064AE04F
:1012860004F080DD900649E02406FF121AE97F1873
:10129600121A1FE4FF121A1F900649E02407FF12D4
:1012A6001AE97F3C121A1FE4FF121A1F900649E042
:1012B6002408FF121AE97F3C121A1FE4FF121A1FB4
:1012C600900649E02409FF121AE97F18121A1FE452
:1012D600FF121A1F90064A740AF090064AE0FFC3EE
:1012E6009410748094805015121AE3E4FF121A1FAA
:0D12F600E4FF121A1F90064AE004F080DDAC
:0113030022C7
:0510440090064BEFF0E7
:10104900E4A3F090064CE0FFC394047480948050AC
:101059003690064BE02FFF121AE97FFF121A1FE4A0
:10106900FF121A1F90064CE004F0E0FF90064BE0D7
:101079002FFF121AE9E4FF121A1FE4FF121A1F9038
:10108900064CE004F080BC90064BE02404FF121AE1
:10109900E9E4FF121A1FE4FF121A1F90064BE0241D
:1010A90005FF121AE9E4FF121A1FE4FF121A1F9032
:1010B900064BE02406FF121AE97F18121A1FE4FFF3
:1010C900121A1F90064BE02407FF121AE97F3C12FF
:1010D9001A1FE4FF121A1F90064BE02408FF121A88
:1010E900E97F3C121A1FE4FF121A1F90064BE024F5
:1010F90009FF121AE97F18121A1FE4FF121A1F902A
:10110900064C740AF090064CE0FFC3941074809466
:1011190080501B90064BE02FFF121AE9E4FF121AC8
:0E1129001FE4FF121A1F90064CE004F080D75E
:011137002295
:1019B1007F34121AE97F36121AE9E490064DF0904D
:1019C100064DE0FFC39420748094805033EF24804F
:1019D100FF121AE97F80121AE9E490064EF0900690
:1019E1004EE0C3942074809480500DE4FF121A1FBE
:1019F10090064EE004F080E690064DE004F080BFD2
:011A010022C2
:0B13DF0090062CEFF0A3EDF0A3EBF064
:1013EA007F34121AE97F36121AE9E4900634F09033
:1013FA00062EE0FF900634E0FEC39F4003021493DA
:10140A0090062CE02EFF121AE97F80121AE9E49066
:10141A000635F090062DE0FF900635E0FDC39F509B
:10142A0012900634E090062F121A02900635E00454
:10143A00F080E0E4900632F0A3F090062DE0F9FF88
:10144A00900632E0FAA3E0FBC39FEA940050319081
:10145A00062EE0FF900634E02FFFE433FEE9FD7C20
:10146A000012086AEB2FFFEA3EFE90062F121A0FAF
:10147A00900633E004F07006900632E004F080BA79
:0E148A00900634E004F00213F97F30021AE9F4
:101BBF0090064FEFF0A3EDF07F34121AE990065024
:0D1BCF00E0FF121AE990064FE0FF021AE94C
:0B15E500900636EFF0A3EDF0A3EBF052
:1015F000E490063DF0900639E0FF90063DE0FEC322
:101600009F5068EEFF900637E0FD2FFFE433FEC3E6
:10161000EF9420EE64809480900636E0500BC45422
:101620000F2480FFED2480800AC4540F2488FFA378
:10163000E02460FE90063DE02EFD121BBFE4900604
:101640003EF0900638E0FF90063EE0FDC39F50124A
:1016500090063DE090063A121A0290063EE004F031
:1016600080E090063DE004F00215F57F36121AE99D
:051670007F30021AE9C1
:101A8000D2C3121B367F30121AE9121B367F0212A4
:101A90001AE9121B367F0C121AE9121B367F061246
:101AA0001AE9121B367F80121AE9121B367F0102D7
:021AB0001AE931
:101B9F00AD07AC06ECC313ED1375F008A42480FF5A
:101BAF00ED5401C454F02FFF121AE97F0F021AE906
:071B3300E0F5A07F147E0025
:101B3A00E4FDFCC3ED9FEC9E5015E4FBFA0BBB00E1
:0F1B4A00010AEB64784A70F50DBD00010C80E4D0
:011B59002269
:0A1C1800E4FEEEC39F50030E80F8B7
:011C2200229F
:1006320002080FE86480F8E933E83360110460F0DF
:10064200ED33EC337009E8FCE9FDEAFEEBFF22042E
:1006520060DED3EB9FEA9EE99DE8C2E78CF0C2F729
:1006620095F0400CE8CCF8E9CDF9EACEFAEBCFFBF5
:100672001207DA85D0F05804700320D5B3E804706D
:10068200075002B2D502081992D5EC0460F7E4CC07
:10069200C0E0C398F8603B94186008400DD0E0FBBE
:1006A2000207F1E4FBFAC9FC8028E830E406E4C959
:1006B200FBE4CAFCE830E305E4C9CACBFCE8540712
:1006C2006010F8C3E913F9EA13FAEB13FBEC13FC1D
:1006D200D8F130F52FC3E49CFCEF9BFFEE9AFEEDC0
:1006E20099FDD0E0FBEF4E4D4C701222DB03020865
:1006F20016EC2CFCEF33FFEE33FEED33FDED30E76D
:10070200EB0207F1EF2BFFEE3AFEED39FDD0E0FBF5
:1007120050130BBB0003020819ED13FDEE13FEEF9D
:0807220013FFEC13FC0207F1C8
:10072A0074F8CC6480CCC86480C8F58204604FC376
:10073A00EB9FF5F0EA9E42F0E99D42F0E89C45F015
:10074A00603C501DE5825FFFE582D313CB5BCBF49F
:10075A002B5582FB50280ABA002409B900200880C8
:10076A001DE5825BFBE582D313CF5FCFF4C3132F62
:10077A005582FF50090EBE00050DBD00010CC3EBEA
:10078A009FF5F0EA9E42F0E99D42F0E89C45F06050
:09079A0007CC4820E701B3EC2272
:1007A300EDD2E7CD33EC3392D524814006E4FFFE4E
:1007B300FDFC22FCE4CFCECDCC24E0501174FF80AD
:1007C300EDC3CC13CCCD13CDCE13CECF13CF04704A
:0707D300F030D5DE020892B0
:1007DA00E9D2E7C933E833F892D5EDD2E7CD33EC65
:0707EA0033FC5002B2D522DE
:1007F100EC30E7100FBF000C0EBE00080DBD000469
:100801000BEB6014A2D5EB13FCED92E7FD2274FF14
:10081100FCFDFEFF22E480F8A2D574FF13FC7D806D
:03082100E480EF81
:0300000002167570
:0C167500787FE4F6D8FD7581070216BCF2
:10082400BB010689828A83E0225002E722BBFE02D2
:09083400E32289828A83E4932205
:10083D00BB010CE58229F582E5833AF583E0225070
:10084D0006E92582F8E622BBFE06E92582F8E222BA
:0D085D00E58229F582E5833AF583E49322D4
:10086A00EF8DF0A4A8F0CF8CF0A428CE8DF0A42EA2
:02087A00FE225C
:10087C00A3F8E0C5F025F0F0E5821582700215832F
:06088C00E0C838F0E8228C
:0E089200C3E49FFFE49EFEE49DFDE49CFC2277
:0C08A000ECF0A3EDF0A3EEF0A3EFF022CB
:1008AC00D083D082F8E4937012740193700DA3A3DB
:1008BC0093F8740193F5828883E4737402936860EF
:0608CC00EFA3A3A380DFEF
:10188300900622EBF0A3EAF0A3E9F0E490062AF035
:10189300A3F090062874FFF5F012087C45F0603C35
:1018A300900625E0FBA3E0FAA3E0F9120824FF90D9
:1018B3000622E0FBA3E0FAA3E0F990062AE475F020
:1018C3000112087C85F082F583EF1208FEEF60C2F7
:1018D300900626E475F00112092080B6900622E0F6
:0818E300FBA3E0FAA3E0F922E7
:1008D200EF4E6012EF60010EEDBB010B89828A833D
:1008E200F0A3DFFCDEFA2289F05007F709DFFCA94A
:0C08F200F022BBFEFCF309DFFCA9F022A1
:10168100021138E493A3F8E493A34003F68001F236
:1016910008DFF48029E493A3F85407240CC8C3336A
:1016A100C4540F4420C8834004F456800146F6DF39
:1016B100E4800B0102040810204080901A42E47E6D
:1016C100019360BCA3FF543F30E509541FFEE4932E
:1016D100A360010ECF54C025E060A840B8E493A3F5
:1016E100FAE493A3F8E493A3C8C582C8CAC583CA20
:1016F100F0A3C8C582C8CAC583CADFE9DEE780BED8
:011A7F000066
:1008FE00F8BB010DE58229F582E5833AF583E8F030
:10090E00225006E92582C8F622BBFE05E92582C8DB
:02091E00F222C3
:10092000C5F0F8A3E028F0C5F0F8E5821582700262
:060930001583E038F022FF
:00000001FF
